{"abi":[{"type":"constructor","inputs":[],"stateMutability":"nonpayable"},{"type":"fallback","stateMutability":"nonpayable"},{"type":"function","name":"UPGRADE_INTERFACE_VERSION","inputs":[],"outputs":[{"name":"","type":"string","internalType":"string"}],"stateMutability":"view"},{"type":"function","name":"allowance","inputs":[{"name":"owner","type":"address","internalType":"address"},{"name":"spender","type":"address","internalType":"address"}],"outputs":[{"name":"","type":"uint256","internalType":"uint256"}],"stateMutability":"view"},{"type":"function","name":"approve","inputs":[{"name":"spender","type":"address","internalType":"address"},{"name":"value","type":"uint256","internalType":"uint256"}],"outputs":[{"name":"","type":"bool","internalType":"bool"}],"stateMutability":"nonpayable"},{"type":"function","name":"asset","inputs":[],"outputs":[{"name":"","type":"address","internalType":"address"}],"stateMutability":"view"},{"type":"function","name":"balanceOf","inputs":[{"name":"account","type":"address","internalType":"address"}],"outputs":[{"name":"","type":"uint256","internalType":"uint256"}],"stateMutability":"view"},{"type":"function","name":"calculateDepositFee","inputs":[{"name":"assets","type":"uint256","internalType":"uint256"}],"outputs":[{"name":"","type":"uint256","internalType":"uint256"}],"stateMutability":"view"},{"type":"function","name":"calculateMintFee","inputs":[{"name":"shares","type":"uint256","internalType":"uint256"}],"outputs":[{"name":"","type":"uint256","internalType":"uint256"},{"name":"","type":"uint256","internalType":"uint256"}],"stateMutability":"view"},{"type":"function","name":"calculateWithdrawalFee","inputs":[{"name":"assets","type":"uint256","internalType":"uint256"}],"outputs":[{"name":"","type":"uint256","internalType":"uint256"}],"stateMutability":"view"},{"type":"function","name":"config","inputs":[],"outputs":[{"name":"depositAccount","type":"address","internalType":"contract BaseAccount"},{"name":"strategist","type":"address","internalType":"address"},{"name":"depositFeeBps","type":"uint32","internalType":"uint32"},{"name":"withdrawRateBps","type":"uint32","internalType":"uint32"},{"name":"depositCap","type":"uint256","internalType":"uint256"},{"name":"feeDistribution","type":"tuple","internalType":"struct OneWayVault.FeeDistributionConfig","components":[{"name":"strategistAccount","type":"address","internalType":"address"},{"name":"platformAccount","type":"address","internalType":"address"},{"name":"strategistRatioBps","type":"uint32","internalType":"uint32"}]}],"stateMutability":"view"},{"type":"function","name":"convertToAssets","inputs":[{"name":"shares","type":"uint256","internalType":"uint256"}],"outputs":[{"name":"","type":"uint256","internalType":"uint256"}],"stateMutability":"view"},{"type":"function","name":"convertToShares","inputs":[{"name":"assets","type":"uint256","internalType":"uint256"}],"outputs":[{"name":"","type":"uint256","internalType":"uint256"}],"stateMutability":"view"},{"type":"function","name":"currentWithdrawRequestId","inputs":[],"outputs":[{"name":"","type":"uint64","internalType":"uint64"}],"stateMutability":"view"},{"type":"function","name":"decimals","inputs":[],"outputs":[{"name":"","type":"uint8","internalType":"uint8"}],"stateMutability":"view"},{"type":"function","name":"deposit","inputs":[{"name":"assets","type":"uint256","internalType":"uint256"},{"name":"receiver","type":"address","internalType":"address"}],"outputs":[{"name":"","type":"uint256","internalType":"uint256"}],"stateMutability":"nonpayable"},{"type":"function","name":"feesAccruedInAsset","inputs":[],"outputs":[{"name":"","type":"uint256","internalType":"uint256"}],"stateMutability":"view"},{"type":"function","name":"initialize","inputs":[{"name":"_owner","type":"address","internalType":"address"},{"name":"_config","type":"bytes","internalType":"bytes"},{"name":"underlying","type":"address","internalType":"address"},{"name":"vaultTokenName","type":"string","internalType":"string"},{"name":"vaultTokenSymbol","type":"string","internalType":"string"},{"name":"startingRate","type":"uint256","internalType":"uint256"}],"outputs":[],"stateMutability":"nonpayable"},{"type":"function","name":"maxDeposit","inputs":[{"name":"","type":"address","internalType":"address"}],"outputs":[{"name":"","type":"uint256","internalType":"uint256"}],"stateMutability":"view"},{"type":"function","name":"maxMint","inputs":[{"name":"","type":"address","internalType":"address"}],"outputs":[{"name":"","type":"uint256","internalType":"uint256"}],"stateMutability":"view"},{"type":"function","name":"maxRedeem","inputs":[{"name":"owner","type":"address","internalType":"address"}],"outputs":[{"name":"","type":"uint256","internalType":"uint256"}],"stateMutability":"view"},{"type":"function","name":"maxWithdraw","inputs":[{"name":"owner","type":"address","internalType":"address"}],"outputs":[{"name":"","type":"uint256","internalType":"uint256"}],"stateMutability":"view"},{"type":"function","name":"mint","inputs":[{"name":"shares","type":"uint256","internalType":"uint256"},{"name":"receiver","type":"address","internalType":"address"}],"outputs":[{"name":"","type":"uint256","internalType":"uint256"}],"stateMutability":"nonpayable"},{"type":"function","name":"name","inputs":[],"outputs":[{"name":"","type":"string","internalType":"string"}],"stateMutability":"view"},{"type":"function","name":"owner","inputs":[],"outputs":[{"name":"","type":"address","internalType":"address"}],"stateMutability":"view"},{"type":"function","name":"pause","inputs":[],"outputs":[],"stateMutability":"nonpayable"},{"type":"function","name":"previewDeposit","inputs":[{"name":"assets","type":"uint256","internalType":"uint256"}],"outputs":[{"name":"","type":"uint256","internalType":"uint256"}],"stateMutability":"view"},{"type":"function","name":"previewMint","inputs":[{"name":"shares","type":"uint256","internalType":"uint256"}],"outputs":[{"name":"","type":"uint256","internalType":"uint256"}],"stateMutability":"view"},{"type":"function","name":"previewRedeem","inputs":[{"name":"shares","type":"uint256","internalType":"uint256"}],"outputs":[{"name":"","type":"uint256","internalType":"uint256"}],"stateMutability":"view"},{"type":"function","name":"previewWithdraw","inputs":[{"name":"assets","type":"uint256","internalType":"uint256"}],"outputs":[{"name":"","type":"uint256","internalType":"uint256"}],"stateMutability":"view"},{"type":"function","name":"proxiableUUID","inputs":[],"outputs":[{"name":"","type":"bytes32","internalType":"bytes32"}],"stateMutability":"view"},{"type":"function","name":"redeem","inputs":[{"name":"shares","type":"uint256","internalType":"uint256"},{"name":"receiver","type":"string","internalType":"string"},{"name":"owner","type":"address","internalType":"address"}],"outputs":[],"stateMutability":"payable"},{"type":"function","name":"redeem","inputs":[{"name":"shares","type":"uint256","internalType":"uint256"},{"name":"receiver","type":"address","internalType":"address"},{"name":"owner","type":"address","internalType":"address"}],"outputs":[{"name":"","type":"uint256","internalType":"uint256"}],"stateMutability":"nonpayable"},{"type":"function","name":"redemptionRate","inputs":[],"outputs":[{"name":"","type":"uint256","internalType":"uint256"}],"stateMutability":"view"},{"type":"function","name":"renounceOwnership","inputs":[],"outputs":[],"stateMutability":"nonpayable"},{"type":"function","name":"symbol","inputs":[],"outputs":[{"name":"","type":"string","internalType":"string"}],"stateMutability":"view"},{"type":"function","name":"totalAssets","inputs":[],"outputs":[{"name":"","type":"uint256","internalType":"uint256"}],"stateMutability":"view"},{"type":"function","name":"totalSupply","inputs":[],"outputs":[{"name":"","type":"uint256","internalType":"uint256"}],"stateMutability":"view"},{"type":"function","name":"transfer","inputs":[{"name":"to","type":"address","internalType":"address"},{"name":"value","type":"uint256","internalType":"uint256"}],"outputs":[{"name":"","type":"bool","internalType":"bool"}],"stateMutability":"nonpayable"},{"type":"function","name":"transferFrom","inputs":[{"name":"from","type":"address","internalType":"address"},{"name":"to","type":"address","internalType":"address"},{"name":"value","type":"uint256","internalType":"uint256"}],"outputs":[{"name":"","type":"bool","internalType":"bool"}],"stateMutability":"nonpayable"},{"type":"function","name":"transferOwnership","inputs":[{"name":"newOwner","type":"address","internalType":"address"}],"outputs":[],"stateMutability":"nonpayable"},{"type":"function","name":"unpause","inputs":[],"outputs":[],"stateMutability":"nonpayable"},{"type":"function","name":"update","inputs":[{"name":"newRate","type":"uint256","internalType":"uint256"}],"outputs":[],"stateMutability":"nonpayable"},{"type":"function","name":"updateConfig","inputs":[{"name":"_config","type":"bytes","internalType":"bytes"}],"outputs":[],"stateMutability":"nonpayable"},{"type":"function","name":"upgradeToAndCall","inputs":[{"name":"newImplementation","type":"address","internalType":"address"},{"name":"data","type":"bytes","internalType":"bytes"}],"outputs":[],"stateMutability":"payable"},{"type":"function","name":"vaultState","inputs":[],"outputs":[{"name":"paused","type":"bool","internalType":"bool"},{"name":"pausedByOwner","type":"bool","internalType":"bool"}],"stateMutability":"view"},{"type":"function","name":"withdraw","inputs":[{"name":"assets","type":"uint256","internalType":"uint256"},{"name":"receiver","type":"string","internalType":"string"},{"name":"owner","type":"address","internalType":"address"}],"outputs":[],"stateMutability":"payable"},{"type":"function","name":"withdraw","inputs":[{"name":"assets","type":"uint256","internalType":"uint256"},{"name":"receiver","type":"address","internalType":"address"},{"name":"owner","type":"address","internalType":"address"}],"outputs":[{"name":"","type":"uint256","internalType":"uint256"}],"stateMutability":"nonpayable"},{"type":"function","name":"withdrawRequests","inputs":[{"name":"","type":"uint64","internalType":"uint64"}],"outputs":[{"name":"id","type":"uint64","internalType":"uint64"},{"name":"owner","type":"address","internalType":"address"},{"name":"redemptionRate","type":"uint256","internalType":"uint256"},{"name":"sharesAmount","type":"uint256","internalType":"uint256"},{"name":"receiver","type":"string","internalType":"string"}],"stateMutability":"view"},{"type":"event","name":"Approval","inputs":[{"name":"owner","type":"address","indexed":true,"internalType":"address"},{"name":"spender","type":"address","indexed":true,"internalType":"address"},{"name":"value","type":"uint256","indexed":false,"internalType":"uint256"}],"anonymous":false},{"type":"event","name":"ConfigUpdated","inputs":[{"name":"updater","type":"address","indexed":true,"internalType":"address"},{"name":"newConfig","type":"tuple","indexed":false,"internalType":"struct OneWayVault.OneWayVaultConfig","components":[{"name":"depositAccount","type":"address","internalType":"contract BaseAccount"},{"name":"strategist","type":"address","internalType":"address"},{"name":"depositFeeBps","type":"uint32","internalType":"uint32"},{"name":"withdrawRateBps","type":"uint32","internalType":"uint32"},{"name":"depositCap","type":"uint256","internalType":"uint256"},{"name":"feeDistribution","type":"tuple","internalType":"struct OneWayVault.FeeDistributionConfig","components":[{"name":"strategistAccount","type":"address","internalType":"address"},{"name":"platformAccount","type":"address","internalType":"address"},{"name":"strategistRatioBps","type":"uint32","internalType":"uint32"}]}]}],"anonymous":false},{"type":"event","name":"Deposit","inputs":[{"name":"sender","type":"address","indexed":true,"internalType":"address"},{"name":"owner","type":"address","indexed":true,"internalType":"address"},{"name":"assets","type":"uint256","indexed":false,"internalType":"uint256"},{"name":"shares","type":"uint256","indexed":false,"internalType":"uint256"}],"anonymous":false},{"type":"event","name":"FeesDistributed","inputs":[{"name":"strategistAccount","type":"address","indexed":true,"internalType":"address"},{"name":"platformAccount","type":"address","indexed":true,"internalType":"address"},{"name":"strategistShares","type":"uint256","indexed":false,"internalType":"uint256"},{"name":"platformShares","type":"uint256","indexed":false,"internalType":"uint256"}],"anonymous":false},{"type":"event","name":"Initialized","inputs":[{"name":"version","type":"uint64","indexed":false,"internalType":"uint64"}],"anonymous":false},{"type":"event","name":"OwnershipTransferred","inputs":[{"name":"previousOwner","type":"address","indexed":true,"internalType":"address"},{"name":"newOwner","type":"address","indexed":true,"internalType":"address"}],"anonymous":false},{"type":"event","name":"PausedStateChanged","inputs":[{"name":"paused","type":"bool","indexed":false,"internalType":"bool"}],"anonymous":false},{"type":"event","name":"RateUpdated","inputs":[{"name":"newRate","type":"uint256","indexed":false,"internalType":"uint256"}],"anonymous":false},{"type":"event","name":"Transfer","inputs":[{"name":"from","type":"address","indexed":true,"internalType":"address"},{"name":"to","type":"address","indexed":true,"internalType":"address"},{"name":"value","type":"uint256","indexed":false,"internalType":"uint256"}],"anonymous":false},{"type":"event","name":"Upgraded","inputs":[{"name":"implementation","type":"address","indexed":true,"internalType":"address"}],"anonymous":false},{"type":"event","name":"Withdraw","inputs":[{"name":"sender","type":"address","indexed":true,"internalType":"address"},{"name":"receiver","type":"address","indexed":true,"internalType":"address"},{"name":"owner","type":"address","indexed":true,"internalType":"address"},{"name":"assets","type":"uint256","indexed":false,"internalType":"uint256"},{"name":"shares","type":"uint256","indexed":false,"internalType":"uint256"}],"anonymous":false},{"type":"event","name":"WithdrawRequested","inputs":[{"name":"id","type":"uint64","indexed":true,"internalType":"uint64"},{"name":"owner","type":"address","indexed":false,"internalType":"address"},{"name":"receiver","type":"string","indexed":false,"internalType":"string"},{"name":"shares","type":"uint256","indexed":false,"internalType":"uint256"}],"anonymous":false},{"type":"error","name":"AddressEmptyCode","inputs":[{"name":"target","type":"address","internalType":"address"}]},{"type":"error","name":"ERC1967InvalidImplementation","inputs":[{"name":"implementation","type":"address","internalType":"address"}]},{"type":"error","name":"ERC1967NonPayable","inputs":[]},{"type":"error","name":"ERC20InsufficientAllowance","inputs":[{"name":"spender","type":"address","internalType":"address"},{"name":"allowance","type":"uint256","internalType":"uint256"},{"name":"needed","type":"uint256","internalType":"uint256"}]},{"type":"error","name":"ERC20InsufficientBalance","inputs":[{"name":"sender","type":"address","internalType":"address"},{"name":"balance","type":"uint256","internalType":"uint256"},{"name":"needed","type":"uint256","internalType":"uint256"}]},{"type":"error","name":"ERC20InvalidApprover","inputs":[{"name":"approver","type":"address","internalType":"address"}]},{"type":"error","name":"ERC20InvalidReceiver","inputs":[{"name":"receiver","type":"address","internalType":"address"}]},{"type":"error","name":"ERC20InvalidSender","inputs":[{"name":"sender","type":"address","internalType":"address"}]},{"type":"error","name":"ERC20InvalidSpender","inputs":[{"name":"spender","type":"address","internalType":"address"}]},{"type":"error","name":"ERC4626ExceededMaxDeposit","inputs":[{"name":"receiver","type":"address","internalType":"address"},{"name":"assets","type":"uint256","internalType":"uint256"},{"name":"max","type":"uint256","internalType":"uint256"}]},{"type":"error","name":"ERC4626ExceededMaxMint","inputs":[{"name":"receiver","type":"address","internalType":"address"},{"name":"shares","type":"uint256","internalType":"uint256"},{"name":"max","type":"uint256","internalType":"uint256"}]},{"type":"error","name":"ERC4626ExceededMaxRedeem","inputs":[{"name":"owner","type":"address","internalType":"address"},{"name":"shares","type":"uint256","internalType":"uint256"},{"name":"max","type":"uint256","internalType":"uint256"}]},{"type":"error","name":"ERC4626ExceededMaxWithdraw","inputs":[{"name":"owner","type":"address","internalType":"address"},{"name":"assets","type":"uint256","internalType":"uint256"},{"name":"max","type":"uint256","internalType":"uint256"}]},{"type":"error","name":"FailedCall","inputs":[]},{"type":"error","name":"InvalidInitialization","inputs":[]},{"type":"error","name":"NotInitializing","inputs":[]},{"type":"error","name":"OwnableInvalidOwner","inputs":[{"name":"owner","type":"address","internalType":"address"}]},{"type":"error","name":"OwnableUnauthorizedAccount","inputs":[{"name":"account","type":"address","internalType":"address"}]},{"type":"error","name":"ReentrancyGuardReentrantCall","inputs":[]},{"type":"error","name":"SafeERC20FailedOperation","inputs":[{"name":"token","type":"address","internalType":"address"}]},{"type":"error","name":"UUPSUnauthorizedCallContext","inputs":[]},{"type":"error","name":"UUPSUnsupportedProxiableUUID","inputs":[{"name":"slot","type":"bytes32","internalType":"bytes32"}]}],"bytecode":{"object":"0x60a080604052346100c257306080525f5160206133395f395f51905f525460ff8160401c166100b3576002600160401b03196001600160401b03821601610060575b60405161327290816100c78239608051818181610f520152610fe30152f35b6001600160401b0319166001600160401b039081175f5160206133395f395f51905f525581527fc7f505b2f371ae2175ee4913f4499e1f2633a7b5936321eed1cdaeb6115181d290602090a15f80610041565b63f92ee8a960e01b5f5260045ffd5b5f80fdfe60806040526004361015610051575b3461004d5760405162461bcd60e51b8152602060048201526012602482015271119d5b98dd1a5bdb881b9bdd08199bdd5b9960721b6044820152606490fd5b5f80fd5b5f3560e01c806301e1d11414611c3457806306fdde0314611b7757806307a2d13a14611173578063095ea7b314611ad25780630a28a47714611aad5780630e5e1e311461144b57806318160ddd1461142257806318e1b3bb146114045780631bd9c31a1461136b57806323b872dd14611333578063247d284b146113155780632728f333146112e7578063313ce567146112c257806338d52e0f1461128e5780633f4ba83a1461119c578063402d267d146111785780634cdad506146111735780634f1ef28614610fa657806352d1902d14610f40578063540385a314610f235780635c095e5414610ef95780636e553f6514610e5357806370a08231146102d1578063715018a614610dec57806379502c5514610d2957806382ab890a14610b9b5780638456cb5914610a9e5780638cc6acce146108d95780638da5cb5b146108a557806394ba2b8d1461077d57806394bf804d146106f157806395d89b41146105fb57806399646d1c14610500578063a9059cbb146104cf578063ad3cb1cc14610484578063b3d7f6b91461045f578063b460af94146103fd578063ba08765214610386578063c63d75b614610362578063c6e6f59214610285578063cd1da35c14610345578063ce96cb7714610322578063d083b2ee146102fc578063d905777e146102d1578063dd62ed3e1461028a578063ef8b30f7146102855763f2fde38b0361000e573461004d57602036600319011261004d57610283610276611ca0565b61027e612be1565b612205565b005b611e85565b3461004d57604036600319011261004d576102a3611ca0565b6102b46102ae611cb6565b91612145565b9060018060a01b03165f52602052602060405f2054604051908152f35b3461004d57602036600319011261004d5760206102f46102ef611ca0565b61217d565b604051908152f35b3461004d575f36600319011261004d5760206001600160401b0360075416604051908152f35b3461004d57602036600319011261004d5760206102f4610340611ca0565b6121d6565b3461004d575f36600319011261004d576020600854604051908152f35b3461004d57602036600319011261004d5761037b611ca0565b5060206102f46121a3565b3461004d5761039436611e4b565b6103a08193929361217d565b8083116103db57506103b8600554600a549084612ddb565b91826102f49260209533612cf7565b634e487b7160e01b5f52601160045260245ffd5b9250632e52afbb60e21b5f5260018060a01b031660045260245260445260645ffd5b3461004d5761040b36611e4b565b9091610416826121d6565b80821161043e57506020926102f491610435600a546005549083612540565b93849233612cf7565b91633fa733bb60e21b5f5260018060a01b031660045260245260445260645ffd5b3461004d57602036600319011261004d5760206102f4600554600a5490600435612540565b3461004d575f36600319011261004d576104cb6040516104a5604082611d1d565b60058152640352e302e360dc1b6020820152604051918291602083526020830190611c4e565b0390f35b3461004d57604036600319011261004d576104f56104eb611ca0565b6024359033612a57565b602060405160018152f35b61050936611dad565b9161051261257c565b60ff600654166105c457610528848383866125b4565b6105318361217d565b8085116105a2575060055493600a549061054c828783612ddb565b9161057a9661056d916105686105618661202b565b809661204c565b612540565b918061058d575b506126b8565b60015f5160206131fd5f395f51905f5255005b61059990600854612059565b60085586610574565b8484632e52afbb60e21b5f5260018060a01b031660045260245260445260645ffd5b60405162461bcd60e51b815260206004820152600f60248201526e15985d5b1d081a5cc81c185d5cd959608a1b6044820152606490fd5b3461004d575f36600319011261004d576040515f5f51602061315d5f395f51905f525461062781611e13565b80845290600181169081156106cd5750600114610663575b6104cb8361064f81850382611d1d565b604051918291602083526020830190611c4e565b5f51602061315d5f395f51905f525f9081527f46a2803e59a4de4e7a4c574b1243f25977ac4c77d5a1a4a609b5394cebb4a2aa939250905b8082106106b35750909150810160200161064f61063f565b91926001816020925483858801015201910190929161069b565b60ff191660208086019190915291151560051b8401909101915061064f905061063f565b3461004d57604036600319011261004d5760043561070d611cb6565b9060ff600654166105c4576107206121a3565b80821161075c576020836102f484610737816120c9565b93848295610747575b5033612b3b565b61075390600854612059565b60085586610740565b9163284ff66760e01b5f5260018060a01b031660045260245260445260645ffd5b3461004d57602036600319011261004d576004356001600160401b03811680910361004d575f52600960205260405f20805460018201549160036002820154910190604051915f908054906107d182611e13565b808652916001811690811561087e575060011461083a575b5050906107fc836104cb94930383611d1d565b60405194846001600160401b03879616865260018060a01b039060401c1660208601526040850152606084015260a0608084015260a0830190611c4e565b5f9081526020812094939250905b80821061086257509192509082016020016107fc836107e9565b9192936001816020925483858901015201910190939291610848565b60ff191660208088019190915292151560051b860190920192506107fc91508490506107e9565b3461004d575f36600319011261004d575f51602061317d5f395f51905f52546040516001600160a01b039091168152602090f35b3461004d57602036600319011261004d576004356001600160401b03811161004d5761090c610923913690600401611d8f565b610914612be1565b60208082518301019101611eeb565b61092c81612276565b80515f80546001600160a01b039283166001600160a01b03199182168117909255602084018051600180546040808901805160608b0180516001600160e01b0319909516968b169690961763ffffffff60a01b60a092831b161760c09490941b63ffffffff60c01b16939093179093556080890180516002559190980180518051600380549098169916989098179095559496610a759694959463ffffffff948593929091610a179185915b602081015160048054939092015163ffffffff60a01b941660a01b939093166001600160c01b03199092166001600160a01b0390931692909217179055565b60405198895260018060a01b03905116602089015251166040870152511660608501525160808401525160a083019063ffffffff6040809260018060a01b03815116855260018060a01b036020820151166020860152015116910152565b7f30fde5ff859e9944e39ffc7be6616a8610ca56cf2e188e05fc8639fb8ccbed266101003392a2005b3461004d575f36600319011261004d575f51602061317d5f395f51905f52546001600160a01b03163314801580610b86575b610b415760019081604051610ae481611ccc565b602081019215610b39578183525b5261ff006006549151151560081b169061ffff191617176006557f9e3a5e37224532dea67b89face185703738a228a6e8a23dee546960180d3be64602060405160018152a1005b5f8352610af2565b60405162461bcd60e51b815260206004820181905260248201527f4f6e6c79206f776e6572206f72207374726174656769737420616c6c6f7765646044820152606490fd5b506001546001600160a01b0316331415610ad0565b3461004d57602036600319011261004d57600154600435906001600160a01b03163303610ce45760ff600654166105c4578015610c9f57610bda611fa5565b610be2611ea8565b5f51602061319d5f395f51905f525415610c6c5715610c39577fe65c987b2e4668e09ba867026921588005b2b2063607a1e7e7d91683c8f91b7b91610c2c60a06020930151612c14565b80600555604051908152a1005b60405162461bcd60e51b815260206004820152600b60248201526a5a65726f2061737365747360a81b6044820152606490fd5b60405162461bcd60e51b815260206004820152600b60248201526a5a65726f2073686172657360a81b6044820152606490fd5b60405162461bcd60e51b815260206004820152601e60248201527f526564656d7074696f6e20726174652063616e6e6f74206265207a65726f00006044820152606490fd5b60405162461bcd60e51b815260206004820152601760248201527f4f6e6c79207374726174656769737420616c6c6f7765640000000000000000006044820152606490fd5b3461004d575f36600319011261004d5761010060018060a01b035f5416610dea60015460025463ffffffff60405192610d6184611ce7565b60018060a01b036003541684528160045460018060a01b038116602087015260a01c16604085015260405195865260018060a01b0381166020870152818160a01c16604087015260c01c166060850152608084015260a083019063ffffffff6040809260018060a01b03815116855260018060a01b036020820151166020860152015116910152565bf35b3461004d575f36600319011261004d57610e04612be1565b5f51602061317d5f395f51905f5280546001600160a01b031981169091555f906001600160a01b03167f8be0079c531659141344cd1fd0a4f28419497f9722a3daafe3b4186f6b6457e08280a3005b3461004d57604036600319011261004d57600435610e6f611cb6565b9060ff600654166105c457610e826120a1565b808211610ed85750610eb4610e9682612066565b610ea0818461204c565b9080610ec3575b50600a5460055491612ddb565b90816102f49160209433612b3b565b610ecf90600854612059565b60085584610ea7565b91633c8097d960e11b5f5260018060a01b031660045260245260445260645ffd5b3461004d57602036600319011261004d576040610f176004356120c9565b82519182526020820152f35b3461004d575f36600319011261004d576020600554604051908152f35b3461004d575f36600319011261004d577f00000000000000000000000000000000000000000000000000000000000000006001600160a01b03163003610f975760206040515f5160206131bd5f395f51905f528152f35b63703e46dd60e11b5f5260045ffd5b604036600319011261004d57610fba611ca0565b6024356001600160401b03811161004d57610fd9903690600401611d8f565b6001600160a01b037f000000000000000000000000000000000000000000000000000000000000000016308114908115611151575b50610f975761101b612be1565b6040516352d1902d60e01b81526001600160a01b0383169290602081600481875afa5f918161111d575b5061105d5783634c9c8ce360e01b5f5260045260245ffd5b805f5160206131bd5f395f51905f5285920361110b5750813b156110f9575f5160206131bd5f395f51905f5280546001600160a01b031916821790557fbc7cd75a20ee27fd9adebab32041f755214dbc6bffa90cc0225b39da2e5c2d3b5f80a28151156110e1575f8083602061028395519101845af46110db612fb1565b916130be565b5050346110ea57005b63b398979f60e01b5f5260045ffd5b634c9c8ce360e01b5f5260045260245ffd5b632a87526960e21b5f5260045260245ffd5b9091506020813d602011611149575b8161113960209383611d1d565b8101031261004d57519085611045565b3d915061112c565b5f5160206131bd5f395f51905f52546001600160a01b0316141590508361100e565b611c72565b3461004d57602036600319011261004d57611191611ca0565b5060206102f46120a1565b3461004d575f36600319011261004d575f51602061317d5f395f51905f52546001600160a01b03163314158080611279575b610b41576020906040516111e181611ccc565b60ff6006548181161515835260081c161515928391015281611271575b50611233575f6006557f9e3a5e37224532dea67b89face185703738a228a6e8a23dee546960180d3be6460206040515f8152a1005b60405162461bcd60e51b81526020600482015260166024820152754f6e6c79206f776e65722063616e20756e706175736560501b6044820152606490fd5b9050816111fe565b506001546001600160a01b03163314156111ce565b3461004d575f36600319011261004d575f5160206131dd5f395f51905f52546040516001600160a01b039091168152602090f35b3461004d575f36600319011261004d5760206112dc612081565b60ff60405191168152f35b3461004d575f36600319011261004d57604060065460ff8251918181161515835260081c1615156020820152f35b3461004d57602036600319011261004d5760206102f4600435612066565b3461004d57606036600319011261004d576104f561134f611ca0565b611357611cb6565b604435916113668333836129b9565b612a57565b61137436611dad565b9161137d61257c565b60ff600654166105c457611393848383866125b4565b61139c836121d6565b938481116113db5761057a94506113b28161202b565b9061056d6113d56113c3848461204c565b92600a54918291600554938491612540565b93612540565b633fa733bb60e21b5f9081526001600160a01b0385166004526024919091526044859052606490fd5b3461004d57602036600319011261004d5760206102f460043561202b565b3461004d575f36600319011261004d5760205f51602061319d5f395f51905f5254604051908152f35b3461004d5760c036600319011261004d57611464611ca0565b6024356001600160401b03811161004d57611483903690600401611d8f565b6044356001600160a01b038116929083900361004d576064356001600160401b03811161004d576114b8903690600401611d8f565b926084356001600160401b03811161004d576114d8903690600401611d8f565b5f51602061321d5f395f51905f52549460ff8660401c1615956001600160401b03811680159081611aa5575b6001149081611a9b575b159081611a92575b50611a835767ffffffffffffffff1981166001175f51602061321d5f395f51905f525586611a57575b50611548612db0565b611550612db0565b8051906001600160401b03821161194057819061157a5f51602061311d5f395f51905f5254611e13565b601f81116119dd575b50602090601f831160011461195f575f92611954575b50508160011b915f199060031b1c1916175f51602061311d5f395f51905f52555b8051906001600160401b038211611940576115e25f51602061315d5f395f51905f5254611e13565b601f81116118d1575b50602090601f831160011461183f57946116a563ffffffff956040958560a0966116d5966117a09b5f92611834575b50508160011b915f199060031b1c1916175f51602061315d5f395f51905f52555b611643612db0565b61164b612db0565b61165481612fe0565b901561182c575b5f5160206131dd5f395f51905f52549060ff881b90881b16906affffffffffffffffffffff60a81b1617175f5160206131dd5f395f51905f525561169d612db0565b61027e612db0565b6116ad612db0565b6116b5612db0565b60015f5160206131fd5f395f51905f525560208082518301019101611eeb565b600180831b03600180841b03825116166bffffffffffffffffffffffff831b5f5416175f5561172b600180841b0360208301511660018060a01b03166bffffffffffffffffffffffff60a01b6001541617600155565b808301516001805463ffffffff60a01b191691861660a01b63ffffffff60a01b1691909117905560608101516001805460c087811b19909116928716901b919091179055608081015160025501518051600380546001600160a01b0319166001600160a01b03929092169190911790556109d8565b6117b06117ab611fa5565b612276565b60ff6117ba612081565b16604d81116103c757600a0a600a5560a4356005556117d557005b68ff0000000000000000195f51602061321d5f395f51905f5254165f51602061321d5f395f51905f52557fc7f505b2f371ae2175ee4913f4499e1f2633a7b5936321eed1cdaeb6115181d2602060405160018152a1005b50601261165b565b015190508c8061161a565b90601f198316915f51602061315d5f395f51905f525f52815f20925f5b8181106118b95750956040956001866116d5966117a09b966116a59660a09a63ffffffff9d106118a1575b505050811b015f51602061315d5f395f51905f525561163b565b01515f1960f88460031b161c191690558c8080611887565b9293602060018192878601518155019501930161185c565b5f51602061315d5f395f51905f525f527f46a2803e59a4de4e7a4c574b1243f25977ac4c77d5a1a4a609b5394cebb4a2aa601f840160051c81019160208510611936575b601f0160051c01905b81811061192b57506115eb565b5f815560010161191e565b9091508190611915565b634e487b7160e01b5f52604160045260245ffd5b015190508780611599565b5f51602061311d5f395f51905f525f9081528281209350601f198516905b8181106119c557509084600195949392106119ad575b505050811b015f51602061311d5f395f51905f52556115ba565b01515f1960f88460031b161c19169055878080611993565b9293602060018192878601518155019501930161197d565b5f51602061311d5f395f51905f525f529091507f2ae08a8e29253f69ac5d979a101956ab8f8d9d7ded63fa7a83b16fc47648eab0601f840160051c81019160208510611a4d575b90601f859493920160051c01905b818110611a3f5750611583565b5f8155849350600101611a32565b9091508190611a24565b68ffffffffffffffffff191668010000000000000001175f51602061321d5f395f51905f52558661153f565b63f92ee8a960e01b5f5260045ffd5b90501588611516565b303b15915061150e565b889150611504565b3461004d57602036600319011261004d5760206102f4600a5460055490600435612540565b3461004d57604036600319011261004d57611aeb611ca0565b602435903315611b64576001600160a01b0316908115611b5157611b0e33612145565b825f526020528060405f20556040519081527f8c5be1e5ebec7d5bd14f71427d1e84f3dd0314c0f7b2291e5b200ac8c7c3b92560203392a3602060405160018152f35b634a1406b160e11b5f525f60045260245ffd5b63e602df0560e01b5f525f60045260245ffd5b3461004d575f36600319011261004d576040515f5f51602061311d5f395f51905f5254611ba381611e13565b80845290600181169081156106cd5750600114611bca576104cb8361064f81850382611d1d565b5f51602061311d5f395f51905f525f9081527f2ae08a8e29253f69ac5d979a101956ab8f8d9d7ded63fa7a83b16fc47648eab0939250905b808210611c1a5750909150810160200161064f61063f565b919260018160209254838588010152019101909291611c02565b3461004d575f36600319011261004d5760206102f4611ea8565b805180835260209291819084018484015e5f828201840152601f01601f1916010190565b3461004d57602036600319011261004d57611c95600554600a5490600435612ddb565b604051908152602090f35b600435906001600160a01b038216820361004d57565b602435906001600160a01b038216820361004d57565b604081019081106001600160401b0382111761194057604052565b606081019081106001600160401b0382111761194057604052565b60c081019081106001600160401b0382111761194057604052565b90601f801991011681019081106001600160401b0382111761194057604052565b6001600160401b03811161194057601f01601f191660200190565b929192611d6582611d3e565b91611d736040519384611d1d565b82948184528183011161004d578281602093845f960137010152565b9080601f8301121561004d57816020611daa93359101611d59565b90565b606060031982011261004d57600435916024356001600160401b03811161004d578260238201121561004d578060040135926001600160401b03841161004d576024848301011161004d5760240191906044356001600160a01b038116810361004d5790565b90600182811c92168015611e41575b6020831014611e2d57565b634e487b7160e01b5f52602260045260245ffd5b91607f1691611e22565b606090600319011261004d57600435906024356001600160a01b038116810361004d57906044356001600160a01b038116810361004d5790565b3461004d57602036600319011261004d57611c95600a5460055490600435612ddb565b611daa5f51602061319d5f395f51905f5254600554600a5491612ddb565b51906001600160a01b038216820361004d57565b519063ffffffff8216820361004d57565b80910390610100821261004d5760405191611f0583611d02565b8151906001600160a01b038216820361004d576060918452611f2960208401611ec6565b6020850152611f3a60408401611eda565b6040850152611f4a828401611eda565b8285015260808301516080850152609f19011261004d57611f9860e060405192611f7384611ce7565b611f7f60a08201611ec6565b8452611f8d60c08201611ec6565b602085015201611eda565b604082015260a082015290565b60405190611fb282611d02565b8160018060a01b035f5416815263ffffffff60015460018060a01b0381166020840152818160a01c16604084015260c01c166060820152600254608082015260a06040519161200083611ce7565b6003545f196001841b0190811684526004549081166020850152821c63ffffffff1660408401520152565b63ffffffff60015460c01c16801561204657611daa91612560565b50505f90565b919082039182116103c757565b919082018092116103c757565b63ffffffff60015460a01c16801561204657611daa91612560565b60ff5f5160206131dd5f395f51905f525460a01c1660ff81116103c75790565b60025480156120c3576120b2611ea8565b8181101561204657611daa9161204c565b505f1990565b6120d990600554600a5491612540565b9063ffffffff60015460a01c16801561214057806127100361271081116103c7576121078161271086612ddb565b916127101461212c57611daa91612125916127108609151590612059565b928361204c565b634e487b7160e01b5f52601260045260245ffd5b505f90565b6001600160a01b03165f9081527f52c63247e1f47db19d5ce0460030c497f067ca4cebf71ba98eeadabe20bace016020526040902090565b6001600160a01b03165f9081525f51602061313d5f395f51905f52602052604090205490565b60025480156120c3576121b4611ea8565b908082101561204657611daa916121ca9161204c565b600a5460055491612ddb565b60018060a01b03165f525f51602061313d5f395f51905f52602052611daa60405f2054600554600a5491612ddb565b6001600160a01b03168015612263575f51602061317d5f395f51905f5280546001600160a01b0319811683179091556001600160a01b03167f8be0079c531659141344cd1fd0a4f28419497f9722a3daafe3b4186f6b6457e05f80a3565b631e4fbdf760e01b5f525f60045260245ffd5b80516001600160a01b0316156124ec5760208101516001600160a01b03161561249d5761271063ffffffff604083015116116124585761271063ffffffff606083015116116124135760a00161271063ffffffff60408351015116116123a8578051602001516001600160a01b0316156123535751516001600160a01b0316156122fc57565b60405162461bcd60e51b815260206004820152602960248201527f53747261746567697374206163636f756e742063616e6e6f74206265207a65726044820152686f206164647265737360b81b6064820152608490fd5b60405162461bcd60e51b815260206004820152602760248201527f506c6174666f726d206163636f756e742063616e6e6f74206265207a65726f206044820152666164647265737360c81b6064820152608490fd5b60405162461bcd60e51b815260206004820152603c60248201527f53747261746567697374206163636f756e74206665652064697374726962757460448201527f696f6e20726174696f2063616e6e6f74206578636565642031303025000000006064820152608490fd5b60405162461bcd60e51b815260206004820152601f60248201527f5769746864726177206665652063616e6e6f74206578636565642031303025006044820152606490fd5b60405162461bcd60e51b815260206004820152601e60248201527f4465706f736974206665652063616e6e6f7420657863656564203130302500006044820152606490fd5b60405162461bcd60e51b815260206004820152602160248201527f537472617465676973742063616e6e6f74206265207a65726f206164647265736044820152607360f81b6064820152608490fd5b60405162461bcd60e51b815260206004820152602660248201527f4465706f736974206163636f756e742063616e6e6f74206265207a65726f206160448201526564647265737360d01b6064820152608490fd5b9161254c818385612ddb565b91811561212c57611daa9309151590612059565b612710611daa92612572828285612ddb565b9209151590612059565b60025f5160206131fd5f395f51905f5254146125a55760025f5160206131fd5f395f51905f5255565b633ee5aeb560e01b5f5260045ffd5b6001600160a01b0316159050612664571561261f57156125d057565b60405162461bcd60e51b815260206004820152602160248201527f416d6f756e7420746f2077697468647261772063616e6e6f74206265207a65726044820152606f60f81b6064820152608490fd5b60405162461bcd60e51b815260206004820152601860248201527f52656365697665722063616e6e6f7420626520656d70747900000000000000006044820152606490fd5b60405162461bcd60e51b815260206004820152602660248201527f4f776e6572206f66207368617265732063616e6e6f74206265207a65726f206160448201526564647265737360d01b6064820152608490fd5b6001600160a01b038516949192919033869003612943575b6126d991612e79565b6001600160401b036007541660055460405160a08101918183106001600160401b0384111761194057600392604052838252602082019088825260408301908152606083019187835261272d368a89611d59565b608085019081525f96875260096020526040968790209451855492516001600160e01b03199093166001600160401b03918216179290971b68010000000000000000600160e01b0316919091178455905160018401559051600283015551805192909101928211611940576127a28354611e13565b601f81116128fe575b50602090601f8311600114612878577f34c29e8bdf5793b0f63f12d98c77ae4c94d65ed48423c83059e7c34575f68d3a949392915f918361286d575b50508160011b915f199060031b1c19161790555b6080600754956001600160401b03871695869581604051958694855260606020860152816060860152858501375f8383018501526040830152601f01601f19168101030190a26001600160401b0381146103c75760016001600160401b03910116906001600160401b03191617600755565b015190505f806127e7565b90601f19831691845f52815f20925f5b8181106128e657509160019391857f34c29e8bdf5793b0f63f12d98c77ae4c94d65ed48423c83059e7c34575f68d3a98979694106128ce575b505050811b0190556127fb565b01515f1960f88460031b161c191690555f80806128c1565b92936020600181928786015181550195019301612888565b835f5260205f20601f840160051c81019160208510612939575b601f0160051c01905b81811061292e57506127ab565b5f8155600101612921565b9091508190612918565b61294c82612145565b60018060a01b0333165f526020528060405f20541061297b576126d9916129748233836129b9565b91506126d0565b60405162461bcd60e51b8152602060048201526016602482015275496e73756666696369656e7420616c6c6f77616e636560501b6044820152606490fd5b91906129c483612145565b60018060a01b0382165f5260205260405f2054925f1984106129e7575b50505050565b828410612a34576001600160a01b03811615611b64576001600160a01b03821615611b5157612a1590612145565b9060018060a01b03165f5260205260405f20910390555f8080806129e1565b508290637dc7a0d960e11b5f5260018060a01b031660045260245260445260645ffd5b6001600160a01b0316908115612b28576001600160a01b0316918215612b1557815f525f51602061313d5f395f51905f5260205260405f2054818110612afc57817fddf252ad1be2c89b69c2b068fc378daa952ba7f163c4a11628f55a4df523b3ef92602092855f525f51602061313d5f395f51905f5284520360405f2055845f525f51602061313d5f395f51905f52825260405f20818154019055604051908152a3565b8263391434e360e21b5f5260045260245260445260645ffd5b63ec442f0560e01b5f525f60045260245ffd5b634b637e8f60e11b5f525f60045260245ffd5b5f5160206131dd5f395f51905f52545f54604080516323b872dd60e01b60208201526001600160a01b0394851660248201819052928516604482015260648082018890528152959691957fdcbc1c05240f31ff3ad067ef1ee35ce4997762752e3a095284754544f4c709d79591949193612bc09216612bbb608483611d1d565b61305b565b612bca8183612f2f565b825195865260208601526001600160a01b031693a3565b5f51602061317d5f395f51905f52546001600160a01b03163303612c0157565b63118cdaa760e01b5f523360045260245ffd5b600854908115612cf357612c3561271063ffffffff60408401511684612ddb565b612c4281612c549461204c565b90600a54938491600554928391612ddb565b93612c5e92612ddb565b9160407ff227c93b6b816f85ef75ee32431495d61932665acd4193a40431a42f1502701a915f60085580612cd8575b84612cba575b83516020948501518351928352948201959095526001600160a01b039384169490931692a3565b6020840151612cd39086906001600160a01b0316612f2f565b612c93565b8351612cee9082906001600160a01b0316612f2f565b612c8d565b5050565b6001600160a01b03808416959294908216937ffbde797d201c681b91056529119e0b02407c7bb96a4a2c75c01fc9667232c8db936040939091612d4791839190828b8a03612d9f575b5050612e79565b5f5160206131dd5f395f51905f5254835163a9059cbb60e01b60208201526001600160a01b03978816602482018190526044808301869052825297612d929216612bbb606483611d1d565b82519182526020820152a4565b612da991836129b9565b5f82612d40565b60ff5f51602061321d5f395f51905f525460401c1615612dcc57565b631afcd79f60e31b5f5260045ffd5b91818302915f1981850993838086109503948086039514612e6b5784831115612e535790829109815f0382168092046002816003021880820260020302808202600203028082026002030280820260020302808202600203028091026002030293600183805f03040190848311900302920304170290565b82634e487b715f52156003026011186020526024601cfd5b50508092501561212c570490565b9091906001600160a01b03168015612b2857805f525f51602061313d5f395f51905f5260205260405f2054838110612f15576020845f94957fddf252ad1be2c89b69c2b068fc378daa952ba7f163c4a11628f55a4df523b3ef938587525f51602061313d5f395f51905f528452036040862055805f51602061319d5f395f51905f5254035f51602061319d5f395f51905f5255604051908152a3565b915063391434e360e21b5f5260045260245260445260645ffd5b6001600160a01b0316908115612b15577fddf252ad1be2c89b69c2b068fc378daa952ba7f163c4a11628f55a4df523b3ef602082612f7c5f945f51602061319d5f395f51905f5254612059565b5f51602061319d5f395f51905f52558484525f51602061313d5f395f51905f52825260408420818154019055604051908152a3565b3d15612fdb573d90612fc282611d3e565b91612fd06040519384611d1d565b82523d5f602084013e565b606090565b5f8091604051602081019063313ce56760e01b825260048152613004602482611d1d565b51916001600160a01b03165afa613019612fb1565b908061304f575b61302c575b505f905f90565b60208180518101031261004d576020015160ff8111613025579060ff6001921690565b50602081511015613020565b905f602091828151910182855af1156130b3575f513d6130aa57506001600160a01b0381163b155b61308a5750565b635274afe760e01b5f9081526001600160a01b0391909116600452602490fd5b60011415613083565b6040513d5f823e3d90fd5b906130e257508051156130d357805190602001fd5b63d6bda27560e01b5f5260045ffd5b81511580613113575b6130f3575090565b639996b31560e01b5f9081526001600160a01b0391909116600452602490fd5b50803b156130eb56fe52c63247e1f47db19d5ce0460030c497f067ca4cebf71ba98eeadabe20bace0352c63247e1f47db19d5ce0460030c497f067ca4cebf71ba98eeadabe20bace0052c63247e1f47db19d5ce0460030c497f067ca4cebf71ba98eeadabe20bace049016d09d72d40fdae2fd8ceac6b6234c7706214fd39c1cd1e609a0528c19930052c63247e1f47db19d5ce0460030c497f067ca4cebf71ba98eeadabe20bace02360894a13ba1a3210667c828492db98dca3e2076cc3735a920a3ca505d382bbc0773e532dfede91f04b12a73d3d2acd361424f41f76b4fb79f090161e36b4e009b779b17422d0df92223018b32b4d1fa46e071723d6817e2486d003becc55f00f0c57e16840df040f15088dc2f81fe391c3923bec73e23a9662efc9c229c6a00a2646970667358221220b6087282d1b2c721b3cd6fc7401be509964799b02541fe17c512e654ccec092b64736f6c634300081d0033f0c57e16840df040f15088dc2f81fe391c3923bec73e23a9662efc9c229c6a00","linkReferences":{}},"methodIdentifiers":{"UPGRADE_INTERFACE_VERSION()":"ad3cb1cc","allowance(address,address)":"dd62ed3e","approve(address,uint256)":"095ea7b3","asset()":"38d52e0f","balanceOf(address)":"70a08231","calculateDepositFee(uint256)":"247d284b","calculateMintFee(uint256)":"5c095e54","calculateWithdrawalFee(uint256)":"18e1b3bb","config()":"79502c55","convertToAssets(uint256)":"07a2d13a","convertToShares(uint256)":"c6e6f592","currentWithdrawRequestId()":"d083b2ee","decimals()":"313ce567","deposit(uint256,address)":"6e553f65","feesAccruedInAsset()":"cd1da35c","initialize(address,bytes,address,string,string,uint256)":"0e5e1e31","maxDeposit(address)":"402d267d","maxMint(address)":"c63d75b6","maxRedeem(address)":"d905777e","maxWithdraw(address)":"ce96cb77","mint(uint256,address)":"94bf804d","name()":"06fdde03","owner()":"8da5cb5b","pause()":"8456cb59","previewDeposit(uint256)":"ef8b30f7","previewMint(uint256)":"b3d7f6b9","previewRedeem(uint256)":"4cdad506","previewWithdraw(uint256)":"0a28a477","proxiableUUID()":"52d1902d","redeem(uint256,address,address)":"ba087652","redeem(uint256,string,address)":"99646d1c","redemptionRate()":"540385a3","renounceOwnership()":"715018a6","symbol()":"95d89b41","totalAssets()":"01e1d114","totalSupply()":"18160ddd","transfer(address,uint256)":"a9059cbb","transferFrom(address,address,uint256)":"23b872dd","transferOwnership(address)":"f2fde38b","unpause()":"3f4ba83a","update(uint256)":"82ab890a","updateConfig(bytes)":"8cc6acce","upgradeToAndCall(address,bytes)":"4f1ef286","vaultState()":"2728f333","withdraw(uint256,address,address)":"b460af94","withdraw(uint256,string,address)":"1bd9c31a","withdrawRequests(uint64)":"94ba2b8d"},"id":58}