{"abi":[{"type":"constructor","inputs":[],"stateMutability":"nonpayable"},{"type":"fallback","stateMutability":"nonpayable"},{"type":"function","name":"UPGRADE_INTERFACE_VERSION","inputs":[],"outputs":[{"name":"","type":"string","internalType":"string"}],"stateMutability":"view"},{"type":"function","name":"allowance","inputs":[{"name":"owner","type":"address","internalType":"address"},{"name":"spender","type":"address","internalType":"address"}],"outputs":[{"name":"","type":"uint256","internalType":"uint256"}],"stateMutability":"view"},{"type":"function","name":"approve","inputs":[{"name":"spender","type":"address","internalType":"address"},{"name":"value","type":"uint256","internalType":"uint256"}],"outputs":[{"name":"","type":"bool","internalType":"bool"}],"stateMutability":"nonpayable"},{"type":"function","name":"asset","inputs":[],"outputs":[{"name":"","type":"address","internalType":"address"}],"stateMutability":"view"},{"type":"function","name":"balanceOf","inputs":[{"name":"account","type":"address","internalType":"address"}],"outputs":[{"name":"","type":"uint256","internalType":"uint256"}],"stateMutability":"view"},{"type":"function","name":"calculateDepositFee","inputs":[{"name":"assets","type":"uint256","internalType":"uint256"}],"outputs":[{"name":"","type":"uint256","internalType":"uint256"}],"stateMutability":"view"},{"type":"function","name":"calculateMintFee","inputs":[{"name":"shares","type":"uint256","internalType":"uint256"}],"outputs":[{"name":"","type":"uint256","internalType":"uint256"},{"name":"","type":"uint256","internalType":"uint256"}],"stateMutability":"view"},{"type":"function","name":"calculateWithdrawalFee","inputs":[{"name":"assets","type":"uint256","internalType":"uint256"}],"outputs":[{"name":"","type":"uint256","internalType":"uint256"}],"stateMutability":"view"},{"type":"function","name":"config","inputs":[],"outputs":[{"name":"depositAccount","type":"address","internalType":"contract BaseAccount"},{"name":"strategist","type":"address","internalType":"address"},{"name":"depositFeeBps","type":"uint32","internalType":"uint32"},{"name":"withdrawRateBps","type":"uint32","internalType":"uint32"},{"name":"maxRateUpdateDelay","type":"uint64","internalType":"uint64"},{"name":"depositCap","type":"uint256","internalType":"uint256"},{"name":"feeDistribution","type":"tuple","internalType":"struct OneWayVault.FeeDistributionConfig","components":[{"name":"strategistAccount","type":"address","internalType":"address"},{"name":"platformAccount","type":"address","internalType":"address"},{"name":"strategistRatioBps","type":"uint32","internalType":"uint32"}]}],"stateMutability":"view"},{"type":"function","name":"convertToAssets","inputs":[{"name":"shares","type":"uint256","internalType":"uint256"}],"outputs":[{"name":"","type":"uint256","internalType":"uint256"}],"stateMutability":"view"},{"type":"function","name":"convertToShares","inputs":[{"name":"assets","type":"uint256","internalType":"uint256"}],"outputs":[{"name":"","type":"uint256","internalType":"uint256"}],"stateMutability":"view"},{"type":"function","name":"currentWithdrawRequestId","inputs":[],"outputs":[{"name":"","type":"uint64","internalType":"uint64"}],"stateMutability":"view"},{"type":"function","name":"decimals","inputs":[],"outputs":[{"name":"","type":"uint8","internalType":"uint8"}],"stateMutability":"view"},{"type":"function","name":"deposit","inputs":[{"name":"assets","type":"uint256","internalType":"uint256"},{"name":"receiver","type":"address","internalType":"address"}],"outputs":[{"name":"","type":"uint256","internalType":"uint256"}],"stateMutability":"nonpayable"},{"type":"function","name":"feesAccruedInAsset","inputs":[],"outputs":[{"name":"","type":"uint256","internalType":"uint256"}],"stateMutability":"view"},{"type":"function","name":"initialize","inputs":[{"name":"_owner","type":"address","internalType":"address"},{"name":"_config","type":"bytes","internalType":"bytes"},{"name":"underlying","type":"address","internalType":"address"},{"name":"vaultTokenName","type":"string","internalType":"string"},{"name":"vaultTokenSymbol","type":"string","internalType":"string"},{"name":"startingRate","type":"uint256","internalType":"uint256"}],"outputs":[],"stateMutability":"nonpayable"},{"type":"function","name":"lastRateUpdateTimestamp","inputs":[],"outputs":[{"name":"","type":"uint64","internalType":"uint64"}],"stateMutability":"view"},{"type":"function","name":"maxDeposit","inputs":[{"name":"","type":"address","internalType":"address"}],"outputs":[{"name":"","type":"uint256","internalType":"uint256"}],"stateMutability":"view"},{"type":"function","name":"maxMint","inputs":[{"name":"","type":"address","internalType":"address"}],"outputs":[{"name":"","type":"uint256","internalType":"uint256"}],"stateMutability":"view"},{"type":"function","name":"maxRedeem","inputs":[{"name":"owner","type":"address","internalType":"address"}],"outputs":[{"name":"","type":"uint256","internalType":"uint256"}],"stateMutability":"view"},{"type":"function","name":"maxWithdraw","inputs":[{"name":"owner","type":"address","internalType":"address"}],"outputs":[{"name":"","type":"uint256","internalType":"uint256"}],"stateMutability":"view"},{"type":"function","name":"mint","inputs":[{"name":"shares","type":"uint256","internalType":"uint256"},{"name":"receiver","type":"address","internalType":"address"}],"outputs":[{"name":"","type":"uint256","internalType":"uint256"}],"stateMutability":"nonpayable"},{"type":"function","name":"name","inputs":[],"outputs":[{"name":"","type":"string","internalType":"string"}],"stateMutability":"view"},{"type":"function","name":"owner","inputs":[],"outputs":[{"name":"","type":"address","internalType":"address"}],"stateMutability":"view"},{"type":"function","name":"pause","inputs":[],"outputs":[],"stateMutability":"nonpayable"},{"type":"function","name":"previewDeposit","inputs":[{"name":"assets","type":"uint256","internalType":"uint256"}],"outputs":[{"name":"","type":"uint256","internalType":"uint256"}],"stateMutability":"view"},{"type":"function","name":"previewMint","inputs":[{"name":"shares","type":"uint256","internalType":"uint256"}],"outputs":[{"name":"","type":"uint256","internalType":"uint256"}],"stateMutability":"view"},{"type":"function","name":"previewRedeem","inputs":[{"name":"shares","type":"uint256","internalType":"uint256"}],"outputs":[{"name":"","type":"uint256","internalType":"uint256"}],"stateMutability":"view"},{"type":"function","name":"previewWithdraw","inputs":[{"name":"assets","type":"uint256","internalType":"uint256"}],"outputs":[{"name":"","type":"uint256","internalType":"uint256"}],"stateMutability":"view"},{"type":"function","name":"proxiableUUID","inputs":[],"outputs":[{"name":"","type":"bytes32","internalType":"bytes32"}],"stateMutability":"view"},{"type":"function","name":"redeem","inputs":[{"name":"shares","type":"uint256","internalType":"uint256"},{"name":"receiver","type":"string","internalType":"string"},{"name":"owner","type":"address","internalType":"address"}],"outputs":[],"stateMutability":"payable"},{"type":"function","name":"redeem","inputs":[{"name":"shares","type":"uint256","internalType":"uint256"},{"name":"receiver","type":"address","internalType":"address"},{"name":"owner","type":"address","internalType":"address"}],"outputs":[{"name":"","type":"uint256","internalType":"uint256"}],"stateMutability":"nonpayable"},{"type":"function","name":"redemptionRate","inputs":[],"outputs":[{"name":"","type":"uint256","internalType":"uint256"}],"stateMutability":"view"},{"type":"function","name":"renounceOwnership","inputs":[],"outputs":[],"stateMutability":"nonpayable"},{"type":"function","name":"symbol","inputs":[],"outputs":[{"name":"","type":"string","internalType":"string"}],"stateMutability":"view"},{"type":"function","name":"totalAssets","inputs":[],"outputs":[{"name":"","type":"uint256","internalType":"uint256"}],"stateMutability":"view"},{"type":"function","name":"totalSupply","inputs":[],"outputs":[{"name":"","type":"uint256","internalType":"uint256"}],"stateMutability":"view"},{"type":"function","name":"transfer","inputs":[{"name":"to","type":"address","internalType":"address"},{"name":"value","type":"uint256","internalType":"uint256"}],"outputs":[{"name":"","type":"bool","internalType":"bool"}],"stateMutability":"nonpayable"},{"type":"function","name":"transferFrom","inputs":[{"name":"from","type":"address","internalType":"address"},{"name":"to","type":"address","internalType":"address"},{"name":"value","type":"uint256","internalType":"uint256"}],"outputs":[{"name":"","type":"bool","internalType":"bool"}],"stateMutability":"nonpayable"},{"type":"function","name":"transferOwnership","inputs":[{"name":"newOwner","type":"address","internalType":"address"}],"outputs":[],"stateMutability":"nonpayable"},{"type":"function","name":"unpause","inputs":[],"outputs":[],"stateMutability":"nonpayable"},{"type":"function","name":"update","inputs":[{"name":"newRate","type":"uint256","internalType":"uint256"}],"outputs":[],"stateMutability":"nonpayable"},{"type":"function","name":"updateConfig","inputs":[{"name":"_config","type":"bytes","internalType":"bytes"}],"outputs":[],"stateMutability":"nonpayable"},{"type":"function","name":"upgradeToAndCall","inputs":[{"name":"newImplementation","type":"address","internalType":"address"},{"name":"data","type":"bytes","internalType":"bytes"}],"outputs":[],"stateMutability":"payable"},{"type":"function","name":"vaultState","inputs":[],"outputs":[{"name":"paused","type":"bool","internalType":"bool"},{"name":"pausedByOwner","type":"bool","internalType":"bool"},{"name":"pausedByStaleRate","type":"bool","internalType":"bool"}],"stateMutability":"view"},{"type":"function","name":"withdraw","inputs":[{"name":"assets","type":"uint256","internalType":"uint256"},{"name":"receiver","type":"string","internalType":"string"},{"name":"owner","type":"address","internalType":"address"}],"outputs":[],"stateMutability":"payable"},{"type":"function","name":"withdraw","inputs":[{"name":"assets","type":"uint256","internalType":"uint256"},{"name":"receiver","type":"address","internalType":"address"},{"name":"owner","type":"address","internalType":"address"}],"outputs":[{"name":"","type":"uint256","internalType":"uint256"}],"stateMutability":"nonpayable"},{"type":"function","name":"withdrawRequests","inputs":[{"name":"","type":"uint64","internalType":"uint64"}],"outputs":[{"name":"id","type":"uint64","internalType":"uint64"},{"name":"owner","type":"address","internalType":"address"},{"name":"redemptionRate","type":"uint256","internalType":"uint256"},{"name":"sharesAmount","type":"uint256","internalType":"uint256"},{"name":"receiver","type":"string","internalType":"string"}],"stateMutability":"view"},{"type":"event","name":"Approval","inputs":[{"name":"owner","type":"address","indexed":true,"internalType":"address"},{"name":"spender","type":"address","indexed":true,"internalType":"address"},{"name":"value","type":"uint256","indexed":false,"internalType":"uint256"}],"anonymous":false},{"type":"event","name":"ConfigUpdated","inputs":[{"name":"updater","type":"address","indexed":true,"internalType":"address"},{"name":"newConfig","type":"tuple","indexed":false,"internalType":"struct OneWayVault.OneWayVaultConfig","components":[{"name":"depositAccount","type":"address","internalType":"contract BaseAccount"},{"name":"strategist","type":"address","internalType":"address"},{"name":"depositFeeBps","type":"uint32","internalType":"uint32"},{"name":"withdrawRateBps","type":"uint32","internalType":"uint32"},{"name":"maxRateUpdateDelay","type":"uint64","internalType":"uint64"},{"name":"depositCap","type":"uint256","internalType":"uint256"},{"name":"feeDistribution","type":"tuple","internalType":"struct OneWayVault.FeeDistributionConfig","components":[{"name":"strategistAccount","type":"address","internalType":"address"},{"name":"platformAccount","type":"address","internalType":"address"},{"name":"strategistRatioBps","type":"uint32","internalType":"uint32"}]}]}],"anonymous":false},{"type":"event","name":"Deposit","inputs":[{"name":"sender","type":"address","indexed":true,"internalType":"address"},{"name":"owner","type":"address","indexed":true,"internalType":"address"},{"name":"assets","type":"uint256","indexed":false,"internalType":"uint256"},{"name":"shares","type":"uint256","indexed":false,"internalType":"uint256"}],"anonymous":false},{"type":"event","name":"FeesDistributed","inputs":[{"name":"strategistAccount","type":"address","indexed":true,"internalType":"address"},{"name":"platformAccount","type":"address","indexed":true,"internalType":"address"},{"name":"strategistShares","type":"uint256","indexed":false,"internalType":"uint256"},{"name":"platformShares","type":"uint256","indexed":false,"internalType":"uint256"}],"anonymous":false},{"type":"event","name":"Initialized","inputs":[{"name":"version","type":"uint64","indexed":false,"internalType":"uint64"}],"anonymous":false},{"type":"event","name":"OwnershipTransferred","inputs":[{"name":"previousOwner","type":"address","indexed":true,"internalType":"address"},{"name":"newOwner","type":"address","indexed":true,"internalType":"address"}],"anonymous":false},{"type":"event","name":"PausedStateChanged","inputs":[{"name":"paused","type":"bool","indexed":false,"internalType":"bool"}],"anonymous":false},{"type":"event","name":"RateUpdated","inputs":[{"name":"newRate","type":"uint256","indexed":false,"internalType":"uint256"}],"anonymous":false},{"type":"event","name":"StaleRatePaused","inputs":[{"name":"lastUpdateTimestamp","type":"uint64","indexed":false,"internalType":"uint64"},{"name":"currentTimestamp","type":"uint64","indexed":false,"internalType":"uint64"}],"anonymous":false},{"type":"event","name":"Transfer","inputs":[{"name":"from","type":"address","indexed":true,"internalType":"address"},{"name":"to","type":"address","indexed":true,"internalType":"address"},{"name":"value","type":"uint256","indexed":false,"internalType":"uint256"}],"anonymous":false},{"type":"event","name":"Upgraded","inputs":[{"name":"implementation","type":"address","indexed":true,"internalType":"address"}],"anonymous":false},{"type":"event","name":"Withdraw","inputs":[{"name":"sender","type":"address","indexed":true,"internalType":"address"},{"name":"receiver","type":"address","indexed":true,"internalType":"address"},{"name":"owner","type":"address","indexed":true,"internalType":"address"},{"name":"assets","type":"uint256","indexed":false,"internalType":"uint256"},{"name":"shares","type":"uint256","indexed":false,"internalType":"uint256"}],"anonymous":false},{"type":"event","name":"WithdrawRequested","inputs":[{"name":"id","type":"uint64","indexed":true,"internalType":"uint64"},{"name":"owner","type":"address","indexed":false,"internalType":"address"},{"name":"receiver","type":"string","indexed":false,"internalType":"string"},{"name":"shares","type":"uint256","indexed":false,"internalType":"uint256"}],"anonymous":false},{"type":"error","name":"AddressEmptyCode","inputs":[{"name":"target","type":"address","internalType":"address"}]},{"type":"error","name":"ERC1967InvalidImplementation","inputs":[{"name":"implementation","type":"address","internalType":"address"}]},{"type":"error","name":"ERC1967NonPayable","inputs":[]},{"type":"error","name":"ERC20InsufficientAllowance","inputs":[{"name":"spender","type":"address","internalType":"address"},{"name":"allowance","type":"uint256","internalType":"uint256"},{"name":"needed","type":"uint256","internalType":"uint256"}]},{"type":"error","name":"ERC20InsufficientBalance","inputs":[{"name":"sender","type":"address","internalType":"address"},{"name":"balance","type":"uint256","internalType":"uint256"},{"name":"needed","type":"uint256","internalType":"uint256"}]},{"type":"error","name":"ERC20InvalidApprover","inputs":[{"name":"approver","type":"address","internalType":"address"}]},{"type":"error","name":"ERC20InvalidReceiver","inputs":[{"name":"receiver","type":"address","internalType":"address"}]},{"type":"error","name":"ERC20InvalidSender","inputs":[{"name":"sender","type":"address","internalType":"address"}]},{"type":"error","name":"ERC20InvalidSpender","inputs":[{"name":"spender","type":"address","internalType":"address"}]},{"type":"error","name":"ERC4626ExceededMaxDeposit","inputs":[{"name":"receiver","type":"address","internalType":"address"},{"name":"assets","type":"uint256","internalType":"uint256"},{"name":"max","type":"uint256","internalType":"uint256"}]},{"type":"error","name":"ERC4626ExceededMaxMint","inputs":[{"name":"receiver","type":"address","internalType":"address"},{"name":"shares","type":"uint256","internalType":"uint256"},{"name":"max","type":"uint256","internalType":"uint256"}]},{"type":"error","name":"ERC4626ExceededMaxRedeem","inputs":[{"name":"owner","type":"address","internalType":"address"},{"name":"shares","type":"uint256","internalType":"uint256"},{"name":"max","type":"uint256","internalType":"uint256"}]},{"type":"error","name":"ERC4626ExceededMaxWithdraw","inputs":[{"name":"owner","type":"address","internalType":"address"},{"name":"assets","type":"uint256","internalType":"uint256"},{"name":"max","type":"uint256","internalType":"uint256"}]},{"type":"error","name":"FailedCall","inputs":[]},{"type":"error","name":"InvalidInitialization","inputs":[]},{"type":"error","name":"NotInitializing","inputs":[]},{"type":"error","name":"OwnableInvalidOwner","inputs":[{"name":"owner","type":"address","internalType":"address"}]},{"type":"error","name":"OwnableUnauthorizedAccount","inputs":[{"name":"account","type":"address","internalType":"address"}]},{"type":"error","name":"ReentrancyGuardReentrantCall","inputs":[]},{"type":"error","name":"SafeERC20FailedOperation","inputs":[{"name":"token","type":"address","internalType":"address"}]},{"type":"error","name":"UUPSUnauthorizedCallContext","inputs":[]},{"type":"error","name":"UUPSUnsupportedProxiableUUID","inputs":[{"name":"slot","type":"bytes32","internalType":"bytes32"}]}],"bytecode":{"object":"0x60a080604052346100c257306080525f51602061367b5f395f51905f525460ff8160401c166100b3576002600160401b03196001600160401b03821601610060575b6040516135b490816100c78239608051818181610ebc0152610f4d0152f35b6001600160401b0319166001600160401b039081175f51602061367b5f395f51905f525581527fc7f505b2f371ae2175ee4913f4499e1f2633a7b5936321eed1cdaeb6115181d290602090a15f80610041565b63f92ee8a960e01b5f5260045ffd5b5f80fdfe60806040526004361015610051575b3461004d5760405162461bcd60e51b8152602060048201526012602482015271119d5b98dd1a5bdb881b9bdd08199bdd5b9960721b6044820152606490fd5b5f80fd5b5f3560e01c806301e1d11414611c1557806306fdde0314611b5857806307a2d13a146110dd578063095ea7b314611ab35780630a28a47714611a8e5780630e5e1e311461141157806318160ddd146113e857806318e1b3bb146113ca57806318fe961b146113a15780631bd9c31a1461137c57806323b872dd14611344578063247d284b146113265780632728f333146112ea578063313ce567146112c557806338d52e0f146112915780633f4ba83a14611106578063402d267d146110e25780634cdad506146110dd5780634f1ef28614610f1057806352d1902d14610eaa578063540385a314610e8d5780635c095e5414610e635780636e553f6514610e3257806370a08231146102dc578063715018a614610dcb57806379502c5514610d0057806382ab890a14610b675780638456cb59146109ee5780638cc6acce146107fd5780638da5cb5b146107c957806394ba2b8d146106a157806394bf804d1461067057806395d89b411461057a57806399646d1c1461050b578063a9059cbb146104da578063ad3cb1cc1461048f578063b3d7f6b91461046a578063b460af9414610408578063ba08765214610391578063c63d75b61461036d578063c6e6f59214610290578063cd1da35c14610350578063ce96cb771461032d578063d083b2ee14610307578063d905777e146102dc578063dd62ed3e14610295578063ef8b30f7146102905763f2fde38b0361000e573461004d57602036600319011261004d5761028e610281611c81565b610289612f23565b61242f565b005b611e4b565b3461004d57604036600319011261004d576102ae611c81565b6102bf6102b9611c97565b91612278565b9060018060a01b03165f52602052602060405f2054604051908152f35b3461004d57602036600319011261004d5760206102ff6102fa611c81565b6122b0565b604051908152f35b3461004d575f36600319011261004d5760206001600160401b0360085416604051908152f35b3461004d57602036600319011261004d5760206102ff61034b611c81565b612400565b3461004d575f36600319011261004d576020600954604051908152f35b3461004d57602036600319011261004d57610386611c81565b5060206102ff6123cd565b3461004d5761039f36611e11565b6103ab819392936122b0565b8083116103e657506103c3600654600b54908461311d565b91826102ff9260209533613039565b634e487b7160e01b5f52601160045260245ffd5b9250632e52afbb60e21b5f5260018060a01b031660045260245260445260645ffd5b3461004d5761041636611e11565b909161042182612400565b80821161044957506020926102ff91610440600b5460065490836127ce565b93849233613039565b91633fa733bb60e21b5f5260018060a01b031660045260245260445260645ffd5b3461004d57602036600319011261004d5760206102ff600654600b54906004356127ce565b3461004d575f36600319011261004d576104d66040516104b0604082611ce3565b60058152640352e302e360dc1b6020820152604051918291602083526020830190611c2f565b0390f35b3461004d57604036600319011261004d576105006104f6611c81565b6024359033612d99565b602060405160018152f35b61051436611d73565b9161051d61280a565b60ff600754166105435761053093612345565b60015f51602061353f5f395f51905f5255005b60405162461bcd60e51b815260206004820152600f60248201526e15985d5b1d081a5cc81c185d5cd959608a1b6044820152606490fd5b3461004d575f36600319011261004d576040515f5f51602061349f5f395f51905f52546105a681611dd9565b808452906001811690811561064c57506001146105e2575b6104d6836105ce81850382611ce3565b604051918291602083526020830190611c2f565b5f51602061349f5f395f51905f525f9081527f46a2803e59a4de4e7a4c574b1243f25977ac4c77d5a1a4a609b5394cebb4a2aa939250905b808210610632575090915081016020016105ce6105be565b91926001816020925483858801015201910190929161061a565b60ff191660208086019190915291151560051b840190910191506105ce90506105be565b3461004d57604036600319011261004d57610689611c97565b60ff60075416610543576102ff6020916004356122d6565b3461004d57602036600319011261004d576004356001600160401b03811680910361004d575f52600a60205260405f20805460018201549160036002820154910190604051915f908054906106f582611dd9565b80865291600181169081156107a2575060011461075e575b505090610720836104d694930383611ce3565b60405194846001600160401b03879616865260018060a01b039060401c1660208601526040850152606084015260a0608084015260a0830190611c2f565b5f9081526020812094939250905b80821061078657509192509082016020016107208361070d565b919293600181602092548385890101520191019093929161076c565b60ff191660208088019190915292151560051b86019092019250610720915084905061070d565b3461004d575f36600319011261004d575f5160206134bf5f395f51905f52546040516001600160a01b039091168152602090f35b3461004d57602036600319011261004d576004356001600160401b03811161004d57610830610847913690600401611d55565b610838612f23565b60208082518301019101611eb1565b610850816124a0565b80515f80546001600160a01b039283166001600160a01b03199182168117909255602084018051600180546040808901805160608b0180516001600160e01b0319909516968b169690961763ffffffff60a01b60a092831b161760c094851b63ffffffff60c01b161790945560808a0180516002805467ffffffffffffffff19166001600160401b03928316179055948b01805160035593909a018051805160048054909a169b169a909a1790975596986109c598969792969395909463ffffffff94909385939092916109609185915b602081015160058054939092015163ffffffff60a01b941660a01b939093166001600160c01b03199092166001600160a01b0390931692909217179055565b6040519a8b5260018060a01b0390511660208b01525116604089015251166060870152511660808501525160a08401525160c083019063ffffffff6040809260018060a01b03815116855260018060a01b036020820151166020860152015116910152565b7fe6e777d34a0059d9a9c4f009022a87d376c50387701fa2c883f734ddb087e0456101203392a2005b3461004d575f36600319011261004d575f5160206134bf5f395f51905f52546001600160a01b03163314801580610b52575b610b0d5760ff60075416610ac857604051610a3a81611cad565b6001602082019160408101935f85525f14610ac0578183525b52600160ff19600754161760075551151561ff006007549160081b169061ff0019161760075551151562ff00006007549160101b169062ff00001916176007557f9e3a5e37224532dea67b89face185703738a228a6e8a23dee546960180d3be64602060405160018152a1005b5f8352610a53565b60405162461bcd60e51b815260206004820152601760248201527f5661756c7420697320616c7265616479207061757365640000000000000000006044820152606490fd5b60405162461bcd60e51b815260206004820181905260248201527f4f6e6c79206f776e6572206f72207374726174656769737420616c6c6f7765646044820152606490fd5b506001546001600160a01b0316331415610a20565b3461004d57602036600319011261004d57600154600435906001600160a01b03163303610cbb5760075460ff81169081610cac575b50610c58578015610c135760207fe65c987b2e4668e09ba867026921588005b2b2063607a1e7e7d91683c8f91b7b91610bdf60c0610bd8611f88565b0151612f56565b8060065560085467ffffffffffffffff60401b4260401b169067ffffffffffffffff60401b191617600855604051908152a1005b60405162461bcd60e51b815260206004820152601e60248201527f526564656d7074696f6e20726174652063616e6e6f74206265207a65726f00006044820152606490fd5b60405162461bcd60e51b815260206004820152602660248201527f5661756c7420697320706175736564206279206f776e6572206f7220737472616044820152651d1959da5cdd60d21b6064820152608490fd5b60ff915060101c161582610b9c565b60405162461bcd60e51b815260206004820152601760248201527f4f6e6c79207374726174656769737420616c6c6f7765640000000000000000006044820152606490fd5b3461004d575f36600319011261004d5761012060018060a01b035f5416610dc96001546001600160401b03600254166003549063ffffffff60405193610d4585611cad565b6004546001600160a01b039081168652600554808216602080890191825260a092831c86166040808b0191825280519c8d52868616928d019290925285841c8716918c019190915260c094851c90951660608b015260808a01959095528801949094529351831693860193909352511660e08401525163ffffffff16610100830152565bf35b3461004d575f36600319011261004d57610de3612f23565b5f5160206134bf5f395f51905f5280546001600160a01b031981169091555f906001600160a01b03167f8be0079c531659141344cd1fd0a4f28419497f9722a3daafe3b4186f6b6457e08280a3005b3461004d57604036600319011261004d57610e4b611c97565b60ff60075416610543576102ff6020916004356121ef565b3461004d57602036600319011261004d576040610e81600435612173565b82519182526020820152f35b3461004d575f36600319011261004d576020600654604051908152f35b3461004d575f36600319011261004d577f00000000000000000000000000000000000000000000000000000000000000006001600160a01b03163003610f015760206040515f5160206134ff5f395f51905f528152f35b63703e46dd60e11b5f5260045ffd5b604036600319011261004d57610f24611c81565b6024356001600160401b03811161004d57610f43903690600401611d55565b6001600160a01b037f0000000000000000000000000000000000000000000000000000000000000000163081149081156110bb575b50610f0157610f85612f23565b6040516352d1902d60e01b81526001600160a01b0383169290602081600481875afa5f9181611087575b50610fc75783634c9c8ce360e01b5f5260045260245ffd5b805f5160206134ff5f395f51905f528592036110755750813b15611063575f5160206134ff5f395f51905f5280546001600160a01b031916821790557fbc7cd75a20ee27fd9adebab32041f755214dbc6bffa90cc0225b39da2e5c2d3b5f80a281511561104b575f8083602061028e95519101845af46110456132f3565b91613400565b50503461105457005b63b398979f60e01b5f5260045ffd5b634c9c8ce360e01b5f5260045260245ffd5b632a87526960e21b5f5260045260245ffd5b9091506020813d6020116110b3575b816110a360209383611ce3565b8101031261004d57519085610faf565b3d9150611096565b5f5160206134ff5f395f51905f52546001600160a01b03161415905083610f78565b611c53565b3461004d57602036600319011261004d576110fb611c81565b5060206102ff61214b565b3461004d575f36600319011261004d575f5160206134bf5f395f51905f52546001600160a01b0316331415808061127c575b610b0d5760405161114881611cad565b6007549060ff82161515815260ff6040818460081c16151592836020820152019260101c161515825280611275575b61121e575115159081611216575b506111ba575f6007557f9e3a5e37224532dea67b89face185703738a228a6e8a23dee546960180d3be6460206040515f8152a1005b60405162461bcd60e51b815260206004820152602e60248201527f4f6e6c79206f776e65722063616e20756e70617573652069662070617573656460448201526d206279207374616c65207261746560901b6064820152608490fd5b905081611185565b60405162461bcd60e51b815260206004820152602960248201527f4f6e6c79206f776e65722063616e20756e70617573652069662070617573656460448201526810313c9037bbb732b960b91b6064820152608490fd5b5081611177565b506001546001600160a01b0316331415611138565b3461004d575f36600319011261004d575f51602061351f5f395f51905f52546040516001600160a01b039091168152602090f35b3461004d575f36600319011261004d5760206112df61212b565b60ff60405191168152f35b3461004d575f36600319011261004d57606060075460ff6040519181811615158352818160081c161515602084015260101c1615156040820152f35b3461004d57602036600319011261004d5760206102ff600435612110565b3461004d57606036600319011261004d57610500611360611c81565b611368611c97565b60443591611377833383612cfc565b612d99565b61138536611d73565b9161138e61280a565b60ff60075416610543576105309361205c565b3461004d575f36600319011261004d5760206001600160401b0360085460401c16604051908152f35b3461004d57602036600319011261004d5760206102ff600435612021565b3461004d575f36600319011261004d5760205f5160206134df5f395f51905f5254604051908152f35b3461004d5760c036600319011261004d5761142a611c81565b6024356001600160401b03811161004d57611449903690600401611d55565b6044356001600160a01b038116929083900361004d576064356001600160401b03811161004d5761147e903690600401611d55565b926084356001600160401b03811161004d5761149e903690600401611d55565b5f51602061355f5f395f51905f52549460ff8660401c1615956001600160401b03811680159081611a86575b6001149081611a7c575b159081611a73575b50611a645767ffffffffffffffff1981166001175f51602061355f5f395f51905f525586611a38575b5061150e6130f2565b6115166130f2565b8051906001600160401b0382116119215781906115405f51602061345f5f395f51905f5254611dd9565b601f81116119be575b50602090601f8311600114611940575f92611935575b50508160011b915f199060031b1c1916175f51602061345f5f395f51905f52555b8051906001600160401b038211611921576115a85f51602061349f5f395f51905f5254611dd9565b601f81116118b2575b50602090601f8311600114611820579461166d63ffffffff956040958560c09661169d966117569b5f92611815575b50508160011b915f199060031b1c1916175f51602061349f5f395f51905f52555b6116096130f2565b6116116130f2565b61161a81613322565b901561180d575b5f51602061351f5f395f51905f52549060ff60a01b9060a01b16906affffffffffffffffffffff60a81b1617175f51602061351f5f395f51905f52556116656130f2565b6102896130f2565b6116756130f2565b61167d6130f2565b60015f51602061353f5f395f51905f525560208082518301019101611eb1565b80515f80546001600160a01b039283166001600160a01b03199091161790556020820151600180548685015160608601518916871b939094166001600160c01b03199091161792871660a01b63ffffffff60a01b169290921786851b19161790556080810151600280546001600160401b0390921667ffffffffffffffff1990921691909117905560a081015160035501518051600480546001600160a01b0319166001600160a01b0392909216919091179055610921565b611766611761611f88565b6124a0565b60ff61177061212b565b16604d81116103d257600a0a600b5560a435600655600880546fffffffffffffffff000000000000000019164260401b67ffffffffffffffff60401b161790556117b657005b68ff0000000000000000195f51602061355f5f395f51905f5254165f51602061355f5f395f51905f52557fc7f505b2f371ae2175ee4913f4499e1f2633a7b5936321eed1cdaeb6115181d2602060405160018152a1005b506012611621565b015190508c806115e0565b90601f198316915f51602061349f5f395f51905f525f52815f20925f5b81811061189a57509560409560018661169d966117569b9661166d9660c09a63ffffffff9d10611882575b505050811b015f51602061349f5f395f51905f5255611601565b01515f1960f88460031b161c191690558c8080611868565b9293602060018192878601518155019501930161183d565b5f51602061349f5f395f51905f525f527f46a2803e59a4de4e7a4c574b1243f25977ac4c77d5a1a4a609b5394cebb4a2aa601f840160051c81019160208510611917575b601f0160051c01905b81811061190c57506115b1565b5f81556001016118ff565b90915081906118f6565b634e487b7160e01b5f52604160045260245ffd5b01519050878061155f565b5f51602061345f5f395f51905f525f9081528281209350601f198516905b8181106119a6575090846001959493921061198e575b505050811b015f51602061345f5f395f51905f5255611580565b01515f1960f88460031b161c19169055878080611974565b9293602060018192878601518155019501930161195e565b5f51602061345f5f395f51905f525f529091507f2ae08a8e29253f69ac5d979a101956ab8f8d9d7ded63fa7a83b16fc47648eab0601f840160051c81019160208510611a2e575b90601f859493920160051c01905b818110611a205750611549565b5f8155849350600101611a13565b9091508190611a05565b68ffffffffffffffffff191668010000000000000001175f51602061355f5f395f51905f525586611505565b63f92ee8a960e01b5f5260045ffd5b905015886114dc565b303b1591506114d4565b8891506114ca565b3461004d57602036600319011261004d5760206102ff600b54600654906004356127ce565b3461004d57604036600319011261004d57611acc611c81565b602435903315611b45576001600160a01b0316908115611b3257611aef33612278565b825f526020528060405f20556040519081527f8c5be1e5ebec7d5bd14f71427d1e84f3dd0314c0f7b2291e5b200ac8c7c3b92560203392a3602060405160018152f35b634a1406b160e11b5f525f60045260245ffd5b63e602df0560e01b5f525f60045260245ffd5b3461004d575f36600319011261004d576040515f5f51602061345f5f395f51905f5254611b8481611dd9565b808452906001811690811561064c5750600114611bab576104d6836105ce81850382611ce3565b5f51602061345f5f395f51905f525f9081527f2ae08a8e29253f69ac5d979a101956ab8f8d9d7ded63fa7a83b16fc47648eab0939250905b808210611bfb575090915081016020016105ce6105be565b919260018160209254838588010152019101909291611be3565b3461004d575f36600319011261004d5760206102ff611e6e565b805180835260209291819084018484015e5f828201840152601f01601f1916010190565b3461004d57602036600319011261004d57611c76600654600b549060043561311d565b604051908152602090f35b600435906001600160a01b038216820361004d57565b602435906001600160a01b038216820361004d57565b606081019081106001600160401b0382111761192157604052565b60e081019081106001600160401b0382111761192157604052565b90601f801991011681019081106001600160401b0382111761192157604052565b6001600160401b03811161192157601f01601f191660200190565b929192611d2b82611d04565b91611d396040519384611ce3565b82948184528183011161004d578281602093845f960137010152565b9080601f8301121561004d57816020611d7093359101611d1f565b90565b606060031982011261004d57600435916024356001600160401b03811161004d578260238201121561004d578060040135926001600160401b03841161004d576024848301011161004d5760240191906044356001600160a01b038116810361004d5790565b90600182811c92168015611e07575b6020831014611df357565b634e487b7160e01b5f52602260045260245ffd5b91607f1691611de8565b606090600319011261004d57600435906024356001600160a01b038116810361004d57906044356001600160a01b038116810361004d5790565b3461004d57602036600319011261004d57611c76600b546006549060043561311d565b611d705f5160206134df5f395f51905f5254600654600b549161311d565b51906001600160a01b038216820361004d57565b519063ffffffff8216820361004d57565b80910390610120821261004d5760405191611ecb83611cc8565b81516001600160a01b038116810361004d578352611eeb60208301611e8c565b6020840152611efc60408301611ea0565b6040840152611f0d60608301611ea0565b60608401526080820151906001600160401b038216820361004d57606091608085015260a083015160a085015260bf19011261004d57611f7b61010060405192611f5684611cad565b611f6260c08201611e8c565b8452611f7060e08201611e8c565b602085015201611ea0565b604082015260c082015290565b60405190611f9582611cc8565b8160018060a01b035f5416815263ffffffff60015460018060a01b0381166020840152818160a01c16604084015260c01c1660608201526001600160401b0360025416608082015260035460a082015260c060405191611ff483611cad565b6004546001600160a01b039081168452600554908116602085015260a01c63ffffffff1660408401520152565b63ffffffff60015460c01c16801561203c57611d70916127ee565b50505f90565b919082039182116103d257565b919082018092116103d257565b93929190612068612842565b61210957612078858383866128f7565b61208183612400565b948581116120e5576120ce94955061209881612021565b906120c16120bb6120a98484612042565b92600b549182916006549384916127ce565b936127ce565b91806120d0575b506129fb565b565b6120dc9060095461204f565b6009555f6120c8565b93505050633fa733bb60e21b5f5260018060a01b031660045260245260445260645ffd5b5050509050565b63ffffffff60015460a01c16801561203c57611d70916127ee565b60ff5f51602061351f5f395f51905f525460a01c1660ff81116103d25790565b600354801561216d5761215c611e6e565b8181101561203c57611d7091612042565b505f1990565b61218390600654600b54916127ce565b9063ffffffff60015460a01c1680156121ea57806127100361271081116103d2576121b1816127108661311d565b91612710146121d657611d70916121cf91612710860915159061204f565b9283612042565b634e487b7160e01b5f52601260045260245ffd5b505f90565b6121f7612842565b61203c5761220361214b565b808211612257575061223561221782612110565b6122218184612042565b9080612242575b50600b546006549161311d565b91611d7091839133612e7d565b61224e9060095461204f565b6009555f612228565b91633c8097d960e11b5f5260018060a01b031660045260245260445260645ffd5b6001600160a01b03165f9081527f52c63247e1f47db19d5ce0460030c497f067ca4cebf71ba98eeadabe20bace016020526040902090565b6001600160a01b03165f9081525f51602061347f5f395f51905f52602052604090205490565b6122de612842565b61203c576122ea6123cd565b8082116123245750806122ff611d7092612173565b9384829561230f575b5033612e7d565b61231b9060095461204f565b6009555f612308565b9163284ff66760e01b5f5260018060a01b031660045260245260445260645ffd5b929190612350612842565b6123c757612360848383866128f7565b612369836122b0565b8085116123a5575060065493600b549061238482878361311d565b916120ce966120c1916123a061239986612021565b8096612042565b6127ce565b8484632e52afbb60e21b5f5260018060a01b031660045260245260445260645ffd5b50505050565b600354801561216d576123de611e6e565b908082101561203c57611d70916123f491612042565b600b546006549161311d565b60018060a01b03165f525f51602061347f5f395f51905f52602052611d7060405f2054600654600b549161311d565b6001600160a01b0316801561248d575f5160206134bf5f395f51905f5280546001600160a01b0319811683179091556001600160a01b03167f8be0079c531659141344cd1fd0a4f28419497f9722a3daafe3b4186f6b6457e05f80a3565b631e4fbdf760e01b5f525f60045260245ffd5b80516001600160a01b03161561277a5760208101516001600160a01b03161561272b5761271063ffffffff604083015116116126e65761271063ffffffff606083015116116126a1576001600160401b03608082015116156126505760c00161271063ffffffff60408351015116116125e5578051602001516001600160a01b0316156125905751516001600160a01b03161561253957565b60405162461bcd60e51b815260206004820152602960248201527f53747261746567697374206163636f756e742063616e6e6f74206265207a65726044820152686f206164647265737360b81b6064820152608490fd5b60405162461bcd60e51b815260206004820152602760248201527f506c6174666f726d206163636f756e742063616e6e6f74206265207a65726f206044820152666164647265737360c81b6064820152608490fd5b60405162461bcd60e51b815260206004820152603c60248201527f53747261746567697374206163636f756e74206665652064697374726962757460448201527f696f6e20726174696f2063616e6e6f74206578636565642031303025000000006064820152608490fd5b60405162461bcd60e51b8152602060048201526024808201527f4d61782072617465207570646174652064656c61792063616e6e6f74206265206044820152637a65726f60e01b6064820152608490fd5b60405162461bcd60e51b815260206004820152601f60248201527f5769746864726177206665652063616e6e6f74206578636565642031303025006044820152606490fd5b60405162461bcd60e51b815260206004820152601e60248201527f4465706f736974206665652063616e6e6f7420657863656564203130302500006044820152606490fd5b60405162461bcd60e51b815260206004820152602160248201527f537472617465676973742063616e6e6f74206265207a65726f206164647265736044820152607360f81b6064820152608490fd5b60405162461bcd60e51b815260206004820152602660248201527f4465706f736974206163636f756e742063616e6e6f74206265207a65726f206160448201526564647265737360d01b6064820152608490fd5b916127da81838561311d565b9181156121d657611d70930915159061204f565b612710611d709261280082828561311d565b920915159061204f565b60025f51602061353f5f395f51905f5254146128335760025f51602061353f5f395f51905f5255565b633ee5aeb560e01b5f5260045ffd5b6001600160401b0342166001600160401b0360085460401c16908181036001600160401b0381116103d2576001600160401b0380600254169116116128875750505f90565b7fa23eaefe5c1780165b918668e0e10213a317fdab62f9a2fda3efd75a66de1ef0916040916201000162ff00ff1960075416176007557f9e3a5e37224532dea67b89face185703738a228a6e8a23dee546960180d3be646020845160018152a182519182526020820152a1600190565b6001600160a01b03161590506129a75715612962571561291357565b60405162461bcd60e51b815260206004820152602160248201527f416d6f756e7420746f2077697468647261772063616e6e6f74206265207a65726044820152606f60f81b6064820152608490fd5b60405162461bcd60e51b815260206004820152601860248201527f52656365697665722063616e6e6f7420626520656d70747900000000000000006044820152606490fd5b60405162461bcd60e51b815260206004820152602660248201527f4f776e6572206f66207368617265732063616e6e6f74206265207a65726f206160448201526564647265737360d01b6064820152608490fd5b6001600160a01b038516949192919033869003612c86575b612a1c916131bb565b6001600160401b036008541660065460405160a08101918183106001600160401b03841117611921576003926040528382526020820190888252604083019081526060830191878352612a70368a89611d1f565b608085019081525f968752600a6020526040968790209451855492516001600160e01b03199093166001600160401b03918216179290971b68010000000000000000600160e01b031691909117845590516001840155905160028301555180519290910192821161192157612ae58354611dd9565b601f8111612c41575b50602090601f8311600114612bbb577f34c29e8bdf5793b0f63f12d98c77ae4c94d65ed48423c83059e7c34575f68d3a949392915f9183612bb0575b50508160011b915f199060031b1c19161790555b6080600854956001600160401b03871695869581604051958694855260606020860152816060860152858501375f8383018501526040830152601f01601f19168101030190a26001600160401b0381146103d25760016001600160401b03910116906001600160401b03191617600855565b015190505f80612b2a565b90601f19831691845f52815f20925f5b818110612c2957509160019391857f34c29e8bdf5793b0f63f12d98c77ae4c94d65ed48423c83059e7c34575f68d3a9897969410612c11575b505050811b019055612b3e565b01515f1960f88460031b161c191690555f8080612c04565b92936020600181928786015181550195019301612bcb565b835f5260205f20601f840160051c81019160208510612c7c575b601f0160051c01905b818110612c715750612aee565b5f8155600101612c64565b9091508190612c5b565b612c8f82612278565b60018060a01b0333165f526020528060405f205410612cbe57612a1c91612cb7823383612cfc565b9150612a13565b60405162461bcd60e51b8152602060048201526016602482015275496e73756666696369656e7420616c6c6f77616e636560501b6044820152606490fd5b9190612d0783612278565b60018060a01b0382165f5260205260405f2054925f198410612d295750505050565b828410612d76576001600160a01b03811615611b45576001600160a01b03821615611b3257612d5790612278565b9060018060a01b03165f5260205260405f20910390555f8080806123c7565b508290637dc7a0d960e11b5f5260018060a01b031660045260245260445260645ffd5b6001600160a01b0316908115612e6a576001600160a01b0316918215612e5757815f525f51602061347f5f395f51905f5260205260405f2054818110612e3e57817fddf252ad1be2c89b69c2b068fc378daa952ba7f163c4a11628f55a4df523b3ef92602092855f525f51602061347f5f395f51905f5284520360405f2055845f525f51602061347f5f395f51905f52825260405f20818154019055604051908152a3565b8263391434e360e21b5f5260045260245260445260645ffd5b63ec442f0560e01b5f525f60045260245ffd5b634b637e8f60e11b5f525f60045260245ffd5b5f51602061351f5f395f51905f52545f54604080516323b872dd60e01b60208201526001600160a01b0394851660248201819052928516604482015260648082018890528152959691957fdcbc1c05240f31ff3ad067ef1ee35ce4997762752e3a095284754544f4c709d79591949193612f029216612efd608483611ce3565b61339d565b612f0c8183613271565b825195865260208601526001600160a01b031693a3565b5f5160206134bf5f395f51905f52546001600160a01b03163303612f4357565b63118cdaa760e01b5f523360045260245ffd5b60095490811561303557612f7761271063ffffffff6040840151168461311d565b612f8481612f9694612042565b90600b5493849160065492839161311d565b93612fa09261311d565b9160407ff227c93b6b816f85ef75ee32431495d61932665acd4193a40431a42f1502701a915f6009558061301a575b84612ffc575b83516020948501518351928352948201959095526001600160a01b039384169490931692a3565b60208401516130159086906001600160a01b0316613271565b612fd5565b83516130309082906001600160a01b0316613271565b612fcf565b5050565b6001600160a01b03808416959294908216937ffbde797d201c681b91056529119e0b02407c7bb96a4a2c75c01fc9667232c8db93604093909161308991839190828b8a036130e1575b50506131bb565b5f51602061351f5f395f51905f5254835163a9059cbb60e01b60208201526001600160a01b039788166024820181905260448083018690528252976130d49216612efd606483611ce3565b82519182526020820152a4565b6130eb9183612cfc565b5f82613082565b60ff5f51602061355f5f395f51905f525460401c161561310e57565b631afcd79f60e31b5f5260045ffd5b91818302915f19818509938380861095039480860395146131ad57848311156131955790829109815f0382168092046002816003021880820260020302808202600203028082026002030280820260020302808202600203028091026002030293600183805f03040190848311900302920304170290565b82634e487b715f52156003026011186020526024601cfd5b5050809250156121d6570490565b9091906001600160a01b03168015612e6a57805f525f51602061347f5f395f51905f5260205260405f2054838110613257576020845f94957fddf252ad1be2c89b69c2b068fc378daa952ba7f163c4a11628f55a4df523b3ef938587525f51602061347f5f395f51905f528452036040862055805f5160206134df5f395f51905f5254035f5160206134df5f395f51905f5255604051908152a3565b915063391434e360e21b5f5260045260245260445260645ffd5b6001600160a01b0316908115612e57577fddf252ad1be2c89b69c2b068fc378daa952ba7f163c4a11628f55a4df523b3ef6020826132be5f945f5160206134df5f395f51905f525461204f565b5f5160206134df5f395f51905f52558484525f51602061347f5f395f51905f52825260408420818154019055604051908152a3565b3d1561331d573d9061330482611d04565b916133126040519384611ce3565b82523d5f602084013e565b606090565b5f8091604051602081019063313ce56760e01b825260048152613346602482611ce3565b51916001600160a01b03165afa61335b6132f3565b9080613391575b61336e575b505f905f90565b60208180518101031261004d576020015160ff8111613367579060ff6001921690565b50602081511015613362565b905f602091828151910182855af1156133f5575f513d6133ec57506001600160a01b0381163b155b6133cc5750565b635274afe760e01b5f9081526001600160a01b0391909116600452602490fd5b600114156133c5565b6040513d5f823e3d90fd5b90613424575080511561341557805190602001fd5b63d6bda27560e01b5f5260045ffd5b81511580613455575b613435575090565b639996b31560e01b5f9081526001600160a01b0391909116600452602490fd5b50803b1561342d56fe52c63247e1f47db19d5ce0460030c497f067ca4cebf71ba98eeadabe20bace0352c63247e1f47db19d5ce0460030c497f067ca4cebf71ba98eeadabe20bace0052c63247e1f47db19d5ce0460030c497f067ca4cebf71ba98eeadabe20bace049016d09d72d40fdae2fd8ceac6b6234c7706214fd39c1cd1e609a0528c19930052c63247e1f47db19d5ce0460030c497f067ca4cebf71ba98eeadabe20bace02360894a13ba1a3210667c828492db98dca3e2076cc3735a920a3ca505d382bbc0773e532dfede91f04b12a73d3d2acd361424f41f76b4fb79f090161e36b4e009b779b17422d0df92223018b32b4d1fa46e071723d6817e2486d003becc55f00f0c57e16840df040f15088dc2f81fe391c3923bec73e23a9662efc9c229c6a00a2646970667358221220b00c4389df76cd8ac91341617323207603e4c1b94bfdade5b7a67c4f4997afe864736f6c634300081d0033f0c57e16840df040f15088dc2f81fe391c3923bec73e23a9662efc9c229c6a00","linkReferences":{}},"methodIdentifiers":{"UPGRADE_INTERFACE_VERSION()":"ad3cb1cc","allowance(address,address)":"dd62ed3e","approve(address,uint256)":"095ea7b3","asset()":"38d52e0f","balanceOf(address)":"70a08231","calculateDepositFee(uint256)":"247d284b","calculateMintFee(uint256)":"5c095e54","calculateWithdrawalFee(uint256)":"18e1b3bb","config()":"79502c55","convertToAssets(uint256)":"07a2d13a","convertToShares(uint256)":"c6e6f592","currentWithdrawRequestId()":"d083b2ee","decimals()":"313ce567","deposit(uint256,address)":"6e553f65","feesAccruedInAsset()":"cd1da35c","initialize(address,bytes,address,string,string,uint256)":"0e5e1e31","lastRateUpdateTimestamp()":"18fe961b","maxDeposit(address)":"402d267d","maxMint(address)":"c63d75b6","maxRedeem(address)":"d905777e","maxWithdraw(address)":"ce96cb77","mint(uint256,address)":"94bf804d","name()":"06fdde03","owner()":"8da5cb5b","pause()":"8456cb59","previewDeposit(uint256)":"ef8b30f7","previewMint(uint256)":"b3d7f6b9","previewRedeem(uint256)":"4cdad506","previewWithdraw(uint256)":"0a28a477","proxiableUUID()":"52d1902d","redeem(uint256,address,address)":"ba087652","redeem(uint256,string,address)":"99646d1c","redemptionRate()":"540385a3","renounceOwnership()":"715018a6","symbol()":"95d89b41","totalAssets()":"01e1d114","totalSupply()":"18160ddd","transfer(address,uint256)":"a9059cbb","transferFrom(address,address,uint256)":"23b872dd","transferOwnership(address)":"f2fde38b","unpause()":"3f4ba83a","update(uint256)":"82ab890a","updateConfig(bytes)":"8cc6acce","upgradeToAndCall(address,bytes)":"4f1ef286","vaultState()":"2728f333","withdraw(uint256,address,address)":"b460af94","withdraw(uint256,string,address)":"1bd9c31a","withdrawRequests(uint64)":"94ba2b8d"},"id":58}