{"abi":[{"type":"constructor","inputs":[{"name":"_owner","type":"address","internalType":"address"}],"stateMutability":"nonpayable"},{"type":"function","name":"allowUser","inputs":[{"name":"_user","type":"address","internalType":"address"}],"outputs":[],"stateMutability":"nonpayable"},{"type":"function","name":"asset","inputs":[],"outputs":[{"name":"","type":"address","internalType":"contract IERC20"}],"stateMutability":"view"},{"type":"function","name":"cooperator","inputs":[],"outputs":[{"name":"","type":"address","internalType":"address"}],"stateMutability":"view"},{"type":"function","name":"deposit","inputs":[{"name":"assets","type":"uint256","internalType":"uint256"},{"name":"receiver","type":"address","internalType":"address"}],"outputs":[{"name":"","type":"uint256","internalType":"uint256"}],"stateMutability":"nonpayable"},{"type":"function","name":"owner","inputs":[],"outputs":[{"name":"","type":"address","internalType":"address"}],"stateMutability":"view"},{"type":"function","name":"removeUser","inputs":[{"name":"_user","type":"address","internalType":"address"}],"outputs":[],"stateMutability":"nonpayable"},{"type":"function","name":"renounceOwnership","inputs":[],"outputs":[],"stateMutability":"nonpayable"},{"type":"function","name":"setConfig","inputs":[{"name":"_vault","type":"address","internalType":"address"},{"name":"_zkMe","type":"address","internalType":"address"},{"name":"_cooperator","type":"address","internalType":"address"},{"name":"_withdrawsEnabled","type":"bool","internalType":"bool"}],"outputs":[],"stateMutability":"nonpayable"},{"type":"function","name":"transferOwnership","inputs":[{"name":"newOwner","type":"address","internalType":"address"}],"outputs":[],"stateMutability":"nonpayable"},{"type":"function","name":"vault","inputs":[],"outputs":[{"name":"","type":"address","internalType":"contract OneWayVault"}],"stateMutability":"view"},{"type":"function","name":"withdraw","inputs":[{"name":"assets","type":"uint256","internalType":"uint256"},{"name":"receiver","type":"string","internalType":"string"}],"outputs":[],"stateMutability":"nonpayable"},{"type":"function","name":"withdrawsEnabled","inputs":[],"outputs":[{"name":"","type":"bool","internalType":"bool"}],"stateMutability":"view"},{"type":"function","name":"zkMe","inputs":[],"outputs":[{"name":"","type":"address","internalType":"contract IZkMe"}],"stateMutability":"view"},{"type":"event","name":"OwnershipTransferred","inputs":[{"name":"previousOwner","type":"address","indexed":true,"internalType":"address"},{"name":"newOwner","type":"address","indexed":true,"internalType":"address"}],"anonymous":false},{"type":"error","name":"KycFailed","inputs":[]},{"type":"error","name":"OwnableInvalidOwner","inputs":[{"name":"owner","type":"address","internalType":"address"}]},{"type":"error","name":"OwnableUnauthorizedAccount","inputs":[{"name":"account","type":"address","internalType":"address"}]},{"type":"error","name":"SafeERC20FailedOperation","inputs":[{"name":"token","type":"address","internalType":"address"}]},{"type":"error","name":"WithdrawsDisabled","inputs":[]}],"bytecode":{"object":"0x60803460b857601f6108ee38819003918201601f19168301916001600160401b0383118484101760bc5780849260209460405283398101031260b857516001600160a01b0381169081900360b857801560a5575f80546001600160a01b031981168317825560405192916001600160a01b03909116907f8be0079c531659141344cd1fd0a4f28419497f9722a3daafe3b4186f6b6457e09080a361081d90816100d18239f35b631e4fbdf760e01b5f525f60045260245ffd5b5f80fd5b634e487b7160e01b5f52604160045260245ffdfe6080806040526004361015610012575f80fd5b5f905f3560e01c9081631acee209146107245750806338d52e0f146106fc5780636e553f65146104de578063715018a614610487578063771c456f14610443578063858bd2211461041e57806388241766146102ec5780638da5cb5b146102c55780639857518814610284578063bd5dc15e1461025c578063dc048cf21461015e578063f2fde38b146100d85763fbfa77cf146100ad575f80fd5b346100d557806003193601126100d5576001546040516001600160a01b039091168152602090f35b80fd5b50346100d55760203660031901126100d5576100f261075d565b6100fa6107c1565b6001600160a01b0316801561014a5781546001600160a01b03198116821783556001600160a01b03167f8be0079c531659141344cd1fd0a4f28419497f9722a3daafe3b4186f6b6457e08380a380f35b631e4fbdf760e01b82526004829052602482fd5b50346102495760403660031901126102495760243567ffffffffffffffff811161024957366023820112156102495780600401359067ffffffffffffffff82116102495736602483830101116102495760ff60045460a01c161561024d576001546001600160a01b031690813b15610249575f916024836084869460405197889687958693630dece18d60e11b8552600435600486015260608286015282606486015201848401378181018301849052336044830152601f01601f191681010301925af1801561023e57610230575080f35b61023c91505f90610773565b005b6040513d5f823e3d90fd5b5f80fd5b637631ae2360e01b5f5260045ffd5b34610249575f366003190112610249576002546040516001600160a01b039091168152602090f35b346102495760203660031901126102495761029d61075d565b6102a56107c1565b6001600160a01b03165f908152600560205260409020805460ff19169055005b34610249575f366003190112610249575f546040516001600160a01b039091168152602090f35b346102495760803660031901126102495761030561075d565b61030d610747565b6044356001600160a01b038116929083900361024957606435918215158093036102495760049360209261033f6107c1565b60018060a01b031691826001600160601b0360a01b600154161760015560018060a01b03166001600160601b0360a01b60025416176002556001600160601b0360a01b6003541617600355604051938480926338d52e0f60e01b82525afa91821561023e575f926103da575b50600480546001600160a81b0319166001600160a01b039093169290921760a09190911b60ff60a01b16179055005b9091506020813d602011610416575b816103f660209383610773565b8101031261024957516001600160a01b03811681036102495790826103ab565b3d91506103e9565b34610249575f36600319011261024957602060ff60045460a01c166040519015158152f35b346102495760203660031901126102495761045c61075d565b6104646107c1565b6001600160a01b03165f908152600560205260409020805460ff19166001179055005b34610249575f3660031901126102495761049f6107c1565b5f80546001600160a01b0319811682556001600160a01b03167f8be0079c531659141344cd1fd0a4f28419497f9722a3daafe3b4186f6b6457e08280a3005b34610249576040366003190112610249576004356104fa610747565b335f52600560205260ff60405f2054161580610690575b6106815760018060a01b036004541660205f604051828101906323b872dd60e01b825233602482015230604482015286606482015260648152610555608482610773565b519082855af11561023e575f513d6106785750803b155b61066657505f90602060018060a01b0360045416604460018060a01b0360015416604051958693849263095ea7b360e01b845260048401528860248401525af191821561023e5760209261063b575b50600154604051636e553f6560e01b815260048101949094526001600160a01b039182166024850152839160449183915f91165af1801561023e575f90610608575b602090604051908152f35b506020813d602011610633575b8161062260209383610773565b8101031261024957602090516105fd565b3d9150610615565b61065a90833d851161065f575b6106528183610773565b8101906107a9565b6105bb565b503d610648565b635274afe760e01b5f5260045260245ffd5b6001141561056c565b6376cc8d3760e01b5f5260045ffd5b5060025460035460405163032c91b160e31b81526001600160a01b0391821660048201523360248201529160209183916044918391165afa90811561023e575f916106dd575b5015610511565b6106f6915060203d60201161065f576106528183610773565b836106d6565b34610249575f366003190112610249576004546040516001600160a01b039091168152602090f35b34610249575f366003190112610249576003546001600160a01b03168152602090f35b602435906001600160a01b038216820361024957565b600435906001600160a01b038216820361024957565b90601f8019910116810190811067ffffffffffffffff82111761079557604052565b634e487b7160e01b5f52604160045260245ffd5b90816020910312610249575180151581036102495790565b5f546001600160a01b031633036107d457565b63118cdaa760e01b5f523360045260245ffdfea264697066735822122046b8e08d83f45786044299445d8b27c17308531e5bdbfc68024704f7373f9af464736f6c634300081e0033","linkReferences":{}},"methodIdentifiers":{"allowUser(address)":"771c456f","asset()":"38d52e0f","cooperator()":"1acee209","deposit(uint256,address)":"6e553f65","owner()":"8da5cb5b","removeUser(address)":"98575188","renounceOwnership()":"715018a6","setConfig(address,address,address,bool)":"88241766","transferOwnership(address)":"f2fde38b","vault()":"fbfa77cf","withdraw(uint256,string)":"dc048cf2","withdrawsEnabled()":"858bd221","zkMe()":"bd5dc15e"},"id":60}