{"abi":[{"type":"constructor","inputs":[],"stateMutability":"nonpayable"},{"type":"fallback","stateMutability":"nonpayable"},{"type":"function","name":"UPGRADE_INTERFACE_VERSION","inputs":[],"outputs":[{"name":"","type":"string","internalType":"string"}],"stateMutability":"view"},{"type":"function","name":"allowance","inputs":[{"name":"owner","type":"address","internalType":"address"},{"name":"spender","type":"address","internalType":"address"}],"outputs":[{"name":"","type":"uint256","internalType":"uint256"}],"stateMutability":"view"},{"type":"function","name":"approve","inputs":[{"name":"spender","type":"address","internalType":"address"},{"name":"value","type":"uint256","internalType":"uint256"}],"outputs":[{"name":"","type":"bool","internalType":"bool"}],"stateMutability":"nonpayable"},{"type":"function","name":"asset","inputs":[],"outputs":[{"name":"","type":"address","internalType":"address"}],"stateMutability":"view"},{"type":"function","name":"balanceOf","inputs":[{"name":"account","type":"address","internalType":"address"}],"outputs":[{"name":"","type":"uint256","internalType":"uint256"}],"stateMutability":"view"},{"type":"function","name":"calculateDepositFee","inputs":[{"name":"assets","type":"uint256","internalType":"uint256"}],"outputs":[{"name":"","type":"uint256","internalType":"uint256"}],"stateMutability":"view"},{"type":"function","name":"calculateMintFee","inputs":[{"name":"shares","type":"uint256","internalType":"uint256"}],"outputs":[{"name":"","type":"uint256","internalType":"uint256"},{"name":"","type":"uint256","internalType":"uint256"}],"stateMutability":"view"},{"type":"function","name":"calculateWithdrawalFee","inputs":[{"name":"assets","type":"uint256","internalType":"uint256"}],"outputs":[{"name":"","type":"uint256","internalType":"uint256"}],"stateMutability":"view"},{"type":"function","name":"config","inputs":[],"outputs":[{"name":"depositAccount","type":"address","internalType":"contract BaseAccount"},{"name":"strategist","type":"address","internalType":"address"},{"name":"depositFeeBps","type":"uint32","internalType":"uint32"},{"name":"withdrawFeeBps","type":"uint32","internalType":"uint32"},{"name":"maxRateIncrementBps","type":"uint32","internalType":"uint32"},{"name":"maxRateDecrementBps","type":"uint32","internalType":"uint32"},{"name":"minRateUpdateDelay","type":"uint64","internalType":"uint64"},{"name":"maxRateUpdateDelay","type":"uint64","internalType":"uint64"},{"name":"depositCap","type":"uint256","internalType":"uint256"},{"name":"feeDistribution","type":"tuple","internalType":"struct OneWayVault.FeeDistributionConfig","components":[{"name":"strategistAccount","type":"address","internalType":"address"},{"name":"platformAccount","type":"address","internalType":"address"},{"name":"strategistRatioBps","type":"uint32","internalType":"uint32"}]}],"stateMutability":"view"},{"type":"function","name":"convertToAssets","inputs":[{"name":"shares","type":"uint256","internalType":"uint256"}],"outputs":[{"name":"","type":"uint256","internalType":"uint256"}],"stateMutability":"view"},{"type":"function","name":"convertToShares","inputs":[{"name":"assets","type":"uint256","internalType":"uint256"}],"outputs":[{"name":"","type":"uint256","internalType":"uint256"}],"stateMutability":"view"},{"type":"function","name":"currentWithdrawRequestId","inputs":[],"outputs":[{"name":"","type":"uint64","internalType":"uint64"}],"stateMutability":"view"},{"type":"function","name":"decimals","inputs":[],"outputs":[{"name":"","type":"uint8","internalType":"uint8"}],"stateMutability":"view"},{"type":"function","name":"deposit","inputs":[{"name":"assets","type":"uint256","internalType":"uint256"},{"name":"receiver","type":"address","internalType":"address"}],"outputs":[{"name":"","type":"uint256","internalType":"uint256"}],"stateMutability":"nonpayable"},{"type":"function","name":"feesAccruedInAsset","inputs":[],"outputs":[{"name":"","type":"uint256","internalType":"uint256"}],"stateMutability":"view"},{"type":"function","name":"initialize","inputs":[{"name":"_owner","type":"address","internalType":"address"},{"name":"_config","type":"bytes","internalType":"bytes"},{"name":"underlying","type":"address","internalType":"address"},{"name":"vaultTokenName","type":"string","internalType":"string"},{"name":"vaultTokenSymbol","type":"string","internalType":"string"},{"name":"startingRate","type":"uint256","internalType":"uint256"}],"outputs":[],"stateMutability":"nonpayable"},{"type":"function","name":"lastRateUpdateTimestamp","inputs":[],"outputs":[{"name":"","type":"uint64","internalType":"uint64"}],"stateMutability":"view"},{"type":"function","name":"maxDeposit","inputs":[{"name":"","type":"address","internalType":"address"}],"outputs":[{"name":"","type":"uint256","internalType":"uint256"}],"stateMutability":"view"},{"type":"function","name":"maxMint","inputs":[{"name":"","type":"address","internalType":"address"}],"outputs":[{"name":"","type":"uint256","internalType":"uint256"}],"stateMutability":"view"},{"type":"function","name":"maxRedeem","inputs":[{"name":"owner","type":"address","internalType":"address"}],"outputs":[{"name":"","type":"uint256","internalType":"uint256"}],"stateMutability":"view"},{"type":"function","name":"maxWithdraw","inputs":[{"name":"owner","type":"address","internalType":"address"}],"outputs":[{"name":"","type":"uint256","internalType":"uint256"}],"stateMutability":"view"},{"type":"function","name":"mint","inputs":[{"name":"shares","type":"uint256","internalType":"uint256"},{"name":"receiver","type":"address","internalType":"address"}],"outputs":[{"name":"","type":"uint256","internalType":"uint256"}],"stateMutability":"nonpayable"},{"type":"function","name":"name","inputs":[],"outputs":[{"name":"","type":"string","internalType":"string"}],"stateMutability":"view"},{"type":"function","name":"owner","inputs":[],"outputs":[{"name":"","type":"address","internalType":"address"}],"stateMutability":"view"},{"type":"function","name":"pause","inputs":[],"outputs":[],"stateMutability":"nonpayable"},{"type":"function","name":"previewDeposit","inputs":[{"name":"assets","type":"uint256","internalType":"uint256"}],"outputs":[{"name":"","type":"uint256","internalType":"uint256"}],"stateMutability":"view"},{"type":"function","name":"previewMint","inputs":[{"name":"shares","type":"uint256","internalType":"uint256"}],"outputs":[{"name":"","type":"uint256","internalType":"uint256"}],"stateMutability":"view"},{"type":"function","name":"previewRedeem","inputs":[{"name":"shares","type":"uint256","internalType":"uint256"}],"outputs":[{"name":"","type":"uint256","internalType":"uint256"}],"stateMutability":"view"},{"type":"function","name":"previewWithdraw","inputs":[{"name":"assets","type":"uint256","internalType":"uint256"}],"outputs":[{"name":"","type":"uint256","internalType":"uint256"}],"stateMutability":"view"},{"type":"function","name":"proxiableUUID","inputs":[],"outputs":[{"name":"","type":"bytes32","internalType":"bytes32"}],"stateMutability":"view"},{"type":"function","name":"redeem","inputs":[{"name":"shares","type":"uint256","internalType":"uint256"},{"name":"receiver","type":"string","internalType":"string"},{"name":"owner","type":"address","internalType":"address"}],"outputs":[],"stateMutability":"payable"},{"type":"function","name":"redeem","inputs":[{"name":"shares","type":"uint256","internalType":"uint256"},{"name":"receiver","type":"address","internalType":"address"},{"name":"owner","type":"address","internalType":"address"}],"outputs":[{"name":"","type":"uint256","internalType":"uint256"}],"stateMutability":"nonpayable"},{"type":"function","name":"redemptionRate","inputs":[],"outputs":[{"name":"","type":"uint256","internalType":"uint256"}],"stateMutability":"view"},{"type":"function","name":"renounceOwnership","inputs":[],"outputs":[],"stateMutability":"nonpayable"},{"type":"function","name":"symbol","inputs":[],"outputs":[{"name":"","type":"string","internalType":"string"}],"stateMutability":"view"},{"type":"function","name":"totalAssets","inputs":[],"outputs":[{"name":"","type":"uint256","internalType":"uint256"}],"stateMutability":"view"},{"type":"function","name":"totalSupply","inputs":[],"outputs":[{"name":"","type":"uint256","internalType":"uint256"}],"stateMutability":"view"},{"type":"function","name":"transfer","inputs":[{"name":"to","type":"address","internalType":"address"},{"name":"value","type":"uint256","internalType":"uint256"}],"outputs":[{"name":"","type":"bool","internalType":"bool"}],"stateMutability":"nonpayable"},{"type":"function","name":"transferFrom","inputs":[{"name":"from","type":"address","internalType":"address"},{"name":"to","type":"address","internalType":"address"},{"name":"value","type":"uint256","internalType":"uint256"}],"outputs":[{"name":"","type":"bool","internalType":"bool"}],"stateMutability":"nonpayable"},{"type":"function","name":"transferOwnership","inputs":[{"name":"newOwner","type":"address","internalType":"address"}],"outputs":[],"stateMutability":"nonpayable"},{"type":"function","name":"unpause","inputs":[],"outputs":[],"stateMutability":"nonpayable"},{"type":"function","name":"update","inputs":[{"name":"newRate","type":"uint256","internalType":"uint256"}],"outputs":[],"stateMutability":"nonpayable"},{"type":"function","name":"updateConfig","inputs":[{"name":"_config","type":"bytes","internalType":"bytes"}],"outputs":[],"stateMutability":"nonpayable"},{"type":"function","name":"upgradeToAndCall","inputs":[{"name":"newImplementation","type":"address","internalType":"address"},{"name":"data","type":"bytes","internalType":"bytes"}],"outputs":[],"stateMutability":"payable"},{"type":"function","name":"vaultState","inputs":[],"outputs":[{"name":"paused","type":"bool","internalType":"bool"},{"name":"pausedByOwner","type":"bool","internalType":"bool"},{"name":"pausedByStaleRate","type":"bool","internalType":"bool"}],"stateMutability":"view"},{"type":"function","name":"withdraw","inputs":[{"name":"assets","type":"uint256","internalType":"uint256"},{"name":"receiver","type":"string","internalType":"string"},{"name":"owner","type":"address","internalType":"address"}],"outputs":[],"stateMutability":"payable"},{"type":"function","name":"withdraw","inputs":[{"name":"assets","type":"uint256","internalType":"uint256"},{"name":"receiver","type":"address","internalType":"address"},{"name":"owner","type":"address","internalType":"address"}],"outputs":[{"name":"","type":"uint256","internalType":"uint256"}],"stateMutability":"nonpayable"},{"type":"function","name":"withdrawRequests","inputs":[{"name":"","type":"uint64","internalType":"uint64"}],"outputs":[{"name":"id","type":"uint64","internalType":"uint64"},{"name":"owner","type":"address","internalType":"address"},{"name":"redemptionRate","type":"uint256","internalType":"uint256"},{"name":"sharesAmount","type":"uint256","internalType":"uint256"},{"name":"receiver","type":"string","internalType":"string"}],"stateMutability":"view"},{"type":"event","name":"Approval","inputs":[{"name":"owner","type":"address","indexed":true,"internalType":"address"},{"name":"spender","type":"address","indexed":true,"internalType":"address"},{"name":"value","type":"uint256","indexed":false,"internalType":"uint256"}],"anonymous":false},{"type":"event","name":"ConfigUpdated","inputs":[{"name":"updater","type":"address","indexed":true,"internalType":"address"},{"name":"newConfig","type":"tuple","indexed":false,"internalType":"struct OneWayVault.OneWayVaultConfig","components":[{"name":"depositAccount","type":"address","internalType":"contract BaseAccount"},{"name":"strategist","type":"address","internalType":"address"},{"name":"depositFeeBps","type":"uint32","internalType":"uint32"},{"name":"withdrawFeeBps","type":"uint32","internalType":"uint32"},{"name":"maxRateIncrementBps","type":"uint32","internalType":"uint32"},{"name":"maxRateDecrementBps","type":"uint32","internalType":"uint32"},{"name":"minRateUpdateDelay","type":"uint64","internalType":"uint64"},{"name":"maxRateUpdateDelay","type":"uint64","internalType":"uint64"},{"name":"depositCap","type":"uint256","internalType":"uint256"},{"name":"feeDistribution","type":"tuple","internalType":"struct OneWayVault.FeeDistributionConfig","components":[{"name":"strategistAccount","type":"address","internalType":"address"},{"name":"platformAccount","type":"address","internalType":"address"},{"name":"strategistRatioBps","type":"uint32","internalType":"uint32"}]}]}],"anonymous":false},{"type":"event","name":"Deposit","inputs":[{"name":"sender","type":"address","indexed":true,"internalType":"address"},{"name":"owner","type":"address","indexed":true,"internalType":"address"},{"name":"assets","type":"uint256","indexed":false,"internalType":"uint256"},{"name":"shares","type":"uint256","indexed":false,"internalType":"uint256"}],"anonymous":false},{"type":"event","name":"FeesDistributed","inputs":[{"name":"strategistAccount","type":"address","indexed":true,"internalType":"address"},{"name":"platformAccount","type":"address","indexed":true,"internalType":"address"},{"name":"strategistShares","type":"uint256","indexed":false,"internalType":"uint256"},{"name":"platformShares","type":"uint256","indexed":false,"internalType":"uint256"}],"anonymous":false},{"type":"event","name":"Initialized","inputs":[{"name":"version","type":"uint64","indexed":false,"internalType":"uint64"}],"anonymous":false},{"type":"event","name":"OwnershipTransferred","inputs":[{"name":"previousOwner","type":"address","indexed":true,"internalType":"address"},{"name":"newOwner","type":"address","indexed":true,"internalType":"address"}],"anonymous":false},{"type":"event","name":"PausedStateChanged","inputs":[{"name":"paused","type":"bool","indexed":false,"internalType":"bool"}],"anonymous":false},{"type":"event","name":"RateUpdated","inputs":[{"name":"newRate","type":"uint256","indexed":false,"internalType":"uint256"}],"anonymous":false},{"type":"event","name":"StaleRatePaused","inputs":[{"name":"lastUpdateTimestamp","type":"uint64","indexed":false,"internalType":"uint64"},{"name":"currentTimestamp","type":"uint64","indexed":false,"internalType":"uint64"}],"anonymous":false},{"type":"event","name":"Transfer","inputs":[{"name":"from","type":"address","indexed":true,"internalType":"address"},{"name":"to","type":"address","indexed":true,"internalType":"address"},{"name":"value","type":"uint256","indexed":false,"internalType":"uint256"}],"anonymous":false},{"type":"event","name":"Upgraded","inputs":[{"name":"implementation","type":"address","indexed":true,"internalType":"address"}],"anonymous":false},{"type":"event","name":"Withdraw","inputs":[{"name":"sender","type":"address","indexed":true,"internalType":"address"},{"name":"receiver","type":"address","indexed":true,"internalType":"address"},{"name":"owner","type":"address","indexed":true,"internalType":"address"},{"name":"assets","type":"uint256","indexed":false,"internalType":"uint256"},{"name":"shares","type":"uint256","indexed":false,"internalType":"uint256"}],"anonymous":false},{"type":"event","name":"WithdrawRequested","inputs":[{"name":"id","type":"uint64","indexed":true,"internalType":"uint64"},{"name":"owner","type":"address","indexed":false,"internalType":"address"},{"name":"receiver","type":"string","indexed":false,"internalType":"string"},{"name":"shares","type":"uint256","indexed":false,"internalType":"uint256"}],"anonymous":false},{"type":"error","name":"AddressEmptyCode","inputs":[{"name":"target","type":"address","internalType":"address"}]},{"type":"error","name":"ERC1967InvalidImplementation","inputs":[{"name":"implementation","type":"address","internalType":"address"}]},{"type":"error","name":"ERC1967NonPayable","inputs":[]},{"type":"error","name":"ERC20InsufficientAllowance","inputs":[{"name":"spender","type":"address","internalType":"address"},{"name":"allowance","type":"uint256","internalType":"uint256"},{"name":"needed","type":"uint256","internalType":"uint256"}]},{"type":"error","name":"ERC20InsufficientBalance","inputs":[{"name":"sender","type":"address","internalType":"address"},{"name":"balance","type":"uint256","internalType":"uint256"},{"name":"needed","type":"uint256","internalType":"uint256"}]},{"type":"error","name":"ERC20InvalidApprover","inputs":[{"name":"approver","type":"address","internalType":"address"}]},{"type":"error","name":"ERC20InvalidReceiver","inputs":[{"name":"receiver","type":"address","internalType":"address"}]},{"type":"error","name":"ERC20InvalidSender","inputs":[{"name":"sender","type":"address","internalType":"address"}]},{"type":"error","name":"ERC20InvalidSpender","inputs":[{"name":"spender","type":"address","internalType":"address"}]},{"type":"error","name":"ERC4626ExceededMaxDeposit","inputs":[{"name":"receiver","type":"address","internalType":"address"},{"name":"assets","type":"uint256","internalType":"uint256"},{"name":"max","type":"uint256","internalType":"uint256"}]},{"type":"error","name":"ERC4626ExceededMaxMint","inputs":[{"name":"receiver","type":"address","internalType":"address"},{"name":"shares","type":"uint256","internalType":"uint256"},{"name":"max","type":"uint256","internalType":"uint256"}]},{"type":"error","name":"ERC4626ExceededMaxRedeem","inputs":[{"name":"owner","type":"address","internalType":"address"},{"name":"shares","type":"uint256","internalType":"uint256"},{"name":"max","type":"uint256","internalType":"uint256"}]},{"type":"error","name":"ERC4626ExceededMaxWithdraw","inputs":[{"name":"owner","type":"address","internalType":"address"},{"name":"assets","type":"uint256","internalType":"uint256"},{"name":"max","type":"uint256","internalType":"uint256"}]},{"type":"error","name":"FailedCall","inputs":[]},{"type":"error","name":"InvalidInitialization","inputs":[]},{"type":"error","name":"NotInitializing","inputs":[]},{"type":"error","name":"OwnableInvalidOwner","inputs":[{"name":"owner","type":"address","internalType":"address"}]},{"type":"error","name":"OwnableUnauthorizedAccount","inputs":[{"name":"account","type":"address","internalType":"address"}]},{"type":"error","name":"ReentrancyGuardReentrantCall","inputs":[]},{"type":"error","name":"SafeERC20FailedOperation","inputs":[{"name":"token","type":"address","internalType":"address"}]},{"type":"error","name":"UUPSUnauthorizedCallContext","inputs":[]},{"type":"error","name":"UUPSUnsupportedProxiableUUID","inputs":[{"name":"slot","type":"bytes32","internalType":"bytes32"}]}],"bytecode":{"object":"0x60a080604052346100c257306080525f516020613ace5f395f51905f525460ff8160401c166100b3576002600160401b03196001600160401b03821601610060575b604051613a0790816100c7823960805181818161114a01526111db0152f35b6001600160401b0319166001600160401b039081175f516020613ace5f395f51905f525581527fc7f505b2f371ae2175ee4913f4499e1f2633a7b5936321eed1cdaeb6115181d290602090a15f80610041565b63f92ee8a960e01b5f5260045ffd5b5f80fdfe60806040526004361015610051575b3461004d5760405162461bcd60e51b8152602060048201526012602482015271119d5b98dd1a5bdb881b9bdd08199bdd5b9960721b6044820152606490fd5b5f80fd5b5f3560e01c806301e1d11414611ee357806306fdde0314611e2657806307a2d13a1461136b578063095ea7b314611d815780630a28a47714611d5c5780630e5e1e311461169f57806318160ddd1461167657806318e1b3bb1461165857806318fe961b1461162f5780631bd9c31a1461160a57806323b872dd146115d2578063247d284b146115b45780632728f33314611578578063313ce5671461155357806338d52e0f1461151f5780633f4ba83a14611394578063402d267d146113705780634cdad5061461136b5780634f1ef2861461119e57806352d1902d14611138578063540385a31461111b5780635c095e54146110f15780636e553f65146110c057806370a08231146102dc578063715018a61461105957806379502c5514610f5757806382ab890a14610be65780638456cb5914610a6d5780638cc6acce146107fd5780638da5cb5b146107c957806394ba2b8d146106a157806394bf804d1461067057806395d89b411461057a57806399646d1c1461050b578063a9059cbb146104da578063ad3cb1cc1461048f578063b3d7f6b91461046a578063b460af9414610408578063ba08765214610391578063c63d75b61461036d578063c6e6f59214610290578063cd1da35c14610350578063ce96cb771461032d578063d083b2ee14610307578063d905777e146102dc578063dd62ed3e14610295578063ef8b30f7146102905763f2fde38b0361000e573461004d57602036600319011261004d5761028e610281611f4f565b610289613376565b61279c565b005b61211a565b3461004d57604036600319011261004d576102ae611f4f565b6102bf6102b9611f65565b916125b2565b9060018060a01b03165f52602052602060405f2054604051908152f35b3461004d57602036600319011261004d5760206102ff6102fa611f4f565b6125ea565b604051908152f35b3461004d575f36600319011261004d5760206001600160401b0360085416604051908152f35b3461004d57602036600319011261004d5760206102ff61034b611f4f565b61276d565b3461004d575f36600319011261004d576020600954604051908152f35b3461004d57602036600319011261004d57610386611f4f565b5060206102ff61273a565b3461004d5761039f366120e0565b6103ab819392936125ea565b8083116103e657506103c3600654600b549084613570565b91826102ff926020953361348c565b634e487b7160e01b5f52601160045260245ffd5b9250632e52afbb60e21b5f5260018060a01b031660045260245260445260645ffd5b3461004d57610416366120e0565b90916104218261276d565b80821161044957506020926102ff91610440600b546006549083612c25565b9384923361348c565b91633fa733bb60e21b5f5260018060a01b031660045260245260445260645ffd5b3461004d57602036600319011261004d5760206102ff600654600b5490600435612c25565b3461004d575f36600319011261004d576104d66040516104b0604082611fb2565b60058152640352e302e360dc1b6020820152604051918291602083526020830190611efd565b0390f35b3461004d57604036600319011261004d576105006104f6611f4f565b60243590336131ec565b602060405160018152f35b61051436612042565b9161051d612c61565b60ff6007541661054357610530936126b2565b60015f5160206139925f395f51905f5255005b60405162461bcd60e51b815260206004820152600f60248201526e15985d5b1d081a5cc81c185d5cd959608a1b6044820152606490fd5b3461004d575f36600319011261004d576040515f5f5160206138f25f395f51905f52546105a6816120a8565b808452906001811690811561064c57506001146105e2575b6104d6836105ce81850382611fb2565b604051918291602083526020830190611efd565b5f5160206138f25f395f51905f525f9081527f46a2803e59a4de4e7a4c574b1243f25977ac4c77d5a1a4a609b5394cebb4a2aa939250905b808210610632575090915081016020016105ce6105be565b91926001816020925483858801015201910190929161061a565b60ff191660208086019190915291151560051b840190910191506105ce90506105be565b3461004d57604036600319011261004d57610689611f65565b60ff60075416610543576102ff602091600435612643565b3461004d57602036600319011261004d576004356001600160401b03811680910361004d575f52600a60205260405f20805460018201549160036002820154910190604051915f908054906106f5826120a8565b80865291600181169081156107a2575060011461075e575b505090610720836104d694930383611fb2565b60405194846001600160401b03879616865260018060a01b039060401c1660208601526040850152606084015260a0608084015260a0830190611efd565b5f9081526020812094939250905b80821061078657509192509082016020016107208361070d565b919293600181602092548385890101520191019093929161076c565b60ff191660208088019190915292151560051b86019092019250610720915084905061070d565b3461004d575f36600319011261004d575f5160206139125f395f51905f52546040516001600160a01b039091168152602090f35b3461004d57602036600319011261004d576004356001600160401b03811161004d5761082d903690600401612024565b610835613376565b80518101602001906020019061084a91612194565b6108538161280d565b80515f80546001600160a01b03199081166001600160a01b03938416908117909255602084018051600180549093169416939093179055916040810180516001805463ffffffff60a01b191660a09290921b63ffffffff60a01b169190911790556060820190815160015490608085019163ffffffff60e01b835160e01b169163ffffffff60c01b9060c01b1690600160c01b6001900316171760015560a0840190815163ffffffff16936002549360c0870194855160201b6bffffffffffffffff000000001660e08901976001600160401b0360601b895160601b16926bffffffffffffffffffffffff60a01b16171717600255610100870196875160035561012001978851600160a01b6001900381511661098c9060018060a01b03166bffffffffffffffffffffffff60a01b6004541617600455565b6020818101516005805460409485015163ffffffff60a01b60a091821b166001600160c01b03199092166001600160a01b03948516179190911790915583519d8e52935181168d830152935163ffffffff9081168d8401529451851660608d01529451841660808c015294518316908a015293516001600160401b0390811660c08a0152945190941660e0880152935161010087015293518051821661012087015292830151166101408501529101511661016082015233906101807f97d5cdf1d286faa22a5af584c7c53242d22dae02f82c8d38e19c5ae38ffcfe6c91a2005b3461004d575f36600319011261004d575f5160206139125f395f51905f52546001600160a01b03163314801580610bd1575b610b8c5760ff60075416610b4757604051610ab981611f7b565b6001602082019160408101935f85525f14610b3f578183525b52600160ff19600754161760075551151561ff006007549160081b169061ff0019161760075551151562ff00006007549160101b169062ff00001916176007557f9e3a5e37224532dea67b89face185703738a228a6e8a23dee546960180d3be64602060405160018152a1005b5f8352610ad2565b60405162461bcd60e51b815260206004820152601760248201527f5661756c7420697320616c7265616479207061757365640000000000000000006044820152606490fd5b60405162461bcd60e51b815260206004820181905260248201527f4f6e6c79206f776e6572206f72207374726174656769737420616c6c6f7765646044820152606490fd5b506001546001600160a01b0316331415610a9f565b3461004d57602036600319011261004d57600154600435906001600160a01b0381163303610f125760075460ff81169081610f03575b50610eaf578115610e6a57610c2f612299565b90610c516001600160401b0360085460401c166001600160401b034216612610565b6001600160401b038060c085015116911610610e19576006549081841115610d5757612710610c86610c8e9260e01c84612630565b04918461237c565b11610cfa577fe65c987b2e4668e09ba867026921588005b2b2063607a1e7e7d91683c8f91b7b91610cc66101206020935b01516133a9565b8060065560085467ffffffffffffffff60401b4260401b169067ffffffffffffffff60401b191617600855604051908152a1005b60405162461bcd60e51b815260206004820152602f60248201527f5261746520696e6372656173652065786365656473206d6178696d756d20616c60448201526e1b1bddd959081a5b98dc995b595b9d608a1b6064820152608490fd5b50808310610d91575b507fe65c987b2e4668e09ba867026921588005b2b2063607a1e7e7d91683c8f91b7b91610cc6610120602093610cbf565b610db183612710610daa63ffffffff6002541685612630565b049261237c565b11610dbc5782610d60565b60405162461bcd60e51b815260206004820152602f60248201527f526174652064656372656173652065786365656473206d6178696d756d20616c60448201526e1b1bddd95908191958dc995b595b9d608a1b6064820152608490fd5b60405162461bcd60e51b8152602060048201526024808201527f4d696e696d756d2072617465207570646174652064656c6179206e6f742070616044820152631cdcd95960e21b6064820152608490fd5b60405162461bcd60e51b815260206004820152601e60248201527f526564656d7074696f6e20726174652063616e6e6f74206265207a65726f00006044820152606490fd5b60405162461bcd60e51b815260206004820152602660248201527f5661756c7420697320706175736564206279206f776e6572206f7220737472616044820152651d1959da5cdd60d21b6064820152608490fd5b60ff915060101c161583610c1c565b60405162461bcd60e51b815260206004820152601760248201527f4f6e6c79207374726174656769737420616c6c6f7765640000000000000000006044820152606490fd5b3461004d575f36600319011261004d5761018060018060a01b035f54166110576001546002546001600160401b036003549160405193610f9685611f7b565b60018060a01b0360045416855263ffffffff60055460018060a01b038116602088015260a01c16604086015260405196875260018060a01b038116602088015263ffffffff8160a01c16604088015263ffffffff8160c01c16606088015260e01c608087015263ffffffff811660a0870152818160201c1660c087015260601c1660e085015261010084015261012083019063ffffffff6040809260018060a01b03815116855260018060a01b036020820151166020860152015116910152565bf35b3461004d575f36600319011261004d57611071613376565b5f5160206139125f395f51905f5280546001600160a01b031981169091555f906001600160a01b03167f8be0079c531659141344cd1fd0a4f28419497f9722a3daafe3b4186f6b6457e08280a3005b3461004d57604036600319011261004d576110d9611f65565b60ff60075416610543576102ff602091600435612529565b3461004d57602036600319011261004d57604061110f6004356124ad565b82519182526020820152f35b3461004d575f36600319011261004d576020600654604051908152f35b3461004d575f36600319011261004d577f00000000000000000000000000000000000000000000000000000000000000006001600160a01b0316300361118f5760206040515f5160206139525f395f51905f528152f35b63703e46dd60e11b5f5260045ffd5b604036600319011261004d576111b2611f4f565b6024356001600160401b03811161004d576111d1903690600401612024565b6001600160a01b037f000000000000000000000000000000000000000000000000000000000000000016308114908115611349575b5061118f57611213613376565b6040516352d1902d60e01b81526001600160a01b0383169290602081600481875afa5f9181611315575b506112555783634c9c8ce360e01b5f5260045260245ffd5b805f5160206139525f395f51905f528592036113035750813b156112f1575f5160206139525f395f51905f5280546001600160a01b031916821790557fbc7cd75a20ee27fd9adebab32041f755214dbc6bffa90cc0225b39da2e5c2d3b5f80a28151156112d9575f8083602061028e95519101845af46112d3613746565b91613853565b5050346112e257005b63b398979f60e01b5f5260045ffd5b634c9c8ce360e01b5f5260045260245ffd5b632a87526960e21b5f5260045260245ffd5b9091506020813d602011611341575b8161133160209383611fb2565b8101031261004d5751908561123d565b3d9150611324565b5f5160206139525f395f51905f52546001600160a01b03161415905083611206565b611f21565b3461004d57602036600319011261004d57611389611f4f565b5060206102ff612485565b3461004d575f36600319011261004d575f5160206139125f395f51905f52546001600160a01b0316331415808061150a575b610b8c576040516113d681611f7b565b6007549060ff82161515815260ff6040818460081c16151592836020820152019260101c161515825280611503575b6114ac5751151590816114a4575b50611448575f6007557f9e3a5e37224532dea67b89face185703738a228a6e8a23dee546960180d3be6460206040515f8152a1005b60405162461bcd60e51b815260206004820152602e60248201527f4f6e6c79206f776e65722063616e20756e70617573652069662070617573656460448201526d206279207374616c65207261746560901b6064820152608490fd5b905081611413565b60405162461bcd60e51b815260206004820152602960248201527f4f6e6c79206f776e65722063616e20756e70617573652069662070617573656460448201526810313c9037bbb732b960b91b6064820152608490fd5b5081611405565b506001546001600160a01b03163314156113c6565b3461004d575f36600319011261004d575f5160206139725f395f51905f52546040516001600160a01b039091168152602090f35b3461004d575f36600319011261004d57602061156d612465565b60ff60405191168152f35b3461004d575f36600319011261004d57606060075460ff6040519181811615158352818160081c161515602084015260101c1615156040820152f35b3461004d57602036600319011261004d5760206102ff60043561244a565b3461004d57606036600319011261004d576105006115ee611f4f565b6115f6611f65565b6044359161160583338361314f565b6131ec565b61161336612042565b9161161c612c61565b60ff600754166105435761053093612396565b3461004d575f36600319011261004d5760206001600160401b0360085460401c16604051908152f35b3461004d57602036600319011261004d5760206102ff60043561235b565b3461004d575f36600319011261004d5760205f5160206139325f395f51905f5254604051908152f35b3461004d5760c036600319011261004d576116b8611f4f565b6024356001600160401b03811161004d576116d7903690600401612024565b6044356001600160a01b038116929083900361004d576064356001600160401b03811161004d5761170c903690600401612024565b926084356001600160401b03811161004d5761172c903690600401612024565b5f5160206139b25f395f51905f52549460ff8660401c1615956001600160401b03811680159081611d54575b6001149081611d4a575b159081611d41575b50611d325767ffffffffffffffff1981166001175f5160206139b25f395f51905f525586611d06575b5061179c613545565b6117a4613545565b8051906001600160401b038211611bef5781906117ce5f5160206138b25f395f51905f52546120a8565b601f8111611c8c575b50602090601f8311600114611c0e575f92611c03575b50508160011b915f199060031b1c1916175f5160206138b25f395f51905f52555b8051906001600160401b038211611bef576118365f5160206138f25f395f51905f52546120a8565b601f8111611b80575b50602090601f8311600114611aed57946118fc63ffffffff95604095856101209661192c96611a239b5f92611ae2575b50508160011b915f199060031b1c1916175f5160206138f25f395f51905f52555b611898613545565b6118a0613545565b6118a981613775565b9015611ada575b5f5160206139725f395f51905f52549060ff60a01b9060a01b16906affffffffffffffffffffff60a81b1617175f5160206139725f395f51905f52556118f4613545565b610289613545565b611904613545565b61190c613545565b60015f5160206139925f395f51905f525560208082518301019101612194565b80515f80546001600160a01b039283166001600160a01b0319918216179091556020808401518685015160608087015160808801518b1660e090811b918c1660c090811b958916948d1660a090811b63ffffffff60a01b9081169690961796909617929092176001558489015160028054938b0151928b015167ffffffffffffffff60601b951b949094166bffffffffffffffff0000000092881b92909216908d1692881692909217919091171790556101008601516003559590940151805160048054918616919094161790925581015160058054929096015192166001600160c01b0319909116179416901b16919091179055565b611a33611a2e612299565b61280d565b60ff611a3d612465565b16604d81116103d257600a0a600b5560a435600655600880546fffffffffffffffff000000000000000019164260401b67ffffffffffffffff60401b16179055611a8357005b68ff0000000000000000195f5160206139b25f395f51905f5254165f5160206139b25f395f51905f52557fc7f505b2f371ae2175ee4913f4499e1f2633a7b5936321eed1cdaeb6115181d2602060405160018152a1005b5060126118b0565b015190508c8061186f565b90601f198316915f5160206138f25f395f51905f525f52815f20925f5b818110611b6857509560409560018661192c96611a239b966118fc966101209a63ffffffff9d10611b50575b505050811b015f5160206138f25f395f51905f5255611890565b01515f1960f88460031b161c191690558c8080611b36565b92936020600181928786015181550195019301611b0a565b5f5160206138f25f395f51905f525f527f46a2803e59a4de4e7a4c574b1243f25977ac4c77d5a1a4a609b5394cebb4a2aa601f840160051c81019160208510611be5575b601f0160051c01905b818110611bda575061183f565b5f8155600101611bcd565b9091508190611bc4565b634e487b7160e01b5f52604160045260245ffd5b0151905087806117ed565b5f5160206138b25f395f51905f525f9081528281209350601f198516905b818110611c745750908460019594939210611c5c575b505050811b015f5160206138b25f395f51905f525561180e565b01515f1960f88460031b161c19169055878080611c42565b92936020600181928786015181550195019301611c2c565b5f5160206138b25f395f51905f525f529091507f2ae08a8e29253f69ac5d979a101956ab8f8d9d7ded63fa7a83b16fc47648eab0601f840160051c81019160208510611cfc575b90601f859493920160051c01905b818110611cee57506117d7565b5f8155849350600101611ce1565b9091508190611cd3565b68ffffffffffffffffff191668010000000000000001175f5160206139b25f395f51905f525586611793565b63f92ee8a960e01b5f5260045ffd5b9050158861176a565b303b159150611762565b889150611758565b3461004d57602036600319011261004d5760206102ff600b5460065490600435612c25565b3461004d57604036600319011261004d57611d9a611f4f565b602435903315611e13576001600160a01b0316908115611e0057611dbd336125b2565b825f526020528060405f20556040519081527f8c5be1e5ebec7d5bd14f71427d1e84f3dd0314c0f7b2291e5b200ac8c7c3b92560203392a3602060405160018152f35b634a1406b160e11b5f525f60045260245ffd5b63e602df0560e01b5f525f60045260245ffd5b3461004d575f36600319011261004d576040515f5f5160206138b25f395f51905f5254611e52816120a8565b808452906001811690811561064c5750600114611e79576104d6836105ce81850382611fb2565b5f5160206138b25f395f51905f525f9081527f2ae08a8e29253f69ac5d979a101956ab8f8d9d7ded63fa7a83b16fc47648eab0939250905b808210611ec9575090915081016020016105ce6105be565b919260018160209254838588010152019101909291611eb1565b3461004d575f36600319011261004d5760206102ff61213d565b805180835260209291819084018484015e5f828201840152601f01601f1916010190565b3461004d57602036600319011261004d57611f44600654600b5490600435613570565b604051908152602090f35b600435906001600160a01b038216820361004d57565b602435906001600160a01b038216820361004d57565b606081019081106001600160401b03821117611bef57604052565b61014081019081106001600160401b03821117611bef57604052565b90601f801991011681019081106001600160401b03821117611bef57604052565b6001600160401b038111611bef57601f01601f191660200190565b929192611ffa82611fd3565b916120086040519384611fb2565b82948184528183011161004d578281602093845f960137010152565b9080601f8301121561004d5781602061203f93359101611fee565b90565b606060031982011261004d57600435916024356001600160401b03811161004d578260238201121561004d578060040135926001600160401b03841161004d576024848301011161004d5760240191906044356001600160a01b038116810361004d5790565b90600182811c921680156120d6575b60208310146120c257565b634e487b7160e01b5f52602260045260245ffd5b91607f16916120b7565b606090600319011261004d57600435906024356001600160a01b038116810361004d57906044356001600160a01b038116810361004d5790565b3461004d57602036600319011261004d57611f44600b5460065490600435613570565b61203f5f5160206139325f395f51905f5254600654600b5491613570565b51906001600160a01b038216820361004d57565b519063ffffffff8216820361004d57565b51906001600160401b038216820361004d57565b80910390610180821261004d57604051916121ae83611f96565b8151906001600160a01b038216820361004d5760609184526121d26020840161215b565b60208501526121e36040840161216f565b60408501526121f382840161216f565b828501526122036080840161216f565b608085015261221460a0840161216f565b60a085015261222560c08401612180565b60c085015261223660e08401612180565b60e085015261010083015161010085015261011f19011261004d5761228b6101606040519261226484611f7b565b612271610120820161215b565b8452612280610140820161215b565b60208501520161216f565b604082015261012082015290565b604051906122a682611f96565b8160018060a01b035f5416815260015460018060a01b038116602083015263ffffffff8160a01c16604083015263ffffffff8160c01c16606083015260e01c60808201526001600160401b0360025463ffffffff811660a0840152818160201c1660c084015260601c1660e08201526003546101008201526101206040519161232e83611f7b565b6004546001600160a01b039081168452600554908116602085015260a01c63ffffffff1660408401520152565b63ffffffff60015460c01c1680156123765761203f91612c45565b50505f90565b919082039182116103d257565b919082018092116103d257565b939291906123a2612c99565b612443576123b285838386612d4a565b6123bb8361276d565b9485811161241f576124089495506123d28161235b565b906123fb6123f56123e3848461237c565b92600b54918291600654938491612c25565b93612c25565b918061240a575b50612e4e565b565b61241690600954612389565b6009555f612402565b93505050633fa733bb60e21b5f5260018060a01b031660045260245260445260645ffd5b5050509050565b63ffffffff60015460a01c1680156123765761203f91612c45565b60ff5f5160206139725f395f51905f525460a01c1660ff81116103d25790565b60035480156124a75761249661213d565b818110156123765761203f9161237c565b505f1990565b6124bd90600654600b5491612c25565b9063ffffffff60015460a01c16801561252457806127100361271081116103d2576124eb8161271086613570565b91612710146125105761203f91612509916127108609151590612389565b928361237c565b634e487b7160e01b5f52601260045260245ffd5b505f90565b612531612c99565b6123765761253d612485565b808211612591575061256f6125518261244a565b61255b818461237c565b908061257c575b50600b5460065491613570565b9161203f918391336132d0565b61258890600954612389565b6009555f612562565b91633c8097d960e11b5f5260018060a01b031660045260245260445260645ffd5b6001600160a01b03165f9081527f52c63247e1f47db19d5ce0460030c497f067ca4cebf71ba98eeadabe20bace016020526040902090565b6001600160a01b03165f9081525f5160206138d25f395f51905f52602052604090205490565b906001600160401b03809116911603906001600160401b0382116103d257565b818102929181159184041417156103d257565b61264b612c99565b6123765761265761273a565b80821161269157508061266c61203f926124ad565b9384829561267c575b50336132d0565b61268890600954612389565b6009555f612675565b9163284ff66760e01b5f5260018060a01b031660045260245260445260645ffd5b9291906126bd612c99565b612734576126cd84838386612d4a565b6126d6836125ea565b808511612712575060065493600b54906126f1828783613570565b91612408966123fb9161270d6127068661235b565b809661237c565b612c25565b8484632e52afbb60e21b5f5260018060a01b031660045260245260445260645ffd5b50505050565b60035480156124a75761274b61213d565b90808210156123765761203f916127619161237c565b600b5460065491613570565b60018060a01b03165f525f5160206138d25f395f51905f5260205261203f60405f2054600654600b5491613570565b6001600160a01b031680156127fa575f5160206139125f395f51905f5280546001600160a01b0319811683179091556001600160a01b03167f8be0079c531659141344cd1fd0a4f28419497f9722a3daafe3b4186f6b6457e05f80a3565b631e4fbdf760e01b5f525f60045260245ffd5b80516001600160a01b031615612bd15760208101516001600160a01b031615612b825761271063ffffffff60408301511611612b3d5761271063ffffffff60608301511611612af85761271063ffffffff60a08301511611612aa55760e081016001600160401b0381511615612a54576001600160401b038060c084015116915116106129e9576101200161271063ffffffff604083510151161161297e578051602001516001600160a01b0316156129295751516001600160a01b0316156128d257565b60405162461bcd60e51b815260206004820152602960248201527f53747261746567697374206163636f756e742063616e6e6f74206265207a65726044820152686f206164647265737360b81b6064820152608490fd5b60405162461bcd60e51b815260206004820152602760248201527f506c6174666f726d206163636f756e742063616e6e6f74206265207a65726f206044820152666164647265737360c81b6064820152608490fd5b60405162461bcd60e51b815260206004820152603c60248201527f53747261746567697374206163636f756e74206665652064697374726962757460448201527f696f6e20726174696f2063616e6e6f74206578636565642031303025000000006064820152608490fd5b60405162461bcd60e51b815260206004820152603760248201527f4d696e696d756d207570646174652064656c61792063616e6e6f74206578636560448201527f6564206d6178696d756d207570646174652064656c61790000000000000000006064820152608490fd5b60405162461bcd60e51b8152602060048201526024808201527f4d61782072617465207570646174652064656c61792063616e6e6f74206265206044820152637a65726f60e01b6064820152608490fd5b60405162461bcd60e51b815260206004820152602560248201527f4d617820726174652064656372656d656e742063616e6e6f7420657863656564604482015264203130302560d81b6064820152608490fd5b60405162461bcd60e51b815260206004820152601f60248201527f5769746864726177206665652063616e6e6f74206578636565642031303025006044820152606490fd5b60405162461bcd60e51b815260206004820152601e60248201527f4465706f736974206665652063616e6e6f7420657863656564203130302500006044820152606490fd5b60405162461bcd60e51b815260206004820152602160248201527f537472617465676973742063616e6e6f74206265207a65726f206164647265736044820152607360f81b6064820152608490fd5b60405162461bcd60e51b815260206004820152602660248201527f4465706f736974206163636f756e742063616e6e6f74206265207a65726f206160448201526564647265737360d01b6064820152608490fd5b91612c31818385613570565b9181156125105761203f9309151590612389565b61271061203f92612c57828285613570565b9209151590612389565b60025f5160206139925f395f51905f525414612c8a5760025f5160206139925f395f51905f5255565b633ee5aeb560e01b5f5260045ffd5b6001600160401b0342166001600160401b0360085460401c1690612cbd8282612610565b6001600160401b038060025460601c16911611612cda5750505f90565b7fa23eaefe5c1780165b918668e0e10213a317fdab62f9a2fda3efd75a66de1ef0916040916201000162ff00ff1960075416176007557f9e3a5e37224532dea67b89face185703738a228a6e8a23dee546960180d3be646020845160018152a182519182526020820152a1600190565b6001600160a01b0316159050612dfa5715612db55715612d6657565b60405162461bcd60e51b815260206004820152602160248201527f416d6f756e7420746f2077697468647261772063616e6e6f74206265207a65726044820152606f60f81b6064820152608490fd5b60405162461bcd60e51b815260206004820152601860248201527f52656365697665722063616e6e6f7420626520656d70747900000000000000006044820152606490fd5b60405162461bcd60e51b815260206004820152602660248201527f4f776e6572206f66207368617265732063616e6e6f74206265207a65726f206160448201526564647265737360d01b6064820152608490fd5b6001600160a01b0385169491929190338690036130d9575b612e6f9161360e565b6001600160401b036008541660065460405160a08101918183106001600160401b03841117611bef576003926040528382526020820190888252604083019081526060830191878352612ec3368a89611fee565b608085019081525f968752600a6020526040968790209451855492516001600160e01b03199093166001600160401b03918216179290971b68010000000000000000600160e01b0316919091178455905160018401559051600283015551805192909101928211611bef57612f3883546120a8565b601f8111613094575b50602090601f831160011461300e577f34c29e8bdf5793b0f63f12d98c77ae4c94d65ed48423c83059e7c34575f68d3a949392915f9183613003575b50508160011b915f199060031b1c19161790555b6080600854956001600160401b03871695869581604051958694855260606020860152816060860152858501375f8383018501526040830152601f01601f19168101030190a26001600160401b0381146103d25760016001600160401b03910116906001600160401b03191617600855565b015190505f80612f7d565b90601f19831691845f52815f20925f5b81811061307c57509160019391857f34c29e8bdf5793b0f63f12d98c77ae4c94d65ed48423c83059e7c34575f68d3a9897969410613064575b505050811b019055612f91565b01515f1960f88460031b161c191690555f8080613057565b9293602060018192878601518155019501930161301e565b835f5260205f20601f840160051c810191602085106130cf575b601f0160051c01905b8181106130c45750612f41565b5f81556001016130b7565b90915081906130ae565b6130e2826125b2565b60018060a01b0333165f526020528060405f20541061311157612e6f9161310a82338361314f565b9150612e66565b60405162461bcd60e51b8152602060048201526016602482015275496e73756666696369656e7420616c6c6f77616e636560501b6044820152606490fd5b919061315a836125b2565b60018060a01b0382165f5260205260405f2054925f19841061317c5750505050565b8284106131c9576001600160a01b03811615611e13576001600160a01b03821615611e00576131aa906125b2565b9060018060a01b03165f5260205260405f20910390555f808080612734565b508290637dc7a0d960e11b5f5260018060a01b031660045260245260445260645ffd5b6001600160a01b03169081156132bd576001600160a01b03169182156132aa57815f525f5160206138d25f395f51905f5260205260405f205481811061329157817fddf252ad1be2c89b69c2b068fc378daa952ba7f163c4a11628f55a4df523b3ef92602092855f525f5160206138d25f395f51905f5284520360405f2055845f525f5160206138d25f395f51905f52825260405f20818154019055604051908152a3565b8263391434e360e21b5f5260045260245260445260645ffd5b63ec442f0560e01b5f525f60045260245ffd5b634b637e8f60e11b5f525f60045260245ffd5b5f5160206139725f395f51905f52545f54604080516323b872dd60e01b60208201526001600160a01b0394851660248201819052928516604482015260648082018890528152959691957fdcbc1c05240f31ff3ad067ef1ee35ce4997762752e3a095284754544f4c709d795919491936133559216613350608483611fb2565b6137f0565b61335f81836136c4565b825195865260208601526001600160a01b031693a3565b5f5160206139125f395f51905f52546001600160a01b0316330361339657565b63118cdaa760e01b5f523360045260245ffd5b600954908115613488576133ca61271063ffffffff60408401511684613570565b6133d7816133e99461237c565b90600b54938491600654928391613570565b936133f392613570565b9160407ff227c93b6b816f85ef75ee32431495d61932665acd4193a40431a42f1502701a915f6009558061346d575b8461344f575b83516020948501518351928352948201959095526001600160a01b039384169490931692a3565b60208401516134689086906001600160a01b03166136c4565b613428565b83516134839082906001600160a01b03166136c4565b613422565b5050565b6001600160a01b03808416959294908216937ffbde797d201c681b91056529119e0b02407c7bb96a4a2c75c01fc9667232c8db9360409390916134dc91839190828b8a03613534575b505061360e565b5f5160206139725f395f51905f5254835163a9059cbb60e01b60208201526001600160a01b039788166024820181905260448083018690528252976135279216613350606483611fb2565b82519182526020820152a4565b61353e918361314f565b5f826134d5565b60ff5f5160206139b25f395f51905f525460401c161561356157565b631afcd79f60e31b5f5260045ffd5b91818302915f198185099383808610950394808603951461360057848311156135e85790829109815f0382168092046002816003021880820260020302808202600203028082026002030280820260020302808202600203028091026002030293600183805f03040190848311900302920304170290565b82634e487b715f52156003026011186020526024601cfd5b505091508115612510570490565b9091906001600160a01b031680156132bd57805f525f5160206138d25f395f51905f5260205260405f20548381106136aa576020845f94957fddf252ad1be2c89b69c2b068fc378daa952ba7f163c4a11628f55a4df523b3ef938587525f5160206138d25f395f51905f528452036040862055805f5160206139325f395f51905f5254035f5160206139325f395f51905f5255604051908152a3565b915063391434e360e21b5f5260045260245260445260645ffd5b6001600160a01b03169081156132aa577fddf252ad1be2c89b69c2b068fc378daa952ba7f163c4a11628f55a4df523b3ef6020826137115f945f5160206139325f395f51905f5254612389565b5f5160206139325f395f51905f52558484525f5160206138d25f395f51905f52825260408420818154019055604051908152a3565b3d15613770573d9061375782611fd3565b916137656040519384611fb2565b82523d5f602084013e565b606090565b5f8091604051602081019063313ce56760e01b825260048152613799602482611fb2565b51916001600160a01b03165afa6137ae613746565b90806137e4575b6137c1575b505f905f90565b60208180518101031261004d576020015160ff81116137ba579060ff6001921690565b506020815110156137b5565b905f602091828151910182855af115613848575f513d61383f57506001600160a01b0381163b155b61381f5750565b635274afe760e01b5f9081526001600160a01b0391909116600452602490fd5b60011415613818565b6040513d5f823e3d90fd5b90613877575080511561386857805190602001fd5b63d6bda27560e01b5f5260045ffd5b815115806138a8575b613888575090565b639996b31560e01b5f9081526001600160a01b0391909116600452602490fd5b50803b1561388056fe52c63247e1f47db19d5ce0460030c497f067ca4cebf71ba98eeadabe20bace0352c63247e1f47db19d5ce0460030c497f067ca4cebf71ba98eeadabe20bace0052c63247e1f47db19d5ce0460030c497f067ca4cebf71ba98eeadabe20bace049016d09d72d40fdae2fd8ceac6b6234c7706214fd39c1cd1e609a0528c19930052c63247e1f47db19d5ce0460030c497f067ca4cebf71ba98eeadabe20bace02360894a13ba1a3210667c828492db98dca3e2076cc3735a920a3ca505d382bbc0773e532dfede91f04b12a73d3d2acd361424f41f76b4fb79f090161e36b4e009b779b17422d0df92223018b32b4d1fa46e071723d6817e2486d003becc55f00f0c57e16840df040f15088dc2f81fe391c3923bec73e23a9662efc9c229c6a00a264697066735822122053f927e7519678dc27123c7ad88afce7b5f199492dc917a89828371344faa45864736f6c634300081d0033f0c57e16840df040f15088dc2f81fe391c3923bec73e23a9662efc9c229c6a00","linkReferences":{}},"methodIdentifiers":{"UPGRADE_INTERFACE_VERSION()":"ad3cb1cc","allowance(address,address)":"dd62ed3e","approve(address,uint256)":"095ea7b3","asset()":"38d52e0f","balanceOf(address)":"70a08231","calculateDepositFee(uint256)":"247d284b","calculateMintFee(uint256)":"5c095e54","calculateWithdrawalFee(uint256)":"18e1b3bb","config()":"79502c55","convertToAssets(uint256)":"07a2d13a","convertToShares(uint256)":"c6e6f592","currentWithdrawRequestId()":"d083b2ee","decimals()":"313ce567","deposit(uint256,address)":"6e553f65","feesAccruedInAsset()":"cd1da35c","initialize(address,bytes,address,string,string,uint256)":"0e5e1e31","lastRateUpdateTimestamp()":"18fe961b","maxDeposit(address)":"402d267d","maxMint(address)":"c63d75b6","maxRedeem(address)":"d905777e","maxWithdraw(address)":"ce96cb77","mint(uint256,address)":"94bf804d","name()":"06fdde03","owner()":"8da5cb5b","pause()":"8456cb59","previewDeposit(uint256)":"ef8b30f7","previewMint(uint256)":"b3d7f6b9","previewRedeem(uint256)":"4cdad506","previewWithdraw(uint256)":"0a28a477","proxiableUUID()":"52d1902d","redeem(uint256,address,address)":"ba087652","redeem(uint256,string,address)":"99646d1c","redemptionRate()":"540385a3","renounceOwnership()":"715018a6","symbol()":"95d89b41","totalAssets()":"01e1d114","totalSupply()":"18160ddd","transfer(address,uint256)":"a9059cbb","transferFrom(address,address,uint256)":"23b872dd","transferOwnership(address)":"f2fde38b","unpause()":"3f4ba83a","update(uint256)":"82ab890a","updateConfig(bytes)":"8cc6acce","upgradeToAndCall(address,bytes)":"4f1ef286","vaultState()":"2728f333","withdraw(uint256,address,address)":"b460af94","withdraw(uint256,string,address)":"1bd9c31a","withdrawRequests(uint64)":"94ba2b8d"},"id":119}