{"abi":[{"type":"constructor","inputs":[{"name":"_owner","type":"address","internalType":"address"},{"name":"_processor","type":"address","internalType":"address"},{"name":"_verificationGateway","type":"address","internalType":"address"},{"name":"_storeCallbacks","type":"bool","internalType":"bool"}],"stateMutability":"nonpayable"},{"type":"function","name":"addAdminAddress","inputs":[{"name":"_admin","type":"address","internalType":"address"}],"outputs":[],"stateMutability":"nonpayable"},{"type":"function","name":"addRegistries","inputs":[{"name":"registries","type":"uint64[]","internalType":"uint64[]"},{"name":"users","type":"address[][]","internalType":"address[][]"},{"name":"vks","type":"bytes[]","internalType":"bytes[]"},{"name":"validateBlockNumber","type":"bool[]","internalType":"bool[]"}],"outputs":[],"stateMutability":"nonpayable"},{"type":"function","name":"addStandardAuthorizations","inputs":[{"name":"_labels","type":"string[]","internalType":"string[]"},{"name":"_users","type":"address[][]","internalType":"address[][]"},{"name":"_authorizationData","type":"tuple[][]","internalType":"struct Authorization.AuthorizationData[][]","components":[{"name":"contractAddress","type":"address","internalType":"address"},{"name":"useFunctionSelector","type":"bool","internalType":"bool"},{"name":"functionSelector","type":"bytes4","internalType":"bytes4"},{"name":"callHash","type":"bytes32","internalType":"bytes32"}]}],"outputs":[],"stateMutability":"nonpayable"},{"type":"function","name":"adminAddresses","inputs":[{"name":"","type":"address","internalType":"address"}],"outputs":[{"name":"","type":"bool","internalType":"bool"}],"stateMutability":"view"},{"type":"function","name":"authorizations","inputs":[{"name":"","type":"string","internalType":"string"},{"name":"","type":"uint256","internalType":"uint256"}],"outputs":[{"name":"","type":"address","internalType":"address"}],"stateMutability":"view"},{"type":"function","name":"authorizationsData","inputs":[{"name":"","type":"string","internalType":"string"},{"name":"","type":"uint256","internalType":"uint256"}],"outputs":[{"name":"contractAddress","type":"address","internalType":"address"},{"name":"useFunctionSelector","type":"bool","internalType":"bool"},{"name":"functionSelector","type":"bytes4","internalType":"bytes4"},{"name":"callHash","type":"bytes32","internalType":"bytes32"}],"stateMutability":"view"},{"type":"function","name":"callbacks","inputs":[{"name":"","type":"uint64","internalType":"uint64"}],"outputs":[{"name":"executionResult","type":"uint8","internalType":"enum IProcessor.ExecutionResult"},{"name":"executedCount","type":"uint64","internalType":"uint64"},{"name":"data","type":"bytes","internalType":"bytes"}],"stateMutability":"view"},{"type":"function","name":"executeZKMessage","inputs":[{"name":"_message","type":"bytes","internalType":"bytes"},{"name":"_proof","type":"bytes","internalType":"bytes"},{"name":"_domainMessage","type":"bytes","internalType":"bytes"},{"name":"_domainProof","type":"bytes","internalType":"bytes"}],"outputs":[],"stateMutability":"nonpayable"},{"type":"function","name":"executionId","inputs":[],"outputs":[{"name":"","type":"uint64","internalType":"uint64"}],"stateMutability":"view"},{"type":"function","name":"getZkAuthorizationsList","inputs":[{"name":"registryId","type":"uint64","internalType":"uint64"}],"outputs":[{"name":"","type":"address[]","internalType":"address[]"}],"stateMutability":"view"},{"type":"function","name":"handleCallback","inputs":[{"name":"callbackData","type":"bytes","internalType":"bytes"}],"outputs":[],"stateMutability":"nonpayable"},{"type":"function","name":"owner","inputs":[],"outputs":[{"name":"","type":"address","internalType":"address"}],"stateMutability":"view"},{"type":"function","name":"processor","inputs":[],"outputs":[{"name":"","type":"address","internalType":"contract ProcessorBase"}],"stateMutability":"view"},{"type":"function","name":"removeAdminAddress","inputs":[{"name":"_admin","type":"address","internalType":"address"}],"outputs":[],"stateMutability":"nonpayable"},{"type":"function","name":"removeRegistries","inputs":[{"name":"registries","type":"uint64[]","internalType":"uint64[]"}],"outputs":[],"stateMutability":"nonpayable"},{"type":"function","name":"removeStandardAuthorizations","inputs":[{"name":"_labels","type":"string[]","internalType":"string[]"}],"outputs":[],"stateMutability":"nonpayable"},{"type":"function","name":"renounceOwnership","inputs":[],"outputs":[],"stateMutability":"nonpayable"},{"type":"function","name":"sendProcessorMessage","inputs":[{"name":"label","type":"string","internalType":"string"},{"name":"_message","type":"bytes","internalType":"bytes"}],"outputs":[],"stateMutability":"nonpayable"},{"type":"function","name":"storeCallbacks","inputs":[],"outputs":[{"name":"","type":"bool","internalType":"bool"}],"stateMutability":"view"},{"type":"function","name":"transferOwnership","inputs":[{"name":"newOwner","type":"address","internalType":"address"}],"outputs":[],"stateMutability":"nonpayable"},{"type":"function","name":"updateProcessor","inputs":[{"name":"_processor","type":"address","internalType":"address"}],"outputs":[],"stateMutability":"nonpayable"},{"type":"function","name":"updateVerificationGateway","inputs":[{"name":"_verificationGateway","type":"address","internalType":"address"}],"outputs":[],"stateMutability":"nonpayable"},{"type":"function","name":"validateBlockNumberExecution","inputs":[{"name":"","type":"uint64","internalType":"uint64"}],"outputs":[{"name":"","type":"bool","internalType":"bool"}],"stateMutability":"view"},{"type":"function","name":"verificationGateway","inputs":[],"outputs":[{"name":"","type":"address","internalType":"contract VerificationGateway"}],"stateMutability":"view"},{"type":"function","name":"zkAuthorizationLastExecutionBlock","inputs":[{"name":"","type":"uint64","internalType":"uint64"}],"outputs":[{"name":"","type":"uint64","internalType":"uint64"}],"stateMutability":"view"},{"type":"function","name":"zkAuthorizations","inputs":[{"name":"","type":"uint64","internalType":"uint64"},{"name":"","type":"uint256","internalType":"uint256"}],"outputs":[{"name":"","type":"address","internalType":"address"}],"stateMutability":"view"},{"type":"event","name":"AdminAddressAdded","inputs":[{"name":"admin","type":"address","indexed":true,"internalType":"address"}],"anonymous":false},{"type":"event","name":"AdminAddressRemoved","inputs":[{"name":"admin","type":"address","indexed":true,"internalType":"address"}],"anonymous":false},{"type":"event","name":"AuthorizationAdded","inputs":[{"name":"label","type":"string","indexed":false,"internalType":"string"}],"anonymous":false},{"type":"event","name":"AuthorizationRemoved","inputs":[{"name":"label","type":"string","indexed":false,"internalType":"string"}],"anonymous":false},{"type":"event","name":"CallbackReceived","inputs":[{"name":"executionId","type":"uint64","indexed":true,"internalType":"uint64"},{"name":"executionResult","type":"uint8","indexed":false,"internalType":"enum IProcessor.ExecutionResult"},{"name":"executedCount","type":"uint64","indexed":false,"internalType":"uint64"},{"name":"data","type":"bytes","indexed":false,"internalType":"bytes"}],"anonymous":false},{"type":"event","name":"OwnershipTransferred","inputs":[{"name":"previousOwner","type":"address","indexed":true,"internalType":"address"},{"name":"newOwner","type":"address","indexed":true,"internalType":"address"}],"anonymous":false},{"type":"error","name":"OwnableInvalidOwner","inputs":[{"name":"owner","type":"address","internalType":"address"}]},{"type":"error","name":"OwnableUnauthorizedAccount","inputs":[{"name":"account","type":"address","internalType":"address"}]},{"type":"error","name":"ReentrancyGuardReentrantCall","inputs":[]}],"bytecode":{"object":"0x60a03461019157601f61334338819003918201601f19168301916001600160401b038311848410176101955780849260809460405283398101031261019157610047816101a9565b90610054602082016101a9565b6060610062604084016101a9565b920151928315158403610191576001600160a01b031690811561017e575f80546001600160a01b031981168417825560405193916001600160a01b03909116907f8be0079c531659141344cd1fd0a4f28419497f9722a3daafe3b4186f6b6457e09080a3600180556001600160a01b031690811561013c5750600280546001600160a01b0319908116929092179055600880549091166001600160a01b0392909216919091179055600480546001600160401b031916905560805260405161318590816101be8239608051818181610c2301526116a30152f35b62461bcd60e51b815260206004820181905260248201527f50726f636573736f722063616e6e6f74206265207a65726f20616464726573736044820152606490fd5b631e4fbdf760e01b5f525f60045260245ffd5b5f80fd5b634e487b7160e01b5f52604160045260245ffd5b51906001600160a01b03821682036101915756fe60806040526004361015610011575f80fd5b5f3560e01c80624fba0014612353578063139a0bf214611ed55780631de8d10f14611e955780631f532a2d14611e15578063311c737614611db657806332f8b25c14611c8f5780634273882514611c4c5780634ed38faf14611c0f5780636917a4b61461191f5780637003fdf4146115c7578063715018a61461157057806376ce2dad1461154a5780638da5cb5b146115235780638e8c6848146114935780639273c4fb146113cd57806395101181146113685780639e7ccbe714610cc6578063a34f92e814610c85578063aa2de6c314610c48578063b06abffc14610c0c578063ce1b1d4314610be4578063d00329b71461046f578063d47256cf14610447578063df0cab02146102b4578063f2fde38b1461022f5763fdba7ab814610136575f80fd5b3461022b57602036600319011261022b576001600160401b036101576126a3565b165f52600360205260405f206001815491019060405191825f82549261017c8461275f565b808452936001811690811561020957506001146101c5575b506101a192500383612451565b6101c1604051928260ff6001600160401b03869560081c169116846127bb565b0390f35b90505f9291925260205f20905f915b8183106101ed5750509060206101a1928201015f610194565b60209193508060019154838589010152019101909184926101d4565b9050602092506101a194915060ff191682840152151560051b8201015f610194565b5f80fd5b3461022b57602036600319011261022b576102486123bb565b610250612d52565b6001600160a01b031680156102a1575f80546001600160a01b03198116831782556001600160a01b0316907f8be0079c531659141344cd1fd0a4f28419497f9722a3daafe3b4186f6b6457e09080a3005b631e4fbdf760e01b5f525f60045260245ffd5b3461022b57602036600319011261022b576004356001600160401b03811161022b576102e49036906004016126cd565b6102ec612d52565b6008546001600160a01b0316156103fd575f5b81518110156103fb576008546001600160a01b0316906001600160401b036103278285612838565b5116823b1561022b575f9260248492604051958693849263039e7e5f60e01b845260048401525af19182156103f0576001926103e0575b506001600160401b036103718285612838565b51165f52600960205261038660405f20612862565b6001600160401b036103988285612838565b51165f52600b60205260405f206001600160401b031981541690556001600160401b036103c58285612838565b51165f52600a60205260405f2060ff198154169055016102ff565b5f6103ea91612451565b8361035e565b6040513d5f823e3d90fd5b005b60405162461bcd60e51b815260206004820152601c60248201527f566572696669636174696f6e2067617465776179206e6f742073657400000000604482015280606481015b0390fd5b3461022b575f36600319011261022b576008546040516001600160a01b039091168152602090f35b3461022b57604036600319011261022b576004356001600160401b03811161022b5761049f903690600401612732565b6024356001600160401b03811161022b576104c16104d0913690600401612732565b6104c9612d78565b36916124a4565b91606060206040516104e18161241b565b5f81520152825183019060208483031261022b5760208401516001600160401b03811161022b5784019160408382031261022b57604051926105228461241b565b6020810151600581101561022b5784526040810151916001600160401b03831161022b576105579260208092019201016128eb565b936020830194855282516005811015610bd057600303610b615750610586845160208082518301019101612bdf565b60206040820180515161059881612ad6565b6105a181612ad6565b61090757510151948551860195602087019060208189031261022b576020810151906001600160401b03821161022b570160a08189031261022b57604051976105e98961241b565b60208201516001600160401b03811161022b5760209083010183601f8201121561022b5780519061061982612472565b926106276040519485612451565b82845260208085019360051b8301019186831161022b57602001925b8284106108d5575050505061065e92916040918a5201612dc3565b602087015285515180151590816108c5575b5061085a576106828695965151612e56565b935f9660808401975b8751805182101561071f57600191906001600160a01b03906106ae908390612838565b5151166106c56106bf838d51612838565b51612ebd565b6106d0838d51612838565b516020815191012090604051926106e6846123e5565b8352602083018590526001600160e01b0319166040830152606082015261070d828a612838565b526107188189612838565b500161068b565b5050919550939195506107329233612efa565b1561081f5761076961079592610777610787955b5f60208201526001600160401b0360045416815260405193849160208301612c9a565b03601f198101845283612451565b5260405192839160208301612d25565b03601f198101835282612451565b6004546001600160401b036107ab818316612d08565b67ffffffffffffffff199092169116176004556002546001600160a01b0316803b1561022b576040516304e2f55f60e11b815260206004820152905f9082908183816107fa6024820189612797565b03925af180156103f05761080f575b60018055005b5f61081991612451565b80610809565b60405162461bcd60e51b8152602060048201526013602482015272556e617574686f72697a65642061636365737360681b6044820152606490fd5b60405162461bcd60e51b815260206004820152603a60248201527f537562726f7574696e652066756e6374696f6e73206c656e67746820646f657360448201527f206e6f74206d61746368206d65737361676573206c656e6774680000000000006064820152608490fd5b9050608083015151141587610670565b602080858403011261022b57602080916040516108f181612436565b6108fa87612daf565b8152815201930192610643565b5101519485518601602081019660208183031261022b576020810151906001600160401b03821161022b57019660208883031261022b576040519761094b89612436565b60208101516001600160401b03811161022b57602091010181601f8201121561022b5780519261097a84612472565b936109886040519586612451565b80855260208086019160051b8401019284841161022b5760208101915b848310610aa457505050505050808752518015159081610a94575b5061085a576109d28695965151612e56565b935f9660808401975b87518051821015610a6957600191906001600160a01b03906109fe908390612838565b515116610a0f6106bf838d51612838565b610a1a838d51612838565b51602081519101209060405192610a30846123e5565b8352602083018590526001600160e01b03191660408301526060820152610a57828a612838565b52610a628189612838565b50016109db565b505091955093919550610a7c9233612efa565b1561081f576107696107959261077761078795610746565b90506080830151511415876109c0565b82516001600160401b03811161022b5782019060c08286031261022b5760405191610ace83612400565b610ada60208201612daf565b8352610ae98860408301612dc3565b602084015260c08101516001600160401b03811161022b570160208101919060409087031261022b5760405192610b1f8461241b565b610b2883612daf565b84526020830151936001600160401b03851161022b57610b4d8a6020968796016128eb565b8482015260408201528152019201916109a5565b919392505082516005811015610bd057600403610bc5575061078791610769610bc092610b8c612d98565b610777610ba3825160208082518301019101612a0a565b6001600160401b0360045416815260405193849160208301612b5e565b610795565b915050610bc0612d98565b634e487b7160e01b5f52602160045260245ffd5b3461022b575f36600319011261022b576002546040516001600160a01b039091168152602090f35b3461022b575f36600319011261022b5760206040517f000000000000000000000000000000000000000000000000000000000000000015158152f35b3461022b57602036600319011261022b576001600160401b03610c696126a3565b165f52600a602052602060ff60405f2054166040519015158152f35b3461022b57602036600319011261022b576001600160401b03610ca66126a3565b165f52600b60205260206001600160401b0360405f205416604051908152f35b3461022b57608036600319011261022b576004356001600160401b03811161022b57610cf6903690600401612732565b6024356001600160401b03811161022b57610d15903690600401612732565b6044356001600160401b03811161022b57610d34903690600401612732565b90926064356001600160401b03811161022b57610d55903690600401612732565b959093610d60612d78565b6008546001600160a01b03169182156103fd578060201161022b5788358560201161022b57873503611323578881019660208a8903601f19011261022b5760208a01356001600160401b03811161022b578a01956080878a03601f19011261022b5760405197610dcf896123e5565b610ddb602089016126b9565b8952610de9604089016126b9565b9760208a01988952610dfd606082016123d1565b9060408b0191825260808101356001600160401b03811161022b5760209101016040818d031261022b576040519b610e348d61241b565b8135600581101561022b578d5260208201356001600160401b03811161022b57610e5e92016124da565b60208c015260608a019a8b52516001600160a01b03168015159081611318575b506112d3576001600160401b038951165f52600960205260405f209a604051808d6020829f549384815201905f5260205f20925f5b8181106112ae575050610ec89250038d612451565b5f9b5f5b815181101561129c57336001600160a01b03610ee88385612838565b5116148015611281575b610efe57600101610ecc565b5050909192939495969798999a5060015b1561122d576001600160401b038a51165f52600a60205260ff60405f2054169b8c6111c0575b8a516040516356fd623360e11b81526001600160401b03909116600482015260a06024820152988997889791610f6f9160a48a01916128b7565b90600319888303016044890152610f85926128b7565b90600319868303016064870152610f9b926128b7565b90600319848303016084850152610fb1926128b7565b03815a6020945f91f19081156103f0575f91611185575b501561114057610fd88351612931565b6005811015610bd0576003036110db576107699361078761102761100a60208751015160208082518301019101612bdf565b6001600160401b0360045416815260405192839160208301612c9a565b6020855101525b6004546001600160401b03611044818316612d08565b16906001600160401b031916176004556110aa575b505061107a60018060a01b0360025416915160405193849160208301612d25565b803b1561022b576040516304e2f55f60e11b815260206004820152905f9082908183816107fa6024820189612797565b6001600160401b03809151169151165f52600b60205260405f20906001600160401b03198254161790558280611059565b6110e58351612931565b936005851015610bd0576004610769950361102e5761078761113561111860208751015160208082518301019101612a0a565b6001600160401b0360045416815260405192839160208301612b5e565b60208551015261102e565b60405162461bcd60e51b815260206004820152601960248201527f50726f6f6620766572696669636174696f6e206661696c6564000000000000006044820152606490fd5b90506020813d6020116111b8575b816111a060209383612451565b8101031261022b5751801515810361022b5785610fc8565b3d9150611193565b6001600160401b038a51166001600160401b038c51165f52600b6020526001600160401b0360405f20541610610f355760405162461bcd60e51b8152602060048201526015602482015274141c9bdbd9881b9bc81b1bdb99d95c881d985b1a59605a1b6044820152606490fd5b60405162461bcd60e51b815260206004820152602660248201527f556e617574686f72697a6564206164647265737320666f72207468697320726560448201526567697374727960d01b6064820152608490fd5b506001600160a01b036112948284612838565b511615610ef2565b5050909192939495969798999a610f0f565b91600191935060208291828060a01b0387541681520194019101918f92939193610eb3565b60405162461bcd60e51b815260206004820152601e60248201527f496e76616c696420617574686f72697a6174696f6e20636f6e747261637400006044820152606490fd5b90503014158d610e7e565b60405162461bcd60e51b815260206004820152601960248201527f436f70726f636573736f7220726f6f74206d69736d61746368000000000000006044820152606490fd5b3461022b57602036600319011261022b576113816123bb565b611389612d52565b6001600160a01b03165f818152600560205260408120805460ff191690557fc41dab03d4639245f86ebd733046feb495209977c224698a4d1318fec207af5a9080a2005b3461022b57602036600319011261022b576001600160401b036113ee6126a3565b165f52600960205260405f20604051806020835491828152019081935f5260205f20905f5b8181106114745750505081611429910382612451565b604051918291602083019060208452518091526040830191905f5b818110611452575050500390f35b82516001600160a01b0316845285945060209384019390920191600101611444565b82546001600160a01b0316845260209093019260019283019201611413565b3461022b57602036600319011261022b576114ac6123bb565b6114b4612d52565b6001600160a01b031680156114df576bffffffffffffffffffffffff60a01b60025416176002555f80f35b606460405162461bcd60e51b815260206004820152602060248201527f50726f636573736f722063616e6e6f74206265207a65726f20616464726573736044820152fd5b3461022b575f36600319011261022b575f546040516001600160a01b039091168152602090f35b3461022b575f36600319011261022b5760206001600160401b0360045416604051908152f35b3461022b575f36600319011261022b57611588612d52565b5f80546001600160a01b0319811682556001600160a01b03167f8be0079c531659141344cd1fd0a4f28419497f9722a3daafe3b4186f6b6457e08280a3005b3461022b57602036600319011261022b576004356001600160401b03811161022b576115f79036906004016124da565b6002546001600160a01b031633036118cc57805181019060208183031261022b576020810151906001600160401b03821161022b570160808183031261022b57604051611643816123e5565b61164f602083016128d7565b8152604082015192600484101561022b5760208201938452606083015192604083019384526080810151916001600160401b03831161022b576116999260208092019201016128eb565b90606081019182527f000000000000000000000000000000000000000000000000000000000000000061171f575b6001600160401b0390511692516004811015610bd05761171a6001600160401b037f0e6a5a94daf01fa3e93aa95500023d6dfb25b727e94114d9ff2a2bad85f1f3ea9451169251604051938493846127bb565b0390a2005b83516004811015610bd0576001600160401b038451168351916040519061174582612400565b815260208101918252604081019283526001600160401b038451165f52600360205260405f2090516004811015610bd05760019260ff68ffffffffffffffff008454925160081b1692169068ffffffffffffffffff1916171781550190518051906001600160401b0382116118b8576117be835461275f565b601f811161187d575b50602090601f8311600114611810576001600160401b03949392915f9183611805575b50508160011b915f199060031b1c19161790555b90506116c7565b0151905088806117ea565b90601f19831691845f52815f20925f5b81811061186557509160019391856001600160401b03989796941061184d575b505050811b0190556117fe565b01515f1960f88460031b161c19169055888080611840565b92936020600181928786015181550195019301611820565b6118a890845f5260205f20601f850160051c810191602086106118ae575b601f0160051c019061284c565b876117c7565b909150819061189b565b634e487b7160e01b5f52604160045260245ffd5b60405162461bcd60e51b815260206004820152602560248201527f4f6e6c792070726f636573736f722063616e2063616c6c20746869732066756e60448201526431ba34b7b760d91b6064820152608490fd5b3461022b57608036600319011261022b576004356001600160401b03811161022b5761194f9036906004016126cd565b6024356001600160401b03811161022b5761196e903690600401612576565b6044356001600160401b03811161022b573660238201121561022b578060040135906001600160401b03821161022b573660248360051b8301011161022b57606435926001600160401b03841161022b573660238501121561022b578360040135936119d985612472565b946119e76040519687612451565b8086526024602087019160051b8301019136831161022b57602401905b828210611bf757505050611a16612d52565b6008546001600160a01b0316156103fd57611a438151865181149081611bed575b81611be2575b506127ec565b3682900360421901925f5b86518110156103fb576008546001600160a01b03166001600160401b03611a75838a612838565b511683831015611bce5760248360051b870101358781121561022b578601916024830135926001600160401b03841161022b5760440190833603821361022b57803b1561022b57611aed935f809460405196879586948593637d1ebd8160e01b855260048501526040602485015260448401916128b7565b03925af180156103f057611bbe575b50611b078184612838565b516001600160401b03611b1a838a612838565b51165f52600960205260405f208151916001600160401b0383116118b857602090611b458484612885565b01905f5260205f205f5b838110611ba1575050505080611b6760019288612838565b51611b73575b01611a4e565b6001600160401b03611b85828a612838565b51165f52600a60205260405f208260ff19825416179055611b6d565b82516001600160a01b031681830155602090920191600101611b4f565b5f611bc891612451565b87611afc565b634e487b7160e01b5f52603260045260245ffd5b905085511487611a3d565b8581149150611a37565b60208091611c0484612650565b815201910190611a04565b3461022b57602036600319011261022b576001600160a01b03611c306123bb565b165f526005602052602060ff60405f2054166040519015158152f35b3461022b57602036600319011261022b57611c656123bb565b611c6d612d52565b600880546001600160a01b0319166001600160a01b0392909216919091179055005b3461022b57602036600319011261022b576004356001600160401b03811161022b57611cbf9036906004016124f8565b611cc7612d52565b5f5b81518110156103fb57611cdc8183612838565b51604051815190602081818501938085835e810160078152030190208054905f815581611d6b575b5050611d6260019392611d4e7f9bfef6e4eb8e0a845f84b7d4b802555c3f98868a52a2c41dfd1c233c70c45317936020604051809285518091835e81016006815203019020612862565b604051918291602083526020830190612797565b0390a101611cc9565b6001600160ff1b0382168203611da2575f5260205f209060011b8101905b81811015611d04575f8082556001820155600201611d89565b634e487b7160e01b5f52601160045260245ffd5b3461022b57604036600319011261022b57611dcf6126a3565b6001600160401b0360243591165f52600960205260405f20805482101561022b57602091611dfc9161268e565b905460405160039290921b1c6001600160a01b03168152f35b3461022b57602080611e263661265d565b9290604051928184925191829101835e8101600781520301902090815481101561022b576080915f5260205f209060011b01600181549101546040519160018060a01b038116835260ff8160a01c161515602084015263ffffffff60e01b9060381b1660408301526060820152f35b3461022b57602080611ea63661265d565b9290604051928184925191829101835e81016006815203019020805482101561022b57602091611dfc9161268e565b3461022b57606036600319011261022b576004356001600160401b03811161022b57611f059036906004016124f8565b6024356001600160401b03811161022b57611f24903690600401612576565b90604435916001600160401b03831161022b573660238401121561022b578260040135611f5081612472565b93611f5e6040519586612451565b8185526024602086019260051b8201019036821161022b5760248101925b8284106122795750505050611f8f612d52565b611fa4825184518114908161226e57506127ec565b5f5b82518110156103fb57611fb98184612838565b51611fc48284612838565b5180511561222957611fd68387612838565b5190815115906040517f417574686f72697a6174696f6e20646174612061727261792063616e6e6f742060208201526d031329032b6b83a3c903337b91d160951b6040820152845192612046604e83602089019680888484015e81015f838201520301601f198101845283612451565b612205575060405160208186518086835e810160068152030190208151916001600160401b0383116118b85760209061207f8484612885565b01905f5260205f205f5b8381106121e857505050506020604051809285518091835e81016007815203019020815191600160401b83116118b8578154838355808410612196575b50602001905f5260205f20905f905b8382106121255750505050907fc25a9f2d765939f3e875d5a89a3b55326d95232ce8f5f8dd88b6720a6616f55961211c600193604051918291602083526020830190612797565b0390a101611fa6565b80518051845460208381015160408501516001600160c81b03199093166001600160a01b03949094169390931792151560a01b60ff60a01b169290921760389190911c63ffffffff60a81b1617855560609190910151600185810191909155600294909401939290920191016120d5565b6001600160ff1b0381168103611da2576001600160ff1b0384168403611da257825f5260205f209060011b8101908460011b015b8181106121d757506120c6565b5f80825560018201556002016121ca565b82516001600160a01b031681830155602090920191600101612089565b60405162461bcd60e51b815260206004820152908190610443906024830190612797565b60405162461bcd60e51b815260206004820152601b60248201527f55736572732061727261792063616e6e6f7420626520656d70747900000000006044820152606490fd5b905082511485611a3d565b83356001600160401b03811161022b5782013660438201121561022b5760248101356122a481612472565b916122b26040519384612451565b818352602060248185019360071b830101019036821161022b57604401915b8183106122e957505050815260209384019301611f7c565b60808336031261022b5760405190612300826123e5565b612309846123d1565b825261231760208501612650565b60208301526040840135906001600160e01b03198216820361022b578260209260406080950152606086013560608201528152019201916122d1565b3461022b57602036600319011261022b5761236c6123bb565b612374612d52565b6001600160a01b03165f818152600560205260408120805460ff191660011790557f089aa9975328102f8cdff40d2e2b75ad3b940f83f42c2e13c43ed875ff8f046a9080a2005b600435906001600160a01b038216820361022b57565b35906001600160a01b038216820361022b57565b608081019081106001600160401b038211176118b857604052565b606081019081106001600160401b038211176118b857604052565b604081019081106001600160401b038211176118b857604052565b602081019081106001600160401b038211176118b857604052565b90601f801991011681019081106001600160401b038211176118b857604052565b6001600160401b0381116118b85760051b60200190565b6001600160401b0381116118b857601f01601f191660200190565b9291926124b082612489565b916124be6040519384612451565b82948184528183011161022b578281602093845f960137010152565b9080601f8301121561022b578160206124f5933591016124a4565b90565b9080601f8301121561022b57813561250f81612472565b9261251d6040519485612451565b81845260208085019260051b8201019183831161022b5760208201905b83821061254957505050505090565b81356001600160401b03811161022b5760209161256b878480948801016124da565b81520191019061253a565b9080601f8301121561022b5781359061258e82612472565b9261259c6040519485612451565b82845260208085019360051b8201019082821161022b5760208101935b8285106125c857505050505090565b84356001600160401b03811161022b57820184603f8201121561022b576020810135906125f482612472565b916126026040519384612451565b8083526020808085019260051b840101019187831161022b57604001905b828210612638575050508152602094850194016125b9565b60208091612645846123d1565b815201910190612620565b3590811515820361022b57565b604060031982011261022b57600435906001600160401b03821161022b57612687916004016124da565b9060243590565b8054821015611bce575f5260205f2001905f90565b600435906001600160401b038216820361022b57565b35906001600160401b038216820361022b57565b9080601f8301121561022b5781356126e481612472565b926126f26040519485612451565b81845260208085019260051b82010192831161022b57602001905b82821061271a5750505090565b60208091612727846126b9565b81520191019061270d565b9181601f8401121561022b578235916001600160401b03831161022b576020838186019501011161022b57565b90600182811c9216801561278d575b602083101461277957565b634e487b7160e01b5f52602260045260245ffd5b91607f169161276e565b805180835260209291819084018484015e5f828201840152601f01601f1916010190565b929190926004841015610bd0576001600160401b036060926124f59583521660208201528160408201520190612797565b156127f357565b60405162461bcd60e51b815260206004820152601860248201527f4172726179206c656e67746873206d757374206d6174636800000000000000006044820152606490fd5b8051821015611bce5760209160051b010190565b818110612857575050565b5f815560010161284c565b80545f825580612870575050565b612883915f5260205f209081019061284c565b565b90600160401b81116118b8578154908083558181106128a357505050565b612883925f5260205f20918201910161284c565b908060209392818452848401375f828201840152601f01601f1916010190565b51906001600160401b038216820361022b57565b81601f8201121561022b5780519061290282612489565b926129106040519485612451565b8284526020838301011161022b57815f9260208093018386015e8301015290565b516005811015610bd05790565b919060408382031261022b57604051906129578261241b565b81938051600281101561022b5783526020810151916001600160401b03831161022b5760209261298792016128eb565b910152565b9080601f8301121561022b5781516129a381612472565b926129b16040519485612451565b81845260208085019260051b8201019183831161022b5760208201905b8382106129dd57505050505090565b81516001600160401b03811161022b576020916129ff878480948801016128eb565b8152019101906129ce565b60208183031261022b578051906001600160401b03821161022b570160c08183031261022b576040519160c083018381106001600160401b038211176118b857604052612a56826128d7565b8352612a64602083016128d7565b60208401526040820151600281101561022b57604084015260608201516001600160401b03811161022b5781612a9b91840161293e565b6060840152612aac608083016128d7565b608084015260a08201516001600160401b03811161022b57612ace920161298c565b60a082015290565b60021115610bd057565b90604060206124f5938051612af481612ad6565b84520151918160208201520190612797565b9080602083519182815201916020808360051b8301019401925f915b838310612b3157505050505090565b9091929394602080612b4f600193601f198682030187528951612797565b97019301930191939290612b22565b906124f591602081526001600160401b0382511660208201526001600160401b0360208301511660408201526040820151612b9881612ad6565b606082015260a0612bb8606084015160c0608085015260e0840190612ae0565b926001600160401b036080820151168284015201519060c0601f1982850301910152612b06565b60208183031261022b578051906001600160401b03821161022b570160a08183031261022b576040519160a083018381106001600160401b038211176118b857604052612c2b826128d7565b83526020820151600281101561022b57602084015260408201516001600160401b03811161022b5781612c5f91840161293e565b6040840152612c70606083016128d7565b606084015260808201516001600160401b03811161022b57612c92920161298c565b608082015290565b906124f591602081526001600160401b0382511660208201526020820151612cc181612ad6565b60408201526080612ce1604084015160a0606085015260c0840190612ae0565b926001600160401b036060820151168284015201519060a0601f1982850301910152612b06565b6001600160401b03166001600160401b038114611da25760010190565b602081528151916005831015610bd05760206060916124f594828501520151916040808201520190612797565b5f546001600160a01b03163303612d6557565b63118cdaa760e01b5f523360045260245ffd5b600260015414612d89576002600155565b633ee5aeb560e01b5f5260045ffd5b335f52600560205260ff60405f2054161561081f57565b51906001600160a01b038216820361022b57565b80929103916080831261022b5760405190612ddd8261241b565b81936040811261022b5760405190612df48261241b565b825191600383101561022b576040928152612e11602085016128d7565b60208201528452603f19011261022b5760405191612e2e8361241b565b604082015191600283101561022b576060612e4e916020948652016128d7565b828401520152565b90612e6082612472565b612e6d6040519182612451565b8281528092612e7e601f1991612472565b01905f5b828110612e8e57505050565b602090604051612e9d816123e5565b5f81525f838201525f60408201525f606082015282828501015201612e82565b80516020909101516001600160e01b0319811692919060048210612edf575050565b6001600160e01b031960049290920360031b82901b16169150565b929190604051828282376020818481016006815203019020604051808260208294549384815201905f5260205f20925f5b81811061312d575050612f4092500382612451565b5f945f5b8251811015613122576001600160a01b03612f5f8285612838565b51166001600160a01b038316148015613107575b612f7f57600101612f44565b5050509091925060015b156130725760209082604051938492833781016007815203019020908154612fb081612472565b92612fbe6040519485612451565b81845260208401905f5260205f205f915b8383106130b2575050505081518151036130ac575f5b82518110156130a4576001600160a01b036130008285612838565b5151166001600160a01b036130158385612838565b515116036130725760206130298285612838565b51015115613079576001600160e01b031960406130468386612838565b510151166001600160e01b0319604061305f8486612838565b5101511603613072576001905b01612fe5565b5050505f90565b60606130858285612838565b51015160606130948385612838565b510151036130725760019061306c565b505050600190565b50505f90565b600260206001926040516130c5816123e5565b8554858060a01b038116825260ff8160a01c1615158483015263ffffffff60e01b9060381b166040820152848601546060820152815201920192019190612fcf565b506001600160a01b0361311a8285612838565b511615612f73565b505050909192612f89565b84546001600160a01b0316835260019485019486945060209093019201612f2b56fea264697066735822122049933164fcbf2c55705b53a5492812be7c968865d14def32da6181383d71b0d164736f6c634300081d0033","linkReferences":{}},"methodIdentifiers":{"addAdminAddress(address)":"004fba00","addRegistries(uint64[],address[][],bytes[],bool[])":"6917a4b6","addStandardAuthorizations(string[],address[][],(address,bool,bytes4,bytes32)[][])":"139a0bf2","adminAddresses(address)":"4ed38faf","authorizations(string,uint256)":"1de8d10f","authorizationsData(string,uint256)":"1f532a2d","callbacks(uint64)":"fdba7ab8","executeZKMessage(bytes,bytes,bytes,bytes)":"9e7ccbe7","executionId()":"76ce2dad","getZkAuthorizationsList(uint64)":"9273c4fb","handleCallback(bytes)":"7003fdf4","owner()":"8da5cb5b","processor()":"ce1b1d43","removeAdminAddress(address)":"95101181","removeRegistries(uint64[])":"df0cab02","removeStandardAuthorizations(string[])":"32f8b25c","renounceOwnership()":"715018a6","sendProcessorMessage(string,bytes)":"d00329b7","storeCallbacks()":"b06abffc","transferOwnership(address)":"f2fde38b","updateProcessor(address)":"8e8c6848","updateVerificationGateway(address)":"42738825","validateBlockNumberExecution(uint64)":"aa2de6c3","verificationGateway()":"d47256cf","zkAuthorizationLastExecutionBlock(uint64)":"a34f92e8","zkAuthorizations(uint64,uint256)":"311c7376"},"id":78}