{"abi":[{"type":"constructor","inputs":[{"name":"_owner","type":"address","internalType":"address"},{"name":"_processor","type":"address","internalType":"address"},{"name":"_verificationGateway","type":"address","internalType":"address"},{"name":"_storeCallbacks","type":"bool","internalType":"bool"}],"stateMutability":"nonpayable"},{"type":"function","name":"addAdminAddress","inputs":[{"name":"_admin","type":"address","internalType":"address"}],"outputs":[],"stateMutability":"nonpayable"},{"type":"function","name":"addRegistries","inputs":[{"name":"registries","type":"uint64[]","internalType":"uint64[]"},{"name":"users","type":"address[][]","internalType":"address[][]"},{"name":"vks","type":"bytes32[]","internalType":"bytes32[]"},{"name":"validateBlockNumber","type":"bool[]","internalType":"bool[]"}],"outputs":[],"stateMutability":"nonpayable"},{"type":"function","name":"addStandardAuthorizations","inputs":[{"name":"_labels","type":"string[]","internalType":"string[]"},{"name":"_users","type":"address[][]","internalType":"address[][]"},{"name":"_authorizationData","type":"tuple[][]","internalType":"struct Authorization.AuthorizationData[][]","components":[{"name":"contractAddress","type":"address","internalType":"address"},{"name":"useFunctionSelector","type":"bool","internalType":"bool"},{"name":"functionSelector","type":"bytes4","internalType":"bytes4"},{"name":"callHash","type":"bytes32","internalType":"bytes32"}]}],"outputs":[],"stateMutability":"nonpayable"},{"type":"function","name":"adminAddresses","inputs":[{"name":"","type":"address","internalType":"address"}],"outputs":[{"name":"","type":"bool","internalType":"bool"}],"stateMutability":"view"},{"type":"function","name":"authorizations","inputs":[{"name":"","type":"string","internalType":"string"},{"name":"","type":"uint256","internalType":"uint256"}],"outputs":[{"name":"","type":"address","internalType":"address"}],"stateMutability":"view"},{"type":"function","name":"authorizationsData","inputs":[{"name":"","type":"string","internalType":"string"},{"name":"","type":"uint256","internalType":"uint256"}],"outputs":[{"name":"contractAddress","type":"address","internalType":"address"},{"name":"useFunctionSelector","type":"bool","internalType":"bool"},{"name":"functionSelector","type":"bytes4","internalType":"bytes4"},{"name":"callHash","type":"bytes32","internalType":"bytes32"}],"stateMutability":"view"},{"type":"function","name":"callbacks","inputs":[{"name":"","type":"uint64","internalType":"uint64"}],"outputs":[{"name":"executionResult","type":"uint8","internalType":"enum IProcessor.ExecutionResult"},{"name":"executedCount","type":"uint64","internalType":"uint64"},{"name":"data","type":"bytes","internalType":"bytes"}],"stateMutability":"view"},{"type":"function","name":"executeZKMessage","inputs":[{"name":"_message","type":"bytes","internalType":"bytes"},{"name":"_proof","type":"bytes","internalType":"bytes"},{"name":"_domainMessage","type":"bytes","internalType":"bytes"},{"name":"_domainProof","type":"bytes","internalType":"bytes"}],"outputs":[],"stateMutability":"nonpayable"},{"type":"function","name":"executionId","inputs":[],"outputs":[{"name":"","type":"uint64","internalType":"uint64"}],"stateMutability":"view"},{"type":"function","name":"getZkAuthorizationsList","inputs":[{"name":"registryId","type":"uint64","internalType":"uint64"}],"outputs":[{"name":"","type":"address[]","internalType":"address[]"}],"stateMutability":"view"},{"type":"function","name":"handleCallback","inputs":[{"name":"callbackData","type":"bytes","internalType":"bytes"}],"outputs":[],"stateMutability":"nonpayable"},{"type":"function","name":"owner","inputs":[],"outputs":[{"name":"","type":"address","internalType":"address"}],"stateMutability":"view"},{"type":"function","name":"processor","inputs":[],"outputs":[{"name":"","type":"address","internalType":"contract ProcessorBase"}],"stateMutability":"view"},{"type":"function","name":"removeAdminAddress","inputs":[{"name":"_admin","type":"address","internalType":"address"}],"outputs":[],"stateMutability":"nonpayable"},{"type":"function","name":"removeRegistries","inputs":[{"name":"registries","type":"uint64[]","internalType":"uint64[]"}],"outputs":[],"stateMutability":"nonpayable"},{"type":"function","name":"removeStandardAuthorizations","inputs":[{"name":"_labels","type":"string[]","internalType":"string[]"}],"outputs":[],"stateMutability":"nonpayable"},{"type":"function","name":"renounceOwnership","inputs":[],"outputs":[],"stateMutability":"nonpayable"},{"type":"function","name":"sendProcessorMessage","inputs":[{"name":"label","type":"string","internalType":"string"},{"name":"_message","type":"bytes","internalType":"bytes"}],"outputs":[],"stateMutability":"nonpayable"},{"type":"function","name":"storeCallbacks","inputs":[],"outputs":[{"name":"","type":"bool","internalType":"bool"}],"stateMutability":"view"},{"type":"function","name":"transferOwnership","inputs":[{"name":"newOwner","type":"address","internalType":"address"}],"outputs":[],"stateMutability":"nonpayable"},{"type":"function","name":"updateProcessor","inputs":[{"name":"_processor","type":"address","internalType":"address"}],"outputs":[],"stateMutability":"nonpayable"},{"type":"function","name":"updateVerificationGateway","inputs":[{"name":"_verificationGateway","type":"address","internalType":"address"}],"outputs":[],"stateMutability":"nonpayable"},{"type":"function","name":"validateBlockNumberExecution","inputs":[{"name":"","type":"uint64","internalType":"uint64"}],"outputs":[{"name":"","type":"bool","internalType":"bool"}],"stateMutability":"view"},{"type":"function","name":"verificationGateway","inputs":[],"outputs":[{"name":"","type":"address","internalType":"contract VerificationGateway"}],"stateMutability":"view"},{"type":"function","name":"zkAuthorizationLastExecutionBlock","inputs":[{"name":"","type":"uint64","internalType":"uint64"}],"outputs":[{"name":"","type":"uint64","internalType":"uint64"}],"stateMutability":"view"},{"type":"function","name":"zkAuthorizations","inputs":[{"name":"","type":"uint64","internalType":"uint64"},{"name":"","type":"uint256","internalType":"uint256"}],"outputs":[{"name":"","type":"address","internalType":"address"}],"stateMutability":"view"},{"type":"event","name":"AdminAddressAdded","inputs":[{"name":"admin","type":"address","indexed":true,"internalType":"address"}],"anonymous":false},{"type":"event","name":"AdminAddressRemoved","inputs":[{"name":"admin","type":"address","indexed":true,"internalType":"address"}],"anonymous":false},{"type":"event","name":"AuthorizationAdded","inputs":[{"name":"label","type":"string","indexed":false,"internalType":"string"}],"anonymous":false},{"type":"event","name":"AuthorizationRemoved","inputs":[{"name":"label","type":"string","indexed":false,"internalType":"string"}],"anonymous":false},{"type":"event","name":"CallbackReceived","inputs":[{"name":"executionId","type":"uint64","indexed":true,"internalType":"uint64"},{"name":"executionResult","type":"uint8","indexed":false,"internalType":"enum IProcessor.ExecutionResult"},{"name":"executedCount","type":"uint64","indexed":false,"internalType":"uint64"},{"name":"data","type":"bytes","indexed":false,"internalType":"bytes"}],"anonymous":false},{"type":"event","name":"OwnershipTransferred","inputs":[{"name":"previousOwner","type":"address","indexed":true,"internalType":"address"},{"name":"newOwner","type":"address","indexed":true,"internalType":"address"}],"anonymous":false},{"type":"error","name":"OwnableInvalidOwner","inputs":[{"name":"owner","type":"address","internalType":"address"}]},{"type":"error","name":"OwnableUnauthorizedAccount","inputs":[{"name":"account","type":"address","internalType":"address"}]},{"type":"error","name":"ReentrancyGuardReentrantCall","inputs":[]}],"bytecode":{"object":"0x60a03461019157601f61340438819003918201601f19168301916001600160401b038311848410176101955780849260809460405283398101031261019157610047816101a9565b90610054602082016101a9565b6060610062604084016101a9565b920151928315158403610191576001600160a01b031690811561017e575f80546001600160a01b031981168417825560405193916001600160a01b03909116907f8be0079c531659141344cd1fd0a4f28419497f9722a3daafe3b4186f6b6457e09080a3600180556001600160a01b031690811561013c5750600280546001600160a01b0319908116929092179055600880549091166001600160a01b0392909216919091179055600480546001600160401b031916905560805260405161324690816101be8239608051818181610f710152611a3e0152f35b62461bcd60e51b815260206004820181905260248201527f50726f636573736f722063616e6e6f74206265207a65726f20616464726573736044820152606490fd5b631e4fbdf760e01b5f525f60045260245ffd5b5f80fd5b634e487b7160e01b5f52604160045260245ffd5b51906001600160a01b03821682036101915756fe60806040526004361015610011575f80fd5b5f5f3560e01c80624fba0014612400578063139a0bf214611f825780631de8d10f14611f425780631f532a2d14611ec2578063311c737614611e6357806332f8b25c14611d3a5780634273882514611cf75780634ed38faf14611cba5780637003fdf414611962578063715018a61461190b57806376ce2dad146118e55780638da5cb5b146118be5780638e8c68481461182e5780639273c4fb1461176857806395101181146117035780639e7ccbe71461100d578063a34f92e814610fd3578063aa2de6c314610f96578063b06abffc14610f59578063ce1b1d4314610f30578063d00329b714610765578063d47256cf1461073c578063df0cab02146105e9578063f2fde38b14610563578063f5d08c19146102305763fdba7ab814610137575f80fd5b3461022d57602036600319011261022d576001600160401b03610158612764565b1681526003602052604081206001815491016040518381949083549361017d85612820565b808552946001811690811561020957506001146101c7575b50506101a3925003836124fe565b6101c3604051928260ff6001600160401b03869560081c1691168461287c565b0390f35b90809394925052602082205b8183106101ed5750509060206101a3928201015f80610195565b60209193508060019154838589010152019101909184926101d3565b915050602092506101a394915060ff191682840152151560051b8201015f80610195565b80fd5b503461022d57608036600319011261022d576004356001600160401b03811161055f576102619036906004016127bb565b6024356001600160401b03811161055b57610280903690600401612623565b90604435926001600160401b03841161022d573660238501121561022d578360040135926001600160401b03841161055f573660248560051b8701011161055f57606435946001600160401b03861161055b573660238701121561055b578560040135956102ed8761251f565b966102fb60405198896124fe565b8088526024602089019160051b830101913683116104c857602401905b8282106105435750505061032a612e13565b6008546001600160a01b0316156104f95761035782518551811490816104ef575b816104e4575b506128ad565b825b84518110156104e0576008546001600160a01b03166001600160401b0361038083886128f9565b5116878310156104cc57813b156104c85785916044839260405194859384926321f342d760e01b8452600484015260248860051b8a01013560248401525af180156104bd579085916104a4575b50506103d981846128f9565b516001600160401b036103ec83886128f9565b511685526009602052604085208151916001600160401b038311610490576020906104178484612946565b0190865260208620865b838110610473575050505080610439600192896128f9565b51610445575b01610359565b6001600160401b0361045782886128f9565b51168552600a60205260408520805460ff19168317905561043f565b82516001600160a01b031681830155602090920191600101610421565b634e487b7160e01b87526041600452602487fd5b816104ae916124fe565b6104b957835f6103cd565b8380fd5b6040513d87823e3d90fd5b8580fd5b634e487b7160e01b86526032600452602486fd5b8380f35b90508751145f610351565b878114915061034b565b60405162461bcd60e51b815260206004820152601c60248201527f566572696669636174696f6e2067617465776179206e6f742073657400000000604482015280606481015b0390fd5b60208091610550846126fd565b815201910190610318565b8280fd5b5080fd5b503461022d57602036600319011261022d5761057d612468565b610585612e13565b6001600160a01b031680156105d55781546001600160a01b03198116821783556001600160a01b03167f8be0079c531659141344cd1fd0a4f28419497f9722a3daafe3b4186f6b6457e08380a380f35b631e4fbdf760e01b82526004829052602482fd5b503461022d57602036600319011261022d576004356001600160401b03811161055f5761061a9036906004016127bb565b610622612e13565b6008546001600160a01b0316156104f957815b81518110156107385760085483906001600160a01b03166001600160401b0361065e84866128f9565b5116813b1561055b57829160248392604051948593849263039e7e5f60e01b845260048401525af1801561072d57610718575b5050806001600160401b036106a8600193856128f9565b5116845260096020526106bd60408520612923565b6001600160401b036106cf82856128f9565b51168452600b60205260408420805467ffffffffffffffff191690556001600160401b036106fd82856128f9565b51168452600a60205260408420805460ff1916905501610635565b81610722916124fe565b61055b57825f610691565b6040513d84823e3d90fd5b8280f35b503461022d578060031936011261022d576008546040516001600160a01b039091168152602090f35b503461022d57604036600319011261022d576004356001600160401b03811161055f5761079690369060040161278e565b90916024356001600160401b03811161055f576107ba6107c991369060040161278e565b6107c2612e39565b3691612551565b92606060206040516107da816124c8565b8481520152835184019160208584031261022d5760208501516001600160401b03811161055f57850160408185031261055f576040519361081a856124c8565b602082015160058110156104b95785526040820151906001600160401b0382116104b95761084f92602091820192010161298c565b946020840195865283516005811015610f1c57600303610e94575061087e855160208082518301019101612ca0565b9260206040850180515161089181612b97565b61089a81612b97565b610c1d575101519384518501946020860190602081880312610c19576020810151906001600160401b0382116104c8570160a081880312610c1957604051966108e2886124c8565b60208201516001600160401b038111610c155760209083010183601f82011215610c15578051906109128261251f565b9261092060405194856124fe565b82845260208085019360051b83010191868311610c1157602001925b828410610bdf57505050506109579291604091895201612e84565b60208601528451518015159081610bcf575b50610b645761097b8596955151612f17565b966080820195845b88518051821015610a1757600191906001600160a01b03906109a69083906128f9565b5151166109bd6109b7838c516128f9565b51612f7e565b6109c8838c516128f9565b516020815191012090604051926109de84612492565b8352602083018590526001600160e01b03191660408301526060820152610a05828d6128f9565b52610a10818c6128f9565b5001610983565b505091955093610a2b939792965033612fbb565b15610b29578392610a64610a9092610a72610a82955b8760208201526001600160401b0360045416815260405193849160208301612d5b565b03601f1981018452836124fe565b5260405192839160208301612de6565b03601f1981018352826124fe565b6004546001600160401b03610aa6818316612dc9565b67ffffffffffffffff199092169116176004556002546001600160a01b0316803b15610b25576040516304e2f55f60e11b8152602060048201529183918391829084908290610af9906024830190612858565b03925af1801561072d57610b10575b506001805580f35b81610b1a916124fe565b61022d57805f610b08565b5050fd5b60405162461bcd60e51b8152602060048201526013602482015272556e617574686f72697a65642061636365737360681b6044820152606490fd5b60405162461bcd60e51b815260206004820152603a60248201527f537562726f7574696e652066756e6374696f6e73206c656e67746820646f657360448201527f206e6f74206d61746368206d65737361676573206c656e6774680000000000006064820152608490fd5b905060808201515114155f610969565b6020808584030112610c115760208091604051610bfb816124e3565b610c0487612e70565b815281520193019261093c565b8980fd5b8680fd5b8480fd5b5101519384518501946020860190602081880312610c19576020810151906001600160401b0382116104c8570195602087820312610c195760405196610c62886124e3565b6020810151906001600160401b038211610c15579060209101019082601f830112156104c857815190610c948261251f565b93610ca260405195866124fe565b82855260208086019360051b85010193818511610e905760208101935b858510610dc057505050505050808652518015159081610db0575b50610b6457610cec8596955151612f17565b966080820195845b88518051821015610d8257600191906001600160a01b0390610d179083906128f9565b515116610d286109b7838c516128f9565b610d33838c516128f9565b51602081519101209060405192610d4984612492565b8352602083018590526001600160e01b03191660408301526060820152610d70828d6128f9565b52610d7b818c6128f9565b5001610cf4565b505091955093610d96939792965033612fbb565b15610b29578392610a64610a9092610a72610a8295610a41565b905060808201515114155f610cda565b84516001600160401b038111610e8c57820160c081860312610e8c5760405190610de9826124ad565b610df560208201612e70565b8252610e048560408301612e84565b602083015260c0810151906001600160401b038211610e8857016020810190604090870312610e845760405190610e3a826124c8565b610e4381612e70565b82526020810151906001600160401b038211610e805791610e6c8760209694938796940161298c565b848201526040820152815201940193610cbf565b8d80fd5b8b80fd5b8c80fd5b8a80fd5b8880fd5b94915092508151936005851015610f085760048495145f14610efd5750610a8291610a64610ef892610ec4612e59565b610a72610edb825160208082518301019101612acb565b6001600160401b0360045416815260405193849160208301612c1f565b610a90565b915050610ef8612e59565b634e487b7160e01b84526021600452602484fd5b634e487b7160e01b83526021600452602483fd5b503461022d578060031936011261022d576002546040516001600160a01b039091168152602090f35b503461022d578060031936011261022d5760206040517f000000000000000000000000000000000000000000000000000000000000000015158152f35b503461022d57602036600319011261022d5760ff60406020926001600160401b03610fbf612764565b168152600a84522054166040519015158152f35b503461022d57602036600319011261022d576001600160401b03604060209282610ffb612764565b168152600b8452205416604051908152f35b5034611428576080366003190112611428576004356001600160401b0381116114285761103e90369060040161278e565b906024356001600160401b0381116114285761105e90369060040161278e565b926044356001600160401b0381116114285761107e90369060040161278e565b92906064356001600160401b0381116114285761109f90369060040161278e565b9690936110aa612e39565b6008546001600160a01b03169283156104f9578160201161142857873587602011611428578135036116be57878201966020898903601f1901126114285760208901356001600160401b038111611428578901966080888a03601f190112611428576040519761111989612492565b6111256020820161277a565b89526111336040820161277a565b60208a01526111446060820161247e565b9060408a0191825260808101356001600160401b0381116114285760209101016040818c0312611428576040519a61117b8c6124c8565b81356005811015611428578c5260208201356001600160401b038111611428576111a59201612587565b60208b015260608901998a52516001600160a01b031680151590816116b3575b5061166e576001600160401b038851165f52600960205260405f209a604051808d6020829f549384815201905f5260205f20925f5b81811061164957505061120f9250038d6124fe565b5f9b5f5b815181101561163757336001600160a01b0361122f83856128f9565b511614801561161c575b61124557600101611213565b5050909192939495969798999a5060015b156115c8576001600160401b038951165f52600a60205260ff60405f2054169a8b611558575b89516040516356fd623360e11b81526001600160401b03909116600482015260a060248201529889978897916112b69160a48a01916129d2565b906003198883030160448901526112cc926129d2565b906003198683030160648701526112e2926129d2565b906003198483030160848501526112f8926129d2565b03815a6020945f91f190811561141d575f9161151d575b50156114d85761131f82516129f2565b60058110156114c45760030361145f57610a6492610a8261136e61135160208651015160208082518301019101612ca0565b6001600160401b0360045416815260405192839160208301612d5b565b6020845101525b6004546001600160401b0361138b818316612dc9565b16906001600160401b0319161760045561142c575b506113c060018060a01b0360025416915160405193849160208301612de6565b803b15611428576040516304e2f55f60e11b815260206004820152915f9183918290849082906113f4906024830190612858565b03925af1801561141d5761140a57506001805580f35b61141691505f906124fe565b5f5f610b08565b6040513d5f823e3d90fd5b5f80fd5b6001600160401b03806020830151169151165f52600b60205260405f20906001600160401b03198254161790555f6113a0565b61146982516129f2565b9260058410156114c4576004610a64940361137557610a826114b961149c60208651015160208082518301019101612acb565b6001600160401b0360045416815260405192839160208301612c1f565b602084510152611375565b634e487b7160e01b5f52602160045260245ffd5b60405162461bcd60e51b815260206004820152601960248201527f50726f6f6620766572696669636174696f6e206661696c6564000000000000006044820152606490fd5b90506020813d602011611550575b81611538602093836124fe565b8101031261142857518015158103611428575f61130f565b3d915061152b565b6001600160401b0360208b0151166001600160401b038b51165f52600b6020526001600160401b0360405f2054161061127c5760405162461bcd60e51b8152602060048201526015602482015274141c9bdbd9881b9bc81b1bdb99d95c881d985b1a59605a1b6044820152606490fd5b60405162461bcd60e51b815260206004820152602660248201527f556e617574686f72697a6564206164647265737320666f72207468697320726560448201526567697374727960d01b6064820152608490fd5b506001600160a01b0361162f82846128f9565b511615611239565b5050909192939495969798999a611256565b91600191935060208291828060a01b0387541681520194019101918f929391936111fa565b60405162461bcd60e51b815260206004820152601e60248201527f496e76616c696420617574686f72697a6174696f6e20636f6e747261637400006044820152606490fd5b90503014155f6111c5565b60405162461bcd60e51b815260206004820152601960248201527f436f70726f636573736f7220726f6f74206d69736d61746368000000000000006044820152606490fd5b346114285760203660031901126114285761171c612468565b611724612e13565b6001600160a01b03165f818152600560205260408120805460ff191690557fc41dab03d4639245f86ebd733046feb495209977c224698a4d1318fec207af5a9080a2005b34611428576020366003190112611428576001600160401b03611789612764565b165f52600960205260405f20604051806020835491828152019081935f5260205f20905f5b81811061180f57505050816117c49103826124fe565b604051918291602083019060208452518091526040830191905f5b8181106117ed575050500390f35b82516001600160a01b03168452859450602093840193909201916001016117df565b82546001600160a01b03168452602090930192600192830192016117ae565b3461142857602036600319011261142857611847612468565b61184f612e13565b6001600160a01b0316801561187a576bffffffffffffffffffffffff60a01b60025416176002555f80f35b606460405162461bcd60e51b815260206004820152602060248201527f50726f636573736f722063616e6e6f74206265207a65726f20616464726573736044820152fd5b34611428575f366003190112611428575f546040516001600160a01b039091168152602090f35b34611428575f3660031901126114285760206001600160401b0360045416604051908152f35b34611428575f36600319011261142857611923612e13565b5f80546001600160a01b0319811682556001600160a01b03167f8be0079c531659141344cd1fd0a4f28419497f9722a3daafe3b4186f6b6457e08280a3005b34611428576020366003190112611428576004356001600160401b03811161142857611992903690600401612587565b6002546001600160a01b03163303611c67578051810190602081830312611428576020810151906001600160401b0382116114285701608081830312611428576040516119de81612492565b6119ea60208301612978565b815260408201519260048410156114285760208201938452606083015192604083019384526080810151916001600160401b03831161142857611a3492602080920192010161298c565b90606081019182527f0000000000000000000000000000000000000000000000000000000000000000611aba575b6001600160401b03905116925160048110156114c457611ab56001600160401b037f0e6a5a94daf01fa3e93aa95500023d6dfb25b727e94114d9ff2a2bad85f1f3ea94511692516040519384938461287c565b0390a2005b835160048110156114c4576001600160401b0384511683519160405190611ae0826124ad565b815260208101918252604081019283526001600160401b038451165f52600360205260405f20905160048110156114c45760019260ff68ffffffffffffffff008454925160081b1692169068ffffffffffffffffff1916171781550190518051906001600160401b038211611c5357611b598354612820565b601f8111611c18575b50602090601f8311600114611bab576001600160401b03949392915f9183611ba0575b50508160011b915f199060031b1c19161790555b9050611a62565b015190508880611b85565b90601f19831691845f52815f20925f5b818110611c0057509160019391856001600160401b039897969410611be8575b505050811b019055611b99565b01515f1960f88460031b161c19169055888080611bdb565b92936020600181928786015181550195019301611bbb565b611c4390845f5260205f20601f850160051c81019160208610611c49575b601f0160051c019061290d565b87611b62565b9091508190611c36565b634e487b7160e01b5f52604160045260245ffd5b60405162461bcd60e51b815260206004820152602560248201527f4f6e6c792070726f636573736f722063616e2063616c6c20746869732066756e60448201526431ba34b7b760d91b6064820152608490fd5b34611428576020366003190112611428576001600160a01b03611cdb612468565b165f526005602052602060ff60405f2054166040519015158152f35b3461142857602036600319011261142857611d10612468565b611d18612e13565b600880546001600160a01b0319166001600160a01b0392909216919091179055005b34611428576020366003190112611428576004356001600160401b03811161142857611d6a9036906004016125a5565b611d72612e13565b5f5b8151811015611e6157611d8781836128f9565b51604051815190602081818501938085835e810160078152030190208054905f815581611e16575b5050611e0d60019392611df97f9bfef6e4eb8e0a845f84b7d4b802555c3f98868a52a2c41dfd1c233c70c45317936020604051809285518091835e81016006815203019020612923565b604051918291602083526020830190612858565b0390a101611d74565b6001600160ff1b0382168203611e4d575f5260205f209060011b8101905b81811015611daf575f8082556001820155600201611e34565b634e487b7160e01b5f52601160045260245ffd5b005b3461142857604036600319011261142857611e7c612764565b6001600160401b0360243591165f52600960205260405f20805482101561142857602091611ea99161273b565b905460405160039290921b1c6001600160a01b03168152f35b3461142857602080611ed33661270a565b9290604051928184925191829101835e81016007815203019020908154811015611428576080915f5260205f209060011b01600181549101546040519160018060a01b038116835260ff8160a01c161515602084015263ffffffff60e01b9060381b1660408301526060820152f35b3461142857602080611f533661270a565b9290604051928184925191829101835e81016006815203019020805482101561142857602091611ea99161273b565b34611428576060366003190112611428576004356001600160401b03811161142857611fb29036906004016125a5565b6024356001600160401b03811161142857611fd1903690600401612623565b90604435916001600160401b0383116114285736602384011215611428578260040135611ffd8161251f565b9361200b60405195866124fe565b8185526024602086019260051b820101903682116114285760248101925b828410612326575050505061203c612e13565b612051825184518114908161231b57506128ad565b5f5b8251811015611e615761206681846128f9565b5161207182846128f9565b518051156122d65761208383876128f9565b5190815115906040517f417574686f72697a6174696f6e20646174612061727261792063616e6e6f742060208201526d031329032b6b83a3c903337b91d160951b60408201528451926120f3604e83602089019680888484015e81015f838201520301601f1981018452836124fe565b6122b2575060405160208186518086835e810160068152030190208151916001600160401b038311611c535760209061212c8484612946565b01905f5260205f205f5b83811061229557505050506020604051809285518091835e81016007815203019020815191600160401b8311611c53578154838355808410612243575b50602001905f5260205f20905f905b8382106121d25750505050907fc25a9f2d765939f3e875d5a89a3b55326d95232ce8f5f8dd88b6720a6616f5596121c9600193604051918291602083526020830190612858565b0390a101612053565b80518051845460208381015160408501516001600160c81b03199093166001600160a01b03949094169390931792151560a01b60ff60a01b169290921760389190911c63ffffffff60a81b161785556060919091015160018581019190915560029490940193929092019101612182565b6001600160ff1b0381168103611e4d576001600160ff1b0384168403611e4d57825f5260205f209060011b8101908460011b015b8181106122845750612173565b5f8082556001820155600201612277565b82516001600160a01b031681830155602090920191600101612136565b60405162461bcd60e51b81526020600482015290819061053f906024830190612858565b60405162461bcd60e51b815260206004820152601b60248201527f55736572732061727261792063616e6e6f7420626520656d70747900000000006044820152606490fd5b905082511485610351565b83356001600160401b038111611428578201366043820112156114285760248101356123518161251f565b9161235f60405193846124fe565b818352602060248185019360071b830101019036821161142857604401915b81831061239657505050815260209384019301612029565b60808336031261142857604051906123ad82612492565b6123b68461247e565b82526123c4602085016126fd565b60208301526040840135906001600160e01b0319821682036114285782602092604060809501526060860135606082015281520192019161237e565b3461142857602036600319011261142857612419612468565b612421612e13565b6001600160a01b03165f818152600560205260408120805460ff191660011790557f089aa9975328102f8cdff40d2e2b75ad3b940f83f42c2e13c43ed875ff8f046a9080a2005b600435906001600160a01b038216820361142857565b35906001600160a01b038216820361142857565b608081019081106001600160401b03821117611c5357604052565b606081019081106001600160401b03821117611c5357604052565b604081019081106001600160401b03821117611c5357604052565b602081019081106001600160401b03821117611c5357604052565b90601f801991011681019081106001600160401b03821117611c5357604052565b6001600160401b038111611c535760051b60200190565b6001600160401b038111611c5357601f01601f191660200190565b92919261255d82612536565b9161256b60405193846124fe565b829481845281830111611428578281602093845f960137010152565b9080601f83011215611428578160206125a293359101612551565b90565b9080601f830112156114285781356125bc8161251f565b926125ca60405194856124fe565b81845260208085019260051b820101918383116114285760208201905b8382106125f657505050505090565b81356001600160401b0381116114285760209161261887848094880101612587565b8152019101906125e7565b9080601f830112156114285781359061263b8261251f565b9261264960405194856124fe565b82845260208085019360051b820101908282116114285760208101935b82851061267557505050505090565b84356001600160401b03811161142857820184603f82011215611428576020810135906126a18261251f565b916126af60405193846124fe565b8083526020808085019260051b840101019187831161142857604001905b8282106126e557505050815260209485019401612666565b602080916126f28461247e565b8152019101906126cd565b3590811515820361142857565b604060031982011261142857600435906001600160401b0382116114285761273491600401612587565b9060243590565b8054821015612750575f5260205f2001905f90565b634e487b7160e01b5f52603260045260245ffd5b600435906001600160401b038216820361142857565b35906001600160401b038216820361142857565b9181601f84011215611428578235916001600160401b038311611428576020838186019501011161142857565b9080601f830112156114285781356127d28161251f565b926127e060405194856124fe565b81845260208085019260051b82010192831161142857602001905b8282106128085750505090565b602080916128158461277a565b8152019101906127fb565b90600182811c9216801561284e575b602083101461283a57565b634e487b7160e01b5f52602260045260245ffd5b91607f169161282f565b805180835260209291819084018484015e5f828201840152601f01601f1916010190565b9291909260048410156114c4576001600160401b036060926125a29583521660208201528160408201520190612858565b156128b457565b60405162461bcd60e51b815260206004820152601860248201527f4172726179206c656e67746873206d757374206d6174636800000000000000006044820152606490fd5b80518210156127505760209160051b010190565b818110612918575050565b5f815560010161290d565b80545f825580612931575050565b612944915f5260205f209081019061290d565b565b90600160401b8111611c535781549080835581811061296457505050565b612944925f5260205f20918201910161290d565b51906001600160401b038216820361142857565b81601f82011215611428578051906129a382612536565b926129b160405194856124fe565b8284526020838301011161142857815f9260208093018386015e8301015290565b908060209392818452848401375f828201840152601f01601f1916010190565b5160058110156114c45790565b91906040838203126114285760405190612a18826124c8565b8193805160028110156114285783526020810151916001600160401b03831161142857602092612a48920161298c565b910152565b9080601f83011215611428578151612a648161251f565b92612a7260405194856124fe565b81845260208085019260051b820101918383116114285760208201905b838210612a9e57505050505090565b81516001600160401b03811161142857602091612ac08784809488010161298c565b815201910190612a8f565b602081830312611428578051906001600160401b038211611428570160c081830312611428576040519160c083018381106001600160401b03821117611c5357604052612b1782612978565b8352612b2560208301612978565b60208401526040820151600281101561142857604084015260608201516001600160401b0381116114285781612b5c9184016129ff565b6060840152612b6d60808301612978565b608084015260a08201516001600160401b03811161142857612b8f9201612a4d565b60a082015290565b600211156114c457565b90604060206125a2938051612bb581612b97565b84520151918160208201520190612858565b9080602083519182815201916020808360051b8301019401925f915b838310612bf257505050505090565b9091929394602080612c10600193601f198682030187528951612858565b97019301930191939290612be3565b906125a291602081526001600160401b0382511660208201526001600160401b0360208301511660408201526040820151612c5981612b97565b606082015260a0612c79606084015160c0608085015260e0840190612ba1565b926001600160401b036080820151168284015201519060c0601f1982850301910152612bc7565b602081830312611428578051906001600160401b038211611428570160a081830312611428576040519160a083018381106001600160401b03821117611c5357604052612cec82612978565b83526020820151600281101561142857602084015260408201516001600160401b0381116114285781612d209184016129ff565b6040840152612d3160608301612978565b606084015260808201516001600160401b03811161142857612d539201612a4d565b608082015290565b906125a291602081526001600160401b0382511660208201526020820151612d8281612b97565b60408201526080612da2604084015160a0606085015260c0840190612ba1565b926001600160401b036060820151168284015201519060a0601f1982850301910152612bc7565b6001600160401b03166001600160401b038114611e4d5760010190565b6020815281519160058310156114c45760206060916125a294828501520151916040808201520190612858565b5f546001600160a01b03163303612e2657565b63118cdaa760e01b5f523360045260245ffd5b600260015414612e4a576002600155565b633ee5aeb560e01b5f5260045ffd5b335f52600560205260ff60405f20541615610b2957565b51906001600160a01b038216820361142857565b8092910391608083126114285760405190612e9e826124c8565b8193604081126114285760405190612eb5826124c8565b8251916003831015611428576040928152612ed260208501612978565b60208201528452603f1901126114285760405191612eef836124c8565b6040820151916002831015611428576060612f0f91602094865201612978565b828401520152565b90612f218261251f565b612f2e60405191826124fe565b8281528092612f3f601f199161251f565b01905f5b828110612f4f57505050565b602090604051612f5e81612492565b5f81525f838201525f60408201525f606082015282828501015201612f43565b80516020909101516001600160e01b0319811692919060048210612fa0575050565b6001600160e01b031960049290920360031b82901b16169150565b929190604051828282376020818481016006815203019020604051808260208294549384815201905f5260205f20925f5b8181106131ee575050613001925003826124fe565b5f945f5b82518110156131e3576001600160a01b0361302082856128f9565b51166001600160a01b0383161480156131c8575b61304057600101613005565b5050509091925060015b1561313357602090826040519384928337810160078152030190209081546130718161251f565b9261307f60405194856124fe565b81845260208401905f5260205f205f915b8383106131735750505050815181510361316d575f5b8251811015613165576001600160a01b036130c182856128f9565b5151166001600160a01b036130d683856128f9565b515116036131335760206130ea82856128f9565b5101511561313a576001600160e01b0319604061310783866128f9565b510151166001600160e01b0319604061312084866128f9565b5101511603613133576001905b016130a6565b5050505f90565b606061314682856128f9565b510151606061315583856128f9565b510151036131335760019061312d565b505050600190565b50505f90565b6002602060019260405161318681612492565b8554858060a01b038116825260ff8160a01c1615158483015263ffffffff60e01b9060381b166040820152848601546060820152815201920192019190613090565b506001600160a01b036131db82856128f9565b511615613034565b50505090919261304a565b84546001600160a01b0316835260019485019486945060209093019201612fec56fea2646970667358221220c4e0ad4b39b7851b0185d75671f3a11fba55bd6ee185f00ff051312d8e1dc83c64736f6c634300081d0033","linkReferences":{}},"methodIdentifiers":{"addAdminAddress(address)":"004fba00","addRegistries(uint64[],address[][],bytes32[],bool[])":"f5d08c19","addStandardAuthorizations(string[],address[][],(address,bool,bytes4,bytes32)[][])":"139a0bf2","adminAddresses(address)":"4ed38faf","authorizations(string,uint256)":"1de8d10f","authorizationsData(string,uint256)":"1f532a2d","callbacks(uint64)":"fdba7ab8","executeZKMessage(bytes,bytes,bytes,bytes)":"9e7ccbe7","executionId()":"76ce2dad","getZkAuthorizationsList(uint64)":"9273c4fb","handleCallback(bytes)":"7003fdf4","owner()":"8da5cb5b","processor()":"ce1b1d43","removeAdminAddress(address)":"95101181","removeRegistries(uint64[])":"df0cab02","removeStandardAuthorizations(string[])":"32f8b25c","renounceOwnership()":"715018a6","sendProcessorMessage(string,bytes)":"d00329b7","storeCallbacks()":"b06abffc","transferOwnership(address)":"f2fde38b","updateProcessor(address)":"8e8c6848","updateVerificationGateway(address)":"42738825","validateBlockNumberExecution(uint64)":"aa2de6c3","verificationGateway()":"d47256cf","zkAuthorizationLastExecutionBlock(uint64)":"a34f92e8","zkAuthorizations(uint64,uint256)":"311c7376"},"id":89}