{"abi":[{"type":"constructor","inputs":[{"name":"_owner","type":"address","internalType":"address"},{"name":"_processor","type":"address","internalType":"address"},{"name":"_storeCallbacks","type":"bool","internalType":"bool"}],"stateMutability":"nonpayable"},{"type":"function","name":"addAdminAddress","inputs":[{"name":"_admin","type":"address","internalType":"address"}],"outputs":[],"stateMutability":"nonpayable"},{"type":"function","name":"addRegistries","inputs":[{"name":"registries","type":"uint64[]","internalType":"uint64[]"},{"name":"zkAuthorizationsData","type":"tuple[]","internalType":"struct Authorization.ZkAuthorizationData[]","components":[{"name":"allowedExecutionAddresses","type":"address[]","internalType":"address[]"},{"name":"vk","type":"bytes","internalType":"bytes"},{"name":"route","type":"string","internalType":"string"},{"name":"validateBlockNumberExecution","type":"bool","internalType":"bool"},{"name":"metadataHash","type":"bytes32","internalType":"bytes32"}]}],"outputs":[],"stateMutability":"nonpayable"},{"type":"function","name":"addStandardAuthorizations","inputs":[{"name":"_labels","type":"string[]","internalType":"string[]"},{"name":"_users","type":"address[][]","internalType":"address[][]"},{"name":"_authorizationData","type":"tuple[][]","internalType":"struct Authorization.AuthorizationData[][]","components":[{"name":"contractAddress","type":"address","internalType":"address"},{"name":"useFunctionSelector","type":"bool","internalType":"bool"},{"name":"functionSelector","type":"bytes4","internalType":"bytes4"},{"name":"callHash","type":"bytes32","internalType":"bytes32"}]}],"outputs":[],"stateMutability":"nonpayable"},{"type":"function","name":"adminAddresses","inputs":[{"name":"","type":"address","internalType":"address"}],"outputs":[{"name":"","type":"bool","internalType":"bool"}],"stateMutability":"view"},{"type":"function","name":"authorizations","inputs":[{"name":"","type":"string","internalType":"string"},{"name":"","type":"uint256","internalType":"uint256"}],"outputs":[{"name":"","type":"address","internalType":"address"}],"stateMutability":"view"},{"type":"function","name":"authorizationsData","inputs":[{"name":"","type":"string","internalType":"string"},{"name":"","type":"uint256","internalType":"uint256"}],"outputs":[{"name":"contractAddress","type":"address","internalType":"address"},{"name":"useFunctionSelector","type":"bool","internalType":"bool"},{"name":"functionSelector","type":"bytes4","internalType":"bytes4"},{"name":"callHash","type":"bytes32","internalType":"bytes32"}],"stateMutability":"view"},{"type":"function","name":"callbacks","inputs":[{"name":"","type":"uint64","internalType":"uint64"}],"outputs":[{"name":"executionResult","type":"uint8","internalType":"enum IProcessor.ExecutionResult"},{"name":"executedCount","type":"uint64","internalType":"uint64"},{"name":"data","type":"bytes","internalType":"bytes"}],"stateMutability":"view"},{"type":"function","name":"executeZKMessage","inputs":[{"name":"_inputs","type":"bytes","internalType":"bytes"},{"name":"_proof","type":"bytes","internalType":"bytes"},{"name":"payload","type":"bytes","internalType":"bytes"}],"outputs":[],"stateMutability":"nonpayable"},{"type":"function","name":"executionId","inputs":[],"outputs":[{"name":"","type":"uint64","internalType":"uint64"}],"stateMutability":"view"},{"type":"function","name":"getZkAuthorizationData","inputs":[{"name":"registryId","type":"uint64","internalType":"uint64"}],"outputs":[{"name":"","type":"tuple","internalType":"struct Authorization.ZkAuthorizationData","components":[{"name":"allowedExecutionAddresses","type":"address[]","internalType":"address[]"},{"name":"vk","type":"bytes","internalType":"bytes"},{"name":"route","type":"string","internalType":"string"},{"name":"validateBlockNumberExecution","type":"bool","internalType":"bool"},{"name":"metadataHash","type":"bytes32","internalType":"bytes32"}]}],"stateMutability":"view"},{"type":"function","name":"handleCallback","inputs":[{"name":"callbackData","type":"bytes","internalType":"bytes"}],"outputs":[],"stateMutability":"nonpayable"},{"type":"function","name":"owner","inputs":[],"outputs":[{"name":"","type":"address","internalType":"address"}],"stateMutability":"view"},{"type":"function","name":"processor","inputs":[],"outputs":[{"name":"","type":"address","internalType":"contract ProcessorBase"}],"stateMutability":"view"},{"type":"function","name":"removeAdminAddress","inputs":[{"name":"_admin","type":"address","internalType":"address"}],"outputs":[],"stateMutability":"nonpayable"},{"type":"function","name":"removeRegistries","inputs":[{"name":"registries","type":"uint64[]","internalType":"uint64[]"}],"outputs":[],"stateMutability":"nonpayable"},{"type":"function","name":"removeStandardAuthorizations","inputs":[{"name":"_labels","type":"string[]","internalType":"string[]"}],"outputs":[],"stateMutability":"nonpayable"},{"type":"function","name":"renounceOwnership","inputs":[],"outputs":[],"stateMutability":"nonpayable"},{"type":"function","name":"sendProcessorMessage","inputs":[{"name":"label","type":"string","internalType":"string"},{"name":"_message","type":"bytes","internalType":"bytes"}],"outputs":[],"stateMutability":"nonpayable"},{"type":"function","name":"setVerificationRouter","inputs":[{"name":"router","type":"address","internalType":"address"}],"outputs":[],"stateMutability":"nonpayable"},{"type":"function","name":"storeCallbacks","inputs":[],"outputs":[{"name":"","type":"bool","internalType":"bool"}],"stateMutability":"view"},{"type":"function","name":"transferOwnership","inputs":[{"name":"newOwner","type":"address","internalType":"address"}],"outputs":[],"stateMutability":"nonpayable"},{"type":"function","name":"updateProcessor","inputs":[{"name":"_processor","type":"address","internalType":"address"}],"outputs":[],"stateMutability":"nonpayable"},{"type":"function","name":"updateRegistryRoute","inputs":[{"name":"registryId","type":"uint64","internalType":"uint64"},{"name":"route","type":"string","internalType":"string"}],"outputs":[],"stateMutability":"nonpayable"},{"type":"function","name":"verificationRouter","inputs":[],"outputs":[{"name":"","type":"address","internalType":"contract VerificationRouter"}],"stateMutability":"view"},{"type":"function","name":"zkAuthorizationLastExecutionBlock","inputs":[{"name":"","type":"uint64","internalType":"uint64"}],"outputs":[{"name":"","type":"uint64","internalType":"uint64"}],"stateMutability":"view"},{"type":"function","name":"zkAuthorizations","inputs":[{"name":"","type":"uint64","internalType":"uint64"}],"outputs":[{"name":"vk","type":"bytes","internalType":"bytes"},{"name":"route","type":"string","internalType":"string"},{"name":"validateBlockNumberExecution","type":"bool","internalType":"bool"},{"name":"metadataHash","type":"bytes32","internalType":"bytes32"}],"stateMutability":"view"},{"type":"event","name":"AdminAddressAdded","inputs":[{"name":"admin","type":"address","indexed":true,"internalType":"address"}],"anonymous":false},{"type":"event","name":"AdminAddressRemoved","inputs":[{"name":"admin","type":"address","indexed":true,"internalType":"address"}],"anonymous":false},{"type":"event","name":"AuthorizationAdded","inputs":[{"name":"label","type":"string","indexed":false,"internalType":"string"}],"anonymous":false},{"type":"event","name":"AuthorizationRemoved","inputs":[{"name":"label","type":"string","indexed":false,"internalType":"string"}],"anonymous":false},{"type":"event","name":"CallbackReceived","inputs":[{"name":"executionId","type":"uint64","indexed":true,"internalType":"uint64"},{"name":"executionResult","type":"uint8","indexed":false,"internalType":"enum IProcessor.ExecutionResult"},{"name":"executedCount","type":"uint64","indexed":false,"internalType":"uint64"},{"name":"data","type":"bytes","indexed":false,"internalType":"bytes"}],"anonymous":false},{"type":"event","name":"OwnershipTransferred","inputs":[{"name":"previousOwner","type":"address","indexed":true,"internalType":"address"},{"name":"newOwner","type":"address","indexed":true,"internalType":"address"}],"anonymous":false},{"type":"error","name":"OwnableInvalidOwner","inputs":[{"name":"owner","type":"address","internalType":"address"}]},{"type":"error","name":"OwnableUnauthorizedAccount","inputs":[{"name":"account","type":"address","internalType":"address"}]},{"type":"error","name":"ReentrancyGuardReentrantCall","inputs":[]}],"bytecode":{"object":"0x60a03461016a57601f61372638819003918201601f19168301916001600160401b0383118484101761016e5780849260609460405283398101031261016a5761004781610182565b90604061005660208301610182565b91015191821515830361016a576001600160a01b0316908115610157575f80546001600160a01b031981168417825560405193916001600160a01b03909116907f8be0079c531659141344cd1fd0a4f28419497f9722a3daafe3b4186f6b6457e09080a3600180556001600160a01b03169081156101155750600280546001600160a01b031916919091179055600480546001600160401b031916905560805260405161358f90816101978239608051818181610cc8015261112c0152f35b62461bcd60e51b815260206004820181905260248201527f50726f636573736f722063616e6e6f74206265207a65726f20616464726573736044820152606490fd5b631e4fbdf760e01b5f525f60045260245ffd5b5f80fd5b634e487b7160e01b5f52604160045260245ffd5b51906001600160a01b038216820361016a5756fe60806040526004361015610011575f80fd5b5f5f3560e01c80624fba00146126e4578063139a0bf21461219a57806316ead2e214611e2d5780631de8d10f14611dda5780631f532a2d14611d5a57806332f8b25c14611c3157806341d7f97714611add5780634ed38faf14611aa05780635b0f184f146113ba5780637003fdf41461104e578063715018a614610ff457806376ce2dad14610fcd5780637c55deed14610e445780638da5cb5b14610e1d5780638e8c684814610d8d5780639510118114610d27578063a34f92e814610ced578063b06abffc14610cb0578063ccabbdd314610c6b578063ce1b1d4314610c42578063d00329b71461045f578063df0cab02146102fe578063e7f2f5ca146102d5578063ef1c35f914610230578063f2fde38b146101aa5763fdba7ab814610137575f80fd5b346101a75760203660031901126101a75760406001916001600160401b0361015d612922565b16815260036020522061018381549161017c6040518095819301612a6b565b03836127fd565b6101a3604051928260ff6001600160401b03869560081c16911684612aec565b0390f35b80fd5b50346101a75760203660031901126101a7576101c461274c565b6101cc6131a4565b6001600160a01b0316801561021c5781546001600160a01b03198116821783556001600160a01b03167f8be0079c531659141344cd1fd0a4f28419497f9722a3daafe3b4186f6b6457e08380a380f35b631e4fbdf760e01b82526004829052602482fd5b50346101a75760203660031901126101a75760406102b6916001600160401b03610258612922565b168152600960205220604051906102768261017c8160018501612a6b565b6040516102918161028a8160028601612a6b565b03826127fd565b6102c4600460ff600385015416930154916040519586956080875260808701906129e2565b9085820360208701526129e2565b911515604084015260608301520390f35b50346101a757806003193601126101a7576008546040516001600160a01b039091168152602090f35b50346101a75760203660031901126101a7576004356001600160401b03811161045b5761032f90369060040161294c565b6103376131a4565b815b815181101561045757806001600160401b0361035760019385612b69565b5116845260096020528360046040822061037081612ba7565b8285820161037e8154612a33565b80610417575b5050600282016103948154612a33565b806103d7575b5050600382015501556001600160401b036103b58285612b69565b51168452600a60205260408420805467ffffffffffffffff1916905501610339565b601f811188146103ec5750555b825f8061039a565b8183526020832061040791601f0160051c8101908901612b91565b80825281602081209155556103e4565b601f8111881461042c5750555b825f80610384565b8183526020832061044791601f0160051c8101908901612b91565b8082528160208120915555610424565b8280f35b5080fd5b50346101a75760403660031901126101a7576004356001600160401b03811161045b57610490903690600401612a06565b90916024356001600160401b03811161045b576104b46104c3913690600401612a06565b6104bc6131ca565b3691612850565b92606060206040516104d4816127ac565b848152015283518401916020858403126101a75760208501516001600160401b03811161045b57850160408185031261045b5760405193610514856127ac565b60208201516005811015610c3e5785526040820151906001600160401b038211610c3e57610549926020918201920101612d5a565b946020840195865283516005811015610c2a57600303610ba25750610578855160208082518301019101613041565b9260206040850180515161058b81612f38565b61059481612f38565b61092b575101519384518501946020860190602081880312610923576020810151906001600160401b038211610927570160a08188031261092357604051966105dc886127ac565b60208201516001600160401b03811161091f5760209083010183601f8201121561091f5780519061060c8261281e565b9261061a60405194856127fd565b82845260208085019360051b8301019186831161091b57602001925b8284106108e957505050506106519291604091895201613215565b602086015284515180151590816108d9575b5061086e5761067585969551516132a8565b966080820195845b8851805182101561071157600191906001600160a01b03906106a0908390612b69565b5151166106b76106b1838c51612b69565b5161330f565b6106c2838c51612b69565b516020815191012090604051926106d884612776565b8352602083018590526001600160e01b031916604083015260608201526106ff828d612b69565b5261070a818c612b69565b500161067d565b50509195509361072593979296503361334c565b1561082e57839261075e61078a9261076c61077c955b8760208201526001600160401b03600454168152604051938491602083016130ec565b03601f1981018452836127fd565b5260405192839160208301613177565b03601f1981018352826127fd565b6004546001600160401b036107a081831661315a565b67ffffffffffffffff199092169116176004556002546001600160a01b0316803b1561082a576040516304e2f55f60e11b81526020600482015291839183918290849082906107f39060248301906129e2565b03925af1801561081f5761080a575b506001805580f35b81610814916127fd565b6101a757805f610802565b6040513d84823e3d90fd5b5050fd5b60405162461bcd60e51b8152602060048201526013602482015272556e617574686f72697a65642061636365737360681b604482015280606481015b0390fd5b60405162461bcd60e51b815260206004820152603a60248201527f537562726f7574696e652066756e6374696f6e73206c656e67746820646f657360448201527f206e6f74206d61746368206d65737361676573206c656e6774680000000000006064820152608490fd5b905060808201515114155f610663565b602080858403011261091b5760208091604051610905816127e2565b61090e87613201565b8152815201930192610636565b8980fd5b8680fd5b8480fd5b8580fd5b5101519384518501946020860190602081880312610923576020810151906001600160401b0382116109275701956020878203126109235760405196610970886127e2565b6020810151906001600160401b03821161091f579060209101019082601f83011215610927578151906109a28261281e565b936109b060405195866127fd565b82855260208086019360051b85010193818511610b9e5760208101935b858510610ace57505050505050808652518015159081610abe575b5061086e576109fa85969551516132a8565b966080820195845b88518051821015610a9057600191906001600160a01b0390610a25908390612b69565b515116610a366106b1838c51612b69565b610a41838c51612b69565b51602081519101209060405192610a5784612776565b8352602083018590526001600160e01b03191660408301526060820152610a7e828d612b69565b52610a89818c612b69565b5001610a02565b505091955093610aa493979296503361334c565b1561082e57839261075e61078a9261076c61077c9561073b565b905060808201515114155f6109e8565b84516001600160401b038111610b9a57820160c081860312610b9a5760405190610af7826127c7565b610b0360208201613201565b8252610b128560408301613215565b602083015260c0810151906001600160401b038211610b9657016020810190604090870312610b925760405190610b48826127ac565b610b5181613201565b82526020810151906001600160401b038211610b8e5791610b7a87602096949387969401612d5a565b8482015260408201528152019401936109cd565b8d80fd5b8b80fd5b8c80fd5b8a80fd5b8880fd5b94915092508151936005851015610c165760048495145f14610c0b575061077c9161075e610c0692610bd26131ea565b61076c610be9825160208082518301019101612e6c565b6001600160401b0360045416815260405193849160208301612fc0565b61078a565b915050610c066131ea565b634e487b7160e01b84526021600452602484fd5b634e487b7160e01b83526021600452602483fd5b8380fd5b50346101a757806003193601126101a7576002546040516001600160a01b039091168152602090f35b50346101a75760203660031901126101a757610c8561274c565b610c8d6131a4565b60018060a01b03166bffffffffffffffffffffffff60a01b600854161760085580f35b50346101a757806003193601126101a75760206040517f000000000000000000000000000000000000000000000000000000000000000015158152f35b50346101a75760203660031901126101a7576001600160401b03604060209282610d15612922565b168152600a8452205416604051908152f35b50346101a75760203660031901126101a757610d4161274c565b610d496131a4565b6001600160a01b0316808252600560205260408220805460ff191690557fc41dab03d4639245f86ebd733046feb495209977c224698a4d1318fec207af5a8280a280f35b50346101a75760203660031901126101a757610da761274c565b610daf6131a4565b6001600160a01b03168015610dd9576bffffffffffffffffffffffff60a01b600254161760025580f35b606460405162461bcd60e51b815260206004820152602060248201527f50726f636573736f722063616e6e6f74206265207a65726f20616464726573736044820152fd5b50346101a757806003193601126101a757546040516001600160a01b039091168152602090f35b50346101a75760403660031901126101a757610e5e612922565b906024356001600160401b03811161045b57610e866001600160401b03913690600401612a06565b919093610e916131a4565b168083526009602052604083205415610f88578252600960205260026040832001906001600160401b038111610f7457610ed581610ecf8454612a33565b84612c85565b82601f8211600114610f145781908495610f04949592610f09575b50508160011b915f199060031b1c19161790565b905580f35b013590505f80610ef0565b601f198216948385526020852091855b878110610f5c575083600195969710610f43575b505050811b01905580f35b01355f19600384901b60f8161c191690555f8080610f38565b90926020600181928686013581550194019101610f24565b634e487b7160e01b83526041600452602483fd5b60405162461bcd60e51b815260206004820152601760248201527f526567697374727920646f6573206e6f742065786973740000000000000000006044820152606490fd5b50346101a757806003193601126101a75760206001600160401b0360045416604051908152f35b50346101a757806003193601126101a75761100d6131a4565b80546001600160a01b03198116825581906001600160a01b03167f8be0079c531659141344cd1fd0a4f28419497f9722a3daafe3b4186f6b6457e08280a380f35b50346101a75760203660031901126101a7576004356001600160401b03811161045b5761107f903690600401612886565b6002546001600160a01b03163303611367578051810190602081830312611363576020810151906001600160401b038211610c3e570160808183031261136357604051906110cc82612776565b6110d860208201612d46565b825260408101519260048410156109235760208301938452606082015191604084019283526080810151916001600160401b03831161091f57611122926020809201920101612d5a565b91606081019283527f00000000000000000000000000000000000000000000000000000000000000006111c0575b6001600160401b0390511692519060048210156111ac57906111a66001600160401b037f0e6a5a94daf01fa3e93aa95500023d6dfb25b727e94114d9ff2a2bad85f1f3ea94935116925160405193849384612aec565b0390a280f35b634e487b7160e01b85526021600452602485fd5b8351600481101561134f576001600160401b0383511690845191604051916111e7836127c7565b825260208201908152604082019283526001600160401b038451168852600360205260408820915190600482101561133b57906001929160ff68ffffffffffffffff008454925160081b1692169068ffffffffffffffffff1916171781550190518051906001600160401b0382116113275761126d826112678554612a33565b85612c85565b602090601f83116001146112bb5791806112a6926001600160401b039695948b926112b05750508160011b915f199060031b1c19161790565b90555b9050611150565b015190505f80610ef0565b8389528189209190601f1984168a5b81811061130f57509160019391856001600160401b0398979694106112f7575b505050811b0190556112a9565b01515f1960f88460031b161c191690555f80806112ea565b929360206001819287860151815501950193016112ca565b634e487b7160e01b88526041600452602488fd5b634e487b7160e01b89526021600452602489fd5b634e487b7160e01b86526021600452602486fd5b8280fd5b60405162461bcd60e51b815260206004820152602560248201527f4f6e6c792070726f636573736f722063616e2063616c6c20746869732066756e60448201526431ba34b7b760d91b6064820152608490fd5b50346117e95760603660031901126117e9576004356001600160401b0381116117e9576113eb903690600401612a06565b6024356001600160401b0381116117e95761140a903690600401612a06565b916044356001600160401b0381116117e95761142a903690600401612a06565b9290936114356131ca565b826020116117e957858301936020878603601f1901126117e95760208701356001600160401b0381116117e9578701926080848703601f1901126117e9576040519461148086612776565b61148c60208601612938565b865261149a60408601612938565b94602087019586526114ae60608201612762565b906040880191825260808101356001600160401b0381116117e95760209101016040818a03126117e957604051986114e58a6127ac565b813560058110156117e9578a5260208201356001600160401b0381116117e95761150f9201612886565b602089015260608701978852516001600160a01b03168015159081611a95575b50611a505785516001600160401b03165f52600960205260405f209788936040519a61155a8c612791565b61156386612cc8565b8c5260405193846115778160018a01612a6b565b0361158290866127fd565b60208d019485526040518060028199019061159c91612a6b565b036115a790886127fd565b60408d0196875260038c015460ff16151560608e019081526004909c015460808e01525f9c8d5b81518051821015611a3c5733906001600160a01b03906115ef908490612b69565b5116148015611a1d575b611605576001016115ce565b5050909192939495969798999a9b5060015b156119c9578b5161195c575b6008546001600160a01b031696871561191757519451956040519889978897633ba1952560e01b89526004890160a0905260a48901611661916129e2565b8881036003190160248a0152611676916129e2565b9060031988830301604489015261168c92612d19565b906003198683030160648701526116a292612d19565b906003198483030160848501526116b892612d19565b03815a93602094fa9081156117de575f916118dc575b5015611897576116de8351612d39565b60058110156118835760030361181e5761075e9361077c61172d61171060208751015160208082518301019101613041565b6001600160401b03600454168152604051928391602083016130ec565b6020855101525b6004546001600160401b0361174a81831661315a565b16906001600160401b03191617600455516117ed575b505061178160018060a01b0360025416915160405193849160208301613177565b803b156117e9576040516304e2f55f60e11b815260206004820152915f9183918290849082906117b59060248301906129e2565b03925af180156117de576117cb57506001805580f35b6117d791505f906127fd565b5f5f610802565b6040513d5f823e3d90fd5b5f80fd5b6001600160401b03809151169151165f52600a60205260405f20906001600160401b03198254161790555f80611760565b6118288351612d39565b93600585101561188357600461075e95036117345761077c61187861185b60208751015160208082518301019101612e6c565b6001600160401b0360045416815260405192839160208301612fc0565b602085510152611734565b634e487b7160e01b5f52602160045260245ffd5b60405162461bcd60e51b815260206004820152601960248201527f50726f6f6620766572696669636174696f6e206661696c6564000000000000006044820152606490fd5b90506020813d60201161190f575b816118f7602093836127fd565b810103126117e9575180151581036117e9575f6116ce565b3d91506118ea565b60405162461bcd60e51b815260206004820152601b60248201527f566572696669636174696f6e20726f75746572206e6f742073657400000000006044820152606490fd5b6001600160401b038951166001600160401b038b51165f52600a6020526001600160401b0360405f205416106116235760405162461bcd60e51b8152602060048201526015602482015274141c9bdbd9881b9bc81b1bdb99d95c881d985b1a59605a1b6044820152606490fd5b60405162461bcd60e51b815260206004820152602660248201527f556e617574686f72697a6564206164647265737320666f72207468697320726560448201526567697374727960d01b6064820152608490fd5b5081516001600160a01b0390611a34908390612b69565b5116156115f9565b505050909192939495969798999a9b611617565b60405162461bcd60e51b815260206004820152601e60248201527f496e76616c696420617574686f72697a6174696f6e20636f6e747261637400006044820152606490fd5b90503014155f61152f565b346117e95760203660031901126117e9576001600160a01b03611ac161274c565b165f526005602052602060ff60405f2054166040519015158152f35b346117e95760203660031901126117e9576001600160401b03611afe612922565b5f6080604051611b0d81612791565b6060815260606020820152606060408201528260608201520152165f52600960205260405f2060405190611b4082612791565b611b4981612cc8565b825260405190611b608261017c8160018501612a6b565b60208301918252604051611b7b8161028a8160028601612a6b565b60408401908152600460ff6003840154169260608601931515845201549060808501918252604051936020855260c0850195519560a060208701528651809152602060e087019701905f5b818110611c125750505090611bec8596611bff9351601f198883030160408901526129e2565b9051858203601f190160608701526129e2565b9151151560808401525160a08301520390f35b82516001600160a01b0316895260209889019890920191600101611bc6565b346117e95760203660031901126117e9576004356001600160401b0381116117e957611c619036906004016128a4565b611c696131a4565b5f5b8151811015611d5857611c7e8183612b69565b51604051815190602081818501938085835e810160078152030190208054905f815581611d0d575b5050611d0460019392611cf07f9bfef6e4eb8e0a845f84b7d4b802555c3f98868a52a2c41dfd1c233c70c45317936020604051809285518091835e81016006815203019020612ba7565b6040519182916020835260208301906129e2565b0390a101611c6b565b6001600160ff1b0382168203611d44575f5260205f209060011b8101905b81811015611ca6575f8082556001820155600201611d2b565b634e487b7160e01b5f52601160045260245ffd5b005b346117e957602080611d6b366129b1565b9290604051928184925191829101835e810160078152030190209081548110156117e9576080915f5260205f209060011b01600181549101546040519160018060a01b038116835260ff8160a01c161515602084015263ffffffff60e01b9060381b1660408301526060820152f35b346117e957602080611deb366129b1565b9290604051928184925191829101835e810160068152030190209081548110156117e9575f91825260209182902001546040516001600160a01b039091168152f35b346117e95760403660031901126117e9576004356001600160401b0381116117e957611e5d90369060040161294c565b6024356001600160401b0381116117e957366023820112156117e9578060040135906001600160401b0382116117e9576024810190602436918460051b0101116117e957611ea96131a4565b611eb582845114612b1d565b6008546001600160a01b031615611917575f5b8351811015611d5857611ee5611edf828585612bfc565b80612c1e565b90501561214b57611ef7818484612bfc565b906001600160401b03611f0a8287612b69565b51165f52600960205260405f20611f218380612c1e565b906001600160401b0382116120ae57611f3a8284612bca565b5f8381526020812092915b828210612126575050505060018101611f616020850185612c53565b906001600160401b0382116120ae57611f7e826112678554612a33565b5f90601f83116001146120c257611fab92915f918361203f5750508160011b915f199060031b1c19161790565b90555b60028101611fbf6040850185612c53565b906001600160401b0382116120ae57611fdc826112678554612a33565b5f90601f831160011461204a5761200992915f918361203f5750508160011b915f199060031b1c19161790565b90555b6003810160608401358015158091036117e95760019460049260809260ff80198354169116179055013591015501611ec8565b013590508a80610ef0565b601f19831691845f5260205f20925f5b818110612096575090846001959493921061207d575b505050811b01905561200c565b01355f19600384901b60f8161c19169055898080612070565b9193602060018192878701358155019501920161205a565b634e487b7160e01b5f52604160045260245ffd5b601f19831691845f5260205f20925f5b81811061210e57509084600195949392106120f5575b505050811b019055611fae565b01355f19600384901b60f8161c191690558980806120e8565b919360206001819287870135815501950192016120d2565b8035916001600160a01b03831683036117e95760206001920192818601550190611f45565b60405162461bcd60e51b815260206004820152602160248201527f4e6f20616c6c6f7765642061646472657373657320666f7220726567697374726044820152607960f81b6064820152608490fd5b346117e95760603660031901126117e9576004356001600160401b0381116117e9576121ca9036906004016128a4565b602435906001600160401b0382116117e957366023830112156117e9578160040135916121f68361281e565b9261220460405194856127fd565b8084526024602085019160051b830101913683116117e95760248101915b83831061265b5760443585876001600160401b0383116117e957366023840112156117e95782600401356122558161281e565b9361226360405195866127fd565b8185526024602086019260051b820101903682116117e95760248101925b82841061257f57505050506122946131a4565b6122aa8251845181149081612574575b50612b1d565b5f5b8251811015611d58576122bf8184612b69565b516122ca8284612b69565b5180511561252f576122dc8387612b69565b5190815115906040517f417574686f72697a6174696f6e20646174612061727261792063616e6e6f742060208201526d031329032b6b83a3c903337b91d160951b604082015284519261234c604e83602089019680888484015e81015f838201520301601f1981018452836127fd565b61250b575060405160208186518086835e810160068152030190208151916001600160401b0383116120ae576020906123858484612bca565b01905f5260205f205f5b8381106124ee57505050506020604051809285518091835e81016007815203019020815191600160401b83116120ae57815483835580841061249c575b50602001905f5260205f20905f905b83821061242b5750505050907fc25a9f2d765939f3e875d5a89a3b55326d95232ce8f5f8dd88b6720a6616f5596124226001936040519182916020835260208301906129e2565b0390a1016122ac565b80518051845460208381015160408501516001600160c81b03199093166001600160a01b03949094169390931792151560a01b60ff60a01b169290921760389190911c63ffffffff60a81b1617855560609190910151600185810191909155600294909401939290920191016123db565b6001600160ff1b0381168103611d44576001600160ff1b0384168403611d4457825f5260205f209060011b8101908460011b015b8181106124dd57506123cc565b5f80825560018201556002016124d0565b82516001600160a01b03168183015560209092019160010161238f565b60405162461bcd60e51b81526020600482015290819061086a9060248301906129e2565b60405162461bcd60e51b815260206004820152601b60248201527f55736572732061727261792063616e6e6f7420626520656d70747900000000006044820152606490fd5b9050825114856122a4565b83356001600160401b0381116117e9578201366043820112156117e95760248101356125aa8161281e565b916125b860405193846127fd565b818352602060248185019360071b83010101903682116117e957604401915b8183106125ef57505050815260209384019301612281565b6080833603126117e9576040519061260682612776565b61260f84612762565b8252602084013580151581036117e95760208301526040840135906001600160e01b0319821682036117e9578260209260406080950152606086013560608201528152019201916125d7565b82356001600160401b0381116117e9578201366043820112156117e9576024810135906126878261281e565b9161269560405193846127fd565b808352602060248185019260051b84010101913683116117e957604401905b8282106126cc57505050815260209283019201612222565b602080916126d984612762565b8152019101906126b4565b346117e95760203660031901126117e9576126fd61274c565b6127056131a4565b6001600160a01b03165f818152600560205260408120805460ff191660011790557f089aa9975328102f8cdff40d2e2b75ad3b940f83f42c2e13c43ed875ff8f046a9080a2005b600435906001600160a01b03821682036117e957565b35906001600160a01b03821682036117e957565b608081019081106001600160401b038211176120ae57604052565b60a081019081106001600160401b038211176120ae57604052565b604081019081106001600160401b038211176120ae57604052565b606081019081106001600160401b038211176120ae57604052565b602081019081106001600160401b038211176120ae57604052565b90601f801991011681019081106001600160401b038211176120ae57604052565b6001600160401b0381116120ae5760051b60200190565b6001600160401b0381116120ae57601f01601f191660200190565b92919261285c82612835565b9161286a60405193846127fd565b8294818452818301116117e9578281602093845f960137010152565b9080601f830112156117e9578160206128a193359101612850565b90565b9080601f830112156117e95781356128bb8161281e565b926128c960405194856127fd565b81845260208085019260051b820101918383116117e95760208201905b8382106128f557505050505090565b81356001600160401b0381116117e95760209161291787848094880101612886565b8152019101906128e6565b600435906001600160401b03821682036117e957565b35906001600160401b03821682036117e957565b9080601f830112156117e95781356129638161281e565b9261297160405194856127fd565b81845260208085019260051b8201019283116117e957602001905b8282106129995750505090565b602080916129a684612938565b81520191019061298c565b60406003198201126117e957600435906001600160401b0382116117e9576129db91600401612886565b9060243590565b805180835260209291819084018484015e5f828201840152601f01601f1916010190565b9181601f840112156117e9578235916001600160401b0383116117e957602083818601950101116117e957565b90600182811c92168015612a61575b6020831014612a4d57565b634e487b7160e01b5f52602260045260245ffd5b91607f1691612a42565b5f9291815491612a7a83612a33565b8083529260018116908115612acf5750600114612a9657505050565b5f9081526020812093945091925b838310612ab5575060209250010190565b600181602092949394548385870101520191019190612aa4565b915050602093945060ff929192191683830152151560051b010190565b929190926004841015611883576001600160401b036060926128a195835216602082015281604082015201906129e2565b15612b2457565b60405162461bcd60e51b815260206004820152601860248201527f4172726179206c656e67746873206d757374206d6174636800000000000000006044820152606490fd5b8051821015612b7d5760209160051b010190565b634e487b7160e01b5f52603260045260245ffd5b818110612b9c575050565b5f8155600101612b91565b80545f825580612bb5575050565b612bc8915f5260205f2090810190612b91565b565b90600160401b81116120ae57815490808355818110612be857505050565b612bc8925f5260205f209182019101612b91565b9190811015612b7d5760051b81013590609e19813603018212156117e9570190565b903590601e19813603018212156117e957018035906001600160401b0382116117e957602001918160051b360383136117e957565b903590601e19813603018212156117e957018035906001600160401b0382116117e9576020019181360383136117e957565b9190601f8111612c9457505050565b612bc8925f5260205f20906020601f840160051c83019310612cbe575b601f0160051c0190612b91565b9091508190612cb1565b90604051918281549182825260208201905f5260205f20925f5b818110612cf7575050612bc8925003836127fd565b84546001600160a01b0316835260019485019487945060209093019201612ce2565b908060209392818452848401375f828201840152601f01601f1916010190565b5160058110156118835790565b51906001600160401b03821682036117e957565b81601f820112156117e957805190612d7182612835565b92612d7f60405194856127fd565b828452602083830101116117e957815f9260208093018386015e8301015290565b91906040838203126117e95760405190612db9826127ac565b8193805160028110156117e95783526020810151916001600160401b0383116117e957602092612de99201612d5a565b910152565b9080601f830112156117e9578151612e058161281e565b92612e1360405194856127fd565b81845260208085019260051b820101918383116117e95760208201905b838210612e3f57505050505090565b81516001600160401b0381116117e957602091612e6187848094880101612d5a565b815201910190612e30565b6020818303126117e9578051906001600160401b0382116117e9570160c0818303126117e9576040519160c083018381106001600160401b038211176120ae57604052612eb882612d46565b8352612ec660208301612d46565b6020840152604082015160028110156117e957604084015260608201516001600160401b0381116117e95781612efd918401612da0565b6060840152612f0e60808301612d46565b608084015260a08201516001600160401b0381116117e957612f309201612dee565b60a082015290565b6002111561188357565b90604060206128a1938051612f5681612f38565b845201519181602082015201906129e2565b9080602083519182815201916020808360051b8301019401925f915b838310612f9357505050505090565b9091929394602080612fb1600193601f1986820301875289516129e2565b97019301930191939290612f84565b906128a191602081526001600160401b0382511660208201526001600160401b0360208301511660408201526040820151612ffa81612f38565b606082015260a061301a606084015160c0608085015260e0840190612f42565b926001600160401b036080820151168284015201519060c0601f1982850301910152612f68565b6020818303126117e9578051906001600160401b0382116117e9570160a0818303126117e9576040519161307483612791565b61307d82612d46565b8352602082015160028110156117e957602084015260408201516001600160401b0381116117e957816130b1918401612da0565b60408401526130c260608301612d46565b606084015260808201516001600160401b0381116117e9576130e49201612dee565b608082015290565b906128a191602081526001600160401b038251166020820152602082015161311381612f38565b60408201526080613133604084015160a0606085015260c0840190612f42565b926001600160401b036060820151168284015201519060a0601f1982850301910152612f68565b6001600160401b03166001600160401b038114611d445760010190565b6020815281519160058310156118835760206060916128a1948285015201519160408082015201906129e2565b5f546001600160a01b031633036131b757565b63118cdaa760e01b5f523360045260245ffd5b6002600154146131db576002600155565b633ee5aeb560e01b5f5260045ffd5b335f52600560205260ff60405f2054161561082e57565b51906001600160a01b03821682036117e957565b8092910391608083126117e9576040519061322f826127ac565b8193604081126117e95760405190613246826127ac565b82519160038310156117e957604092815261326360208501612d46565b60208201528452603f1901126117e95760405191613280836127ac565b60408201519160028310156117e95760606132a091602094865201612d46565b828401520152565b906132b28261281e565b6132bf60405191826127fd565b82815280926132d0601f199161281e565b01905f5b8281106132e057505050565b6020906040516132ef81612776565b5f81525f838201525f60408201525f6060820152828285010152016132d4565b80516020909101516001600160e01b0319811692919060048210613331575050565b6001600160e01b031960049290920360031b82901b16169150565b92919061336c604051838382376020818581016006815203019020612cc8565b5f945f5b825181101561354e576001600160a01b0361338b8285612b69565b51166001600160a01b038316148015613533575b6133ab57600101613370565b5050509091925060015b1561349e57602090826040519384928337810160078152030190209081546133dc8161281e565b926133ea60405194856127fd565b81845260208401905f5260205f205f915b8383106134de575050505081518151036134d8575f5b82518110156134d0576001600160a01b0361342c8285612b69565b5151166001600160a01b036134418385612b69565b5151160361349e5760206134558285612b69565b510151156134a5576001600160e01b031960406134728386612b69565b510151166001600160e01b0319604061348b8486612b69565b510151160361349e576001905b01613411565b5050505f90565b60606134b18285612b69565b51015160606134c08385612b69565b5101510361349e57600190613498565b505050600190565b50505f90565b600260206001926040516134f181612776565b8554858060a01b038116825260ff8160a01c1615158483015263ffffffff60e01b9060381b1660408201528486015460608201528152019201920191906133fb565b506001600160a01b036135468285612b69565b51161561339f565b5050509091926133b556fea2646970667358221220ee54ff054217b2bfdeac124878d8a3550edd4afd16b6b04c11f4ec25d9e4cd9064736f6c634300081d0033","linkReferences":{}},"methodIdentifiers":{"addAdminAddress(address)":"004fba00","addRegistries(uint64[],(address[],bytes,string,bool,bytes32)[])":"16ead2e2","addStandardAuthorizations(string[],address[][],(address,bool,bytes4,bytes32)[][])":"139a0bf2","adminAddresses(address)":"4ed38faf","authorizations(string,uint256)":"1de8d10f","authorizationsData(string,uint256)":"1f532a2d","callbacks(uint64)":"fdba7ab8","executeZKMessage(bytes,bytes,bytes)":"5b0f184f","executionId()":"76ce2dad","getZkAuthorizationData(uint64)":"41d7f977","handleCallback(bytes)":"7003fdf4","owner()":"8da5cb5b","processor()":"ce1b1d43","removeAdminAddress(address)":"95101181","removeRegistries(uint64[])":"df0cab02","removeStandardAuthorizations(string[])":"32f8b25c","renounceOwnership()":"715018a6","sendProcessorMessage(string,bytes)":"d00329b7","setVerificationRouter(address)":"ccabbdd3","storeCallbacks()":"b06abffc","transferOwnership(address)":"f2fde38b","updateProcessor(address)":"8e8c6848","updateRegistryRoute(uint64,string)":"7c55deed","verificationRouter()":"e7f2f5ca","zkAuthorizationLastExecutionBlock(uint64)":"a34f92e8","zkAuthorizations(uint64)":"ef1c35f9"},"id":112}