{"abi":[{"type":"constructor","inputs":[{"name":"_owner","type":"address","internalType":"address"},{"name":"_libraries","type":"address[]","internalType":"address[]"}],"stateMutability":"nonpayable"},{"type":"receive","stateMutability":"payable"},{"type":"function","name":"approveLibrary","inputs":[{"name":"_library","type":"address","internalType":"address"}],"outputs":[],"stateMutability":"nonpayable"},{"type":"function","name":"approvedLibraries","inputs":[{"name":"","type":"address","internalType":"address"}],"outputs":[{"name":"","type":"bool","internalType":"bool"}],"stateMutability":"view"},{"type":"function","name":"execute","inputs":[{"name":"_target","type":"address","internalType":"address"},{"name":"_value","type":"uint256","internalType":"uint256"},{"name":"_data","type":"bytes","internalType":"bytes"}],"outputs":[{"name":"result","type":"bytes","internalType":"bytes"}],"stateMutability":"nonpayable"},{"type":"function","name":"onERC721Received","inputs":[{"name":"","type":"address","internalType":"address"},{"name":"","type":"address","internalType":"address"},{"name":"","type":"uint256","internalType":"uint256"},{"name":"","type":"bytes","internalType":"bytes"}],"outputs":[{"name":"","type":"bytes4","internalType":"bytes4"}],"stateMutability":"pure"},{"type":"function","name":"owner","inputs":[],"outputs":[{"name":"","type":"address","internalType":"address"}],"stateMutability":"view"},{"type":"function","name":"removeLibrary","inputs":[{"name":"_library","type":"address","internalType":"address"}],"outputs":[],"stateMutability":"nonpayable"},{"type":"function","name":"renounceOwnership","inputs":[],"outputs":[],"stateMutability":"nonpayable"},{"type":"function","name":"transferOwnership","inputs":[{"name":"newOwner","type":"address","internalType":"address"}],"outputs":[],"stateMutability":"nonpayable"},{"type":"event","name":"OwnershipTransferred","inputs":[{"name":"previousOwner","type":"address","indexed":true,"internalType":"address"},{"name":"newOwner","type":"address","indexed":true,"internalType":"address"}],"anonymous":false},{"type":"error","name":"NotOwnerOrLibrary","inputs":[{"name":"_sender","type":"address","internalType":"address"}]},{"type":"error","name":"OwnableInvalidOwner","inputs":[{"name":"owner","type":"address","internalType":"address"}]},{"type":"error","name":"OwnableUnauthorizedAccount","inputs":[{"name":"account","type":"address","internalType":"address"}]},{"type":"error","name":"ZeroAddressTarget","inputs":[]}],"bytecode":{"object":"0x608060405234610181576107248038038061001981610199565b92833981019060408183031261018157610032816101be565b602082015190916001600160401b03821161018157019180601f84011215610181578251926001600160401b038411610185578360051b90602080610078818501610199565b80978152019282010192831161018157602001905b828210610169575050506001600160a01b03168015610156575f80546001600160a01b03198116831782556001600160a01b0316907f8be0079c531659141344cd1fd0a4f28419497f9722a3daafe3b4186f6b6457e09080a35f5b815160ff821610156101475760ff9060018060a01b036020611fe08360051b1685010151165f52600160205260405f20600183198254161790551660ff8114610133576001016100e8565b634e487b7160e01b5f52601160045260245ffd5b60405161055190816101d38239f35b631e4fbdf760e01b5f525f60045260245ffd5b60208091610176846101be565b81520191019061008d565b5f80fd5b634e487b7160e01b5f52604160045260245ffd5b6040519190601f01601f191682016001600160401b0381118382101761018557604052565b51906001600160a01b03821682036101815756fe6080604052600436101561001a575b3615610018575f80fd5b005b5f3560e01c8063150b7a0214610099578063715018a6146100945780638da5cb5b1461008f5780639c6d1e9b1461008a578063b61d27f614610085578063f2fde38b14610080578063f3a4b3231461007b5763fe59a6160361000e57610437565b6103f6565b610371565b610232565b6101cb565b6101a4565b61014d565b346100ef5760803660031901126100ef576100b26100f3565b506100bb610109565b5060643567ffffffffffffffff81116100ef576100dc90369060040161011f565b5050630a85bd0160e11b60805260206080f35b5f80fd5b600435906001600160a01b03821682036100ef57565b602435906001600160a01b03821682036100ef57565b9181601f840112156100ef5782359167ffffffffffffffff83116100ef57602083818601950101116100ef57565b346100ef575f3660031901126100ef576101656104f5565b5f80546001600160a01b0319811682556001600160a01b03167f8be0079c531659141344cd1fd0a4f28419497f9722a3daafe3b4186f6b6457e08280a3005b346100ef575f3660031901126100ef575f546040516001600160a01b039091168152602090f35b346100ef5760203660031901126100ef576001600160a01b036101ec6100f3565b165f526001602052602060ff60405f2054166040519015158152f35b602060409281835280519182918282860152018484015e5f828201840152601f01601f1916010190565b346100ef5760603660031901126100ef5761024b6100f3565b6024359060443567ffffffffffffffff81116100ef5761026f90369060040161011f565b335f9081526001602052604090205491929160ff16158061035d575b61034a576001600160a01b0382161561033b575f9384936102b16040518094819361047e565b03925af16102bd61049f565b90156102d7576102d39060405191829182610208565b0390f35b8051156102e657805190602001fd5b60405162461bcd60e51b815260206004820152602760248201527f436f6e74726163742063616c6c206661696c656420776974686f7574206572726044820152666f72206461746160c81b6064820152608490fd5b634e93b52160e11b5f5260045ffd5b6312cf89a760e31b5f523360045260245ffd5b505f546001600160a01b031633141561028b565b346100ef5760203660031901126100ef5761038a6100f3565b6103926104f5565b6001600160a01b031680156103e3575f80546001600160a01b03198116831782556001600160a01b0316907f8be0079c531659141344cd1fd0a4f28419497f9722a3daafe3b4186f6b6457e09080a3005b631e4fbdf760e01b5f525f60045260245ffd5b346100ef5760203660031901126100ef5761040f6100f3565b6104176104f5565b6001600160a01b03165f908152600160205260409020805460ff19169055005b346100ef5760203660031901126100ef576104506100f3565b6104586104f5565b6001600160a01b03165f908152600160208190526040909120805460ff19169091179055005b908092918237015f815290565b634e487b7160e01b5f52604160045260245ffd5b3d156104f0573d9067ffffffffffffffff82116104eb5760405191601f8101601f19908116603f0116830167ffffffffffffffff8111848210176104eb5760405282523d5f602084013e565b61048b565b606090565b5f546001600160a01b0316330361050857565b63118cdaa760e01b5f523360045260245ffdfea2646970667358221220256ba3e69c7924abb96163cae41b12481f3f100b326efe7221f6452c50f2e48e64736f6c634300081d0033","linkReferences":{}},"methodIdentifiers":{"approveLibrary(address)":"fe59a616","approvedLibraries(address)":"9c6d1e9b","execute(address,uint256,bytes)":"b61d27f6","onERC721Received(address,address,uint256,bytes)":"150b7a02","owner()":"8da5cb5b","removeLibrary(address)":"f3a4b323","renounceOwnership()":"715018a6","transferOwnership(address)":"f2fde38b"},"id":88}