{"abi":[{"type":"constructor","inputs":[],"stateMutability":"nonpayable"},{"type":"function","name":"UPGRADE_INTERFACE_VERSION","inputs":[],"outputs":[{"name":"","type":"string","internalType":"string"}],"stateMutability":"view"},{"type":"function","name":"addRegistry","inputs":[{"name":"registry","type":"uint64","internalType":"uint64"},{"name":"vk","type":"bytes32","internalType":"bytes32"},{"name":"_domainVk","type":"bytes32","internalType":"bytes32"}],"outputs":[],"stateMutability":"nonpayable"},{"type":"function","name":"coprocessorRoot","inputs":[],"outputs":[{"name":"","type":"bytes32","internalType":"bytes32"}],"stateMutability":"view"},{"type":"function","name":"getVerifier","inputs":[],"outputs":[{"name":"","type":"address","internalType":"contract ISP1Verifier"}],"stateMutability":"view"},{"type":"function","name":"initialize","inputs":[{"name":"_coprocessorRoot","type":"bytes32","internalType":"bytes32"},{"name":"_verifier","type":"address","internalType":"address"}],"outputs":[],"stateMutability":"nonpayable"},{"type":"function","name":"owner","inputs":[],"outputs":[{"name":"","type":"address","internalType":"address"}],"stateMutability":"view"},{"type":"function","name":"programVKs","inputs":[{"name":"","type":"address","internalType":"address"},{"name":"","type":"uint64","internalType":"uint64"}],"outputs":[{"name":"","type":"bytes32","internalType":"bytes32"}],"stateMutability":"view"},{"type":"function","name":"proxiableUUID","inputs":[],"outputs":[{"name":"","type":"bytes32","internalType":"bytes32"}],"stateMutability":"view"},{"type":"function","name":"removeRegistry","inputs":[{"name":"registry","type":"uint64","internalType":"uint64"}],"outputs":[],"stateMutability":"nonpayable"},{"type":"function","name":"renounceOwnership","inputs":[],"outputs":[],"stateMutability":"nonpayable"},{"type":"function","name":"transferOwnership","inputs":[{"name":"newOwner","type":"address","internalType":"address"}],"outputs":[],"stateMutability":"nonpayable"},{"type":"function","name":"updateVerifier","inputs":[{"name":"_verifier","type":"address","internalType":"address"}],"outputs":[],"stateMutability":"nonpayable"},{"type":"function","name":"upgradeToAndCall","inputs":[{"name":"newImplementation","type":"address","internalType":"address"},{"name":"data","type":"bytes","internalType":"bytes"}],"outputs":[],"stateMutability":"payable"},{"type":"function","name":"verifier","inputs":[],"outputs":[{"name":"","type":"address","internalType":"address"}],"stateMutability":"view"},{"type":"function","name":"verify","inputs":[{"name":"registry","type":"uint64","internalType":"uint64"},{"name":"proof","type":"bytes","internalType":"bytes"},{"name":"message","type":"bytes","internalType":"bytes"},{"name":"domainProof","type":"bytes","internalType":"bytes"},{"name":"domainMessage","type":"bytes","internalType":"bytes"}],"outputs":[{"name":"","type":"bool","internalType":"bool"}],"stateMutability":"view"},{"type":"event","name":"Initialized","inputs":[{"name":"version","type":"uint64","indexed":false,"internalType":"uint64"}],"anonymous":false},{"type":"event","name":"OwnershipTransferred","inputs":[{"name":"previousOwner","type":"address","indexed":true,"internalType":"address"},{"name":"newOwner","type":"address","indexed":true,"internalType":"address"}],"anonymous":false},{"type":"event","name":"Upgraded","inputs":[{"name":"implementation","type":"address","indexed":true,"internalType":"address"}],"anonymous":false},{"type":"error","name":"AddressEmptyCode","inputs":[{"name":"target","type":"address","internalType":"address"}]},{"type":"error","name":"ERC1967InvalidImplementation","inputs":[{"name":"implementation","type":"address","internalType":"address"}]},{"type":"error","name":"ERC1967NonPayable","inputs":[]},{"type":"error","name":"FailedCall","inputs":[]},{"type":"error","name":"InvalidInitialization","inputs":[]},{"type":"error","name":"NotInitializing","inputs":[]},{"type":"error","name":"OwnableInvalidOwner","inputs":[{"name":"owner","type":"address","internalType":"address"}]},{"type":"error","name":"OwnableUnauthorizedAccount","inputs":[{"name":"account","type":"address","internalType":"address"}]},{"type":"error","name":"UUPSUnauthorizedCallContext","inputs":[]},{"type":"error","name":"UUPSUnsupportedProxiableUUID","inputs":[{"name":"slot","type":"bytes32","internalType":"bytes32"}]}],"bytecode":{"object":"0x60a080604052346100c257306080525f516020610dd75f395f51905f525460ff8160401c166100b3576002600160401b03196001600160401b03821601610060575b604051610d1090816100c7823960805181818161071d01526107ec0152f35b6001600160401b0319166001600160401b039081175f516020610dd75f395f51905f525581527fc7f505b2f371ae2175ee4913f4499e1f2633a7b5936321eed1cdaeb6115181d290602090a15f80610041565b63f92ee8a960e01b5f5260045ffd5b5f80fdfe60806040526004361015610011575f80fd5b5f5f3560e01c8063039e7e5f146109cb5780632b7ac3f3146109a357806346657fe9146109a35780634f1ef2861461077157806352d1902d1461070b5780635b532236146106ad5780636910e33414610523578063715018a6146104bc5780638da5cb5b1461048857806397fc007c146104375780639a4113b91461041b5780639f3ebea51461033d578063ad3cb1cc146102df578063adfac466146100ee5763f2fde38b146100bf575f80fd5b346100eb5760203660031901126100eb576100e86100db610a1f565b6100e3610bbe565b610b4d565b80f35b80fd5b503461028b5760a036600319011261028b57610108610a09565b906024356001600160401b03811161028b57610128903690600401610a85565b92906044356001600160401b03811161028b57610149903690600401610a85565b6064356001600160401b03811161028b57610168903690600401610a85565b9390916084356001600160401b03811161028b5761018a903690600401610a85565b929096335f5260036020526001600160401b0360405f2091165f5260205260405f2054801561028f576001546001600160a01b031695863b1561028b575f936101e8916040519c8d95869563020a49e360e51b875260048701610b1e565b0381865afa801561028057610268575b85965060029594955490833b156102645761022a906040519788968795869563020a49e360e51b875260048701610b1e565b03915afa801561025957610244575b602060405160018152f35b61024f828092610a35565b6100eb5780610239565b6040513d84823e3d90fd5b8580fd5b939450945f61027691610a35565b5f939285906101f8565b6040513d5f823e3d90fd5b5f80fd5b60405162461bcd60e51b815260206004820152602260248201527f564b206e6f742073657420666f722073656e64657220616e6420726567697374604482015261727960f01b6064820152608490fd5b3461028b575f36600319011261028b5760408051906102fe8183610a35565b600582526020820191640352e302e360dc1b83528151928391602083525180918160208501528484015e5f828201840152601f01601f19168101030190f35b3461028b57606036600319011261028b57610356610a09565b60443590335f5260036020526001600160401b0360405f2091165f5260205260405f20602435905560025480155f146103da5750801561039557600255005b60405162461bcd60e51b815260206004820152601860248201527f446f6d61696e20564b2063616e6e6f74206265207a65726f00000000000000006044820152606490fd5b036103e157005b60405162461bcd60e51b8152602060048201526012602482015271088dedac2d2dc40ac9640dad2e6dac2e8c6d60731b6044820152606490fd5b3461028b575f36600319011261028b5760205f54604051908152f35b3461028b57602036600319011261028b57610450610a1f565b610458610bbe565b6001600160a01b031661046c811515610ab2565b6bffffffffffffffffffffffff60a01b60015416176001555f80f35b3461028b575f36600319011261028b575f516020610c7b5f395f51905f52546040516001600160a01b039091168152602090f35b3461028b575f36600319011261028b576104d4610bbe565b5f516020610c7b5f395f51905f5280546001600160a01b031981169091555f906001600160a01b03167f8be0079c531659141344cd1fd0a4f28419497f9722a3daafe3b4186f6b6457e08280a3005b3461028b57604036600319011261028b576024356001600160a01b0381169081900361028b575f516020610cbb5f395f51905f52549060ff8260401c1615916001600160401b038116801590816106a5575b600114908161069b575b159081610692575b506106835767ffffffffffffffff1981166001175f516020610cbb5f395f51905f525582610657575b506105b9610bf1565b6105c1610bf1565b6105ca33610b4d565b6105d2610bf1565b6004355f556105e2811515610ab2565b6bffffffffffffffffffffffff60a01b600154161760015561060057005b68ff0000000000000000195f516020610cbb5f395f51905f5254165f516020610cbb5f395f51905f52557fc7f505b2f371ae2175ee4913f4499e1f2633a7b5936321eed1cdaeb6115181d2602060405160018152a1005b68ffffffffffffffffff191668010000000000000001175f516020610cbb5f395f51905f5255826105b0565b63f92ee8a960e01b5f5260045ffd5b90501584610587565b303b15915061057f565b849150610575565b3461028b57604036600319011261028b576106c6610a1f565b602435906001600160401b038216820361028b5760018060a01b03165f5260036020526001600160401b0360405f2091165f52602052602060405f2054604051908152f35b3461028b575f36600319011261028b577f00000000000000000000000000000000000000000000000000000000000000006001600160a01b031630036107625760206040515f516020610c9b5f395f51905f528152f35b63703e46dd60e11b5f5260045ffd5b604036600319011261028b57610785610a1f565b602435906001600160401b03821161028b573660238301121561028b578160040135906107b182610a6a565b916107bf6040519384610a35565b8083526020830193366024838301011161028b57815f926024602093018737840101526001600160a01b037f000000000000000000000000000000000000000000000000000000000000000016308114908115610981575b5061076257610824610bbe565b6040516352d1902d60e01b81526001600160a01b0382169390602081600481885afa5f918161094d575b506108665784634c9c8ce360e01b5f5260045260245ffd5b805f516020610c9b5f395f51905f5286920361093b5750823b15610929575f516020610c9b5f395f51905f5280546001600160a01b031916821790557fbc7cd75a20ee27fd9adebab32041f755214dbc6bffa90cc0225b39da2e5c2d3b5f80a2825115610910575f8091610906945190845af43d15610908573d916108ea83610a6a565b926108f86040519485610a35565b83523d5f602085013e610c1c565b005b606091610c1c565b5050503461091a57005b63b398979f60e01b5f5260045ffd5b634c9c8ce360e01b5f5260045260245ffd5b632a87526960e21b5f5260045260245ffd5b9091506020813d602011610979575b8161096960209383610a35565b8101031261028b5751908661084e565b3d915061095c565b5f516020610c9b5f395f51905f52546001600160a01b03161415905084610817565b3461028b575f36600319011261028b576001546040516001600160a01b039091168152602090f35b3461028b57602036600319011261028b576109e4610a09565b335f5260036020526001600160401b0360405f2091165f526020525f60408120555f80f35b600435906001600160401b038216820361028b57565b600435906001600160a01b038216820361028b57565b90601f801991011681019081106001600160401b03821117610a5657604052565b634e487b7160e01b5f52604160045260245ffd5b6001600160401b038111610a5657601f01601f191660200190565b9181601f8401121561028b578235916001600160401b03831161028b576020838186019501011161028b57565b15610ab957565b60405162461bcd60e51b815260206004820152601f60248201527f56657269666965722063616e6e6f74206265207a65726f2061646472657373006044820152606490fd5b908060209392818452848401375f828201840152601f01601f1916010190565b9391610b4a9593610b3c928652606060208701526060860191610afe565b926040818503910152610afe565b90565b6001600160a01b03168015610bab575f516020610c7b5f395f51905f5280546001600160a01b0319811683179091556001600160a01b03167f8be0079c531659141344cd1fd0a4f28419497f9722a3daafe3b4186f6b6457e05f80a3565b631e4fbdf760e01b5f525f60045260245ffd5b5f516020610c7b5f395f51905f52546001600160a01b03163303610bde57565b63118cdaa760e01b5f523360045260245ffd5b60ff5f516020610cbb5f395f51905f525460401c1615610c0d57565b631afcd79f60e31b5f5260045ffd5b90610c405750805115610c3157805190602001fd5b63d6bda27560e01b5f5260045ffd5b81511580610c71575b610c51575090565b639996b31560e01b5f9081526001600160a01b0391909116600452602490fd5b50803b15610c4956fe9016d09d72d40fdae2fd8ceac6b6234c7706214fd39c1cd1e609a0528c199300360894a13ba1a3210667c828492db98dca3e2076cc3735a920a3ca505d382bbcf0c57e16840df040f15088dc2f81fe391c3923bec73e23a9662efc9c229c6a00a2646970667358221220d4c531d009d11ed55d74a4d656022745659fb3317d2c38e25559ee4e2d330bce64736f6c634300081d0033f0c57e16840df040f15088dc2f81fe391c3923bec73e23a9662efc9c229c6a00","linkReferences":{}},"methodIdentifiers":{"UPGRADE_INTERFACE_VERSION()":"ad3cb1cc","addRegistry(uint64,bytes32,bytes32)":"9f3ebea5","coprocessorRoot()":"9a4113b9","getVerifier()":"46657fe9","initialize(bytes32,address)":"6910e334","owner()":"8da5cb5b","programVKs(address,uint64)":"5b532236","proxiableUUID()":"52d1902d","removeRegistry(uint64)":"039e7e5f","renounceOwnership()":"715018a6","transferOwnership(address)":"f2fde38b","updateVerifier(address)":"97fc007c","upgradeToAndCall(address,bytes)":"4f1ef286","verifier()":"2b7ac3f3","verify(uint64,bytes,bytes,bytes,bytes)":"adfac466"},"id":58}