{"abi":[{"type":"constructor","inputs":[{"name":"_authorizationContract","type":"bytes32","internalType":"bytes32"},{"name":"_mailbox","type":"address","internalType":"address"},{"name":"_originDomain","type":"uint32","internalType":"uint32"},{"name":"_authorizedAddresses","type":"address[]","internalType":"address[]"}],"stateMutability":"nonpayable"},{"type":"function","name":"_executeAtomicSubroutine","inputs":[{"name":"atomicSubroutine","type":"tuple","internalType":"struct IProcessorMessageTypes.AtomicSubroutine","components":[{"name":"functions","type":"tuple[]","internalType":"struct IProcessorMessageTypes.AtomicFunction[]","components":[{"name":"contractAddress","type":"address","internalType":"address"}]},{"name":"retryLogic","type":"tuple","internalType":"struct IProcessorMessageTypes.RetryLogic","components":[{"name":"times","type":"tuple","internalType":"struct IProcessorMessageTypes.RetryTimes","components":[{"name":"retryType","type":"uint8","internalType":"enum IProcessorMessageTypes.RetryTimesType"},{"name":"amount","type":"uint64","internalType":"uint64"}]},{"name":"interval","type":"tuple","internalType":"struct IProcessorMessageTypes.Duration","components":[{"name":"durationType","type":"uint8","internalType":"enum IProcessorMessageTypes.DurationType"},{"name":"value","type":"uint64","internalType":"uint64"}]}]}]},{"name":"messages","type":"bytes[]","internalType":"bytes[]"}],"outputs":[{"name":"","type":"uint256","internalType":"uint256"}],"stateMutability":"nonpayable"},{"type":"function","name":"addAuthorizedAddress","inputs":[{"name":"_address","type":"address","internalType":"address"}],"outputs":[],"stateMutability":"nonpayable"},{"type":"function","name":"authorizationContract","inputs":[],"outputs":[{"name":"","type":"bytes32","internalType":"bytes32"}],"stateMutability":"view"},{"type":"function","name":"authorizedAddresses","inputs":[{"name":"","type":"address","internalType":"address"}],"outputs":[{"name":"","type":"bool","internalType":"bool"}],"stateMutability":"view"},{"type":"function","name":"execute","inputs":[{"name":"_body","type":"bytes","internalType":"bytes"}],"outputs":[],"stateMutability":"nonpayable"},{"type":"function","name":"handle","inputs":[{"name":"_origin","type":"uint32","internalType":"uint32"},{"name":"_sender","type":"bytes32","internalType":"bytes32"},{"name":"_body","type":"bytes","internalType":"bytes"}],"outputs":[],"stateMutability":"payable"},{"type":"function","name":"mailbox","inputs":[],"outputs":[{"name":"","type":"address","internalType":"contract IMailbox"}],"stateMutability":"view"},{"type":"function","name":"originDomain","inputs":[],"outputs":[{"name":"","type":"uint32","internalType":"uint32"}],"stateMutability":"view"},{"type":"function","name":"owner","inputs":[],"outputs":[{"name":"","type":"address","internalType":"address"}],"stateMutability":"view"},{"type":"function","name":"paused","inputs":[],"outputs":[{"name":"","type":"bool","internalType":"bool"}],"stateMutability":"view"},{"type":"function","name":"removeAuthorizedAddress","inputs":[{"name":"_address","type":"address","internalType":"address"}],"outputs":[],"stateMutability":"nonpayable"},{"type":"function","name":"renounceOwnership","inputs":[],"outputs":[],"stateMutability":"nonpayable"},{"type":"function","name":"transferOwnership","inputs":[{"name":"newOwner","type":"address","internalType":"address"}],"outputs":[],"stateMutability":"nonpayable"},{"type":"event","name":"AuthorizedAddressAdded","inputs":[{"name":"addr","type":"address","indexed":false,"internalType":"address"}],"anonymous":false},{"type":"event","name":"AuthorizedAddressRemoved","inputs":[{"name":"addr","type":"address","indexed":false,"internalType":"address"}],"anonymous":false},{"type":"event","name":"CallbackSent","inputs":[{"name":"executionId","type":"uint64","indexed":true,"internalType":"uint64"},{"name":"result","type":"uint8","indexed":false,"internalType":"enum IProcessor.ExecutionResult"},{"name":"executedCount","type":"uint256","indexed":false,"internalType":"uint256"}],"anonymous":false},{"type":"event","name":"OwnershipTransferred","inputs":[{"name":"previousOwner","type":"address","indexed":true,"internalType":"address"},{"name":"newOwner","type":"address","indexed":true,"internalType":"address"}],"anonymous":false},{"type":"event","name":"ProcessorWasPaused","inputs":[],"anonymous":false},{"type":"event","name":"ProcessorWasResumed","inputs":[],"anonymous":false},{"type":"error","name":"AddressAlreadyAuthorized","inputs":[]},{"type":"error","name":"AddressNotAuthorized","inputs":[]},{"type":"error","name":"InvalidAddress","inputs":[]},{"type":"error","name":"InvalidOriginDomain","inputs":[]},{"type":"error","name":"NotAuthorizationContract","inputs":[]},{"type":"error","name":"OwnableInvalidOwner","inputs":[{"name":"owner","type":"address","internalType":"address"}]},{"type":"error","name":"OwnableUnauthorizedAccount","inputs":[{"name":"account","type":"address","internalType":"address"}]},{"type":"error","name":"ProcessorPaused","inputs":[]},{"type":"error","name":"ReentrancyGuardReentrantCall","inputs":[]},{"type":"error","name":"UnauthorizedAccess","inputs":[]},{"type":"error","name":"UnsupportedOperation","inputs":[]}],"bytecode":{"object":"0x60e0604052346101f057611c888038038061001981610208565b9283398101906080818303126101f05780516100376020830161022d565b9060408301519263ffffffff841684036101f0576060810151906001600160401b0382116101f057019380601f860112156101f0578451946001600160401b0386116101f4578560051b90602080610090818501610208565b8099815201928201019283116101f057602001905b8282106101d85750505033156101c5575f8054336001600160a01b0319821681178355916001600160a01b03909116907f8be0079c531659141344cd1fd0a4f28419497f9722a3daafe3b4186f6b6457e09080a36080526001600160a01b031660a05260c0525f5b815160ff8216101561016c5760ff9060018060a01b036020611fe08360051b1685010151165f52600160205260405f20600183198254161790551660ff81146101585760010161010d565b634e487b7160e01b5f52601160045260245ffd5b6001600355604051611a4690816102428239608051818181610323015281816108eb01526118f5015260a0518181816102c7015281816108a501526118ab015260c0518181816102fc0152818161086c01526119160152f35b631e4fbdf760e01b5f525f60045260245ffd5b602080916101e58461022d565b8152019101906100a5565b5f80fd5b634e487b7160e01b5f52604160045260245ffd5b6040519190601f01601f191682016001600160401b038111838210176101f457604052565b51906001600160a01b03821682036101f05756fe60806040526004361015610011575f80fd5b5f3560e01c806309c5eabe146100e457806342f1181e146100df57806356d5d475146100da5780635c975abb146100d5578063612b9ca0146100d057806370712939146100cb578063715018a6146100c65780638da5cb5b146100c1578063cee85d7e146100bc578063d5438eae146100b7578063d7b4aa11146100b2578063f19e207e146100ad5763f2fde38b146100a8575f80fd5b61094e565b61090e565b6108d4565b610890565b610850565b610829565b6107d2565b61072a565b610602565b61037c565b610288565b6101c1565b61011a565b9181601f84011215610116578235916001600160401b038311610116576020838186019501011161011657565b5f80fd5b34610116576020366003190112610116576004356001600160401b0381116101165761014a9036906004016100e9565b906002600354146101a1576002600355335f52600160205260ff60405f20541615610192576101816101869161018b93369161053d565b610c5a565b610d0b565b6001600355005b631a27eac360e11b5f5260045ffd5b633ee5aeb560e01b5f5260045ffd5b6001600160a01b0381160361011657565b34610116576020366003190112610116576004356101de816101b0565b6101e6610dab565b6001600160a01b038116801561027957805f52600160205260ff60405f20541661026a577f10ac961f00d5e732ba4dcc2c6fb09bebea0eb9edd2a75c8109775ef288382e6791610265915f52600160205261024b60405f20600160ff19825416179055565b6040516001600160a01b0390911681529081906020820190565b0390a1005b6372d5960760e01b5f5260045ffd5b63e6c4247b60e01b5f5260045ffd5b60603660031901126101165760043563ffffffff8116809103610116576044356001600160401b038111610116576102c49036906004016100e9565b917f00000000000000000000000000000000000000000000000000000000000000006001600160a01b031633036101925763ffffffff7f0000000000000000000000000000000000000000000000000000000000000000160361036d577f00000000000000000000000000000000000000000000000000000000000000006024350361035e576101816101869161035c93369161053d565b005b630cd0b2e560e11b5f5260045ffd5b63f120db3360e01b5f5260045ffd5b34610116575f36600319011261011657602060ff600254166040519015158152f35b634e487b7160e01b5f52604160045260245ffd5b604081019081106001600160401b038211176103cd57604052565b61039e565b602081019081106001600160401b038211176103cd57604052565b60a081019081106001600160401b038211176103cd57604052565b606081019081106001600160401b038211176103cd57604052565b90601f801991011681019081106001600160401b038211176103cd57604052565b60405190610453608083610423565b565b6001600160401b0381116103cd5760051b60200190565b6003111561011657565b6001600160401b0381160361011657565b6002111561011657565b809291039160808312610116576040516104aa816103b2565b8093604081126101165760409081516104c2816103b2565b84356104cd8161046c565b815260208501356104dd81610476565b60208201528352603f190112610116576020906060604051936104ff856103b2565b604081013561050d81610487565b8552013561051a81610476565b828401520152565b6001600160401b0381116103cd57601f01601f191660200190565b92919261054982610522565b916105576040519384610423565b829481845281830111610116578281602093845f960137010152565b81601f820112156101165780359061058a82610455565b926105986040519485610423565b82845260208085019360051b830101918183116101165760208101935b8385106105c457505050505090565b84356001600160401b03811161011657820183603f82011215610116576020916105f7858360408680960135910161053d565b8152019401936105b5565b34610116576040366003190112610116576004356001600160401b0381116101165760a060031982360301126101165760405161063e816103b2565b81600401356001600160401b03811161011657820191366023840112156101165760048301359261066e84610455565b9061067c6040519283610423565b848252602060048184019660051b830101019036821161011657602401945b8186106106f857828552846106b33660248701610491565b60208201526024356001600160401b038111610116576106f4916106de6106e4923690600401610573565b90610abf565b6040519081529081906020820190565b0390f35b6020863603126101165760208091604051610712816103d2565b883561071d816101b0565b815281520195019461069b565b3461011657602036600319011261011657600435610747816101b0565b61074f610dab565b6001600160a01b0381165f8181526001602052604090205460ff16156107c3575f90815260016020908152604091829020805460ff1916905590516001600160a01b0390921682527f66d5f06f711af3c9feba3203fdb00b51345d514c68585d9d319c5ff5e6f77592919081908101610265565b63e65c068d60e01b5f5260045ffd5b34610116575f366003190112610116576107ea610dab565b5f80546001600160a01b0319811682556001600160a01b03167f8be0079c531659141344cd1fd0a4f28419497f9722a3daafe3b4186f6b6457e08280a3005b34610116575f366003190112610116575f546040516001600160a01b039091168152602090f35b34610116575f36600319011261011657602060405163ffffffff7f0000000000000000000000000000000000000000000000000000000000000000168152f35b34610116575f366003190112610116576040517f00000000000000000000000000000000000000000000000000000000000000006001600160a01b03168152602090f35b34610116575f3660031901126101165760206040517f00000000000000000000000000000000000000000000000000000000000000008152f35b346101165760203660031901126101165760043561092b816101b0565b60018060a01b03165f526001602052602060ff60405f2054166040519015158152f35b346101165760203660031901126101165760043561096b816101b0565b610973610dab565b6001600160a01b031680156109c4575f80546001600160a01b03198116831782556001600160a01b0316907f8be0079c531659141344cd1fd0a4f28419497f9722a3daafe3b4186f6b6457e09080a3005b631e4fbdf760e01b5f525f60045260245ffd5b634e487b7160e01b5f52601160045260245ffd5b60ff1660ff81146109fc5760010190565b6109d7565b8051821015610a155760209160051b010190565b634e487b7160e01b5f52603260045260245ffd5b60405190610a38602083610423565b5f8252565b3d15610a67573d90610a4e82610522565b91610a5c6040519384610423565b82523d5f602084013e565b606090565b6020666f72206461746160c81b917f436f6e74726163742063616c6c206661696c656420776974686f75742065727281520152565b6080906020815260276020820152610abb60408201610a6c565b0190565b30330361019257805151825103610bb1575f5b815180519060ff831691821015610ba757610af082610afe92610a01565b51516001600160a01b031690565b90813b15610b68575f91610b13839287610a01565b519082602083519301915af1610b27610a3d565b9015610b3c5750610b37906109eb565b610ad2565b805115610b4b57805190602001fd5b60405162461bcd60e51b815280610b6460048201610aa1565b0390fd5b60405162461bcd60e51b815260206004820152601760248201527610dbdb9d1c9858dd08191bd95cc81b9bdd08195e1a5cdd604a1b6044820152606490fd5b5050509050515190565b60405162461bcd60e51b815260206004820152603560248201527f4e756d626572206f66206d6573736167657320646f6573206e6f74206d61746360448201527468206e756d626572206f662066756e6374696f6e7360581b6064820152608490fd5b81601f8201121561011657805190610c2b82610522565b92610c396040519485610423565b8284526020838301011161011657815f9260208093018386015e8301015290565b60606020604051610c6a816103b2565b5f815201528051810190602081830312610116576020810151906001600160401b0382116101165701906040828203126101165760405191610cab836103b2565b602081015160058110156101165783526040810151916001600160401b03831161011657610ce0926020809201920101610c14565b602082015290565b634e487b7160e01b5f52602160045260245ffd5b60051115610d0657565b610ce8565b80516005811015610d0657610d1f81610cfc565b610d2c575061045361139b565b60018151610d3981610cfc565b610d4281610cfc565b03610d78575060ff19600254166002557f1bfdd99aed0749a05ed2f18756f3b20a0920a9caad370cdf8424eb0ab25b3e9f5f80a1565b60038151610d8581610cfc565b610d8e81610cfc565b03610d9c5761045390611261565b639ba6061b60e01b5f5260045ffd5b5f546001600160a01b03163303610dbe57565b63118cdaa760e01b5f523360045260245ffd5b519061045382610476565b519061045382610487565b91906040838203126101165760405190610e00826103b2565b81938051610e0d81610487565b83526020810151916001600160401b03831161011657602092610e309201610c14565b910152565b9080601f83011215610116578151610e4c81610455565b92610e5a6040519485610423565b81845260208085019260051b820101918383116101165760208201905b838210610e8657505050505090565b81516001600160401b03811161011657602091610ea887848094880101610c14565b815201910190610e77565b602081830312610116578051906001600160401b038211610116570160a0818303126101165760405191610ee6836103ed565b8151610ef181610476565b8352610eff60208301610ddc565b602084015260408201516001600160401b0381116101165781610f23918401610de7565b6040840152610f3460608301610dd1565b606084015260808201516001600160401b03811161011657610f569201610e35565b608082015290565b60405190608082018281106001600160401b038211176103cd57604052606080835f81525f60208201525f60408201520152565b60021115610d0657565b51610fa681610f92565b90565b80929103916080831261011657604051610fc2816103b2565b809360408112610116576040908151610fda816103b2565b8451610fe58161046c565b81526020850151610ff581610476565b60208201528352603f19011261011657602090606060405193611017856103b2565b604081015161102581610487565b8552015161051a81610476565b602081830312610116578051906001600160401b0382116101165701906020828203126101165760405191611066836103d2565b8051906001600160401b03821161011657019080601f830112156101165781519161109083610455565b9261109e6040519485610423565b80845260208085019160051b830101918383116101165760208101915b8383106110cc575050505050815290565b82516001600160401b0381116101165782019060c0828703601f19011261011657604051916110fa83610408565b6020810151611108816101b0565b83526111178760408301610fa9565b602084015260c08101516001600160401b03811161011657602091010190604082880312610116576040519261114c846103b2565b8251611157816101b0565b84526020830151936001600160401b0385116101165761117c89602096879601610c14565b8482015260408201528152019201916110bb565b602081830312610116578051906001600160401b03821161011657019060a08282031261011657604051916111c4836103b2565b80516001600160401b03811161011657810182601f820112156101165780516111ec81610455565b916111fa6040519384610423565b81835260208084019260051b8201019085821161011657602001915b81831061122f575050508352610ce09190602001610fa9565b6020838703126101165760208091604051611249816103d2565b8551611254816101b0565b8152815201920191611216565b60025460ff1661138c57602061128291015160208082518301019101610eb3565b61128a610f5e565b506001600160401b036112a760608301516001600160401b031690565b168015159081611382575b5061134757604081016112c58151610f9c565b6112ce81610f92565b61131c576112ed60206112f89251015160208082518301019101611190565b608083015190611707565b333b611302575050565b61131661045392516001600160401b031690565b336113ce565b61133760206113429251015160208082518301019101611032565b6080830151906114bb565b6112f8565b61045390611316611356610a29565b9161135f610444565b5f815260016020820152925f60408501526060840152516001600160401b031690565b905042115f6112b2565b635d96658d60e01b5f5260045ffd5b600160ff1960025416176002557f2b3605dd77ad5c59a59041d11336edf92dce732b7a44a20e6204416ed9fc0c975f80a1565b610453926113da610f5e565b50805115611425575f905b611416606060408301519201519261140d6113fe610444565b6001600160401b039097168752565b602086016117d1565b6040840152606083015261187d565b602081015115611437576003906113e5565b6040810151611448576001906113e5565b6002906113e5565b6040519061145f604083610423565b601782527610dbdb9d1c9858dd08191bd95cc81b9bdd08195e1a5cdd604a1b6020830152565b60405190611494606083610423565b6027825261045360208301610a6c565b63ffffffff1663ffffffff81146109fc5760010190565b90916114c5610f5e565b505f9260606001845151835103610bb1575f955b855180519060ff8916918210156115b357610af0826114f792610a01565b90813b15611595575f9161150c839288610a01565b519082602083519301915af1611520610a3d565b901561153f5750611533611539916114a4565b966109eb565b956114d9565b95509395505050505f91805115155f146115825763ffffffff905b915b61156e611567610444565b9415158552565b5f6020850152166040830152606082015290565b5063ffffffff611590611485565b61155a565b5050945050505091505f9063ffffffff6115ad611450565b9161155c565b505091939550935063ffffffff915061155c565b90816020910312610116575190565b805180835260209291819084018484015e5f828201840152601f01601f1916010190565b9080602083519182815201916020808360051b8301019401925f915b83831061162557505050505090565b9091929394602080611643600193601f1986820301875289516115d6565b97019301930191939290611616565b916040835260e083019180519260a060408601528351809152602061010086019401905f5b8181106116dc5750505060200151928351938451946003861015610d065760206001600160401b039283828094610fa69a60608901520151166080860152015180516116c281610f92565b60a085015201511660c082015260208184039101526115fa565b8251516001600160a01b0316865260209586019590920191600101611677565b6040513d5f823e3d90fd5b61173291602091611716610f5e565b506040516303095ce560e51b8152938492839260048401611652565b03815f305af15f9181611796575b5061176e575061174e610a3d565b611756610444565b905f82525f60208301525f6040830152606082015290565b611776610444565b60018152905f6020830152604082015261178e610a29565b606082015290565b6117b991925060203d6020116117c0575b6117b18183610423565b8101906115c7565b905f611740565b503d6117a7565b60041115610d0657565b6004821015610d065752565b906004821015610d065752565b60a06060610fa693602084526001600160401b038151166020850152611818602082015160408601906117dd565b60408101518285015201519160808082015201906115d6565b906020610fa69281815201906115d6565b610fa6939263ffffffff606093168252602082015281604082015201906115d6565b602090939291936118798160408101966117dd565b0152565b5f906040516118a18161189386602083016117ea565b03601f198101835282610423565b6001600160a01b037f0000000000000000000000000000000000000000000000000000000000000000811692908116831484146119d6575060209161193e9160405194858094819363fa31de0160e01b83527f00000000000000000000000000000000000000000000000000000000000000007f000000000000000000000000000000000000000000000000000000000000000060048501611842565b03925af180156119d1576119b2575b505b7fbf094c62e2005d837b96c60fc68289cca59fce1a2a21891e84805b81359f3ecc6001600160401b0361198983516001600160401b031690565b6119ad604060208601519561199d876117c7565b0151604051938493169583611864565b0390a2565b6119ca9060203d6020116117c0576117b18183610423565b505f61194d565b6116fc565b90838093506040516119fd816118936020820195631c00ff7d60e21b875260248301611831565b51925af150611a0a610a3d565b5061194f56fea2646970667358221220c28761c96ead094c2d62f07d7840113532bb07272e88226032cd731778b3cc9664736f6c634300081d0033","linkReferences":{}},"methodIdentifiers":{"_executeAtomicSubroutine(((address)[],((uint8,uint64),(uint8,uint64))),bytes[])":"612b9ca0","addAuthorizedAddress(address)":"42f1181e","authorizationContract()":"d7b4aa11","authorizedAddresses(address)":"f19e207e","execute(bytes)":"09c5eabe","handle(uint32,bytes32,bytes)":"56d5d475","mailbox()":"d5438eae","originDomain()":"cee85d7e","owner()":"8da5cb5b","paused()":"5c975abb","removeAuthorizedAddress(address)":"70712939","renounceOwnership()":"715018a6","transferOwnership(address)":"f2fde38b"},"id":109}