{"abi":[{"type":"constructor","inputs":[{"name":"_owner","type":"address","internalType":"address"},{"name":"_processor","type":"address","internalType":"address"},{"name":"_config","type":"bytes","internalType":"bytes"}],"stateMutability":"nonpayable"},{"type":"fallback","stateMutability":"nonpayable"},{"type":"function","name":"config","inputs":[],"outputs":[{"name":"amount","type":"uint256","internalType":"uint256"},{"name":"transferToken","type":"address","internalType":"address"},{"name":"inputAccount","type":"address","internalType":"contract BaseAccount"},{"name":"recipient","type":"string","internalType":"string"},{"name":"sourceClient","type":"string","internalType":"string"},{"name":"timeout","type":"uint64","internalType":"uint64"},{"name":"eurekaHandler","type":"address","internalType":"contract IEurekaHandler"}],"stateMutability":"view"},{"type":"function","name":"owner","inputs":[],"outputs":[{"name":"","type":"address","internalType":"address"}],"stateMutability":"view"},{"type":"function","name":"processor","inputs":[],"outputs":[{"name":"","type":"address","internalType":"address"}],"stateMutability":"view"},{"type":"function","name":"renounceOwnership","inputs":[],"outputs":[],"stateMutability":"nonpayable"},{"type":"function","name":"transfer","inputs":[{"name":"fees","type":"tuple","internalType":"struct IEurekaHandler.Fees","components":[{"name":"relayFee","type":"uint256","internalType":"uint256"},{"name":"relayFeeRecipient","type":"address","internalType":"address"},{"name":"quoteExpiry","type":"uint64","internalType":"uint64"}]},{"name":"memo","type":"string","internalType":"string"}],"outputs":[],"stateMutability":"nonpayable"},{"type":"function","name":"transferOwnership","inputs":[{"name":"newOwner","type":"address","internalType":"address"}],"outputs":[],"stateMutability":"nonpayable"},{"type":"function","name":"updateConfig","inputs":[{"name":"_config","type":"bytes","internalType":"bytes"}],"outputs":[],"stateMutability":"nonpayable"},{"type":"function","name":"updateProcessor","inputs":[{"name":"_processor","type":"address","internalType":"address"}],"outputs":[],"stateMutability":"nonpayable"},{"type":"event","name":"EurekaTransfer","inputs":[{"name":"recipient","type":"string","indexed":false,"internalType":"string"},{"name":"amount","type":"uint256","indexed":false,"internalType":"uint256"}],"anonymous":false},{"type":"event","name":"OwnershipTransferred","inputs":[{"name":"previousOwner","type":"address","indexed":true,"internalType":"address"},{"name":"newOwner","type":"address","indexed":true,"internalType":"address"}],"anonymous":false},{"type":"error","name":"OwnableInvalidOwner","inputs":[{"name":"owner","type":"address","internalType":"address"}]},{"type":"error","name":"OwnableUnauthorizedAccount","inputs":[{"name":"account","type":"address","internalType":"address"}]}],"bytecode":{"object":"0x608060405234610684576118e180380380610019816106ba565b92833981019060608183031261068457610032816106df565b9161003f602083016106df565b604083015190926001600160401b03821161068457019080601f8301121561068457815161006f926020016106f3565b916001600160a01b03168015610688575f80546001600160a01b03198116831782556001600160a01b0316907f8be0079c531659141344cd1fd0a4f28419497f9722a3daafe3b4186f6b6457e09080a3600180546001600160a01b0319166001600160a01b03929092169190911790555f60c06100ea61069b565b828152826020820152826040820152606080820152606060808201528260a08201520152805181016020810191602081830312610684576020810151906001600160401b03821161068457019060e090829003126106845761014a61069b565b6020820151815261015d604083016106df565b6020820190815260608301519093906001600160a01b0381168103610684576040830190815260808401516001600160401b038111610684578260206101a592870101610733565b6060840190815260a085015190926001600160401b0382116106845760206101cf92870101610733565b6080840190815260c0850151909590946001600160401b03861686036106845760a0850195865260e00151936001600160a01b0385168086036106845760c08201958652156106335781516001600160a01b0316156105e25782516001600160a01b0316156105915785516001600160401b03161561054c575160025551600380546001600160a01b03199081166001600160a01b039384161790915591516004805490931691161790555180519093906001600160401b03811161047a57600554600181811c91168015610542575b602082101461045c57601f81116104fc575b50602094601f8211600114610499579481929394955f9261048e575b50508160011b915f199060031b1c1916176005555b5180519092906001600160401b03811161047a57600654600181811c91168015610470575b602082101461045c57601f81116103f9575b506020601f821160011461039657819293945f9261038b575b50508160011b915f199060031b1c1916176006555b516007805492516001600160e01b03199093166001600160401b039290921691909117604092831b600160401b600160e01b03161790555161119090816107518239f35b015190505f80610332565b601f1982169060065f52805f20915f5b8181106103e1575095836001959697106103c9575b505050811b01600655610347565b01515f1960f88460031b161c191690555f80806103bb565b9192602060018192868b0151815501940192016103a6565b60065f527ff652222313e28459528d920b65115c16c04f3efc82aaedc97be59f3f377c0d3f601f830160051c81019160208410610452575b601f0160051c01905b8181106104475750610319565b5f815560010161043a565b9091508190610431565b634e487b7160e01b5f52602260045260245ffd5b90607f1690610307565b634e487b7160e01b5f52604160045260245ffd5b015190505f806102cd565b601f1982169560055f52805f20915f5b8881106104e4575083600195969798106104cc575b505050811b016005556102e2565b01515f1960f88460031b161c191690555f80806104be565b919260206001819286850151815501940192016104a9565b60055f5260205f20601f830160051c81019160208410610538575b601f0160051c01905b81811061052d57506102b1565b5f8155600101610520565b9091508190610517565b90607f169061029f565b60405162461bcd60e51b815260206004820152601560248201527f54696d656f75742063616e2774206265207a65726f00000000000000000000006044820152606490fd5b60405162461bcd60e51b815260206004820152602360248201527f496e707574206163636f756e742063616e2774206265207a65726f206164647260448201526265737360e81b6064820152608490fd5b60405162461bcd60e51b8152602060048201526024808201527f5472616e7366657220746f6b656e2063616e2774206265207a65726f206164646044820152637265737360e01b6064820152608490fd5b60405162461bcd60e51b8152602060048201526024808201527f457572656b612048616e646c65722063616e2774206265207a65726f206164646044820152637265737360e01b6064820152608490fd5b5f80fd5b631e4fbdf760e01b5f525f60045260245ffd5b6040519060e082016001600160401b0381118382101761047a57604052565b6040519190601f01601f191682016001600160401b0381118382101761047a57604052565b51906001600160a01b038216820361068457565b9192916001600160401b03821161047a57610717601f8301601f19166020016106ba565b938285528282011161068457815f926020928387015e84010152565b9080601f8301121561068457815161074d926020016106f3565b9056fe60806040526004361015610051575b3461004d5760405162461bcd60e51b8152602060048201526012602482015271119d5b98dd1a5bdb881b9bdd08199bdd5b9960721b6044820152606490fd5b5f80fd5b5f3560e01c8063715018a614610e0957806379502c5514610d6f5780638cc6acce146107d85780638da5cb5b146107b15780638e8c68481461076e578063b4a687a71461015a578063ce1b1d43146101325763f2fde38b0361000e573461004d57602036600319011261004d576100c6611095565b6100ce61111a565b6001600160a01b0316801561011f575f80546001600160a01b03198116831782556001600160a01b0316907f8be0079c531659141344cd1fd0a4f28419497f9722a3daafe3b4186f6b6457e09080a3005b631e4fbdf760e01b5f525f60045260245ffd5b3461004d575f36600319011261004d576001546040516001600160a01b039091168152602090f35b3461004d5736600319016080811261004d5760601361004d576064356001600160401b03811161004d573660238201121561004d578060040135906001600160401b03821161004d57366024838301011161004d576001546001600160a01b0316330361071757604051916101ce83610e98565b60025483526003546001600160a01b039081166020850190815260045490911660408501908152906101fe610ed4565b916060860192835261020e610f8b565b608087019081526007546001600160401b03811660a089019081526001600160a01b03604092831c811660c08b019081528651865194516370a0823160e01b81529483166004860152949a90969294929392909160209184916024918391165afa91821561070c575f926106d8575b50811561069d5781815111610661575190811561065a57505b60043592838211156106025783820398828a116105ee57865160405163095ea7b360e01b60208201526001600160a01b0390911660248201526044808201949094529283526102e6606484610eb3565b60018060a01b03845116906001600160401b0389519c519351166001600160401b03421601926001600160401b0384116105ee576040519c60c08e01936001600160401b0385118f8610176105da578e946040528452602084019081526040840191825260409b8c9384519461035c9086610eb3565b6008855260208501673a3930b739b332b960c11b90526060860194855260808601966001600160401b031687523690602401916103989261105f565b60a09485019081528c5163eecf31f960e01b6020820152602481018f905260448101959095529d516001600160a01b031660c48501525160c060e4850152929c926103e8906101848f0190611020565b90518d820360c319016101048f01526104019190611020565b90518c820360c319016101248e015261041a9190611020565b91516001600160401b03166101448c0152518a820360c319016101648c01526104439190611020565b60648a01939093526024356001600160a01b0381169081900361004d5760848a0152604435916001600160401b03831680930361004d576104978a6104dd955f9560a483015203601f1981018c528b610eb3565b845190518851635b0e93fb60e11b81526001600160a01b039182166004820152602481018590526060604482015294859391909216918391859183916064830190611020565b03925af180156105d057915f939161053b98936105b8575b505190518551635b0e93fb60e11b81526001600160a01b039182166004820152602481018590526060604482015297889391909216918391859183916064830190611020565b03925af19384156105ae577f9fb987bcd92e4aee88ce84501b61ffa1654bb3b2bb0c885da117a6f4c0eaabf99461058e575b5051916105838251938385948552840190611020565b9060208301520390a1005b6105a9903d805f833e6105a18183610eb3565b8101906110e1565b61056d565b82513d5f823e3d90fd5b6105cb903d8087833e6105a18183610eb3565b6104f5565b85513d5f823e3d90fd5b634e487b7160e01b5f52604160045260245ffd5b634e487b7160e01b5f52601160045260245ffd5b60405162461bcd60e51b815260206004820152602a60248201527f4e6f7420656e6f75676820746f20706179206665657320616e64206d616b652060448201526930903a3930b739b332b960b11b6064820152608490fd5b9050610296565b60405162461bcd60e51b8152602060048201526014602482015273496e73756666696369656e742062616c616e636560601b6044820152606490fd5b60405162461bcd60e51b81526020600482015260136024820152722737ba3434b733903a37903a3930b739b332b960691b6044820152606490fd5b9091506020813d602011610704575b816106f460209383610eb3565b8101031261004d5751908a61027d565b3d91506106e7565b6040513d5f823e3d90fd5b60405162461bcd60e51b815260206004820152602960248201527f4f6e6c79207468652070726f636573736f722063616e2063616c6c207468697360448201526810333ab731ba34b7b760b91b6064820152608490fd5b3461004d57602036600319011261004d57610787611095565b61078f61111a565b600180546001600160a01b0319166001600160a01b0392909216919091179055005b3461004d575f36600319011261004d575f546040516001600160a01b039091168152602090f35b3461004d57602036600319011261004d576004356001600160401b03811161004d573660238201121561004d5761081990369060248160040135910161105f565b61082161111a565b5f60c060405161083081610e98565b828152826020820152826040820152606080820152606060808201528260a0820152015280518101602081019160208183031261004d576020810151906001600160401b03821161004d57019060e0908290031261004d576040519061089582610e98565b602081015182526040810151926001600160a01b038416840361004d576020830193845260608201516001600160a01b038116810361004d576040840190815260808301516001600160401b03811161004d578260206108f792860101611140565b916060850192835260a0840151906001600160401b03821161004d57602061092192860101611140565b946080850195865260c0840151936001600160401b038516850361004d5760a0860194855260e00151946001600160a01b03861680870361004d5760c0820196875215610d1e5781516001600160a01b031615610ccd5782516001600160a01b031615610c7c576001600160401b0385511615610c3f575160025551600380546001600160a01b03199081166001600160a01b039384161790915591516004805490931691161790555180519093906001600160401b0381116105da576109e9600554610e60565b601f8111610bf9575b50602094601f8211600114610b96579481929394955f92610b8b575b50508160011b915f199060031b1c1916176005555b518051906001600160401b0382116105da57610a40600654610e60565b601f8111610b28575b50602090601f8311600114610aba576001600160401b039392915f9183610aaf575b50508160011b915f199060031b1c1916176006555b51166007549168010000000000000000600160e01b03905160401b169163ffffffff60e01b1617176007555f80f35b015190508580610a6b565b90601f1983169160065f52815f20925f5b818110610b1057509160019391856001600160401b0397969410610af8575b505050811b01600655610a80565b01515f1960f88460031b161c19169055858080610aea565b92936020600181928786015181550195019301610acb565b60065f527ff652222313e28459528d920b65115c16c04f3efc82aaedc97be59f3f377c0d3f601f840160051c81019160208510610b81575b601f0160051c01905b818110610b765750610a49565b5f8155600101610b69565b9091508190610b60565b015190508580610a0e565b601f1982169560055f52805f20915f5b888110610be157508360019596979810610bc9575b505050811b01600555610a23565b01515f1960f88460031b161c19169055858080610bbb565b91926020600181928685015181550194019201610ba6565b60055f5260205f20601f830160051c81019160208410610c35575b601f0160051c01905b818110610c2a57506109f2565b5f8155600101610c1d565b9091508190610c14565b60405162461bcd60e51b815260206004820152601560248201527454696d656f75742063616e2774206265207a65726f60581b6044820152606490fd5b60405162461bcd60e51b815260206004820152602360248201527f496e707574206163636f756e742063616e2774206265207a65726f206164647260448201526265737360e81b6064820152608490fd5b60405162461bcd60e51b8152602060048201526024808201527f5472616e7366657220746f6b656e2063616e2774206265207a65726f206164646044820152637265737360e01b6064820152608490fd5b60405162461bcd60e51b8152602060048201526024808201527f457572656b612048616e646c65722063616e2774206265207a65726f206164646044820152637265737360e01b6064820152608490fd5b3461004d575f36600319011261004d576002546003546004546001600160a01b03918216929116610de2610da1610ed4565b610dd4610dac610f8b565b916007549460405197889788526020880152604087015260e0606087015260e0860190611020565b908482036080860152611020565b6001600160401b03821660a084015260409190911c6001600160a01b031660c08301520390f35b3461004d575f36600319011261004d57610e2161111a565b5f80546001600160a01b0319811682556001600160a01b03167f8be0079c531659141344cd1fd0a4f28419497f9722a3daafe3b4186f6b6457e08280a3005b90600182811c92168015610e8e575b6020831014610e7a57565b634e487b7160e01b5f52602260045260245ffd5b91607f1691610e6f565b60e081019081106001600160401b038211176105da57604052565b90601f801991011681019081106001600160401b038211176105da57604052565b604051905f8260055491610ee783610e60565b8083529260018116908115610f6c5750600114610f0d575b610f0b92500383610eb3565b565b5060055f90815290917f036b6384b5eca791c62761152d0c79bb0604c104a5fb6f4eb0703f3154bb3db05b818310610f50575050906020610f0b92820101610eff565b6020919350806001915483858901015201910190918492610f38565b60209250610f0b94915060ff191682840152151560051b820101610eff565b604051905f8260065491610f9e83610e60565b8083529260018116908115610f6c5750600114610fc157610f0b92500383610eb3565b5060065f90815290917ff652222313e28459528d920b65115c16c04f3efc82aaedc97be59f3f377c0d3f5b818310611004575050906020610f0b92820101610eff565b6020919350806001915483858901015201910190918492610fec565b805180835260209291819084018484015e5f828201840152601f01601f1916010190565b6001600160401b0381116105da57601f01601f191660200190565b92919261106b82611044565b916110796040519384610eb3565b82948184528183011161004d578281602093845f960137010152565b600435906001600160a01b038216820361004d57565b9291926110b782611044565b916110c56040519384610eb3565b82948184528183011161004d578281602093845f96015e010152565b60208183031261004d578051906001600160401b03821161004d57019080601f8301121561004d578151611117926020016110ab565b90565b5f546001600160a01b0316330361112d57565b63118cdaa760e01b5f523360045260245ffd5b9080601f8301121561004d578151611117926020016110ab56fea2646970667358221220932852349c9ff477eb3f4a69e34fdef9269afaa9bd8774e76c9c004ccd92a41164736f6c634300081d0033","linkReferences":{}},"methodIdentifiers":{"config()":"79502c55","owner()":"8da5cb5b","processor()":"ce1b1d43","renounceOwnership()":"715018a6","transfer((uint256,address,uint64),string)":"b4a687a7","transferOwnership(address)":"f2fde38b","updateConfig(bytes)":"8cc6acce","updateProcessor(address)":"8e8c6848"},"id":92}