{"abi":[{"type":"constructor","inputs":[{"name":"_owner","type":"address","internalType":"address"},{"name":"_processor","type":"address","internalType":"address"},{"name":"_config","type":"bytes","internalType":"bytes"}],"stateMutability":"nonpayable"},{"type":"fallback","stateMutability":"nonpayable"},{"type":"function","name":"config","inputs":[],"outputs":[{"name":"amount","type":"uint256","internalType":"uint256"},{"name":"minAmountOut","type":"uint256","internalType":"uint256"},{"name":"transferToken","type":"address","internalType":"address"},{"name":"inputAccount","type":"address","internalType":"contract BaseAccount"},{"name":"recipient","type":"string","internalType":"string"},{"name":"sourceClient","type":"string","internalType":"string"},{"name":"timeout","type":"uint64","internalType":"uint64"},{"name":"eurekaHandler","type":"address","internalType":"contract IEurekaHandler"}],"stateMutability":"view"},{"type":"function","name":"lombardTransfer","inputs":[{"name":"fees","type":"tuple","internalType":"struct IEurekaHandler.Fees","components":[{"name":"relayFee","type":"uint256","internalType":"uint256"},{"name":"relayFeeRecipient","type":"address","internalType":"address"},{"name":"quoteExpiry","type":"uint64","internalType":"uint64"}]},{"name":"memo","type":"string","internalType":"string"}],"outputs":[],"stateMutability":"nonpayable"},{"type":"function","name":"owner","inputs":[],"outputs":[{"name":"","type":"address","internalType":"address"}],"stateMutability":"view"},{"type":"function","name":"processor","inputs":[],"outputs":[{"name":"","type":"address","internalType":"address"}],"stateMutability":"view"},{"type":"function","name":"renounceOwnership","inputs":[],"outputs":[],"stateMutability":"nonpayable"},{"type":"function","name":"transfer","inputs":[{"name":"fees","type":"tuple","internalType":"struct IEurekaHandler.Fees","components":[{"name":"relayFee","type":"uint256","internalType":"uint256"},{"name":"relayFeeRecipient","type":"address","internalType":"address"},{"name":"quoteExpiry","type":"uint64","internalType":"uint64"}]},{"name":"memo","type":"string","internalType":"string"}],"outputs":[],"stateMutability":"nonpayable"},{"type":"function","name":"transferOwnership","inputs":[{"name":"newOwner","type":"address","internalType":"address"}],"outputs":[],"stateMutability":"nonpayable"},{"type":"function","name":"updateConfig","inputs":[{"name":"_config","type":"bytes","internalType":"bytes"}],"outputs":[],"stateMutability":"nonpayable"},{"type":"function","name":"updateProcessor","inputs":[{"name":"_processor","type":"address","internalType":"address"}],"outputs":[],"stateMutability":"nonpayable"},{"type":"event","name":"EurekaTransfer","inputs":[{"name":"recipient","type":"string","indexed":false,"internalType":"string"},{"name":"amount","type":"uint256","indexed":false,"internalType":"uint256"}],"anonymous":false},{"type":"event","name":"OwnershipTransferred","inputs":[{"name":"previousOwner","type":"address","indexed":true,"internalType":"address"},{"name":"newOwner","type":"address","indexed":true,"internalType":"address"}],"anonymous":false},{"type":"error","name":"OwnableInvalidOwner","inputs":[{"name":"owner","type":"address","internalType":"address"}]},{"type":"error","name":"OwnableUnauthorizedAccount","inputs":[{"name":"account","type":"address","internalType":"address"}]}],"bytecode":{"object":"0x60806040523461072f57611bab8038038061001981610766565b92833981019060608183031261072f576100328161078b565b9161003f6020830161078b565b604083015190926001600160401b03821161072f57019080601f8301121561072f57815161006f9260200161079f565b916001600160a01b03168015610733575f80546001600160a01b03198116831782556001600160a01b0316907f8be0079c531659141344cd1fd0a4f28419497f9722a3daafe3b4186f6b6457e09080a3600180546001600160a01b0319166001600160a01b03929092169190911790555f60e06100ea610746565b82815282602082015282604082015282606082015260606080820152606060a08201528260c0820152015280518101602081019160208183031261072f576020810151906001600160401b03821161072f570190610100908290031261072f57610152610746565b60208201518152604082015192602082019384526101726060840161078b565b604083019081526080840151906001600160a01b038216820361072f576060840191825260a08501516001600160401b03811161072f578360206101b8928801016107df565b6080850190815260c086015190936001600160401b03821161072f5760206101e2928801016107df565b60a0850190815260e0860151909690956001600160401b038716870361072f5760c086019687526101000151946001600160a01b03861680870361072f5760e08201968752156106de5782516001600160a01b03161561068d5783516001600160a01b03161561063c5786516001600160401b0316156105f757805180151590816105ec575b5061059257516002555160035551600480546001600160a01b03199081166001600160a01b039384161790915591516005805490931691161790555180519093906001600160401b0381116104a357600654600181811c91168015610588575b602082101461048557601f8111610525575b50602094601f82116001146104c2579481929394955f926104b7575b50508160011b915f199060031b1c1916176006555b5180519092906001600160401b0381116104a357600754600181811c91168015610499575b602082101461048557601f8111610422575b506020601f82116001146103bf57819293945f926103b4575b50508160011b915f199060031b1c1916176007555b516008805492516001600160e01b03199093166001600160401b039290921691909117604092831b600160401b600160e01b0316179055516113ae90816107fd8239f35b015190505f8061035b565b601f1982169060075f52805f20915f5b81811061040a575095836001959697106103f2575b505050811b01600755610370565b01515f1960f88460031b161c191690555f80806103e4565b9192602060018192868b0151815501940192016103cf565b60075f527fa66cc928b5edb82af9bd49922954155ab7b0942694bea4ce44661d9a8736c688601f830160051c8101916020841061047b575b601f0160051c01905b8181106104705750610342565b5f8155600101610463565b909150819061045a565b634e487b7160e01b5f52602260045260245ffd5b90607f1690610330565b634e487b7160e01b5f52604160045260245ffd5b015190505f806102f6565b601f1982169560065f52805f20915f5b88811061050d575083600195969798106104f5575b505050811b0160065561030b565b01515f1960f88460031b161c191690555f80806104e7565b919260206001819286850151815501940192016104d2565b60065f527ff652222313e28459528d920b65115c16c04f3efc82aaedc97be59f3f377c0d3f601f830160051c8101916020841061057e575b601f0160051c01905b81811061057357506102da565b5f8155600101610566565b909150819061055d565b90607f16906102c8565b60405162461bcd60e51b815260206004820152602c60248201527f4d696e20616d6f756e74206f75742063616e6e6f74206265206772656174657260448201526b081d1a185b88185b5bdd5b9d60a21b6064820152608490fd5b90508251115f610268565b60405162461bcd60e51b815260206004820152601560248201527f54696d656f75742063616e2774206265207a65726f00000000000000000000006044820152606490fd5b60405162461bcd60e51b815260206004820152602360248201527f496e707574206163636f756e742063616e2774206265207a65726f206164647260448201526265737360e81b6064820152608490fd5b60405162461bcd60e51b8152602060048201526024808201527f5472616e7366657220746f6b656e2063616e2774206265207a65726f206164646044820152637265737360e01b6064820152608490fd5b60405162461bcd60e51b8152602060048201526024808201527f457572656b612048616e646c65722063616e2774206265207a65726f206164646044820152637265737360e01b6064820152608490fd5b5f80fd5b631e4fbdf760e01b5f525f60045260245ffd5b6040519061010082016001600160401b038111838210176104a357604052565b6040519190601f01601f191682016001600160401b038111838210176104a357604052565b51906001600160a01b038216820361072f57565b9192916001600160401b0382116104a3576107c3601f8301601f1916602001610766565b938285528282011161072f57815f926020928387015e84010152565b9080601f8301121561072f5781516107f99260200161079f565b9056fe60806040526004361015610051575b3461004d5760405162461bcd60e51b8152602060048201526012602482015271119d5b98dd1a5bdb881b9bdd08199bdd5b9960721b6044820152606490fd5b5f80fd5b5f3560e01c80633149f23214610b04578063715018a614610aad57806379502c5514610a065780638cc6acce146103dd5780638da5cb5b146103b65780638e8c684814610373578063b4a687a714610165578063ce1b1d431461013d5763f2fde38b0361000e573461004d57602036600319011261004d576100d1610e5b565b6100d9611338565b6001600160a01b0316801561012a575f80546001600160a01b03198116831782556001600160a01b0316907f8be0079c531659141344cd1fd0a4f28419497f9722a3daafe3b4186f6b6457e09080a3005b631e4fbdf760e01b5f525f60045260245ffd5b3461004d575f36600319011261004d576001546040516001600160a01b039091168152602090f35b3461004d5761028761019b61022161017c36610bb1565b9061019560018060a09795971b03600154163314610e71565b84611070565b61023a60e08495939694019160018060a01b03835116946101f46101c082358a610ecf565b60405163095ea7b360e01b60208201526001600160a01b039890981660248901526044808901919091528752606487610c79565b61022c60405195869363eecf31f960e01b60208601528a602486015260a0604486015260c4850190610ef0565b916064840190610f6c565b03601f198101845283610c79565b5f606085019360018060a01b0385511660018060a01b0360408801511683604051809b81958294635b0e93fb60e11b84526004840152836024840152606060448401526064830190610de6565b03925af1928315610350576102e4965f9461035b575b50519051604051635b0e93fb60e11b81526001600160a01b039182166004820152602481018590526060604482015296879391909216918391859183916064830190610de6565b03925af1908115610350577f9fb987bcd92e4aee88ce84501b61ffa1654bb3b2bb0c885da117a6f4c0eaabf993608092610330575b50015161032b60405192839283611016565b0390a1005b61034b903d805f833e6103438183610c79565b810190610fe0565b610319565b6040513d5f823e3d90fd5b61036e903d8087833e6103438183610c79565b61029d565b3461004d57602036600319011261004d5761038c610e5b565b610394611338565b600180546001600160a01b0319166001600160a01b0392909216919091179055005b3461004d575f36600319011261004d575f546040516001600160a01b039091168152602090f35b3461004d57602036600319011261004d576004356001600160401b03811161004d573660238201121561004d5761041e903690602481600401359101610e25565b610426611338565b61042e611032565b5080518101602081019160208183031261004d576020810151906001600160401b03821161004d570190610100908290031261004d576040519061047182610c42565b6020818101518352604082015190830190815260608201519093906001600160a01b038116810361004d57604084019081526080830151906001600160a01b038216820361004d576060850191825260a08401516001600160401b03811161004d578360206104e29287010161135e565b926080860193845260c0850151906001600160401b03821161004d57602061050c9287010161135e565b9560a0860196875260e0850151946001600160401b038616860361004d5760c087019586526101000151956001600160a01b03871680880361004d5760e08201978852156109b55782516001600160a01b0316156109645783516001600160a01b031615610913576001600160401b03865116156108d657805180151590816108cb575b5061087157516002555160035551600480546001600160a01b03199081166001600160a01b039384161790915591516005805490931691161790555180519093906001600160401b03811161078c576105ea600654610c0a565b601f811161080e575b50602094601f82116001146107ab579481929394955f926107a0575b50508160011b915f199060031b1c1916176006555b518051906001600160401b03821161078c57610641600754610c0a565b601f8111610729575b50602090601f83116001146106bb576001600160401b039392915f91836106b0575b50508160011b915f199060031b1c1916176007555b51166008549168010000000000000000600160e01b03905160401b169163ffffffff60e01b1617176008555f80f35b01519050858061066c565b90601f1983169160075f52815f20925f5b81811061071157509160019391856001600160401b03979694106106f9575b505050811b01600755610681565b01515f1960f88460031b161c191690558580806106eb565b929360206001819287860151815501950193016106cc565b60075f527fa66cc928b5edb82af9bd49922954155ab7b0942694bea4ce44661d9a8736c688601f840160051c81019160208510610782575b601f0160051c01905b818110610777575061064a565b5f815560010161076a565b9091508190610761565b634e487b7160e01b5f52604160045260245ffd5b01519050858061060f565b601f1982169560065f52805f20915f5b8881106107f6575083600195969798106107de575b505050811b01600655610624565b01515f1960f88460031b161c191690558580806107d0565b919260206001819286850151815501940192016107bb565b60065f527ff652222313e28459528d920b65115c16c04f3efc82aaedc97be59f3f377c0d3f601f830160051c81019160208410610867575b601f0160051c01905b81811061085c57506105f3565b5f815560010161084f565b9091508190610846565b60405162461bcd60e51b815260206004820152602c60248201527f4d696e20616d6f756e74206f75742063616e6e6f74206265206772656174657260448201526b081d1a185b88185b5bdd5b9d60a21b6064820152608490fd5b905082511189610590565b60405162461bcd60e51b815260206004820152601560248201527454696d656f75742063616e2774206265207a65726f60581b6044820152606490fd5b60405162461bcd60e51b815260206004820152602360248201527f496e707574206163636f756e742063616e2774206265207a65726f206164647260448201526265737360e81b6064820152608490fd5b60405162461bcd60e51b8152602060048201526024808201527f5472616e7366657220746f6b656e2063616e2774206265207a65726f206164646044820152637265737360e01b6064820152608490fd5b60405162461bcd60e51b8152602060048201526024808201527f457572656b612048616e646c65722063616e2774206265207a65726f206164646044820152637265737360e01b6064820152608490fd5b3461004d575f36600319011261004d576002546003546004546005549192916001600160a01b0391821691610a869116610a78610a41610c9a565b610a49610d51565b926008549560405198899889526020890152604088015260608701526101006080870152610100860190610de6565b9084820360a0860152610de6565b6001600160401b03821660c084015260409190911c6001600160a01b031660e08301520390f35b3461004d575f36600319011261004d57610ac5611338565b5f80546001600160a01b0319811682556001600160a01b03167f8be0079c531659141344cd1fd0a4f28419497f9722a3daafe3b4186f6b6457e08280a3005b3461004d57610287610b37610b1836610bb1565b90610b3160018060a09695961b03600154163314610e71565b83611070565b60208301519193918015610baa575b60e0840180516001600160a01b031693909161023a91610b6a6101c082358a610ecf565b61022c610b9f6040519687946373e2438160e01b60208701528b6024870152604486015260c0606486015260e4850190610ef0565b916084840190610f6c565b5083610b46565b60031981016080811261004d5760601361004d576004916064356001600160401b03811161004d578260238201121561004d578060040135926001600160401b03841161004d576024848301011161004d576024019190565b90600182811c92168015610c38575b6020831014610c2457565b634e487b7160e01b5f52602260045260245ffd5b91607f1691610c19565b61010081019081106001600160401b0382111761078c57604052565b60c081019081106001600160401b0382111761078c57604052565b90601f801991011681019081106001600160401b0382111761078c57604052565b604051905f8260065491610cad83610c0a565b8083529260018116908115610d325750600114610cd3575b610cd192500383610c79565b565b5060065f90815290917ff652222313e28459528d920b65115c16c04f3efc82aaedc97be59f3f377c0d3f5b818310610d16575050906020610cd192820101610cc5565b6020919350806001915483858901015201910190918492610cfe565b60209250610cd194915060ff191682840152151560051b820101610cc5565b604051905f8260075491610d6483610c0a565b8083529260018116908115610d325750600114610d8757610cd192500383610c79565b5060075f90815290917fa66cc928b5edb82af9bd49922954155ab7b0942694bea4ce44661d9a8736c6885b818310610dca575050906020610cd192820101610cc5565b6020919350806001915483858901015201910190918492610db2565b805180835260209291819084018484015e5f828201840152601f01601f1916010190565b6001600160401b03811161078c57601f01601f191660200190565b929192610e3182610e0a565b91610e3f6040519384610c79565b82948184528183011161004d578281602093845f960137010152565b600435906001600160a01b038216820361004d57565b15610e7857565b60405162461bcd60e51b815260206004820152602960248201527f4f6e6c79207468652070726f636573736f722063616e2063616c6c207468697360448201526810333ab731ba34b7b760b91b6064820152608490fd5b91908201809211610edc57565b634e487b7160e01b5f52601160045260245ffd5b610f699160018060a01b03825116815260a0610f45610f33610f21602086015160c0602087015260c0860190610de6565b60408601518582036040870152610de6565b60608501518482036060860152610de6565b926001600160401b03608082015116608084015201519060a0818403910152610de6565b90565b8035825260208101356001600160a01b038116919082900361004d5760409160208401520135906001600160401b03821680920361004d5760400152565b929192610fb682610e0a565b91610fc46040519384610c79565b82948184528183011161004d578281602093845f96015e010152565b60208183031261004d578051906001600160401b03821161004d57019080601f8301121561004d578151610f6992602001610faa565b92919061102d602091604086526040860190610de6565b930152565b6040519061103f82610c42565b5f60e08382815282602082015282604082015282606082015260606080820152606060a08201528260c08201520152565b9290919261107c611032565b50606060a060405161108d81610c5e565b5f815282602082015282604082015282808201525f60808201520152604051936110b685610c42565b600254855260035460208601526004546001600160a01b039081166040870190815260055490911660608701908152909490916110f1610c9a565b9360808801948552611101610d51565b60a089019081526008546001600160401b03811660c08b019081526001600160a01b03604092831c811660e08d01528a51975192516370a0823160e01b8152928116600484015290969293928b9160209184916024918391165afa918215610350575f92611304575b5081156112c9578181511161128d57519081156112855750905b358082111561122d578103908111610edc576001600160401b03909760018060a01b03905116955191519451166001600160401b034216016001600160401b038111610edc57611225946001600160401b0392604051976111e489610c5e565b8852602088015260408701526040516111fe604082610c79565b60088152673a3930b739b332b960c11b602082015260608701521660808501523691610e25565b60a082015290565b60405162461bcd60e51b815260206004820152602a60248201527f4e6f7420656e6f75676820746f20706179206665657320616e64206d616b652060448201526930903a3930b739b332b960b11b6064820152608490fd5b905090611184565b60405162461bcd60e51b8152602060048201526014602482015273496e73756666696369656e742062616c616e636560601b6044820152606490fd5b60405162461bcd60e51b81526020600482015260136024820152722737ba3434b733903a37903a3930b739b332b960691b6044820152606490fd5b9091506020813d602011611330575b8161132060209383610c79565b8101031261004d5751905f61116a565b3d9150611313565b5f546001600160a01b0316330361134b57565b63118cdaa760e01b5f523360045260245ffd5b9080601f8301121561004d578151610f6992602001610faa56fea26469706673582212205955f2be4b8780da51ebdcaf9590dc5d0e8d5d3dc9cb9580b8c0efabaf95b64064736f6c634300081d0033","linkReferences":{}},"methodIdentifiers":{"config()":"79502c55","lombardTransfer((uint256,address,uint64),string)":"3149f232","owner()":"8da5cb5b","processor()":"ce1b1d43","renounceOwnership()":"715018a6","transfer((uint256,address,uint64),string)":"b4a687a7","transferOwnership(address)":"f2fde38b","updateConfig(bytes)":"8cc6acce","updateProcessor(address)":"8e8c6848"},"id":95}