{"abi":[{"type":"constructor","inputs":[{"name":"_owner","type":"address","internalType":"address"},{"name":"_processor","type":"address","internalType":"address"},{"name":"_config","type":"bytes","internalType":"bytes"}],"stateMutability":"nonpayable"},{"type":"fallback","stateMutability":"nonpayable"},{"type":"function","name":"config","inputs":[],"outputs":[{"name":"amount","type":"uint256","internalType":"uint256"},{"name":"mintRecipient","type":"bytes32","internalType":"bytes32"},{"name":"inputAccount","type":"address","internalType":"contract Account"},{"name":"destinationDomain","type":"uint32","internalType":"uint32"},{"name":"cctpTokenMessenger","type":"address","internalType":"contract ITokenMessenger"},{"name":"transferToken","type":"address","internalType":"address"}],"stateMutability":"view"},{"type":"function","name":"owner","inputs":[],"outputs":[{"name":"","type":"address","internalType":"address"}],"stateMutability":"view"},{"type":"function","name":"processor","inputs":[],"outputs":[{"name":"","type":"address","internalType":"address"}],"stateMutability":"view"},{"type":"function","name":"renounceOwnership","inputs":[],"outputs":[],"stateMutability":"nonpayable"},{"type":"function","name":"transfer","inputs":[],"outputs":[],"stateMutability":"nonpayable"},{"type":"function","name":"transferOwnership","inputs":[{"name":"newOwner","type":"address","internalType":"address"}],"outputs":[],"stateMutability":"nonpayable"},{"type":"function","name":"updateConfig","inputs":[{"name":"_config","type":"bytes","internalType":"bytes"}],"outputs":[],"stateMutability":"nonpayable"},{"type":"function","name":"updateProcessor","inputs":[{"name":"_processor","type":"address","internalType":"address"}],"outputs":[],"stateMutability":"nonpayable"},{"type":"event","name":"OwnershipTransferred","inputs":[{"name":"previousOwner","type":"address","indexed":true,"internalType":"address"},{"name":"newOwner","type":"address","indexed":true,"internalType":"address"}],"anonymous":false},{"type":"error","name":"OwnableInvalidOwner","inputs":[{"name":"owner","type":"address","internalType":"address"}]},{"type":"error","name":"OwnableUnauthorizedAccount","inputs":[{"name":"account","type":"address","internalType":"address"}]}],"bytecode":{"object":"0x60806040523461036057610dee80380380610019816103aa565b928339810160608282031261036057610031826103cf565b9161003e602082016103cf565b604082015190916001600160401b03821161036057019282601f850112156103605783516001600160401b03811161037757610083601f8201601f19166020016103aa565b9481865260208601946020838301011161036057815f926020809301875e860101526001600160a01b03168015610364575f80546001600160a01b03198116831782556001600160a01b0316907f8be0079c531659141344cd1fd0a4f28419497f9722a3daafe3b4186f6b6457e09080a3600180546001600160a01b0319166001600160a01b03929092169190911790555f60a061011f61038b565b828152826020820152826040820152826060820152826080820152015260c0828051810103126103605761015161038b565b9051815260408201516020820190815260608301516001600160a01b0381168103610360576040830190815260808401519163ffffffff83168303610360576060840192835260a08501516001600160a01b038116959094908686036103605760c06101c49160808401978852016103cf565b9560a08201968752156103085785516001600160a01b0316156102b75782516001600160a01b031615610266575160025551600355516004805492516001600160c01b03199093166001600160a01b039283161760a09390931b63ffffffff60a01b16929092179091559051600580546001600160a01b03199081169284169290921790559151600680549093169116179055604051610a0a90816103e48239f35b60405162461bcd60e51b815260206004820152602360248201527f496e707574206163636f756e742063616e2774206265207a65726f206164647260448201526265737360e81b6064820152608490fd5b60405162461bcd60e51b8152602060048201526024808201527f5472616e7366657220746f6b656e2063616e2774206265207a65726f206164646044820152637265737360e01b6064820152608490fd5b60405162461bcd60e51b815260206004820152602a60248201527f4343545020546f6b656e204d657373656e6765722063616e2774206265207a65604482015269726f206164647265737360b01b6064820152608490fd5b5f80fd5b631e4fbdf760e01b5f525f60045260245ffd5b634e487b7160e01b5f52604160045260245ffd5b6040519060c082016001600160401b0381118382101761037757604052565b6040519190601f01601f191682016001600160401b0381118382101761037757604052565b51906001600160a01b03821682036103605756fe60806040526004361015610051575b3461004d5760405162461bcd60e51b8152602060048201526012602482015271119d5b98dd1a5bdb881b9bdd08199bdd5b9960721b6044820152606490fd5b5f80fd5b5f3560e01c8063715018a61461084657806379502c55146107e25780638a4068dd146104945780638cc6acce146101cf5780638da5cb5b146101a85780638e8c68481461015e578063ce1b1d43146101365763f2fde38b0361000e573461004d57602036600319011261004d576004356001600160a01b0381169081900361004d576100db6109ae565b8015610123575f80546001600160a01b03198116831782556001600160a01b0316907f8be0079c531659141344cd1fd0a4f28419497f9722a3daafe3b4186f6b6457e09080a3005b631e4fbdf760e01b5f525f60045260245ffd5b3461004d575f36600319011261004d576001546040516001600160a01b039091168152602090f35b3461004d57602036600319011261004d576004356001600160a01b0381169081900361004d5761018c6109ae565b6bffffffffffffffffffffffff60a01b60015416176001555f80f35b3461004d575f36600319011261004d575f546040516001600160a01b039091168152602090f35b3461004d57602036600319011261004d5760043567ffffffffffffffff811161004d573660238201121561004d5780600401359061020c826108ef565b9161021a60405193846108cd565b8083526020830191366024838301011161004d57815f926024602093018537840101526102456109ae565b5f60a06040516102548161089d565b828152826020820152826040820152826060820152826080820152015260c08280518101031261004d576040519061028b8261089d565b51815260408201516020820190815260608301516001600160a01b038116810361004d576040830190815260808401519163ffffffff8316830361004d576060840192835260a08501516001600160a01b0381169590949086860361004d576080820195865260c00151956001600160a01b038716870361004d5760a082019687521561043c5785516001600160a01b0316156103eb5782516001600160a01b03161561039a575160025551600355516004805492516001600160c01b03199093166001600160a01b039283161760a09390931b63ffffffff60a01b16929092179091559051600580546001600160a01b03199081169284169290921790559151600680549093169116179055005b60405162461bcd60e51b815260206004820152602360248201527f496e707574206163636f756e742063616e2774206265207a65726f206164647260448201526265737360e81b6064820152608490fd5b60405162461bcd60e51b8152602060048201526024808201527f5472616e7366657220746f6b656e2063616e2774206265207a65726f206164646044820152637265737360e01b6064820152608490fd5b60405162461bcd60e51b815260206004820152602a60248201527f4343545020546f6b656e204d657373656e6765722063616e2774206265207a65604482015269726f206164647265737360b01b6064820152608490fd5b3461004d575f36600319011261004d576001546001600160a01b0316330361078b576040516104c28161089d565b600254815260035490602081019182526004549160018060a01b03831692604083019284845263ffffffff606082019260a01c16825260018060a01b0360055416916080820192835260018060a01b036006541695602060a08401918883526024604051809a81936370a0823160e01b835260048301525afa9687156106dd575f97610757575b508615808061074e575b156105935760405162461bcd60e51b81526020600482015260136024820152722737ba3434b733903a37903a3930b739b332b960691b6044820152606490fd5b8015610744575b610708579151610666965f93919081156107005750945b845160405163095ea7b360e01b60208201526001600160a01b039091166024820152604480820188905281529263ffffffff906105ef6064866108cd565b5116905160018060a01b0383511691604051976337e9a82760e11b60208a015260248901526044880152606487015260848601526084855261063260a4866108cd565b85519051604051635b0e93fb60e11b81529788936001600160a01b039384169385938793859390929091166004840161096e565b03925af19283156106dd576106b0945f946106e8575b50519051604051635b0e93fb60e11b81529485936001600160a01b039384169385938793859390929091166004840161096e565b03925af180156106dd576106c057005b6106db903d805f833e6106d381836108cd565b81019061090b565b005b6040513d5f823e3d90fd5b6106fb903d8087833e6106d381836108cd565b61067c565b9050946105b1565b60405162461bcd60e51b8152602060048201526014602482015273496e73756666696369656e742062616c616e636560601b6044820152606490fd5b508251871061059a565b50835115610553565b9096506020813d602011610783575b81610773602093836108cd565b8101031261004d57519587610549565b3d9150610766565b60405162461bcd60e51b815260206004820152602960248201527f4f6e6c79207468652070726f636573736f722063616e2063616c6c207468697360448201526810333ab731ba34b7b760b91b6064820152608490fd5b3461004d575f36600319011261004d576002546003546004546005546006546040805195865260208601949094526001600160a01b038084169486019490945260a092831c63ffffffff16606086015290831660808501529091169082015260c090f35b3461004d575f36600319011261004d5761085e6109ae565b5f80546001600160a01b0319811682556001600160a01b03167f8be0079c531659141344cd1fd0a4f28419497f9722a3daafe3b4186f6b6457e08280a3005b60c0810190811067ffffffffffffffff8211176108b957604052565b634e487b7160e01b5f52604160045260245ffd5b90601f8019910116810190811067ffffffffffffffff8211176108b957604052565b67ffffffffffffffff81116108b957601f01601f191660200190565b60208183031261004d5780519067ffffffffffffffff821161004d570181601f8201121561004d5780519061093f826108ef565b9261094d60405194856108cd565b8284526020838301011161004d57815f9260208093018386015e8301015290565b9060809260209160018060a01b031683525f82840152606060408401528051918291826060860152018484015e5f828201840152601f01601f1916010190565b5f546001600160a01b031633036109c157565b63118cdaa760e01b5f523360045260245ffdfea26469706673582212201039297818c8c260c99574de5b8d8fbc06dc741f6d1b7a1a2a446817468946fc64736f6c634300081d0033","linkReferences":{}},"methodIdentifiers":{"config()":"79502c55","owner()":"8da5cb5b","processor()":"ce1b1d43","renounceOwnership()":"715018a6","transfer()":"8a4068dd","transferOwnership(address)":"f2fde38b","updateConfig(bytes)":"8cc6acce","updateProcessor(address)":"8e8c6848"},"id":92}