{"abi":[{"type":"constructor","inputs":[{"name":"_owner","type":"address","internalType":"address"},{"name":"_processor","type":"address","internalType":"address"},{"name":"_verificationGateway","type":"address","internalType":"address"},{"name":"_storeCallbacks","type":"bool","internalType":"bool"}],"stateMutability":"nonpayable"},{"type":"function","name":"addAdminAddress","inputs":[{"name":"_admin","type":"address","internalType":"address"}],"outputs":[],"stateMutability":"nonpayable"},{"type":"function","name":"addRegistries","inputs":[{"name":"registries","type":"uint64[]","internalType":"uint64[]"},{"name":"users","type":"address[][]","internalType":"address[][]"},{"name":"vks","type":"bytes32[]","internalType":"bytes32[]"},{"name":"domainVk","type":"bytes32","internalType":"bytes32"},{"name":"validateBlockNumber","type":"bool[]","internalType":"bool[]"}],"outputs":[],"stateMutability":"nonpayable"},{"type":"function","name":"addStandardAuthorizations","inputs":[{"name":"_labels","type":"string[]","internalType":"string[]"},{"name":"_users","type":"address[][]","internalType":"address[][]"},{"name":"_authorizationData","type":"tuple[][]","internalType":"struct Authorization.AuthorizationData[][]","components":[{"name":"contractAddress","type":"address","internalType":"address"},{"name":"useFunctionSelector","type":"bool","internalType":"bool"},{"name":"functionSelector","type":"bytes4","internalType":"bytes4"},{"name":"callHash","type":"bytes32","internalType":"bytes32"}]}],"outputs":[],"stateMutability":"nonpayable"},{"type":"function","name":"adminAddresses","inputs":[{"name":"","type":"address","internalType":"address"}],"outputs":[{"name":"","type":"bool","internalType":"bool"}],"stateMutability":"view"},{"type":"function","name":"authorizations","inputs":[{"name":"","type":"string","internalType":"string"},{"name":"","type":"uint256","internalType":"uint256"}],"outputs":[{"name":"","type":"address","internalType":"address"}],"stateMutability":"view"},{"type":"function","name":"authorizationsData","inputs":[{"name":"","type":"string","internalType":"string"},{"name":"","type":"uint256","internalType":"uint256"}],"outputs":[{"name":"contractAddress","type":"address","internalType":"address"},{"name":"useFunctionSelector","type":"bool","internalType":"bool"},{"name":"functionSelector","type":"bytes4","internalType":"bytes4"},{"name":"callHash","type":"bytes32","internalType":"bytes32"}],"stateMutability":"view"},{"type":"function","name":"callbacks","inputs":[{"name":"","type":"uint64","internalType":"uint64"}],"outputs":[{"name":"executionResult","type":"uint8","internalType":"enum IProcessor.ExecutionResult"},{"name":"executedCount","type":"uint64","internalType":"uint64"},{"name":"data","type":"bytes","internalType":"bytes"}],"stateMutability":"view"},{"type":"function","name":"executeZKMessage","inputs":[{"name":"_message","type":"bytes","internalType":"bytes"},{"name":"_proof","type":"bytes","internalType":"bytes"},{"name":"_domainMessage","type":"bytes","internalType":"bytes"},{"name":"_domainProof","type":"bytes","internalType":"bytes"}],"outputs":[],"stateMutability":"nonpayable"},{"type":"function","name":"executionId","inputs":[],"outputs":[{"name":"","type":"uint64","internalType":"uint64"}],"stateMutability":"view"},{"type":"function","name":"getZkAuthorizationsList","inputs":[{"name":"registryId","type":"uint64","internalType":"uint64"}],"outputs":[{"name":"","type":"address[]","internalType":"address[]"}],"stateMutability":"view"},{"type":"function","name":"handleCallback","inputs":[{"name":"callbackData","type":"bytes","internalType":"bytes"}],"outputs":[],"stateMutability":"nonpayable"},{"type":"function","name":"owner","inputs":[],"outputs":[{"name":"","type":"address","internalType":"address"}],"stateMutability":"view"},{"type":"function","name":"processor","inputs":[],"outputs":[{"name":"","type":"address","internalType":"contract ProcessorBase"}],"stateMutability":"view"},{"type":"function","name":"removeAdminAddress","inputs":[{"name":"_admin","type":"address","internalType":"address"}],"outputs":[],"stateMutability":"nonpayable"},{"type":"function","name":"removeRegistries","inputs":[{"name":"registries","type":"uint64[]","internalType":"uint64[]"}],"outputs":[],"stateMutability":"nonpayable"},{"type":"function","name":"removeStandardAuthorizations","inputs":[{"name":"_labels","type":"string[]","internalType":"string[]"}],"outputs":[],"stateMutability":"nonpayable"},{"type":"function","name":"renounceOwnership","inputs":[],"outputs":[],"stateMutability":"nonpayable"},{"type":"function","name":"sendProcessorMessage","inputs":[{"name":"label","type":"string","internalType":"string"},{"name":"_message","type":"bytes","internalType":"bytes"}],"outputs":[],"stateMutability":"nonpayable"},{"type":"function","name":"storeCallbacks","inputs":[],"outputs":[{"name":"","type":"bool","internalType":"bool"}],"stateMutability":"view"},{"type":"function","name":"transferOwnership","inputs":[{"name":"newOwner","type":"address","internalType":"address"}],"outputs":[],"stateMutability":"nonpayable"},{"type":"function","name":"updateProcessor","inputs":[{"name":"_processor","type":"address","internalType":"address"}],"outputs":[],"stateMutability":"nonpayable"},{"type":"function","name":"updateVerificationGateway","inputs":[{"name":"_verificationGateway","type":"address","internalType":"address"}],"outputs":[],"stateMutability":"nonpayable"},{"type":"function","name":"validateBlockNumberExecution","inputs":[{"name":"","type":"uint64","internalType":"uint64"}],"outputs":[{"name":"","type":"bool","internalType":"bool"}],"stateMutability":"view"},{"type":"function","name":"verificationGateway","inputs":[],"outputs":[{"name":"","type":"address","internalType":"contract VerificationGateway"}],"stateMutability":"view"},{"type":"function","name":"zkAuthorizationLastExecutionBlock","inputs":[{"name":"","type":"uint64","internalType":"uint64"}],"outputs":[{"name":"","type":"uint64","internalType":"uint64"}],"stateMutability":"view"},{"type":"function","name":"zkAuthorizations","inputs":[{"name":"","type":"uint64","internalType":"uint64"},{"name":"","type":"uint256","internalType":"uint256"}],"outputs":[{"name":"","type":"address","internalType":"address"}],"stateMutability":"view"},{"type":"event","name":"AdminAddressAdded","inputs":[{"name":"admin","type":"address","indexed":true,"internalType":"address"}],"anonymous":false},{"type":"event","name":"AdminAddressRemoved","inputs":[{"name":"admin","type":"address","indexed":true,"internalType":"address"}],"anonymous":false},{"type":"event","name":"AuthorizationAdded","inputs":[{"name":"label","type":"string","indexed":false,"internalType":"string"}],"anonymous":false},{"type":"event","name":"AuthorizationRemoved","inputs":[{"name":"label","type":"string","indexed":false,"internalType":"string"}],"anonymous":false},{"type":"event","name":"CallbackReceived","inputs":[{"name":"executionId","type":"uint64","indexed":true,"internalType":"uint64"},{"name":"executionResult","type":"uint8","indexed":false,"internalType":"enum IProcessor.ExecutionResult"},{"name":"executedCount","type":"uint64","indexed":false,"internalType":"uint64"},{"name":"data","type":"bytes","indexed":false,"internalType":"bytes"}],"anonymous":false},{"type":"event","name":"OwnershipTransferred","inputs":[{"name":"previousOwner","type":"address","indexed":true,"internalType":"address"},{"name":"newOwner","type":"address","indexed":true,"internalType":"address"}],"anonymous":false},{"type":"error","name":"OwnableInvalidOwner","inputs":[{"name":"owner","type":"address","internalType":"address"}]},{"type":"error","name":"OwnableUnauthorizedAccount","inputs":[{"name":"account","type":"address","internalType":"address"}]},{"type":"error","name":"ReentrancyGuardReentrantCall","inputs":[]}],"bytecode":{"object":"0x60803461019357601f6132da38819003918201601f19168301916001600160401b038311848410176101975780849260809460405283398101031261019357610047816101ab565b610053602083016101ab565b906060610062604085016101ab565b93015190811515809203610193576001600160a01b0316918215610180575f80546001600160a01b031981168517825560405194916001600160a01b03909116907f8be0079c531659141344cd1fd0a4f28419497f9722a3daafe3b4186f6b6457e09080a3600180556001600160a01b031691821561013e575060028054600880546001600160a01b0319166001600160a01b0390961695909517909455600480546001600160401b03191690556001600160a81b03199093169190911760a09190911b60ff60a01b1617905560405161311a90816101c08239f35b62461bcd60e51b815260206004820181905260248201527f50726f636573736f722063616e6e6f74206265207a65726f20616464726573736044820152606490fd5b631e4fbdf760e01b5f525f60045260245ffd5b5f80fd5b634e487b7160e01b5f52604160045260245ffd5b51906001600160a01b03821682036101935756fe60806040526004361015610011575f80fd5b5f3560e01c80624fba00146122e8578063139a0bf214611e6a5780631de8d10f14611e2a5780631f532a2d14611daa578063311c737614611d4b57806332f8b25c14611c245780634273882514611be15780634ed38faf14611ba4578063685eb91e146119035780637003fdf4146115c4578063715018a61461156d57806376ce2dad146115475780638da5cb5b146115205780638e8c6848146114905780639273c4fb146113ca57806395101181146113655780639e7ccbe714610c59578063a34f92e814610c18578063aa2de6c314610bdb578063b06abffc14610bb6578063ce1b1d4314610b8e578063d00329b714610414578063d47256cf146103ec578063df0cab02146102b4578063f2fde38b1461022f5763fdba7ab814610136575f80fd5b3461022b57602036600319011261022b576001600160401b03610157612638565b165f52600360205260405f206001815491019060405191825f82549261017c846126f4565b808452936001811690811561020957506001146101c5575b506101a1925003836123e6565b6101c1604051928260ff6001600160401b03869560081c16911684612750565b0390f35b90505f9291925260205f20905f915b8183106101ed5750509060206101a1928201015f610194565b60209193508060019154838589010152019101909184926101d4565b9050602092506101a194915060ff191682840152151560051b8201015f610194565b5f80fd5b3461022b57602036600319011261022b57610248612350565b610250612ce7565b6001600160a01b031680156102a1575f80546001600160a01b03198116831782556001600160a01b0316907f8be0079c531659141344cd1fd0a4f28419497f9722a3daafe3b4186f6b6457e09080a3005b631e4fbdf760e01b5f525f60045260245ffd5b3461022b57602036600319011261022b576004356001600160401b03811161022b576102e4903690600401612662565b6102ec612ce7565b5f5b81518110156103ea576008546001600160a01b0316906001600160401b0361031682856127cd565b5116823b1561022b575f9260248492604051958693849263039e7e5f60e01b845260048401525af19182156103df576001926103cf575b506001600160401b0361036082856127cd565b51165f52600960205261037560405f206127f7565b6001600160401b0361038782856127cd565b51165f52600b60205260405f206001600160401b031981541690556001600160401b036103b482856127cd565b51165f52600a60205260405f2060ff198154169055016102ee565b5f6103d9916123e6565b8361034d565b6040513d5f823e3d90fd5b005b3461022b575f36600319011261022b576008546040516001600160a01b039091168152602090f35b3461022b57604036600319011261022b576004356001600160401b03811161022b576104449036906004016126c7565b6024356001600160401b03811161022b576104666104759136906004016126c7565b61046e612d0d565b3691612439565b9160606020604051610486816123b0565b5f81520152825183019060208483031261022b5760208401516001600160401b03811161022b5784019160408382031261022b57604051926104c7846123b0565b6020810151600581101561022b5784526040810151916001600160401b03831161022b576104fc926020809201920101612860565b936020830194855282516005811015610b7a57600303610b0b575061052b845160208082518301019101612b74565b60206040820180515161053d81612a6b565b61054681612a6b565b6108b157510151948551860195602087019060208189031261022b576020810151906001600160401b03821161022b570160a08189031261022b576040519761058e896123b0565b60208201516001600160401b03811161022b5760209083010183601f8201121561022b578051906105be82612407565b926105cc60405194856123e6565b82845260208085019360051b8301019186831161022b57602001925b82841061087f575050505061060392916040918a5201612d58565b6020870152855151801515908161086f575b50610804576106278695965151612deb565b935f9660808401975b875180518210156106c457600191906001600160a01b03906106539083906127cd565b51511661066a610664838d516127cd565b51612e52565b610675838d516127cd565b5160208151910120906040519261068b8461237a565b8352602083018590526001600160e01b031916604083015260608201526106b2828a6127cd565b526106bd81896127cd565b5001610630565b5050919550939195506106d79233612e8f565b156107c45761070e61073a9261071c61072c955b5f60208201526001600160401b0360045416815260405193849160208301612c2f565b03601f1981018452836123e6565b5260405192839160208301612cba565b03601f1981018352826123e6565b6002546001600160a01b0316803b1561022b576040516304e2f55f60e11b815260206004820152905f908290818381610776602482018961272c565b03925af180156103df576107b4575b6004546001600160401b0361079b818316612c9d565b67ffffffffffffffff1990921691161760045560018055005b5f6107be916123e6565b80610785565b60405162461bcd60e51b8152602060048201526013602482015272556e617574686f72697a65642061636365737360681b604482015280606481015b0390fd5b60405162461bcd60e51b815260206004820152603a60248201527f537562726f7574696e652066756e6374696f6e73206c656e67746820646f657360448201527f206e6f74206d61746368206d65737361676573206c656e6774680000000000006064820152608490fd5b9050608083015151141587610615565b602080858403011261022b576020809160405161089b816123cb565b6108a487612d44565b81528152019301926105e8565b5101519485518601602081019660208183031261022b576020810151906001600160401b03821161022b57019660208883031261022b57604051976108f5896123cb565b60208101516001600160401b03811161022b57602091010181601f8201121561022b5780519261092484612407565b9361093260405195866123e6565b80855260208086019160051b8401019284841161022b5760208101915b848310610a4e57505050505050808752518015159081610a3e575b506108045761097c8695965151612deb565b935f9660808401975b87518051821015610a1357600191906001600160a01b03906109a89083906127cd565b5151166109b9610664838d516127cd565b6109c4838d516127cd565b516020815191012090604051926109da8461237a565b8352602083018590526001600160e01b03191660408301526060820152610a01828a6127cd565b52610a0c81896127cd565b5001610985565b505091955093919550610a269233612e8f565b156107c45761070e61073a9261071c61072c956106eb565b905060808301515114158761096a565b82516001600160401b03811161022b5782019060c08286031261022b5760405191610a7883612395565b610a8460208201612d44565b8352610a938860408301612d58565b602084015260c08101516001600160401b03811161022b570160208101919060409087031261022b5760405192610ac9846123b0565b610ad283612d44565b84526020830151936001600160401b03851161022b57610af78a602096879601612860565b84820152604082015281520192019161094f565b919392505082516005811015610b7a57600403610b6f575061072c9161070e610b6a92610b36612d2d565b61071c610b4d82516020808251830101910161299f565b6001600160401b0360045416815260405193849160208301612af3565b61073a565b915050610b6a612d2d565b634e487b7160e01b5f52602160045260245ffd5b3461022b575f36600319011261022b576002546040516001600160a01b039091168152602090f35b3461022b575f36600319011261022b57602060ff60025460a01c166040519015158152f35b3461022b57602036600319011261022b576001600160401b03610bfc612638565b165f52600a602052602060ff60405f2054166040519015158152f35b3461022b57602036600319011261022b576001600160401b03610c39612638565b165f52600b60205260206001600160401b0360405f205416604051908152f35b3461022b57608036600319011261022b576004356001600160401b03811161022b57610c899036906004016126c7565b6024356001600160401b03811161022b57610ca89036906004016126c7565b6044356001600160401b03811161022b57610cc79036906004016126c7565b90926064356001600160401b03811161022b57610ce89036906004016126c7565b959093610cf3612d0d565b6008546001600160a01b0316918215611320578060201161022b5788358560201161022b578735036112db578881019660208a8903601f19011261022b5760208a01356001600160401b03811161022b578a01956080878a03601f19011261022b5760405197610d628961237a565b610d6e6020890161264e565b8952610d7c6040890161264e565b9760208a01988952610d9060608201612366565b9060408b0191825260808101356001600160401b03811161022b5760209101016040818d031261022b576040519b610dc78d6123b0565b8135600581101561022b578d5260208201356001600160401b03811161022b57610df1920161246f565b60208c015260608a019a8b52516001600160a01b031680151590816112d0575b5061128b576001600160401b038951165f52600960205260405f209a604051808d6020829f549384815201905f5260205f20925f5b818110611266575050610e5b9250038d6123e6565b5f9b5f5b815181101561125457336001600160a01b03610e7b83856127cd565b5116148015611239575b610e9157600101610e5f565b5050909192939495969798999a5060015b156111e5576001600160401b038a51165f52600a60205260ff60405f2054169b8c611178575b8a516040516356fd623360e11b81526001600160401b03909116600482015260a06024820152988997889791610f029160a48a01916128a6565b90600319888303016044890152610f18926128a6565b90600319868303016064870152610f2e926128a6565b90600319848303016084850152610f44926128a6565b03815a6020945f91f19081156103df575f9161113d575b50156110f857610f6b83516128c6565b6005811015610b7a576003036110935761070e9361072c610fba610f9d60208751015160208082518301019101612b74565b6001600160401b0360045416815260405192839160208301612c2f565b6020855101525b6004546001600160401b03610fd7818316612c9d565b16906001600160401b03191617600455611062575b505061100d60018060a01b0360025416915160405193849160208301612cba565b803b1561022b576040516304e2f55f60e11b815260206004820152905f90829081838161103d602482018961272c565b03925af180156103df57611052575b60018055005b5f61105c916123e6565b8061104c565b6001600160401b03809151169151165f52600b60205260405f20906001600160401b03198254161790558280610fec565b61109d83516128c6565b936005851015610b7a57600461070e9503610fc15761072c6110ed6110d06020875101516020808251830101910161299f565b6001600160401b0360045416815260405192839160208301612af3565b602085510152610fc1565b60405162461bcd60e51b815260206004820152601960248201527f50726f6f6620766572696669636174696f6e206661696c6564000000000000006044820152606490fd5b90506020813d602011611170575b81611158602093836123e6565b8101031261022b5751801515810361022b5785610f5b565b3d915061114b565b6001600160401b038a51166001600160401b038c51165f52600b6020526001600160401b0360405f20541610610ec85760405162461bcd60e51b8152602060048201526015602482015274141c9bdbd9881b9bc81b1bdb99d95c881d985b1a59605a1b6044820152606490fd5b60405162461bcd60e51b815260206004820152602660248201527f556e617574686f72697a6564206164647265737320666f72207468697320726560448201526567697374727960d01b6064820152608490fd5b506001600160a01b0361124c82846127cd565b511615610e85565b5050909192939495969798999a610ea2565b91600191935060208291828060a01b0387541681520194019101918f92939193610e46565b60405162461bcd60e51b815260206004820152601e60248201527f496e76616c696420617574686f72697a6174696f6e20636f6e747261637400006044820152606490fd5b90503014158d610e11565b60405162461bcd60e51b815260206004820152601960248201527f436f70726f636573736f7220726f6f74206d69736d61746368000000000000006044820152606490fd5b60405162461bcd60e51b815260206004820152601c60248201527f566572696669636174696f6e2067617465776179206e6f7420736574000000006044820152606490fd5b3461022b57602036600319011261022b5761137e612350565b611386612ce7565b6001600160a01b03165f818152600560205260408120805460ff191690557fc41dab03d4639245f86ebd733046feb495209977c224698a4d1318fec207af5a9080a2005b3461022b57602036600319011261022b576001600160401b036113eb612638565b165f52600960205260405f20604051806020835491828152019081935f5260205f20905f5b81811061147157505050816114269103826123e6565b604051918291602083019060208452518091526040830191905f5b81811061144f575050500390f35b82516001600160a01b0316845285945060209384019390920191600101611441565b82546001600160a01b0316845260209093019260019283019201611410565b3461022b57602036600319011261022b576114a9612350565b6114b1612ce7565b6001600160a01b031680156114dc576bffffffffffffffffffffffff60a01b60025416176002555f80f35b606460405162461bcd60e51b815260206004820152602060248201527f50726f636573736f722063616e6e6f74206265207a65726f20616464726573736044820152fd5b3461022b575f36600319011261022b575f546040516001600160a01b039091168152602090f35b3461022b575f36600319011261022b5760206001600160401b0360045416604051908152f35b3461022b575f36600319011261022b57611585612ce7565b5f80546001600160a01b0319811682556001600160a01b03167f8be0079c531659141344cd1fd0a4f28419497f9722a3daafe3b4186f6b6457e08280a3005b3461022b57602036600319011261022b576004356001600160401b03811161022b576115f490369060040161246f565b6002546001600160a01b03811633036118b057815182019160208184031261022b576020810151906001600160401b03821161022b57019060808284031261022b576040516116428161237a565b61164e6020840161284c565b8152604083015193600485101561022b5760208201948552606084015193604083019485526080810151906001600160401b03821161022b57602061169a928160ff9501920101612860565b926060830193845260a01c16611703575b6001600160401b0390511692516004811015610b7a576116fe6001600160401b037f0e6a5a94daf01fa3e93aa95500023d6dfb25b727e94114d9ff2a2bad85f1f3ea945116925160405193849384612750565b0390a2005b83516004811015610b7a576001600160401b038451168351916040519061172982612395565b815260208101918252604081019283526001600160401b038451165f52600360205260405f2090516004811015610b7a5760019260ff68ffffffffffffffff008454925160081b1692169068ffffffffffffffffff1916171781550190518051906001600160401b03821161189c576117a283546126f4565b601f8111611861575b50602090601f83116001146117f4576001600160401b03949392915f91836117e9575b50508160011b915f199060031b1c19161790555b90506116ab565b0151905088806117ce565b90601f19831691845f52815f20925f5b81811061184957509160019391856001600160401b039897969410611831575b505050811b0190556117e2565b01515f1960f88460031b161c19169055888080611824565b92936020600181928786015181550195019301611804565b61188c90845f5260205f20601f850160051c81019160208610611892575b601f0160051c01906127e1565b876117ab565b909150819061187f565b634e487b7160e01b5f52604160045260245ffd5b60405162461bcd60e51b815260206004820152602560248201527f4f6e6c792070726f636573736f722063616e2063616c6c20746869732066756e60448201526431ba34b7b760d91b6064820152608490fd5b3461022b5760a036600319011261022b576004356001600160401b03811161022b57611933903690600401612662565b6024356001600160401b03811161022b5761195290369060040161250b565b6044356001600160401b03811161022b573660238201121561022b5780600401356001600160401b03811161022b573660248260051b8401011161022b57608435926064356001600160401b03851161022b573660238601121561022b578460040135946119bf86612407565b956119cd60405197886123e6565b8087526024602088019160051b8301019136831161022b57602401905b828210611b8c575050506119fc612ce7565b611a188251875181149081611b82575b81611b77575b50612781565b5f5b86518110156103ea576008546001600160a01b03166001600160401b03611a41838a6127cd565b511685831015611b6357813b1561022b575f91606483926040519485938492639f3ebea560e01b8452600484015260248860051b8d01013560248401528860448401525af180156103df57611b53575b50611a9c81846127cd565b516001600160401b03611aaf838a6127cd565b51165f52600960205260405f208151916001600160401b03831161189c57602090611ada848461281a565b01905f5260205f205f5b838110611b36575050505080611afc600192886127cd565b51611b08575b01611a1a565b6001600160401b03611b1a828a6127cd565b51165f52600a60205260405f208260ff19825416179055611b02565b82516001600160a01b031681830155602090920191600101611ae4565b5f611b5d916123e6565b87611a91565b634e487b7160e01b5f52603260045260245ffd5b905086511488611a12565b8581149150611a0c565b60208091611b99846125e5565b8152019101906119ea565b3461022b57602036600319011261022b576001600160a01b03611bc5612350565b165f526005602052602060ff60405f2054166040519015158152f35b3461022b57602036600319011261022b57611bfa612350565b611c02612ce7565b600880546001600160a01b0319166001600160a01b0392909216919091179055005b3461022b57602036600319011261022b576004356001600160401b03811161022b57611c5490369060040161248d565b611c5c612ce7565b5f5b81518110156103ea57611c7181836127cd565b51604051815190602081818501938085835e810160078152030190208054905f815581611d00575b5050611cf760019392611ce37f9bfef6e4eb8e0a845f84b7d4b802555c3f98868a52a2c41dfd1c233c70c45317936020604051809285518091835e810160068152030190206127f7565b60405191829160208352602083019061272c565b0390a101611c5e565b6001600160ff1b0382168203611d37575f5260205f209060011b8101905b81811015611c99575f8082556001820155600201611d1e565b634e487b7160e01b5f52601160045260245ffd5b3461022b57604036600319011261022b57611d64612638565b6001600160401b0360243591165f52600960205260405f20805482101561022b57602091611d9191612623565b905460405160039290921b1c6001600160a01b03168152f35b3461022b57602080611dbb366125f2565b9290604051928184925191829101835e8101600781520301902090815481101561022b576080915f5260205f209060011b01600181549101546040519160018060a01b038116835260ff8160a01c161515602084015263ffffffff60e01b9060381b1660408301526060820152f35b3461022b57602080611e3b366125f2565b9290604051928184925191829101835e81016006815203019020805482101561022b57602091611d9191612623565b3461022b57606036600319011261022b576004356001600160401b03811161022b57611e9a90369060040161248d565b6024356001600160401b03811161022b57611eb990369060040161250b565b90604435916001600160401b03831161022b573660238401121561022b578260040135611ee581612407565b93611ef360405195866123e6565b8185526024602086019260051b8201019036821161022b5760248101925b82841061220e5750505050611f24612ce7565b611f3982518451811490816122035750612781565b5f5b82518110156103ea57611f4e81846127cd565b51611f5982846127cd565b518051156121be57611f6b83876127cd565b5190815115906040517f417574686f72697a6174696f6e20646174612061727261792063616e6e6f742060208201526d031329032b6b83a3c903337b91d160951b6040820152845192611fdb604e83602089019680888484015e81015f838201520301601f1981018452836123e6565b61219a575060405160208186518086835e810160068152030190208151916001600160401b03831161189c57602090612014848461281a565b01905f5260205f205f5b83811061217d57505050506020604051809285518091835e81016007815203019020815191600160401b831161189c57815483835580841061212b575b50602001905f5260205f20905f905b8382106120ba5750505050907fc25a9f2d765939f3e875d5a89a3b55326d95232ce8f5f8dd88b6720a6616f5596120b160019360405191829160208352602083019061272c565b0390a101611f3b565b80518051845460208381015160408501516001600160c81b03199093166001600160a01b03949094169390931792151560a01b60ff60a01b169290921760389190911c63ffffffff60a81b16178555606091909101516001858101919091556002949094019392909201910161206a565b6001600160ff1b0381168103611d37576001600160ff1b0384168403611d3757825f5260205f209060011b8101908460011b015b81811061216c575061205b565b5f808255600182015560020161215f565b82516001600160a01b03168183015560209092019160010161201e565b60405162461bcd60e51b81526020600482015290819061080090602483019061272c565b60405162461bcd60e51b815260206004820152601b60248201527f55736572732061727261792063616e6e6f7420626520656d70747900000000006044820152606490fd5b905082511485611a12565b83356001600160401b03811161022b5782013660438201121561022b57602481013561223981612407565b9161224760405193846123e6565b818352602060248185019360071b830101019036821161022b57604401915b81831061227e57505050815260209384019301611f11565b60808336031261022b57604051906122958261237a565b61229e84612366565b82526122ac602085016125e5565b60208301526040840135906001600160e01b03198216820361022b57826020926040608095015260608601356060820152815201920191612266565b3461022b57602036600319011261022b57612301612350565b612309612ce7565b6001600160a01b03165f818152600560205260408120805460ff191660011790557f089aa9975328102f8cdff40d2e2b75ad3b940f83f42c2e13c43ed875ff8f046a9080a2005b600435906001600160a01b038216820361022b57565b35906001600160a01b038216820361022b57565b608081019081106001600160401b0382111761189c57604052565b606081019081106001600160401b0382111761189c57604052565b604081019081106001600160401b0382111761189c57604052565b602081019081106001600160401b0382111761189c57604052565b90601f801991011681019081106001600160401b0382111761189c57604052565b6001600160401b03811161189c5760051b60200190565b6001600160401b03811161189c57601f01601f191660200190565b9291926124458261241e565b9161245360405193846123e6565b82948184528183011161022b578281602093845f960137010152565b9080601f8301121561022b5781602061248a93359101612439565b90565b9080601f8301121561022b5781356124a481612407565b926124b260405194856123e6565b81845260208085019260051b8201019183831161022b5760208201905b8382106124de57505050505090565b81356001600160401b03811161022b576020916125008784809488010161246f565b8152019101906124cf565b9080601f8301121561022b5781359061252382612407565b9261253160405194856123e6565b82845260208085019360051b8201019082821161022b5760208101935b82851061255d57505050505090565b84356001600160401b03811161022b57820184603f8201121561022b5760208101359061258982612407565b9161259760405193846123e6565b8083526020808085019260051b840101019187831161022b57604001905b8282106125cd5750505081526020948501940161254e565b602080916125da84612366565b8152019101906125b5565b3590811515820361022b57565b604060031982011261022b57600435906001600160401b03821161022b5761261c9160040161246f565b9060243590565b8054821015611b63575f5260205f2001905f90565b600435906001600160401b038216820361022b57565b35906001600160401b038216820361022b57565b9080601f8301121561022b57813561267981612407565b9261268760405194856123e6565b81845260208085019260051b82010192831161022b57602001905b8282106126af5750505090565b602080916126bc8461264e565b8152019101906126a2565b9181601f8401121561022b578235916001600160401b03831161022b576020838186019501011161022b57565b90600182811c92168015612722575b602083101461270e57565b634e487b7160e01b5f52602260045260245ffd5b91607f1691612703565b805180835260209291819084018484015e5f828201840152601f01601f1916010190565b929190926004841015610b7a576001600160401b0360609261248a958352166020820152816040820152019061272c565b1561278857565b60405162461bcd60e51b815260206004820152601860248201527f4172726179206c656e67746873206d757374206d6174636800000000000000006044820152606490fd5b8051821015611b635760209160051b010190565b8181106127ec575050565b5f81556001016127e1565b80545f825580612805575050565b612818915f5260205f20908101906127e1565b565b90600160401b811161189c5781549080835581811061283857505050565b612818925f5260205f2091820191016127e1565b51906001600160401b038216820361022b57565b81601f8201121561022b578051906128778261241e565b9261288560405194856123e6565b8284526020838301011161022b57815f9260208093018386015e8301015290565b908060209392818452848401375f828201840152601f01601f1916010190565b516005811015610b7a5790565b919060408382031261022b57604051906128ec826123b0565b81938051600281101561022b5783526020810151916001600160401b03831161022b5760209261291c9201612860565b910152565b9080601f8301121561022b57815161293881612407565b9261294660405194856123e6565b81845260208085019260051b8201019183831161022b5760208201905b83821061297257505050505090565b81516001600160401b03811161022b5760209161299487848094880101612860565b815201910190612963565b60208183031261022b578051906001600160401b03821161022b570160c08183031261022b576040519160c083018381106001600160401b0382111761189c576040526129eb8261284c565b83526129f96020830161284c565b60208401526040820151600281101561022b57604084015260608201516001600160401b03811161022b5781612a309184016128d3565b6060840152612a416080830161284c565b608084015260a08201516001600160401b03811161022b57612a639201612921565b60a082015290565b60021115610b7a57565b906040602061248a938051612a8981612a6b565b8452015191816020820152019061272c565b9080602083519182815201916020808360051b8301019401925f915b838310612ac657505050505090565b9091929394602080612ae4600193601f19868203018752895161272c565b97019301930191939290612ab7565b9061248a91602081526001600160401b0382511660208201526001600160401b0360208301511660408201526040820151612b2d81612a6b565b606082015260a0612b4d606084015160c0608085015260e0840190612a75565b926001600160401b036080820151168284015201519060c0601f1982850301910152612a9b565b60208183031261022b578051906001600160401b03821161022b570160a08183031261022b576040519160a083018381106001600160401b0382111761189c57604052612bc08261284c565b83526020820151600281101561022b57602084015260408201516001600160401b03811161022b5781612bf49184016128d3565b6040840152612c056060830161284c565b606084015260808201516001600160401b03811161022b57612c279201612921565b608082015290565b9061248a91602081526001600160401b0382511660208201526020820151612c5681612a6b565b60408201526080612c76604084015160a0606085015260c0840190612a75565b926001600160401b036060820151168284015201519060a0601f1982850301910152612a9b565b6001600160401b03166001600160401b038114611d375760010190565b602081528151916005831015610b7a57602060609161248a9482850152015191604080820152019061272c565b5f546001600160a01b03163303612cfa57565b63118cdaa760e01b5f523360045260245ffd5b600260015414612d1e576002600155565b633ee5aeb560e01b5f5260045ffd5b335f52600560205260ff60405f205416156107c457565b51906001600160a01b038216820361022b57565b80929103916080831261022b5760405190612d72826123b0565b81936040811261022b5760405190612d89826123b0565b825191600383101561022b576040928152612da66020850161284c565b60208201528452603f19011261022b5760405191612dc3836123b0565b604082015191600283101561022b576060612de39160209486520161284c565b828401520152565b90612df582612407565b612e0260405191826123e6565b8281528092612e13601f1991612407565b01905f5b828110612e2357505050565b602090604051612e328161237a565b5f81525f838201525f60408201525f606082015282828501015201612e17565b80516020909101516001600160e01b0319811692919060048210612e74575050565b6001600160e01b031960049290920360031b82901b16169150565b929190604051828282376020818481016006815203019020604051808260208294549384815201905f5260205f20925f5b8181106130c2575050612ed5925003826123e6565b5f945f5b82518110156130b7576001600160a01b03612ef482856127cd565b51166001600160a01b03831614801561309c575b612f1457600101612ed9565b5050509091925060015b156130075760209082604051938492833781016007815203019020908154612f4581612407565b92612f5360405194856123e6565b81845260208401905f5260205f205f915b83831061304757505050508151815103613041575f5b8251811015613039576001600160a01b03612f9582856127cd565b5151166001600160a01b03612faa83856127cd565b51511603613007576020612fbe82856127cd565b5101511561300e576001600160e01b03196040612fdb83866127cd565b510151166001600160e01b03196040612ff484866127cd565b5101511603613007576001905b01612f7a565b5050505f90565b606061301a82856127cd565b510151606061302983856127cd565b5101510361300757600190613001565b505050600190565b50505f90565b6002602060019260405161305a8161237a565b8554858060a01b038116825260ff8160a01c1615158483015263ffffffff60e01b9060381b166040820152848601546060820152815201920192019190612f64565b506001600160a01b036130af82856127cd565b511615612f08565b505050909192612f1e565b84546001600160a01b0316835260019485019486945060209093019201612ec056fea26469706673582212201cd4fbed0235f8611c31aed527cb61434328568357901e493f777eed0141a95864736f6c634300081d0033","linkReferences":{}},"methodIdentifiers":{"addAdminAddress(address)":"004fba00","addRegistries(uint64[],address[][],bytes32[],bytes32,bool[])":"685eb91e","addStandardAuthorizations(string[],address[][],(address,bool,bytes4,bytes32)[][])":"139a0bf2","adminAddresses(address)":"4ed38faf","authorizations(string,uint256)":"1de8d10f","authorizationsData(string,uint256)":"1f532a2d","callbacks(uint64)":"fdba7ab8","executeZKMessage(bytes,bytes,bytes,bytes)":"9e7ccbe7","executionId()":"76ce2dad","getZkAuthorizationsList(uint64)":"9273c4fb","handleCallback(bytes)":"7003fdf4","owner()":"8da5cb5b","processor()":"ce1b1d43","removeAdminAddress(address)":"95101181","removeRegistries(uint64[])":"df0cab02","removeStandardAuthorizations(string[])":"32f8b25c","renounceOwnership()":"715018a6","sendProcessorMessage(string,bytes)":"d00329b7","storeCallbacks()":"b06abffc","transferOwnership(address)":"f2fde38b","updateProcessor(address)":"8e8c6848","updateVerificationGateway(address)":"42738825","validateBlockNumberExecution(uint64)":"aa2de6c3","verificationGateway()":"d47256cf","zkAuthorizationLastExecutionBlock(uint64)":"a34f92e8","zkAuthorizations(uint64,uint256)":"311c7376"},"id":47}