{"abi":[{"type":"constructor","inputs":[{"name":"_owner","type":"address","internalType":"address"},{"name":"_processor","type":"address","internalType":"address"},{"name":"_verificationGateway","type":"address","internalType":"address"},{"name":"_storeCallbacks","type":"bool","internalType":"bool"}],"stateMutability":"nonpayable"},{"type":"function","name":"addAdminAddress","inputs":[{"name":"_admin","type":"address","internalType":"address"}],"outputs":[],"stateMutability":"nonpayable"},{"type":"function","name":"addRegistries","inputs":[{"name":"registries","type":"uint64[]","internalType":"uint64[]"},{"name":"users","type":"address[][]","internalType":"address[][]"},{"name":"vks","type":"bytes32[]","internalType":"bytes32[]"},{"name":"validateBlockNumber","type":"bool[]","internalType":"bool[]"}],"outputs":[],"stateMutability":"nonpayable"},{"type":"function","name":"addStandardAuthorizations","inputs":[{"name":"_labels","type":"string[]","internalType":"string[]"},{"name":"_users","type":"address[][]","internalType":"address[][]"},{"name":"_authorizationData","type":"tuple[][]","internalType":"struct Authorization.AuthorizationData[][]","components":[{"name":"contractAddress","type":"address","internalType":"address"},{"name":"useFunctionSelector","type":"bool","internalType":"bool"},{"name":"functionSelector","type":"bytes4","internalType":"bytes4"},{"name":"callHash","type":"bytes32","internalType":"bytes32"}]}],"outputs":[],"stateMutability":"nonpayable"},{"type":"function","name":"adminAddresses","inputs":[{"name":"","type":"address","internalType":"address"}],"outputs":[{"name":"","type":"bool","internalType":"bool"}],"stateMutability":"view"},{"type":"function","name":"authorizations","inputs":[{"name":"","type":"string","internalType":"string"},{"name":"","type":"uint256","internalType":"uint256"}],"outputs":[{"name":"","type":"address","internalType":"address"}],"stateMutability":"view"},{"type":"function","name":"authorizationsData","inputs":[{"name":"","type":"string","internalType":"string"},{"name":"","type":"uint256","internalType":"uint256"}],"outputs":[{"name":"contractAddress","type":"address","internalType":"address"},{"name":"useFunctionSelector","type":"bool","internalType":"bool"},{"name":"functionSelector","type":"bytes4","internalType":"bytes4"},{"name":"callHash","type":"bytes32","internalType":"bytes32"}],"stateMutability":"view"},{"type":"function","name":"callbacks","inputs":[{"name":"","type":"uint64","internalType":"uint64"}],"outputs":[{"name":"executionResult","type":"uint8","internalType":"enum IProcessor.ExecutionResult"},{"name":"executedCount","type":"uint64","internalType":"uint64"},{"name":"data","type":"bytes","internalType":"bytes"}],"stateMutability":"view"},{"type":"function","name":"executeZKMessage","inputs":[{"name":"_message","type":"bytes","internalType":"bytes"},{"name":"_proof","type":"bytes","internalType":"bytes"}],"outputs":[],"stateMutability":"nonpayable"},{"type":"function","name":"executionId","inputs":[],"outputs":[{"name":"","type":"uint64","internalType":"uint64"}],"stateMutability":"view"},{"type":"function","name":"getZkAuthorizationsList","inputs":[{"name":"registryId","type":"uint64","internalType":"uint64"}],"outputs":[{"name":"","type":"address[]","internalType":"address[]"}],"stateMutability":"view"},{"type":"function","name":"handleCallback","inputs":[{"name":"callbackData","type":"bytes","internalType":"bytes"}],"outputs":[],"stateMutability":"nonpayable"},{"type":"function","name":"owner","inputs":[],"outputs":[{"name":"","type":"address","internalType":"address"}],"stateMutability":"view"},{"type":"function","name":"processor","inputs":[],"outputs":[{"name":"","type":"address","internalType":"contract ProcessorBase"}],"stateMutability":"view"},{"type":"function","name":"removeAdminAddress","inputs":[{"name":"_admin","type":"address","internalType":"address"}],"outputs":[],"stateMutability":"nonpayable"},{"type":"function","name":"removeRegistries","inputs":[{"name":"registries","type":"uint64[]","internalType":"uint64[]"}],"outputs":[],"stateMutability":"nonpayable"},{"type":"function","name":"removeStandardAuthorizations","inputs":[{"name":"_labels","type":"string[]","internalType":"string[]"}],"outputs":[],"stateMutability":"nonpayable"},{"type":"function","name":"renounceOwnership","inputs":[],"outputs":[],"stateMutability":"nonpayable"},{"type":"function","name":"sendProcessorMessage","inputs":[{"name":"label","type":"string","internalType":"string"},{"name":"_message","type":"bytes","internalType":"bytes"}],"outputs":[],"stateMutability":"nonpayable"},{"type":"function","name":"storeCallbacks","inputs":[],"outputs":[{"name":"","type":"bool","internalType":"bool"}],"stateMutability":"view"},{"type":"function","name":"transferOwnership","inputs":[{"name":"newOwner","type":"address","internalType":"address"}],"outputs":[],"stateMutability":"nonpayable"},{"type":"function","name":"updateProcessor","inputs":[{"name":"_processor","type":"address","internalType":"address"}],"outputs":[],"stateMutability":"nonpayable"},{"type":"function","name":"updateVerificationGateway","inputs":[{"name":"_verificationGateway","type":"address","internalType":"address"}],"outputs":[],"stateMutability":"nonpayable"},{"type":"function","name":"validateBlockNumberExecution","inputs":[{"name":"","type":"uint64","internalType":"uint64"}],"outputs":[{"name":"","type":"bool","internalType":"bool"}],"stateMutability":"view"},{"type":"function","name":"verificationGateway","inputs":[],"outputs":[{"name":"","type":"address","internalType":"contract VerificationGateway"}],"stateMutability":"view"},{"type":"function","name":"zkAuthorizationLastExecutionBlock","inputs":[{"name":"","type":"uint64","internalType":"uint64"}],"outputs":[{"name":"","type":"uint64","internalType":"uint64"}],"stateMutability":"view"},{"type":"function","name":"zkAuthorizations","inputs":[{"name":"","type":"uint64","internalType":"uint64"},{"name":"","type":"uint256","internalType":"uint256"}],"outputs":[{"name":"","type":"address","internalType":"address"}],"stateMutability":"view"},{"type":"event","name":"AdminAddressAdded","inputs":[{"name":"admin","type":"address","indexed":true,"internalType":"address"}],"anonymous":false},{"type":"event","name":"AdminAddressRemoved","inputs":[{"name":"admin","type":"address","indexed":true,"internalType":"address"}],"anonymous":false},{"type":"event","name":"AuthorizationAdded","inputs":[{"name":"label","type":"string","indexed":false,"internalType":"string"}],"anonymous":false},{"type":"event","name":"AuthorizationRemoved","inputs":[{"name":"label","type":"string","indexed":false,"internalType":"string"}],"anonymous":false},{"type":"event","name":"CallbackReceived","inputs":[{"name":"executionId","type":"uint64","indexed":true,"internalType":"uint64"},{"name":"executionResult","type":"uint8","indexed":false,"internalType":"enum IProcessor.ExecutionResult"},{"name":"executedCount","type":"uint64","indexed":false,"internalType":"uint64"},{"name":"data","type":"bytes","indexed":false,"internalType":"bytes"}],"anonymous":false},{"type":"event","name":"OwnershipTransferred","inputs":[{"name":"previousOwner","type":"address","indexed":true,"internalType":"address"},{"name":"newOwner","type":"address","indexed":true,"internalType":"address"}],"anonymous":false},{"type":"error","name":"OwnableInvalidOwner","inputs":[{"name":"owner","type":"address","internalType":"address"}]},{"type":"error","name":"OwnableUnauthorizedAccount","inputs":[{"name":"account","type":"address","internalType":"address"}]},{"type":"error","name":"ReentrancyGuardReentrantCall","inputs":[]}],"bytecode":{"object":"0x60803461019357601f6132c938819003918201601f19168301916001600160401b038311848410176101975780849260809460405283398101031261019357610047816101ab565b610053602083016101ab565b906060610062604085016101ab565b93015190811515809203610193576001600160a01b0316918215610180575f80546001600160a01b031981168517825560405194916001600160a01b03909116907f8be0079c531659141344cd1fd0a4f28419497f9722a3daafe3b4186f6b6457e09080a3600180556001600160a01b031691821561013e575060028054600880546001600160a01b0319166001600160a01b0390961695909517909455600480546001600160401b03191690556001600160a81b03199093169190911760a09190911b60ff60a01b1617905560405161310990816101c08239f35b62461bcd60e51b815260206004820181905260248201527f50726f636573736f722063616e6e6f74206265207a65726f20616464726573736044820152606490fd5b631e4fbdf760e01b5f525f60045260245ffd5b5f80fd5b634e487b7160e01b5f52604160045260245ffd5b51906001600160a01b03821682036101935756fe60806040526004361015610011575f80fd5b5f5f3560e01c80624fba0014612273578063139a0bf214611df55780631de8d10f14611db55780631f532a2d14611d35578063311c737614611cd657806332f8b25c14611bad5780634273882514611b6a5780634ed38faf14611b2d5780637003fdf4146117ee578063715018a61461179757806376ce2dad146117715780638da5cb5b1461174a5780638e8c6848146116ba5780639273c4fb146115f4578063951011811461158f578063a34f92e81461154e578063a4c7005014610f15578063aa2de6c314610ed8578063b06abffc14610eb2578063ce1b1d4314610e89578063d00329b7146106f9578063d47256cf146106d0578063df0cab021461058e578063f2fde38b14610508578063f5d08c19146102305763fdba7ab814610137575f80fd5b3461022d57602036600319011261022d576001600160401b036101586125d7565b1681526003602052604081206001815491016040518381949083549361017d856126e3565b808552946001811690811561020957506001146101c7575b50506101a392500383612371565b6101c3604051928260ff6001600160401b03869560081c1691168461273f565b0390f35b90809394925052602082205b8183106101ed5750509060206101a3928201015f80610195565b60209193508060019154838589010152019101909184926101d3565b915050602092506101a394915060ff191682840152151560051b8201015f80610195565b80fd5b503461022d57608036600319011261022d576004356001600160401b0381116105045761026190369060040161267e565b6024356001600160401b03811161050057610280903690600401612496565b90604435926001600160401b03841161022d573660238501121561022d578360040135926001600160401b038411610504573660248560051b8701011161050457606435946001600160401b0386116105005736602387011215610500578560040135956102ed87612392565b966102fb6040519889612371565b8088526024602089019160051b830101913683116104b757602401905b8282106104e85750505061032a612cd6565b61034682518551811490816104de575b816104d3575b50612770565b825b84518110156104cf576008546001600160a01b03166001600160401b0361036f83886127bc565b5116878310156104bb57813b156104b75785916044839260405194859384926321f342d760e01b8452600484015260248860051b8a01013560248401525af180156104ac57908591610493575b50506103c881846127bc565b516001600160401b036103db83886127bc565b511685526009602052604085208151916001600160401b03831161047f576020906104068484612809565b0190865260208620865b838110610462575050505080610428600192896127bc565b51610434575b01610348565b6001600160401b0361044682886127bc565b51168552600a60205260408520805460ff19168317905561042e565b82516001600160a01b031681830155602090920191600101610410565b634e487b7160e01b87526041600452602487fd5b8161049d91612371565b6104a857835f6103bc565b8380fd5b6040513d87823e3d90fd5b8580fd5b634e487b7160e01b86526032600452602486fd5b8380f35b90508751145f610340565b878114915061033a565b602080916104f584612570565b815201910190610318565b8280fd5b5080fd5b503461022d57602036600319011261022d576105226122db565b61052a612cd6565b6001600160a01b0316801561057a5781546001600160a01b03198116821783556001600160a01b03167f8be0079c531659141344cd1fd0a4f28419497f9722a3daafe3b4186f6b6457e08380a380f35b631e4fbdf760e01b82526004829052602482fd5b503461022d57602036600319011261022d576004356001600160401b038111610504576105bf90369060040161267e565b6105c7612cd6565b815b81518110156106cc5760085483906001600160a01b03166001600160401b036105f284866127bc565b5116813b1561050057829160248392604051948593849263039e7e5f60e01b845260048401525af180156106c1576106ac575b5050806001600160401b0361063c600193856127bc565b511684526009602052610651604085206127e6565b6001600160401b0361066382856127bc565b51168452600b60205260408420805467ffffffffffffffff191690556001600160401b0361069182856127bc565b51168452600a60205260408420805460ff19169055016105c9565b816106b691612371565b61050057825f610625565b6040513d84823e3d90fd5b8280f35b503461022d578060031936011261022d576008546040516001600160a01b039091168152602090f35b503461022d5761072061070b3661262e565b610719959395949294612cfc565b36916123c4565b92606060206040516107318161233b565b8481520152835184019160208584031261022d5760208501516001600160401b03811161050457850160408185031261050457604051936107718561233b565b602082015160058110156104a85785526040820151906001600160401b0382116104a8576107a692602091820192010161284f565b946020840195865283516005811015610e7557600303610ded57506107d5855160208082518301019101612b63565b926020604085018051516107e881612a5a565b6107f181612a5a565b610b76575101519384518501946020860190602081880312610b72576020810151906001600160401b0382116104b7570160a081880312610b7257604051966108398861233b565b60208201516001600160401b038111610b6e5760209083010183601f82011215610b6e5780519061086982612392565b926108776040519485612371565b82845260208085019360051b83010191868311610b6a57602001925b828410610b3857505050506108ae9291604091895201612d47565b60208601528451518015159081610b28575b50610abd576108d28596955151612dda565b966080820195845b8851805182101561096e57600191906001600160a01b03906108fd9083906127bc565b51511661091461090e838c516127bc565b51612e41565b61091f838c516127bc565b5160208151910120906040519261093584612305565b8352602083018590526001600160e01b0319166040830152606082015261095c828d6127bc565b52610967818c6127bc565b50016108da565b505091955093610982939792965033612e7e565b15610a7d5783926109bb6109e7926109c96109d9955b8760208201526001600160401b0360045416815260405193849160208301612c1e565b03601f198101845283612371565b5260405192839160208301612ca9565b03601f198101835282612371565b6002546001600160a01b0316803b15610a79576040516304e2f55f60e11b8152602060048201529183918391829084908290610a2790602483019061271b565b03925af180156106c157610a64575b506004546001600160401b03610a4d818316612c8c565b16906001600160401b031916176004556001805580f35b81610a6e91612371565b61022d57805f610a36565b5050fd5b60405162461bcd60e51b8152602060048201526013602482015272556e617574686f72697a65642061636365737360681b604482015280606481015b0390fd5b60405162461bcd60e51b815260206004820152603a60248201527f537562726f7574696e652066756e6374696f6e73206c656e67746820646f657360448201527f206e6f74206d61746368206d65737361676573206c656e6774680000000000006064820152608490fd5b905060808201515114155f6108c0565b6020808584030112610b6a5760208091604051610b5481612356565b610b5d87612d33565b8152815201930192610893565b8980fd5b8680fd5b8480fd5b5101519384518501946020860190602081880312610b72576020810151906001600160401b0382116104b7570195602087820312610b725760405196610bbb88612356565b6020810151906001600160401b038211610b6e579060209101019082601f830112156104b757815190610bed82612392565b93610bfb6040519586612371565b82855260208086019360051b85010193818511610de95760208101935b858510610d1957505050505050808652518015159081610d09575b50610abd57610c458596955151612dda565b966080820195845b88518051821015610cdb57600191906001600160a01b0390610c709083906127bc565b515116610c8161090e838c516127bc565b610c8c838c516127bc565b51602081519101209060405192610ca284612305565b8352602083018590526001600160e01b03191660408301526060820152610cc9828d6127bc565b52610cd4818c6127bc565b5001610c4d565b505091955093610cef939792965033612e7e565b15610a7d5783926109bb6109e7926109c96109d995610998565b905060808201515114155f610c33565b84516001600160401b038111610de557820160c081860312610de55760405190610d4282612320565b610d4e60208201612d33565b8252610d5d8560408301612d47565b602083015260c0810151906001600160401b038211610de157016020810190604090870312610ddd5760405190610d938261233b565b610d9c81612d33565b82526020810151906001600160401b038211610dd95791610dc58760209694938796940161284f565b848201526040820152815201940193610c18565b8d80fd5b8b80fd5b8c80fd5b8a80fd5b8880fd5b94915092508151936005851015610e615760048495145f14610e5657506109d9916109bb610e5192610e1d612d1c565b6109c9610e3482516020808251830101910161298e565b6001600160401b0360045416815260405193849160208301612ae2565b6109e7565b915050610e51612d1c565b634e487b7160e01b84526021600452602484fd5b634e487b7160e01b83526021600452602483fd5b503461022d578060031936011261022d576002546040516001600160a01b039091168152602090f35b503461022d578060031936011261022d57602060ff60025460a01c166040519015158152f35b503461022d57602036600319011261022d5760ff60406020926001600160401b03610f016125d7565b168152600a84522054166040519015158152f35b503461127257610f243661262e565b9290610f2e612cfc565b6008546001600160a01b0316908115611509578360201161127257828401926020818503601f1901126112725760208101356001600160401b038111611272578101916080838603601f1901126112725760405193610f8c85612305565b610f98602085016125ed565b8552610fa6604085016125ed565b9360208601948552610fba606082016122f1565b906040870191825260808101356001600160401b0381116112725760209101016040818903126112725760405197610ff18961233b565b8135600581101561127257895260208201356001600160401b0381116112725761101b92016123fa565b602088015260608601968752516001600160a01b031680151590816114fe575b506114b9576001600160401b038551165f52600960205260405f2097604051808a6020829c549384815201905f5260205f20925f5b8181106114975750506110859250038a612371565b5f985f5b815181101561148857336001600160a01b036110a583856127bc565b511614801561146d575b6110bb57600101611089565b505090919293949596975060015b15611419576001600160401b038651165f52600a60205260ff60405f20541697886113a0575b905f6020949392611145611133976001600160401b038b511692604051998a988997889663248b944360e21b88526004880152606060248801526064870191612895565b84810360031901604486015291612895565b03925af1908115611267575f91611365575b50156113205761116783516128b5565b600581101561130c576003036112a7576109bb936109d96111b661119960208751015160208082518301019101612b63565b6001600160401b0360045416815260405192839160208301612c1e565b6020855101525b6004546001600160401b036111d3818316612c8c565b16906001600160401b03191617600455611276575b505061120960018060a01b0360025416915160405193849160208301612ca9565b803b15611272576040516304e2f55f60e11b815260206004820152915f91839182908490829061123d90602483019061271b565b03925af1801561126757611254575b506001805580f35b61126091505f90612371565b5f5f61124c565b6040513d5f823e3d90fd5b5f80fd5b6001600160401b03809151169151165f52600b60205260405f20906001600160401b03198254161790555f806111e8565b6112b183516128b5565b93600585101561130c5760046109bb95036111bd576109d96113016112e46020875101516020808251830101910161298e565b6001600160401b0360045416815260405192839160208301612ae2565b6020855101526111bd565b634e487b7160e01b5f52602160045260245ffd5b60405162461bcd60e51b815260206004820152601960248201527f50726f6f6620766572696669636174696f6e206661696c6564000000000000006044820152606490fd5b90506020813d602011611398575b8161138060209383612371565b8101031261127257518015158103611272575f611157565b3d9150611373565b9291906001600160401b038651166001600160401b038851165f52600b6020526001600160401b0360405f20541610156113dc579091926110ef565b60405162461bcd60e51b8152602060048201526015602482015274141c9bdbd9881b9bc81b1bdb99d95c881d985b1a59605a1b6044820152606490fd5b60405162461bcd60e51b815260206004820152602660248201527f556e617574686f72697a6564206164647265737320666f72207468697320726560448201526567697374727960d01b6064820152608490fd5b506001600160a01b0361148082846127bc565b5116156110af565b505090919293949596976110c9565b84546001600160a01b031683526001948501948e945060209093019201611070565b60405162461bcd60e51b815260206004820152601e60248201527f496e76616c696420617574686f72697a6174696f6e20636f6e747261637400006044820152606490fd5b90503014155f61103b565b60405162461bcd60e51b815260206004820152601c60248201527f566572696669636174696f6e2067617465776179206e6f7420736574000000006044820152606490fd5b34611272576020366003190112611272576001600160401b0361156f6125d7565b165f52600b60205260206001600160401b0360405f205416604051908152f35b34611272576020366003190112611272576115a86122db565b6115b0612cd6565b6001600160a01b03165f818152600560205260408120805460ff191690557fc41dab03d4639245f86ebd733046feb495209977c224698a4d1318fec207af5a9080a2005b34611272576020366003190112611272576001600160401b036116156125d7565b165f52600960205260405f20604051806020835491828152019081935f5260205f20905f5b81811061169b5750505081611650910382612371565b604051918291602083019060208452518091526040830191905f5b818110611679575050500390f35b82516001600160a01b031684528594506020938401939092019160010161166b565b82546001600160a01b031684526020909301926001928301920161163a565b34611272576020366003190112611272576116d36122db565b6116db612cd6565b6001600160a01b03168015611706576bffffffffffffffffffffffff60a01b60025416176002555f80f35b606460405162461bcd60e51b815260206004820152602060248201527f50726f636573736f722063616e6e6f74206265207a65726f20616464726573736044820152fd5b34611272575f366003190112611272575f546040516001600160a01b039091168152602090f35b34611272575f3660031901126112725760206001600160401b0360045416604051908152f35b34611272575f366003190112611272576117af612cd6565b5f80546001600160a01b0319811682556001600160a01b03167f8be0079c531659141344cd1fd0a4f28419497f9722a3daafe3b4186f6b6457e08280a3005b34611272576020366003190112611272576004356001600160401b0381116112725761181e9036906004016123fa565b6002546001600160a01b0381163303611ada578151820191602081840312611272576020810151906001600160401b0382116112725701906080828403126112725760405161186c81612305565b6118786020840161283b565b815260408301519360048510156112725760208201948552606084015193604083019485526080810151906001600160401b0382116112725760206118c4928160ff950192010161284f565b926060830193845260a01c1661192d575b6001600160401b039051169251600481101561130c576119286001600160401b037f0e6a5a94daf01fa3e93aa95500023d6dfb25b727e94114d9ff2a2bad85f1f3ea94511692516040519384938461273f565b0390a2005b8351600481101561130c576001600160401b038451168351916040519061195382612320565b815260208101918252604081019283526001600160401b038451165f52600360205260405f209051600481101561130c5760019260ff68ffffffffffffffff008454925160081b1692169068ffffffffffffffffff1916171781550190518051906001600160401b038211611ac6576119cc83546126e3565b601f8111611a8b575b50602090601f8311600114611a1e576001600160401b03949392915f9183611a13575b50508160011b915f199060031b1c19161790555b90506118d5565b0151905088806119f8565b90601f19831691845f52815f20925f5b818110611a7357509160019391856001600160401b039897969410611a5b575b505050811b019055611a0c565b01515f1960f88460031b161c19169055888080611a4e565b92936020600181928786015181550195019301611a2e565b611ab690845f5260205f20601f850160051c81019160208610611abc575b601f0160051c01906127d0565b876119d5565b9091508190611aa9565b634e487b7160e01b5f52604160045260245ffd5b60405162461bcd60e51b815260206004820152602560248201527f4f6e6c792070726f636573736f722063616e2063616c6c20746869732066756e60448201526431ba34b7b760d91b6064820152608490fd5b34611272576020366003190112611272576001600160a01b03611b4e6122db565b165f526005602052602060ff60405f2054166040519015158152f35b3461127257602036600319011261127257611b836122db565b611b8b612cd6565b600880546001600160a01b0319166001600160a01b0392909216919091179055005b34611272576020366003190112611272576004356001600160401b03811161127257611bdd903690600401612418565b611be5612cd6565b5f5b8151811015611cd457611bfa81836127bc565b51604051815190602081818501938085835e810160078152030190208054905f815581611c89575b5050611c8060019392611c6c7f9bfef6e4eb8e0a845f84b7d4b802555c3f98868a52a2c41dfd1c233c70c45317936020604051809285518091835e810160068152030190206127e6565b60405191829160208352602083019061271b565b0390a101611be7565b6001600160ff1b0382168203611cc0575f5260205f209060011b8101905b81811015611c22575f8082556001820155600201611ca7565b634e487b7160e01b5f52601160045260245ffd5b005b3461127257604036600319011261127257611cef6125d7565b6001600160401b0360243591165f52600960205260405f20805482101561127257602091611d1c916125ae565b905460405160039290921b1c6001600160a01b03168152f35b3461127257602080611d463661257d565b9290604051928184925191829101835e81016007815203019020908154811015611272576080915f5260205f209060011b01600181549101546040519160018060a01b038116835260ff8160a01c161515602084015263ffffffff60e01b9060381b1660408301526060820152f35b3461127257602080611dc63661257d565b9290604051928184925191829101835e81016006815203019020805482101561127257602091611d1c916125ae565b34611272576060366003190112611272576004356001600160401b03811161127257611e25903690600401612418565b6024356001600160401b03811161127257611e44903690600401612496565b90604435916001600160401b0383116112725736602384011215611272578260040135611e7081612392565b93611e7e6040519586612371565b8185526024602086019260051b820101903682116112725760248101925b8284106121995750505050611eaf612cd6565b611ec4825184518114908161218e5750612770565b5f5b8251811015611cd457611ed981846127bc565b51611ee482846127bc565b5180511561214957611ef683876127bc565b5190815115906040517f417574686f72697a6174696f6e20646174612061727261792063616e6e6f742060208201526d031329032b6b83a3c903337b91d160951b6040820152845192611f66604e83602089019680888484015e81015f838201520301601f198101845283612371565b612125575060405160208186518086835e810160068152030190208151916001600160401b038311611ac657602090611f9f8484612809565b01905f5260205f205f5b83811061210857505050506020604051809285518091835e81016007815203019020815191600160401b8311611ac65781548383558084106120b6575b50602001905f5260205f20905f905b8382106120455750505050907fc25a9f2d765939f3e875d5a89a3b55326d95232ce8f5f8dd88b6720a6616f55961203c60019360405191829160208352602083019061271b565b0390a101611ec6565b80518051845460208381015160408501516001600160c81b03199093166001600160a01b03949094169390931792151560a01b60ff60a01b169290921760389190911c63ffffffff60a81b161785556060919091015160018581019190915560029490940193929092019101611ff5565b6001600160ff1b0381168103611cc0576001600160ff1b0384168403611cc057825f5260205f209060011b8101908460011b015b8181106120f75750611fe6565b5f80825560018201556002016120ea565b82516001600160a01b031681830155602090920191600101611fa9565b60405162461bcd60e51b815260206004820152908190610ab990602483019061271b565b60405162461bcd60e51b815260206004820152601b60248201527f55736572732061727261792063616e6e6f7420626520656d70747900000000006044820152606490fd5b905082511485610340565b83356001600160401b038111611272578201366043820112156112725760248101356121c481612392565b916121d26040519384612371565b818352602060248185019360071b830101019036821161127257604401915b81831061220957505050815260209384019301611e9c565b608083360312611272576040519061222082612305565b612229846122f1565b825261223760208501612570565b60208301526040840135906001600160e01b031982168203611272578260209260406080950152606086013560608201528152019201916121f1565b346112725760203660031901126112725761228c6122db565b612294612cd6565b6001600160a01b03165f818152600560205260408120805460ff191660011790557f089aa9975328102f8cdff40d2e2b75ad3b940f83f42c2e13c43ed875ff8f046a9080a2005b600435906001600160a01b038216820361127257565b35906001600160a01b038216820361127257565b608081019081106001600160401b03821117611ac657604052565b606081019081106001600160401b03821117611ac657604052565b604081019081106001600160401b03821117611ac657604052565b602081019081106001600160401b03821117611ac657604052565b90601f801991011681019081106001600160401b03821117611ac657604052565b6001600160401b038111611ac65760051b60200190565b6001600160401b038111611ac657601f01601f191660200190565b9291926123d0826123a9565b916123de6040519384612371565b829481845281830111611272578281602093845f960137010152565b9080601f8301121561127257816020612415933591016123c4565b90565b9080601f8301121561127257813561242f81612392565b9261243d6040519485612371565b81845260208085019260051b820101918383116112725760208201905b83821061246957505050505090565b81356001600160401b0381116112725760209161248b878480948801016123fa565b81520191019061245a565b9080601f83011215611272578135906124ae82612392565b926124bc6040519485612371565b82845260208085019360051b820101908282116112725760208101935b8285106124e857505050505090565b84356001600160401b03811161127257820184603f820112156112725760208101359061251482612392565b916125226040519384612371565b8083526020808085019260051b840101019187831161127257604001905b828210612558575050508152602094850194016124d9565b60208091612565846122f1565b815201910190612540565b3590811515820361127257565b604060031982011261127257600435906001600160401b038211611272576125a7916004016123fa565b9060243590565b80548210156125c3575f5260205f2001905f90565b634e487b7160e01b5f52603260045260245ffd5b600435906001600160401b038216820361127257565b35906001600160401b038216820361127257565b9181601f84011215611272578235916001600160401b038311611272576020838186019501011161127257565b6040600319820112611272576004356001600160401b038111611272578161265891600401612601565b92909291602435906001600160401b0382116112725761267a91600401612601565b9091565b9080601f8301121561127257813561269581612392565b926126a36040519485612371565b81845260208085019260051b82010192831161127257602001905b8282106126cb5750505090565b602080916126d8846125ed565b8152019101906126be565b90600182811c92168015612711575b60208310146126fd57565b634e487b7160e01b5f52602260045260245ffd5b91607f16916126f2565b805180835260209291819084018484015e5f828201840152601f01601f1916010190565b92919092600484101561130c576001600160401b03606092612415958352166020820152816040820152019061271b565b1561277757565b60405162461bcd60e51b815260206004820152601860248201527f4172726179206c656e67746873206d757374206d6174636800000000000000006044820152606490fd5b80518210156125c35760209160051b010190565b8181106127db575050565b5f81556001016127d0565b80545f8255806127f4575050565b612807915f5260205f20908101906127d0565b565b90600160401b8111611ac65781549080835581811061282757505050565b612807925f5260205f2091820191016127d0565b51906001600160401b038216820361127257565b81601f8201121561127257805190612866826123a9565b926128746040519485612371565b8284526020838301011161127257815f9260208093018386015e8301015290565b908060209392818452848401375f828201840152601f01601f1916010190565b51600581101561130c5790565b919060408382031261127257604051906128db8261233b565b8193805160028110156112725783526020810151916001600160401b0383116112725760209261290b920161284f565b910152565b9080601f8301121561127257815161292781612392565b926129356040519485612371565b81845260208085019260051b820101918383116112725760208201905b83821061296157505050505090565b81516001600160401b038111611272576020916129838784809488010161284f565b815201910190612952565b602081830312611272578051906001600160401b038211611272570160c081830312611272576040519160c083018381106001600160401b03821117611ac6576040526129da8261283b565b83526129e86020830161283b565b60208401526040820151600281101561127257604084015260608201516001600160401b0381116112725781612a1f9184016128c2565b6060840152612a306080830161283b565b608084015260a08201516001600160401b03811161127257612a529201612910565b60a082015290565b6002111561130c57565b9060406020612415938051612a7881612a5a565b8452015191816020820152019061271b565b9080602083519182815201916020808360051b8301019401925f915b838310612ab557505050505090565b9091929394602080612ad3600193601f19868203018752895161271b565b97019301930191939290612aa6565b9061241591602081526001600160401b0382511660208201526001600160401b0360208301511660408201526040820151612b1c81612a5a565b606082015260a0612b3c606084015160c0608085015260e0840190612a64565b926001600160401b036080820151168284015201519060c0601f1982850301910152612a8a565b602081830312611272578051906001600160401b038211611272570160a081830312611272576040519160a083018381106001600160401b03821117611ac657604052612baf8261283b565b83526020820151600281101561127257602084015260408201516001600160401b0381116112725781612be39184016128c2565b6040840152612bf46060830161283b565b606084015260808201516001600160401b03811161127257612c169201612910565b608082015290565b9061241591602081526001600160401b0382511660208201526020820151612c4581612a5a565b60408201526080612c65604084015160a0606085015260c0840190612a64565b926001600160401b036060820151168284015201519060a0601f1982850301910152612a8a565b6001600160401b03166001600160401b038114611cc05760010190565b60208152815191600583101561130c5760206060916124159482850152015191604080820152019061271b565b5f546001600160a01b03163303612ce957565b63118cdaa760e01b5f523360045260245ffd5b600260015414612d0d576002600155565b633ee5aeb560e01b5f5260045ffd5b335f52600560205260ff60405f20541615610a7d57565b51906001600160a01b038216820361127257565b8092910391608083126112725760405190612d618261233b565b8193604081126112725760405190612d788261233b565b8251916003831015611272576040928152612d956020850161283b565b60208201528452603f1901126112725760405191612db28361233b565b6040820151916002831015611272576060612dd29160209486520161283b565b828401520152565b90612de482612392565b612df16040519182612371565b8281528092612e02601f1991612392565b01905f5b828110612e1257505050565b602090604051612e2181612305565b5f81525f838201525f60408201525f606082015282828501015201612e06565b80516020909101516001600160e01b0319811692919060048210612e63575050565b6001600160e01b031960049290920360031b82901b16169150565b929190604051828282376020818481016006815203019020604051808260208294549384815201905f5260205f20925f5b8181106130b1575050612ec492500382612371565b5f945f5b82518110156130a6576001600160a01b03612ee382856127bc565b51166001600160a01b03831614801561308b575b612f0357600101612ec8565b5050509091925060015b15612ff65760209082604051938492833781016007815203019020908154612f3481612392565b92612f426040519485612371565b81845260208401905f5260205f205f915b83831061303657505050508151815103613030575f5b8251811015613028576001600160a01b03612f8482856127bc565b5151166001600160a01b03612f9983856127bc565b51511603612ff6576020612fad82856127bc565b51015115612ffd576001600160e01b03196040612fca83866127bc565b510151166001600160e01b03196040612fe384866127bc565b5101511603612ff6576001905b01612f69565b5050505f90565b606061300982856127bc565b510151606061301883856127bc565b51015103612ff657600190612ff0565b505050600190565b50505f90565b6002602060019260405161304981612305565b8554858060a01b038116825260ff8160a01c1615158483015263ffffffff60e01b9060381b166040820152848601546060820152815201920192019190612f53565b506001600160a01b0361309e82856127bc565b511615612ef7565b505050909192612f0d565b84546001600160a01b0316835260019485019486945060209093019201612eaf56fea2646970667358221220c9ba253d650d6709b08b09c6a8d8613cccfd866e0bf260d320f291b840ee4b4b64736f6c634300081d0033","linkReferences":{}},"methodIdentifiers":{"addAdminAddress(address)":"004fba00","addRegistries(uint64[],address[][],bytes32[],bool[])":"f5d08c19","addStandardAuthorizations(string[],address[][],(address,bool,bytes4,bytes32)[][])":"139a0bf2","adminAddresses(address)":"4ed38faf","authorizations(string,uint256)":"1de8d10f","authorizationsData(string,uint256)":"1f532a2d","callbacks(uint64)":"fdba7ab8","executeZKMessage(bytes,bytes)":"a4c70050","executionId()":"76ce2dad","getZkAuthorizationsList(uint64)":"9273c4fb","handleCallback(bytes)":"7003fdf4","owner()":"8da5cb5b","processor()":"ce1b1d43","removeAdminAddress(address)":"95101181","removeRegistries(uint64[])":"df0cab02","removeStandardAuthorizations(string[])":"32f8b25c","renounceOwnership()":"715018a6","sendProcessorMessage(string,bytes)":"d00329b7","storeCallbacks()":"b06abffc","transferOwnership(address)":"f2fde38b","updateProcessor(address)":"8e8c6848","updateVerificationGateway(address)":"42738825","validateBlockNumberExecution(uint64)":"aa2de6c3","verificationGateway()":"d47256cf","zkAuthorizationLastExecutionBlock(uint64)":"a34f92e8","zkAuthorizations(uint64,uint256)":"311c7376"},"id":47}